{
	"contracts/practice.sol": {
		"Broker": {
			"abi": [
				{
					"inputs": [],
					"stateMutability": "payable",
					"type": "constructor"
				},
				{
					"inputs": [],
					"name": "showAddresses",
					"outputs": [
						{
							"internalType": "address",
							"name": "bank_",
							"type": "address"
						},
						{
							"internalType": "address",
							"name": "customer_",
							"type": "address"
						},
						{
							"internalType": "address",
							"name": "this_",
							"type": "address"
						}
					],
					"stateMutability": "view",
					"type": "function"
				},
				{
					"inputs": [],
					"name": "useBank",
					"outputs": [
						{
							"internalType": "bool",
							"name": "success",
							"type": "bool"
						}
					],
					"stateMutability": "payable",
					"type": "function"
				}
			],
			"devdoc": {
				"kind": "dev",
				"methods": {},
				"version": 1
			},
			"evm": {
				"assembly": "    /* \"contracts/practice.sol\":593:1169  contract Broker {... */\n  mstore(0x40, 0x80)\n    /* \"contracts/practice.sol\":717:727  msg.sender */\n  caller\n    /* \"contracts/practice.sol\":706:714  customer */\n  0x01\n  0x00\n    /* \"contracts/practice.sol\":706:727  customer = msg.sender */\n  0x0100\n  exp\n  dup2\n  sload\n  dup2\n  0xffffffffffffffffffffffffffffffffffffffff\n  mul\n  not\n  and\n  swap1\n  dup4\n  0xffffffffffffffffffffffffffffffffffffffff\n  and\n  mul\n  or\n  swap1\n  sstore\n  pop\n    /* \"contracts/practice.sol\":745:755  new Bank() */\n  mload(0x40)\n  tag_3\n  swap1\n  tag_4\n  jump\t// in\ntag_3:\n  mload(0x40)\n  dup1\n  swap2\n  sub\n  swap1\n  0x00\n  create\n  dup1\n  iszero\n  dup1\n  iszero\n  tag_5\n  jumpi\n  returndatacopy(0x00, 0x00, returndatasize)\n  revert(0x00, returndatasize)\ntag_5:\n  pop\n    /* \"contracts/practice.sol\":738:742  bank */\n  0x00\n  0x00\n    /* \"contracts/practice.sol\":738:755  bank = new Bank() */\n  0x0100\n  exp\n  dup2\n  sload\n  dup2\n  0xffffffffffffffffffffffffffffffffffffffff\n  mul\n  not\n  and\n  swap1\n  dup4\n  0xffffffffffffffffffffffffffffffffffffffff\n  and\n  mul\n  or\n  swap1\n  sstore\n  pop\n    /* \"contracts/practice.sol\":593:1169  contract Broker {... */\n  jump(tag_6)\ntag_4:\n  dataSize(sub_1)\n  dup1\n  dataOffset(sub_1)\n  dup4\n  codecopy\n  add\n  swap1\n  jump\t// out\ntag_6:\n  dataSize(sub_0)\n  dup1\n  dataOffset(sub_0)\n  0x00\n  codecopy\n  0x00\n  return\nstop\n\nsub_0: assembly {\n        /* \"contracts/practice.sol\":593:1169  contract Broker {... */\n      mstore(0x40, 0x80)\n      jumpi(tag_1, lt(calldatasize, 0x04))\n      shr(0xe0, calldataload(0x00))\n      dup1\n      0x046916f1\n      eq\n      tag_2\n      jumpi\n      dup1\n      0xf4a67395\n      eq\n      tag_3\n      jumpi\n    tag_1:\n      revert(0x00, 0x00)\n        /* \"contracts/practice.sol\":771:961  function useBank() public payable returns(bool success) {    ... */\n    tag_2:\n      tag_4\n      tag_5\n      jump\t// in\n    tag_4:\n      mload(0x40)\n      tag_6\n      swap2\n      swap1\n      tag_7\n      jump\t// in\n    tag_6:\n      mload(0x40)\n      dup1\n      swap2\n      sub\n      swap1\n      return\n        /* \"contracts/practice.sol\":969:1166  function showAddresses() view public returns(address bank_, address customer_, address this_) {... */\n    tag_3:\n      callvalue\n      dup1\n      iszero\n      tag_8\n      jumpi\n      revert(0x00, 0x00)\n    tag_8:\n      pop\n      tag_9\n      tag_10\n      jump\t// in\n    tag_9:\n      mload(0x40)\n      tag_11\n      swap4\n      swap3\n      swap2\n      swap1\n      tag_12\n      jump\t// in\n    tag_11:\n      mload(0x40)\n      dup1\n      swap2\n      sub\n      swap1\n      return\n        /* \"contracts/practice.sol\":771:961  function useBank() public payable returns(bool success) {    ... */\n    tag_5:\n        /* \"contracts/practice.sol\":813:825  bool success */\n      0x00\n        /* \"contracts/practice.sol\":910:914  bank */\n      0x00\n      0x00\n      swap1\n      sload\n      swap1\n      0x0100\n      exp\n      swap1\n      div\n      0xffffffffffffffffffffffffffffffffffffffff\n      and\n        /* \"contracts/practice.sol\":902:920  address(bank).call */\n      0xffffffffffffffffffffffffffffffffffffffff\n      and\n        /* \"contracts/practice.sol\":928:937  msg.value */\n      callvalue\n        /* \"contracts/practice.sol\":902:953  address(bank).call{value: msg.value}(\"Hello World\") */\n      mload(0x40)\n      tag_14\n      swap1\n      tag_15\n      jump\t// in\n    tag_14:\n      0x00\n      mload(0x40)\n      dup1\n      dup4\n      sub\n      dup2\n      dup6\n      dup8\n      gas\n      call\n      swap3\n      pop\n      pop\n      pop\n      returndatasize\n      dup1\n      0x00\n      dup2\n      eq\n      tag_18\n      jumpi\n      mload(0x40)\n      swap2\n      pop\n      and(add(returndatasize, 0x3f), not(0x1f))\n      dup3\n      add\n      0x40\n      mstore\n      returndatasize\n      dup3\n      mstore\n      returndatasize\n      0x00\n      0x20\n      dup5\n      add\n      returndatacopy\n      jump(tag_17)\n    tag_18:\n      0x60\n      swap2\n      pop\n    tag_17:\n      pop\n        /* \"contracts/practice.sol\":888:953  (success, ) = address(bank).call{value: msg.value}(\"Hello World\") */\n      pop\n      dup1\n      swap2\n      pop\n      pop\n        /* \"contracts/practice.sol\":771:961  function useBank() public payable returns(bool success) {    ... */\n      swap1\n      jump\t// out\n        /* \"contracts/practice.sol\":969:1166  function showAddresses() view public returns(address bank_, address customer_, address this_) {... */\n    tag_10:\n        /* \"contracts/practice.sol\":1014:1027  address bank_ */\n      0x00\n        /* \"contracts/practice.sol\":1029:1046  address customer_ */\n      0x00\n        /* \"contracts/practice.sol\":1048:1061  address this_ */\n      0x00\n        /* \"contracts/practice.sol\":1090:1094  bank */\n      0x00\n      0x00\n      swap1\n      sload\n      swap1\n      0x0100\n      exp\n      swap1\n      div\n      0xffffffffffffffffffffffffffffffffffffffff\n      and\n        /* \"contracts/practice.sol\":1074:1095  bank_ = address(bank) */\n      swap3\n      pop\n        /* \"contracts/practice.sol\":1118:1126  customer */\n      0x01\n      0x00\n      swap1\n      sload\n      swap1\n      0x0100\n      exp\n      swap1\n      div\n      0xffffffffffffffffffffffffffffffffffffffff\n      and\n        /* \"contracts/practice.sol\":1106:1126  customer_ = customer */\n      swap2\n      pop\n        /* \"contracts/practice.sol\":1153:1157  this */\n      address\n        /* \"contracts/practice.sol\":1137:1158  this_ = address(this) */\n      swap1\n      pop\n        /* \"contracts/practice.sol\":969:1166  function showAddresses() view public returns(address bank_, address customer_, address this_) {... */\n      swap1\n      swap2\n      swap3\n      jump\t// out\n        /* \"#utility.yul\":7:97   */\n    tag_20:\n        /* \"#utility.yul\":41:48   */\n      0x00\n        /* \"#utility.yul\":84:89   */\n      dup2\n        /* \"#utility.yul\":77:90   */\n      iszero\n        /* \"#utility.yul\":70:91   */\n      iszero\n        /* \"#utility.yul\":59:91   */\n      swap1\n      pop\n        /* \"#utility.yul\":7:97   */\n      swap2\n      swap1\n      pop\n      jump\t// out\n        /* \"#utility.yul\":103:212   */\n    tag_21:\n        /* \"#utility.yul\":184:205   */\n      tag_31\n        /* \"#utility.yul\":199:204   */\n      dup2\n        /* \"#utility.yul\":184:205   */\n      tag_20\n      jump\t// in\n    tag_31:\n        /* \"#utility.yul\":179:182   */\n      dup3\n        /* \"#utility.yul\":172:206   */\n      mstore\n        /* \"#utility.yul\":103:212   */\n      pop\n      pop\n      jump\t// out\n        /* \"#utility.yul\":218:428   */\n    tag_7:\n        /* \"#utility.yul\":305:309   */\n      0x00\n        /* \"#utility.yul\":343:345   */\n      0x20\n        /* \"#utility.yul\":332:341   */\n      dup3\n        /* \"#utility.yul\":328:346   */\n      add\n        /* \"#utility.yul\":320:346   */\n      swap1\n      pop\n        /* \"#utility.yul\":356:421   */\n      tag_33\n        /* \"#utility.yul\":418:419   */\n      0x00\n        /* \"#utility.yul\":407:416   */\n      dup4\n        /* \"#utility.yul\":403:420   */\n      add\n        /* \"#utility.yul\":394:400   */\n      dup5\n        /* \"#utility.yul\":356:421   */\n      tag_21\n      jump\t// in\n    tag_33:\n        /* \"#utility.yul\":218:428   */\n      swap3\n      swap2\n      pop\n      pop\n      jump\t// out\n        /* \"#utility.yul\":434:560   */\n    tag_22:\n        /* \"#utility.yul\":471:478   */\n      0x00\n        /* \"#utility.yul\":511:553   */\n      0xffffffffffffffffffffffffffffffffffffffff\n        /* \"#utility.yul\":504:509   */\n      dup3\n        /* \"#utility.yul\":500:554   */\n      and\n        /* \"#utility.yul\":489:554   */\n      swap1\n      pop\n        /* \"#utility.yul\":434:560   */\n      swap2\n      swap1\n      pop\n      jump\t// out\n        /* \"#utility.yul\":566:662   */\n    tag_23:\n        /* \"#utility.yul\":603:610   */\n      0x00\n        /* \"#utility.yul\":632:656   */\n      tag_36\n        /* \"#utility.yul\":650:655   */\n      dup3\n        /* \"#utility.yul\":632:656   */\n      tag_22\n      jump\t// in\n    tag_36:\n        /* \"#utility.yul\":621:656   */\n      swap1\n      pop\n        /* \"#utility.yul\":566:662   */\n      swap2\n      swap1\n      pop\n      jump\t// out\n        /* \"#utility.yul\":668:786   */\n    tag_24:\n        /* \"#utility.yul\":755:779   */\n      tag_38\n        /* \"#utility.yul\":773:778   */\n      dup2\n        /* \"#utility.yul\":755:779   */\n      tag_23\n      jump\t// in\n    tag_38:\n        /* \"#utility.yul\":750:753   */\n      dup3\n        /* \"#utility.yul\":743:780   */\n      mstore\n        /* \"#utility.yul\":668:786   */\n      pop\n      pop\n      jump\t// out\n        /* \"#utility.yul\":792:1234   */\n    tag_12:\n        /* \"#utility.yul\":941:945   */\n      0x00\n        /* \"#utility.yul\":979:981   */\n      0x60\n        /* \"#utility.yul\":968:977   */\n      dup3\n        /* \"#utility.yul\":964:982   */\n      add\n        /* \"#utility.yul\":956:982   */\n      swap1\n      pop\n        /* \"#utility.yul\":992:1063   */\n      tag_40\n        /* \"#utility.yul\":1060:1061   */\n      0x00\n        /* \"#utility.yul\":1049:1058   */\n      dup4\n        /* \"#utility.yul\":1045:1062   */\n      add\n        /* \"#utility.yul\":1036:1042   */\n      dup7\n        /* \"#utility.yul\":992:1063   */\n      tag_24\n      jump\t// in\n    tag_40:\n        /* \"#utility.yul\":1073:1145   */\n      tag_41\n        /* \"#utility.yul\":1141:1143   */\n      0x20\n        /* \"#utility.yul\":1130:1139   */\n      dup4\n        /* \"#utility.yul\":1126:1144   */\n      add\n        /* \"#utility.yul\":1117:1123   */\n      dup6\n        /* \"#utility.yul\":1073:1145   */\n      tag_24\n      jump\t// in\n    tag_41:\n        /* \"#utility.yul\":1155:1227   */\n      tag_42\n        /* \"#utility.yul\":1223:1225   */\n      0x40\n        /* \"#utility.yul\":1212:1221   */\n      dup4\n        /* \"#utility.yul\":1208:1226   */\n      add\n        /* \"#utility.yul\":1199:1205   */\n      dup5\n        /* \"#utility.yul\":1155:1227   */\n      tag_24\n      jump\t// in\n    tag_42:\n        /* \"#utility.yul\":792:1234   */\n      swap5\n      swap4\n      pop\n      pop\n      pop\n      pop\n      jump\t// out\n        /* \"#utility.yul\":1240:1387   */\n    tag_25:\n        /* \"#utility.yul\":1341:1352   */\n      0x00\n        /* \"#utility.yul\":1378:1381   */\n      dup2\n        /* \"#utility.yul\":1363:1381   */\n      swap1\n      pop\n        /* \"#utility.yul\":1240:1387   */\n      swap3\n      swap2\n      pop\n      pop\n      jump\t// out\n        /* \"#utility.yul\":1393:1554   */\n    tag_26:\n        /* \"#utility.yul\":1533:1546   */\n      0x48656c6c6f20576f726c64000000000000000000000000000000000000000000\n        /* \"#utility.yul\":1529:1530   */\n      0x00\n        /* \"#utility.yul\":1521:1527   */\n      dup3\n        /* \"#utility.yul\":1517:1531   */\n      add\n        /* \"#utility.yul\":1510:1547   */\n      mstore\n        /* \"#utility.yul\":1393:1554   */\n      pop\n      jump\t// out\n        /* \"#utility.yul\":1560:1960   */\n    tag_27:\n        /* \"#utility.yul\":1719:1722   */\n      0x00\n        /* \"#utility.yul\":1740:1824   */\n      tag_46\n        /* \"#utility.yul\":1821:1823   */\n      0x0b\n        /* \"#utility.yul\":1816:1819   */\n      dup4\n        /* \"#utility.yul\":1740:1824   */\n      tag_25\n      jump\t// in\n    tag_46:\n        /* \"#utility.yul\":1733:1824   */\n      swap2\n      pop\n        /* \"#utility.yul\":1833:1926   */\n      tag_47\n        /* \"#utility.yul\":1922:1925   */\n      dup3\n        /* \"#utility.yul\":1833:1926   */\n      tag_26\n      jump\t// in\n    tag_47:\n        /* \"#utility.yul\":1951:1953   */\n      0x0b\n        /* \"#utility.yul\":1946:1949   */\n      dup3\n        /* \"#utility.yul\":1942:1954   */\n      add\n        /* \"#utility.yul\":1935:1954   */\n      swap1\n      pop\n        /* \"#utility.yul\":1560:1960   */\n      swap2\n      swap1\n      pop\n      jump\t// out\n        /* \"#utility.yul\":1966:2345   */\n    tag_15:\n        /* \"#utility.yul\":2150:2153   */\n      0x00\n        /* \"#utility.yul\":2172:2319   */\n      tag_49\n        /* \"#utility.yul\":2315:2318   */\n      dup3\n        /* \"#utility.yul\":2172:2319   */\n      tag_27\n      jump\t// in\n    tag_49:\n        /* \"#utility.yul\":2165:2319   */\n      swap2\n      pop\n        /* \"#utility.yul\":2336:2339   */\n      dup2\n        /* \"#utility.yul\":2329:2339   */\n      swap1\n      pop\n        /* \"#utility.yul\":1966:2345   */\n      swap2\n      swap1\n      pop\n      jump\t// out\n\n    auxdata: 0xa2646970667358221220d9a4e37333bd77020a8e9f359f8fb93b8976bc4982c01e9920dee319391063a364736f6c634300081e0033\n}\n\nsub_1: assembly {\n        /* \"contracts/practice.sol\":76:589  contract Bank {... */\n      mstore(0x40, 0x80)\n        /* \"contracts/practice.sol\":189:244  info(address(this).balance, \"logging from constructor\") */\n      0x4a759d99b61d239e78f4d13e96f8f23087fcee25f12c21835dd0dc076320247e\n        /* \"contracts/practice.sol\":194:215  address(this).balance */\n      selfbalance\n        /* \"contracts/practice.sol\":189:244  info(address(this).balance, \"logging from constructor\") */\n      mload(0x40)\n      tag_3\n      swap2\n      swap1\n      tag_4\n      jump\t// in\n    tag_3:\n      mload(0x40)\n      dup1\n      swap2\n      sub\n      swap1\n      log1\n        /* \"contracts/practice.sol\":76:589  contract Bank {... */\n      jump(tag_5)\n        /* \"#utility.yul\":7:84   */\n    tag_6:\n        /* \"#utility.yul\":44:51   */\n      0x00\n        /* \"#utility.yul\":73:78   */\n      dup2\n        /* \"#utility.yul\":62:78   */\n      swap1\n      pop\n        /* \"#utility.yul\":7:84   */\n      swap2\n      swap1\n      pop\n      jump\t// out\n        /* \"#utility.yul\":90:208   */\n    tag_7:\n        /* \"#utility.yul\":177:201   */\n      tag_14\n        /* \"#utility.yul\":195:200   */\n      dup2\n        /* \"#utility.yul\":177:201   */\n      tag_6\n      jump\t// in\n    tag_14:\n        /* \"#utility.yul\":172:175   */\n      dup3\n        /* \"#utility.yul\":165:202   */\n      mstore\n        /* \"#utility.yul\":90:208   */\n      pop\n      pop\n      jump\t// out\n        /* \"#utility.yul\":214:383   */\n    tag_8:\n        /* \"#utility.yul\":298:309   */\n      0x00\n        /* \"#utility.yul\":332:338   */\n      dup3\n        /* \"#utility.yul\":327:330   */\n      dup3\n        /* \"#utility.yul\":320:339   */\n      mstore\n        /* \"#utility.yul\":372:376   */\n      0x20\n        /* \"#utility.yul\":367:370   */\n      dup3\n        /* \"#utility.yul\":363:377   */\n      add\n        /* \"#utility.yul\":348:377   */\n      swap1\n      pop\n        /* \"#utility.yul\":214:383   */\n      swap3\n      swap2\n      pop\n      pop\n      jump\t// out\n        /* \"#utility.yul\":389:563   */\n    tag_9:\n        /* \"#utility.yul\":529:555   */\n      0x6c6f6767696e672066726f6d20636f6e7374727563746f720000000000000000\n        /* \"#utility.yul\":525:526   */\n      0x00\n        /* \"#utility.yul\":517:523   */\n      dup3\n        /* \"#utility.yul\":513:527   */\n      add\n        /* \"#utility.yul\":506:556   */\n      mstore\n        /* \"#utility.yul\":389:563   */\n      pop\n      jump\t// out\n        /* \"#utility.yul\":569:935   */\n    tag_10:\n        /* \"#utility.yul\":711:714   */\n      0x00\n        /* \"#utility.yul\":732:799   */\n      tag_18\n        /* \"#utility.yul\":796:798   */\n      0x18\n        /* \"#utility.yul\":791:794   */\n      dup4\n        /* \"#utility.yul\":732:799   */\n      tag_8\n      jump\t// in\n    tag_18:\n        /* \"#utility.yul\":725:799   */\n      swap2\n      pop\n        /* \"#utility.yul\":808:901   */\n      tag_19\n        /* \"#utility.yul\":897:900   */\n      dup3\n        /* \"#utility.yul\":808:901   */\n      tag_9\n      jump\t// in\n    tag_19:\n        /* \"#utility.yul\":926:928   */\n      0x20\n        /* \"#utility.yul\":921:924   */\n      dup3\n        /* \"#utility.yul\":917:929   */\n      add\n        /* \"#utility.yul\":910:929   */\n      swap1\n      pop\n        /* \"#utility.yul\":569:935   */\n      swap2\n      swap1\n      pop\n      jump\t// out\n        /* \"#utility.yul\":941:1470   */\n    tag_4:\n        /* \"#utility.yul\":1135:1139   */\n      0x00\n        /* \"#utility.yul\":1173:1175   */\n      0x40\n        /* \"#utility.yul\":1162:1171   */\n      dup3\n        /* \"#utility.yul\":1158:1176   */\n      add\n        /* \"#utility.yul\":1150:1176   */\n      swap1\n      pop\n        /* \"#utility.yul\":1186:1257   */\n      tag_21\n        /* \"#utility.yul\":1254:1255   */\n      0x00\n        /* \"#utility.yul\":1243:1252   */\n      dup4\n        /* \"#utility.yul\":1239:1256   */\n      add\n        /* \"#utility.yul\":1230:1236   */\n      dup5\n        /* \"#utility.yul\":1186:1257   */\n      tag_7\n      jump\t// in\n    tag_21:\n        /* \"#utility.yul\":1304:1313   */\n      dup2\n        /* \"#utility.yul\":1298:1302   */\n      dup2\n        /* \"#utility.yul\":1294:1314   */\n      sub\n        /* \"#utility.yul\":1289:1291   */\n      0x20\n        /* \"#utility.yul\":1278:1287   */\n      dup4\n        /* \"#utility.yul\":1274:1292   */\n      add\n        /* \"#utility.yul\":1267:1315   */\n      mstore\n        /* \"#utility.yul\":1332:1463   */\n      tag_22\n        /* \"#utility.yul\":1458:1462   */\n      dup2\n        /* \"#utility.yul\":1332:1463   */\n      tag_10\n      jump\t// in\n    tag_22:\n        /* \"#utility.yul\":1324:1463   */\n      swap1\n      pop\n        /* \"#utility.yul\":941:1470   */\n      swap3\n      swap2\n      pop\n      pop\n      jump\t// out\n        /* \"contracts/practice.sol\":76:589  contract Bank {... */\n    tag_5:\n      dataSize(sub_0)\n      dup1\n      dataOffset(sub_0)\n      0x00\n      codecopy\n      0x00\n      return\n    stop\n\n    sub_0: assembly {\n            /* \"contracts/practice.sol\":76:589  contract Bank {... */\n          mstore(0x40, 0x80)\n          jumpi(tag_1, lt(calldatasize, 0x04))\n          shr(0xe0, calldataload(0x00))\n          dup1\n          0xd0e30db0\n          eq\n          tag_3\n          jumpi\n          jump(tag_2)\n        tag_1:\n          jumpi(tag_2, calldatasize)\n            /* \"contracts/practice.sol\":422:473  info(address(this).balance, \"logging from receive\") */\n          0x4a759d99b61d239e78f4d13e96f8f23087fcee25f12c21835dd0dc076320247e\n            /* \"contracts/practice.sol\":427:448  address(this).balance */\n          selfbalance\n            /* \"contracts/practice.sol\":422:473  info(address(this).balance, \"logging from receive\") */\n          mload(0x40)\n          tag_6\n          swap2\n          swap1\n          tag_7\n          jump\t// in\n        tag_6:\n          mload(0x40)\n          dup1\n          swap2\n          sub\n          swap1\n          log1\n            /* \"contracts/practice.sol\":76:589  contract Bank {... */\n          stop\n        tag_2:\n            /* \"contracts/practice.sol\":533:578  info(address(this).balance, string(msg.data)) */\n          0x4a759d99b61d239e78f4d13e96f8f23087fcee25f12c21835dd0dc076320247e\n            /* \"contracts/practice.sol\":538:559  address(this).balance */\n          selfbalance\n            /* \"contracts/practice.sol\":568:576  msg.data */\n          0x00\n          calldatasize\n            /* \"contracts/practice.sol\":533:578  info(address(this).balance, string(msg.data)) */\n          mload(0x40)\n          tag_10\n          swap4\n          swap3\n          swap2\n          swap1\n          tag_11\n          jump\t// in\n        tag_10:\n          mload(0x40)\n          dup1\n          swap2\n          sub\n          swap1\n          log1\n            /* \"contracts/practice.sol\":76:589  contract Bank {... */\n          stop\n            /* \"contracts/practice.sol\":260:371  function deposit() external payable {... */\n        tag_3:\n          tag_12\n          tag_13\n          jump\t// in\n        tag_12:\n          stop\n        tag_13:\n            /* \"contracts/practice.sol\":312:363  info(address(this).balance, \"logging from deposit\") */\n          0x4a759d99b61d239e78f4d13e96f8f23087fcee25f12c21835dd0dc076320247e\n            /* \"contracts/practice.sol\":317:338  address(this).balance */\n          selfbalance\n            /* \"contracts/practice.sol\":312:363  info(address(this).balance, \"logging from deposit\") */\n          mload(0x40)\n          tag_15\n          swap2\n          swap1\n          tag_16\n          jump\t// in\n        tag_15:\n          mload(0x40)\n          dup1\n          swap2\n          sub\n          swap1\n          log1\n            /* \"contracts/practice.sol\":260:371  function deposit() external payable {... */\n          jump\t// out\n            /* \"#utility.yul\":7:84   */\n        tag_17:\n            /* \"#utility.yul\":44:51   */\n          0x00\n            /* \"#utility.yul\":73:78   */\n          dup2\n            /* \"#utility.yul\":62:78   */\n          swap1\n          pop\n            /* \"#utility.yul\":7:84   */\n          swap2\n          swap1\n          pop\n          jump\t// out\n            /* \"#utility.yul\":90:208   */\n        tag_18:\n            /* \"#utility.yul\":177:201   */\n          tag_30\n            /* \"#utility.yul\":195:200   */\n          dup2\n            /* \"#utility.yul\":177:201   */\n          tag_17\n          jump\t// in\n        tag_30:\n            /* \"#utility.yul\":172:175   */\n          dup3\n            /* \"#utility.yul\":165:202   */\n          mstore\n            /* \"#utility.yul\":90:208   */\n          pop\n          pop\n          jump\t// out\n            /* \"#utility.yul\":214:383   */\n        tag_19:\n            /* \"#utility.yul\":298:309   */\n          0x00\n            /* \"#utility.yul\":332:338   */\n          dup3\n            /* \"#utility.yul\":327:330   */\n          dup3\n            /* \"#utility.yul\":320:339   */\n          mstore\n            /* \"#utility.yul\":372:376   */\n          0x20\n            /* \"#utility.yul\":367:370   */\n          dup3\n            /* \"#utility.yul\":363:377   */\n          add\n            /* \"#utility.yul\":348:377   */\n          swap1\n          pop\n            /* \"#utility.yul\":214:383   */\n          swap3\n          swap2\n          pop\n          pop\n          jump\t// out\n            /* \"#utility.yul\":389:559   */\n        tag_20:\n            /* \"#utility.yul\":529:551   */\n          0x6c6f6767696e672066726f6d2072656365697665000000000000000000000000\n            /* \"#utility.yul\":525:526   */\n          0x00\n            /* \"#utility.yul\":517:523   */\n          dup3\n            /* \"#utility.yul\":513:527   */\n          add\n            /* \"#utility.yul\":506:552   */\n          mstore\n            /* \"#utility.yul\":389:559   */\n          pop\n          jump\t// out\n            /* \"#utility.yul\":565:931   */\n        tag_21:\n            /* \"#utility.yul\":707:710   */\n          0x00\n            /* \"#utility.yul\":728:795   */\n          tag_34\n            /* \"#utility.yul\":792:794   */\n          0x14\n            /* \"#utility.yul\":787:790   */\n          dup4\n            /* \"#utility.yul\":728:795   */\n          tag_19\n          jump\t// in\n        tag_34:\n            /* \"#utility.yul\":721:795   */\n          swap2\n          pop\n            /* \"#utility.yul\":804:897   */\n          tag_35\n            /* \"#utility.yul\":893:896   */\n          dup3\n            /* \"#utility.yul\":804:897   */\n          tag_20\n          jump\t// in\n        tag_35:\n            /* \"#utility.yul\":922:924   */\n          0x20\n            /* \"#utility.yul\":917:920   */\n          dup3\n            /* \"#utility.yul\":913:925   */\n          add\n            /* \"#utility.yul\":906:925   */\n          swap1\n          pop\n            /* \"#utility.yul\":565:931   */\n          swap2\n          swap1\n          pop\n          jump\t// out\n            /* \"#utility.yul\":937:1466   */\n        tag_7:\n            /* \"#utility.yul\":1131:1135   */\n          0x00\n            /* \"#utility.yul\":1169:1171   */\n          0x40\n            /* \"#utility.yul\":1158:1167   */\n          dup3\n            /* \"#utility.yul\":1154:1172   */\n          add\n            /* \"#utility.yul\":1146:1172   */\n          swap1\n          pop\n            /* \"#utility.yul\":1182:1253   */\n          tag_37\n            /* \"#utility.yul\":1250:1251   */\n          0x00\n            /* \"#utility.yul\":1239:1248   */\n          dup4\n            /* \"#utility.yul\":1235:1252   */\n          add\n            /* \"#utility.yul\":1226:1232   */\n          dup5\n            /* \"#utility.yul\":1182:1253   */\n          tag_18\n          jump\t// in\n        tag_37:\n            /* \"#utility.yul\":1300:1309   */\n          dup2\n            /* \"#utility.yul\":1294:1298   */\n          dup2\n            /* \"#utility.yul\":1290:1310   */\n          sub\n            /* \"#utility.yul\":1285:1287   */\n          0x20\n            /* \"#utility.yul\":1274:1283   */\n          dup4\n            /* \"#utility.yul\":1270:1288   */\n          add\n            /* \"#utility.yul\":1263:1311   */\n          mstore\n            /* \"#utility.yul\":1328:1459   */\n          tag_38\n            /* \"#utility.yul\":1454:1458   */\n          dup2\n            /* \"#utility.yul\":1328:1459   */\n          tag_21\n          jump\t// in\n        tag_38:\n            /* \"#utility.yul\":1320:1459   */\n          swap1\n          pop\n            /* \"#utility.yul\":937:1466   */\n          swap3\n          swap2\n          pop\n          pop\n          jump\t// out\n            /* \"#utility.yul\":1472:1620   */\n        tag_22:\n            /* \"#utility.yul\":1570:1576   */\n          dup3\n            /* \"#utility.yul\":1565:1568   */\n          dup2\n            /* \"#utility.yul\":1560:1563   */\n          dup4\n            /* \"#utility.yul\":1547:1577   */\n          calldatacopy\n            /* \"#utility.yul\":1611:1612   */\n          0x00\n            /* \"#utility.yul\":1602:1608   */\n          dup4\n            /* \"#utility.yul\":1597:1600   */\n          dup4\n            /* \"#utility.yul\":1593:1609   */\n          add\n            /* \"#utility.yul\":1586:1613   */\n          mstore\n            /* \"#utility.yul\":1472:1620   */\n          pop\n          pop\n          pop\n          jump\t// out\n            /* \"#utility.yul\":1626:1728   */\n        tag_23:\n            /* \"#utility.yul\":1667:1673   */\n          0x00\n            /* \"#utility.yul\":1718:1720   */\n          0x1f\n            /* \"#utility.yul\":1714:1721   */\n          not\n            /* \"#utility.yul\":1709:1711   */\n          0x1f\n            /* \"#utility.yul\":1702:1707   */\n          dup4\n            /* \"#utility.yul\":1698:1712   */\n          add\n            /* \"#utility.yul\":1694:1722   */\n          and\n            /* \"#utility.yul\":1684:1722   */\n          swap1\n          pop\n            /* \"#utility.yul\":1626:1728   */\n          swap2\n          swap1\n          pop\n          jump\t// out\n            /* \"#utility.yul\":1758:2075   */\n        tag_24:\n            /* \"#utility.yul\":1856:1859   */\n          0x00\n            /* \"#utility.yul\":1877:1948   */\n          tag_42\n            /* \"#utility.yul\":1941:1947   */\n          dup4\n            /* \"#utility.yul\":1936:1939   */\n          dup6\n            /* \"#utility.yul\":1877:1948   */\n          tag_19\n          jump\t// in\n        tag_42:\n            /* \"#utility.yul\":1870:1948   */\n          swap4\n          pop\n            /* \"#utility.yul\":1958:2014   */\n          tag_43\n            /* \"#utility.yul\":2007:2013   */\n          dup4\n            /* \"#utility.yul\":2002:2005   */\n          dup6\n            /* \"#utility.yul\":1995:2000   */\n          dup5\n            /* \"#utility.yul\":1958:2014   */\n          tag_22\n          jump\t// in\n        tag_43:\n            /* \"#utility.yul\":2039:2068   */\n          tag_44\n            /* \"#utility.yul\":2061:2067   */\n          dup4\n            /* \"#utility.yul\":2039:2068   */\n          tag_23\n          jump\t// in\n        tag_44:\n            /* \"#utility.yul\":2034:2037   */\n          dup5\n            /* \"#utility.yul\":2030:2069   */\n          add\n            /* \"#utility.yul\":2023:2069   */\n          swap1\n          pop\n            /* \"#utility.yul\":1758:2075   */\n          swap4\n          swap3\n          pop\n          pop\n          pop\n          jump\t// out\n            /* \"#utility.yul\":2081:2524   */\n        tag_11:\n            /* \"#utility.yul\":2232:2236   */\n          0x00\n            /* \"#utility.yul\":2270:2272   */\n          0x40\n            /* \"#utility.yul\":2259:2268   */\n          dup3\n            /* \"#utility.yul\":2255:2273   */\n          add\n            /* \"#utility.yul\":2247:2273   */\n          swap1\n          pop\n            /* \"#utility.yul\":2283:2354   */\n          tag_46\n            /* \"#utility.yul\":2351:2352   */\n          0x00\n            /* \"#utility.yul\":2340:2349   */\n          dup4\n            /* \"#utility.yul\":2336:2353   */\n          add\n            /* \"#utility.yul\":2327:2333   */\n          dup7\n            /* \"#utility.yul\":2283:2354   */\n          tag_18\n          jump\t// in\n        tag_46:\n            /* \"#utility.yul\":2401:2410   */\n          dup2\n            /* \"#utility.yul\":2395:2399   */\n          dup2\n            /* \"#utility.yul\":2391:2411   */\n          sub\n            /* \"#utility.yul\":2386:2388   */\n          0x20\n            /* \"#utility.yul\":2375:2384   */\n          dup4\n            /* \"#utility.yul\":2371:2389   */\n          add\n            /* \"#utility.yul\":2364:2412   */\n          mstore\n            /* \"#utility.yul\":2429:2517   */\n          tag_47\n            /* \"#utility.yul\":2512:2516   */\n          dup2\n            /* \"#utility.yul\":2503:2509   */\n          dup5\n            /* \"#utility.yul\":2495:2501   */\n          dup7\n            /* \"#utility.yul\":2429:2517   */\n          tag_24\n          jump\t// in\n        tag_47:\n            /* \"#utility.yul\":2421:2517   */\n          swap1\n          pop\n            /* \"#utility.yul\":2081:2524   */\n          swap5\n          swap4\n          pop\n          pop\n          pop\n          pop\n          jump\t// out\n            /* \"#utility.yul\":2530:2700   */\n        tag_25:\n            /* \"#utility.yul\":2670:2692   */\n          0x6c6f6767696e672066726f6d206465706f736974000000000000000000000000\n            /* \"#utility.yul\":2666:2667   */\n          0x00\n            /* \"#utility.yul\":2658:2664   */\n          dup3\n            /* \"#utility.yul\":2654:2668   */\n          add\n            /* \"#utility.yul\":2647:2693   */\n          mstore\n            /* \"#utility.yul\":2530:2700   */\n          pop\n          jump\t// out\n            /* \"#utility.yul\":2706:3072   */\n        tag_26:\n            /* \"#utility.yul\":2848:2851   */\n          0x00\n            /* \"#utility.yul\":2869:2936   */\n          tag_50\n            /* \"#utility.yul\":2933:2935   */\n          0x14\n            /* \"#utility.yul\":2928:2931   */\n          dup4\n            /* \"#utility.yul\":2869:2936   */\n          tag_19\n          jump\t// in\n        tag_50:\n            /* \"#utility.yul\":2862:2936   */\n          swap2\n          pop\n            /* \"#utility.yul\":2945:3038   */\n          tag_51\n            /* \"#utility.yul\":3034:3037   */\n          dup3\n            /* \"#utility.yul\":2945:3038   */\n          tag_25\n          jump\t// in\n        tag_51:\n            /* \"#utility.yul\":3063:3065   */\n          0x20\n            /* \"#utility.yul\":3058:3061   */\n          dup3\n            /* \"#utility.yul\":3054:3066   */\n          add\n            /* \"#utility.yul\":3047:3066   */\n          swap1\n          pop\n            /* \"#utility.yul\":2706:3072   */\n          swap2\n          swap1\n          pop\n          jump\t// out\n            /* \"#utility.yul\":3078:3607   */\n        tag_16:\n            /* \"#utility.yul\":3272:3276   */\n          0x00\n            /* \"#utility.yul\":3310:3312   */\n          0x40\n            /* \"#utility.yul\":3299:3308   */\n          dup3\n            /* \"#utility.yul\":3295:3313   */\n          add\n            /* \"#utility.yul\":3287:3313   */\n          swap1\n          pop\n            /* \"#utility.yul\":3323:3394   */\n          tag_53\n            /* \"#utility.yul\":3391:3392   */\n          0x00\n            /* \"#utility.yul\":3380:3389   */\n          dup4\n            /* \"#utility.yul\":3376:3393   */\n          add\n            /* \"#utility.yul\":3367:3373   */\n          dup5\n            /* \"#utility.yul\":3323:3394   */\n          tag_18\n          jump\t// in\n        tag_53:\n            /* \"#utility.yul\":3441:3450   */\n          dup2\n            /* \"#utility.yul\":3435:3439   */\n          dup2\n            /* \"#utility.yul\":3431:3451   */\n          sub\n            /* \"#utility.yul\":3426:3428   */\n          0x20\n            /* \"#utility.yul\":3415:3424   */\n          dup4\n            /* \"#utility.yul\":3411:3429   */\n          add\n            /* \"#utility.yul\":3404:3452   */\n          mstore\n            /* \"#utility.yul\":3469:3600   */\n          tag_54\n            /* \"#utility.yul\":3595:3599   */\n          dup2\n            /* \"#utility.yul\":3469:3600   */\n          tag_26\n          jump\t// in\n        tag_54:\n            /* \"#utility.yul\":3461:3600   */\n          swap1\n          pop\n            /* \"#utility.yul\":3078:3607   */\n          swap3\n          swap2\n          pop\n          pop\n          jump\t// out\n\n        auxdata: 0xa2646970667358221220012e915d146f095cf55e26e4cc61a8a34d9e61b49ec6952910e9d17f1df6085364736f6c634300081e0033\n    }\n}\n",
				"bytecode": {
					"linkReferences": {},
					"object": "60806040523360015f6101000a81548173ffffffffffffffffffffffffffffffffffffffff021916908373ffffffffffffffffffffffffffffffffffffffff160217905550604051604e9060a9565b604051809103905ff0801580156066573d5f5f3e3d5ffd5b505f5f6101000a81548173ffffffffffffffffffffffffffffffffffffffff021916908373ffffffffffffffffffffffffffffffffffffffff16021790555060b6565b6103818061035d83390190565b61029a806100c35f395ff3fe608060405260043610610028575f3560e01c8063046916f11461002c578063f4a673951461004a575b5f5ffd5b610034610076565b604051610041919061016f565b60405180910390f35b348015610055575f5ffd5b5061005e610103565b60405161006d939291906101c7565b60405180910390f35b5f5f5f9054906101000a900473ffffffffffffffffffffffffffffffffffffffff1673ffffffffffffffffffffffffffffffffffffffff16346040516100bb90610250565b5f6040518083038185875af1925050503d805f81146100f5576040519150601f19603f3d011682016040523d82523d5f602084013e6100fa565b606091505b50508091505090565b5f5f5f5f5f9054906101000a900473ffffffffffffffffffffffffffffffffffffffff16925060015f9054906101000a900473ffffffffffffffffffffffffffffffffffffffff169150309050909192565b5f8115159050919050565b61016981610155565b82525050565b5f6020820190506101825f830184610160565b92915050565b5f73ffffffffffffffffffffffffffffffffffffffff82169050919050565b5f6101b182610188565b9050919050565b6101c1816101a7565b82525050565b5f6060820190506101da5f8301866101b8565b6101e760208301856101b8565b6101f460408301846101b8565b949350505050565b5f81905092915050565b7f48656c6c6f20576f726c640000000000000000000000000000000000000000005f82015250565b5f61023a600b836101fc565b915061024582610206565b600b82019050919050565b5f61025a8261022e565b915081905091905056fea2646970667358221220d9a4e37333bd77020a8e9f359f8fb93b8976bc4982c01e9920dee319391063a364736f6c634300081e003360806040527f4a759d99b61d239e78f4d13e96f8f23087fcee25f12c21835dd0dc076320247e476040516031919060a9565b60405180910390a160d1565b5f819050919050565b604d81603d565b82525050565b5f82825260208201905092915050565b7f6c6f6767696e672066726f6d20636f6e7374727563746f7200000000000000005f82015250565b5f60956018836053565b9150609e826063565b602082019050919050565b5f60408201905060ba5f8301846046565b818103602083015260c981608b565b905092915050565b6102a3806100de5f395ff3fe608060405260043610610021575f3560e01c8063d0e30db01461009c5761005f565b3661005f577f4a759d99b61d239e78f4d13e96f8f23087fcee25f12c21835dd0dc076320247e476040516100559190610151565b60405180910390a1005b7f4a759d99b61d239e78f4d13e96f8f23087fcee25f12c21835dd0dc076320247e475f36604051610092939291906101c7565b60405180910390a1005b6100a46100a6565b005b7f4a759d99b61d239e78f4d13e96f8f23087fcee25f12c21835dd0dc076320247e476040516100d59190610241565b60405180910390a1565b5f819050919050565b6100f1816100df565b82525050565b5f82825260208201905092915050565b7f6c6f6767696e672066726f6d20726563656976650000000000000000000000005f82015250565b5f61013b6014836100f7565b915061014682610107565b602082019050919050565b5f6040820190506101645f8301846100e8565b81810360208301526101758161012f565b905092915050565b828183375f83830152505050565b5f601f19601f8301169050919050565b5f6101a683856100f7565b93506101b383858461017d565b6101bc8361018b565b840190509392505050565b5f6040820190506101da5f8301866100e8565b81810360208301526101ed81848661019b565b9050949350505050565b7f6c6f6767696e672066726f6d206465706f7369740000000000000000000000005f82015250565b5f61022b6014836100f7565b9150610236826101f7565b602082019050919050565b5f6040820190506102545f8301846100e8565b81810360208301526102658161021f565b90509291505056fea2646970667358221220012e915d146f095cf55e26e4cc61a8a34d9e61b49ec6952910e9d17f1df6085364736f6c634300081e0033",
					"opcodes": "PUSH1 0x80 PUSH1 0x40 MSTORE CALLER PUSH1 0x1 PUSH0 PUSH2 0x100 EXP DUP2 SLOAD DUP2 PUSH20 0xFFFFFFFFFFFFFFFFFFFFFFFFFFFFFFFFFFFFFFFF MUL NOT AND SWAP1 DUP4 PUSH20 0xFFFFFFFFFFFFFFFFFFFFFFFFFFFFFFFFFFFFFFFF AND MUL OR SWAP1 SSTORE POP PUSH1 0x40 MLOAD PUSH1 0x4E SWAP1 PUSH1 0xA9 JUMP JUMPDEST PUSH1 0x40 MLOAD DUP1 SWAP2 SUB SWAP1 PUSH0 CREATE DUP1 ISZERO DUP1 ISZERO PUSH1 0x66 JUMPI RETURNDATASIZE PUSH0 PUSH0 RETURNDATACOPY RETURNDATASIZE PUSH0 REVERT JUMPDEST POP PUSH0 PUSH0 PUSH2 0x100 EXP DUP2 SLOAD DUP2 PUSH20 0xFFFFFFFFFFFFFFFFFFFFFFFFFFFFFFFFFFFFFFFF MUL NOT AND SWAP1 DUP4 PUSH20 0xFFFFFFFFFFFFFFFFFFFFFFFFFFFFFFFFFFFFFFFF AND MUL OR SWAP1 SSTORE POP PUSH1 0xB6 JUMP JUMPDEST PUSH2 0x381 DUP1 PUSH2 0x35D DUP4 CODECOPY ADD SWAP1 JUMP JUMPDEST PUSH2 0x29A DUP1 PUSH2 0xC3 PUSH0 CODECOPY PUSH0 RETURN INVALID PUSH1 0x80 PUSH1 0x40 MSTORE PUSH1 0x4 CALLDATASIZE LT PUSH2 0x28 JUMPI PUSH0 CALLDATALOAD PUSH1 0xE0 SHR DUP1 PUSH4 0x46916F1 EQ PUSH2 0x2C JUMPI DUP1 PUSH4 0xF4A67395 EQ PUSH2 0x4A JUMPI JUMPDEST PUSH0 PUSH0 REVERT JUMPDEST PUSH2 0x34 PUSH2 0x76 JUMP JUMPDEST PUSH1 0x40 MLOAD PUSH2 0x41 SWAP2 SWAP1 PUSH2 0x16F JUMP JUMPDEST PUSH1 0x40 MLOAD DUP1 SWAP2 SUB SWAP1 RETURN JUMPDEST CALLVALUE DUP1 ISZERO PUSH2 0x55 JUMPI PUSH0 PUSH0 REVERT JUMPDEST POP PUSH2 0x5E PUSH2 0x103 JUMP JUMPDEST PUSH1 0x40 MLOAD PUSH2 0x6D SWAP4 SWAP3 SWAP2 SWAP1 PUSH2 0x1C7 JUMP JUMPDEST PUSH1 0x40 MLOAD DUP1 SWAP2 SUB SWAP1 RETURN JUMPDEST PUSH0 PUSH0 PUSH0 SWAP1 SLOAD SWAP1 PUSH2 0x100 EXP SWAP1 DIV PUSH20 0xFFFFFFFFFFFFFFFFFFFFFFFFFFFFFFFFFFFFFFFF AND PUSH20 0xFFFFFFFFFFFFFFFFFFFFFFFFFFFFFFFFFFFFFFFF AND CALLVALUE PUSH1 0x40 MLOAD PUSH2 0xBB SWAP1 PUSH2 0x250 JUMP JUMPDEST PUSH0 PUSH1 0x40 MLOAD DUP1 DUP4 SUB DUP2 DUP6 DUP8 GAS CALL SWAP3 POP POP POP RETURNDATASIZE DUP1 PUSH0 DUP2 EQ PUSH2 0xF5 JUMPI PUSH1 0x40 MLOAD SWAP2 POP PUSH1 0x1F NOT PUSH1 0x3F RETURNDATASIZE ADD AND DUP3 ADD PUSH1 0x40 MSTORE RETURNDATASIZE DUP3 MSTORE RETURNDATASIZE PUSH0 PUSH1 0x20 DUP5 ADD RETURNDATACOPY PUSH2 0xFA JUMP JUMPDEST PUSH1 0x60 SWAP2 POP JUMPDEST POP POP DUP1 SWAP2 POP POP SWAP1 JUMP JUMPDEST PUSH0 PUSH0 PUSH0 PUSH0 PUSH0 SWAP1 SLOAD SWAP1 PUSH2 0x100 EXP SWAP1 DIV PUSH20 0xFFFFFFFFFFFFFFFFFFFFFFFFFFFFFFFFFFFFFFFF AND SWAP3 POP PUSH1 0x1 PUSH0 SWAP1 SLOAD SWAP1 PUSH2 0x100 EXP SWAP1 DIV PUSH20 0xFFFFFFFFFFFFFFFFFFFFFFFFFFFFFFFFFFFFFFFF AND SWAP2 POP ADDRESS SWAP1 POP SWAP1 SWAP2 SWAP3 JUMP JUMPDEST PUSH0 DUP2 ISZERO ISZERO SWAP1 POP SWAP2 SWAP1 POP JUMP JUMPDEST PUSH2 0x169 DUP2 PUSH2 0x155 JUMP JUMPDEST DUP3 MSTORE POP POP JUMP JUMPDEST PUSH0 PUSH1 0x20 DUP3 ADD SWAP1 POP PUSH2 0x182 PUSH0 DUP4 ADD DUP5 PUSH2 0x160 JUMP JUMPDEST SWAP3 SWAP2 POP POP JUMP JUMPDEST PUSH0 PUSH20 0xFFFFFFFFFFFFFFFFFFFFFFFFFFFFFFFFFFFFFFFF DUP3 AND SWAP1 POP SWAP2 SWAP1 POP JUMP JUMPDEST PUSH0 PUSH2 0x1B1 DUP3 PUSH2 0x188 JUMP JUMPDEST SWAP1 POP SWAP2 SWAP1 POP JUMP JUMPDEST PUSH2 0x1C1 DUP2 PUSH2 0x1A7 JUMP JUMPDEST DUP3 MSTORE POP POP JUMP JUMPDEST PUSH0 PUSH1 0x60 DUP3 ADD SWAP1 POP PUSH2 0x1DA PUSH0 DUP4 ADD DUP7 PUSH2 0x1B8 JUMP JUMPDEST PUSH2 0x1E7 PUSH1 0x20 DUP4 ADD DUP6 PUSH2 0x1B8 JUMP JUMPDEST PUSH2 0x1F4 PUSH1 0x40 DUP4 ADD DUP5 PUSH2 0x1B8 JUMP JUMPDEST SWAP5 SWAP4 POP POP POP POP JUMP JUMPDEST PUSH0 DUP2 SWAP1 POP SWAP3 SWAP2 POP POP JUMP JUMPDEST PUSH32 0x48656C6C6F20576F726C64000000000000000000000000000000000000000000 PUSH0 DUP3 ADD MSTORE POP JUMP JUMPDEST PUSH0 PUSH2 0x23A PUSH1 0xB DUP4 PUSH2 0x1FC JUMP JUMPDEST SWAP2 POP PUSH2 0x245 DUP3 PUSH2 0x206 JUMP JUMPDEST PUSH1 0xB DUP3 ADD SWAP1 POP SWAP2 SWAP1 POP JUMP JUMPDEST PUSH0 PUSH2 0x25A DUP3 PUSH2 0x22E JUMP JUMPDEST SWAP2 POP DUP2 SWAP1 POP SWAP2 SWAP1 POP JUMP INVALID LOG2 PUSH5 0x6970667358 0x22 SLT KECCAK256 0xD9 LOG4 CALLF 0x7333 0xBD PUSH24 0x20A8E9F359F8FB93B8976BC4982C01E9920DEE319391063 LOG3 PUSH5 0x736F6C6343 STOP ADDMOD 0x1E STOP CALLER PUSH1 0x80 PUSH1 0x40 MSTORE PUSH32 0x4A759D99B61D239E78F4D13E96F8F23087FCEE25F12C21835DD0DC076320247E SELFBALANCE PUSH1 0x40 MLOAD PUSH1 0x31 SWAP2 SWAP1 PUSH1 0xA9 JUMP JUMPDEST PUSH1 0x40 MLOAD DUP1 SWAP2 SUB SWAP1 LOG1 PUSH1 0xD1 JUMP JUMPDEST PUSH0 DUP2 SWAP1 POP SWAP2 SWAP1 POP JUMP JUMPDEST PUSH1 0x4D DUP2 PUSH1 0x3D JUMP JUMPDEST DUP3 MSTORE POP POP JUMP JUMPDEST PUSH0 DUP3 DUP3 MSTORE PUSH1 0x20 DUP3 ADD SWAP1 POP SWAP3 SWAP2 POP POP JUMP JUMPDEST PUSH32 0x6C6F6767696E672066726F6D20636F6E7374727563746F720000000000000000 PUSH0 DUP3 ADD MSTORE POP JUMP JUMPDEST PUSH0 PUSH1 0x95 PUSH1 0x18 DUP4 PUSH1 0x53 JUMP JUMPDEST SWAP2 POP PUSH1 0x9E DUP3 PUSH1 0x63 JUMP JUMPDEST PUSH1 0x20 DUP3 ADD SWAP1 POP SWAP2 SWAP1 POP JUMP JUMPDEST PUSH0 PUSH1 0x40 DUP3 ADD SWAP1 POP PUSH1 0xBA PUSH0 DUP4 ADD DUP5 PUSH1 0x46 JUMP JUMPDEST DUP2 DUP2 SUB PUSH1 0x20 DUP4 ADD MSTORE PUSH1 0xC9 DUP2 PUSH1 0x8B JUMP JUMPDEST SWAP1 POP SWAP3 SWAP2 POP POP JUMP JUMPDEST PUSH2 0x2A3 DUP1 PUSH2 0xDE PUSH0 CODECOPY PUSH0 RETURN INVALID PUSH1 0x80 PUSH1 0x40 MSTORE PUSH1 0x4 CALLDATASIZE LT PUSH2 0x21 JUMPI PUSH0 CALLDATALOAD PUSH1 0xE0 SHR DUP1 PUSH4 0xD0E30DB0 EQ PUSH2 0x9C JUMPI PUSH2 0x5F JUMP JUMPDEST CALLDATASIZE PUSH2 0x5F JUMPI PUSH32 0x4A759D99B61D239E78F4D13E96F8F23087FCEE25F12C21835DD0DC076320247E SELFBALANCE PUSH1 0x40 MLOAD PUSH2 0x55 SWAP2 SWAP1 PUSH2 0x151 JUMP JUMPDEST PUSH1 0x40 MLOAD DUP1 SWAP2 SUB SWAP1 LOG1 STOP JUMPDEST PUSH32 0x4A759D99B61D239E78F4D13E96F8F23087FCEE25F12C21835DD0DC076320247E SELFBALANCE PUSH0 CALLDATASIZE PUSH1 0x40 MLOAD PUSH2 0x92 SWAP4 SWAP3 SWAP2 SWAP1 PUSH2 0x1C7 JUMP JUMPDEST PUSH1 0x40 MLOAD DUP1 SWAP2 SUB SWAP1 LOG1 STOP JUMPDEST PUSH2 0xA4 PUSH2 0xA6 JUMP JUMPDEST STOP JUMPDEST PUSH32 0x4A759D99B61D239E78F4D13E96F8F23087FCEE25F12C21835DD0DC076320247E SELFBALANCE PUSH1 0x40 MLOAD PUSH2 0xD5 SWAP2 SWAP1 PUSH2 0x241 JUMP JUMPDEST PUSH1 0x40 MLOAD DUP1 SWAP2 SUB SWAP1 LOG1 JUMP JUMPDEST PUSH0 DUP2 SWAP1 POP SWAP2 SWAP1 POP JUMP JUMPDEST PUSH2 0xF1 DUP2 PUSH2 0xDF JUMP JUMPDEST DUP3 MSTORE POP POP JUMP JUMPDEST PUSH0 DUP3 DUP3 MSTORE PUSH1 0x20 DUP3 ADD SWAP1 POP SWAP3 SWAP2 POP POP JUMP JUMPDEST PUSH32 0x6C6F6767696E672066726F6D2072656365697665000000000000000000000000 PUSH0 DUP3 ADD MSTORE POP JUMP JUMPDEST PUSH0 PUSH2 0x13B PUSH1 0x14 DUP4 PUSH2 0xF7 JUMP JUMPDEST SWAP2 POP PUSH2 0x146 DUP3 PUSH2 0x107 JUMP JUMPDEST PUSH1 0x20 DUP3 ADD SWAP1 POP SWAP2 SWAP1 POP JUMP JUMPDEST PUSH0 PUSH1 0x40 DUP3 ADD SWAP1 POP PUSH2 0x164 PUSH0 DUP4 ADD DUP5 PUSH2 0xE8 JUMP JUMPDEST DUP2 DUP2 SUB PUSH1 0x20 DUP4 ADD MSTORE PUSH2 0x175 DUP2 PUSH2 0x12F JUMP JUMPDEST SWAP1 POP SWAP3 SWAP2 POP POP JUMP JUMPDEST DUP3 DUP2 DUP4 CALLDATACOPY PUSH0 DUP4 DUP4 ADD MSTORE POP POP POP JUMP JUMPDEST PUSH0 PUSH1 0x1F NOT PUSH1 0x1F DUP4 ADD AND SWAP1 POP SWAP2 SWAP1 POP JUMP JUMPDEST PUSH0 PUSH2 0x1A6 DUP4 DUP6 PUSH2 0xF7 JUMP JUMPDEST SWAP4 POP PUSH2 0x1B3 DUP4 DUP6 DUP5 PUSH2 0x17D JUMP JUMPDEST PUSH2 0x1BC DUP4 PUSH2 0x18B JUMP JUMPDEST DUP5 ADD SWAP1 POP SWAP4 SWAP3 POP POP POP JUMP JUMPDEST PUSH0 PUSH1 0x40 DUP3 ADD SWAP1 POP PUSH2 0x1DA PUSH0 DUP4 ADD DUP7 PUSH2 0xE8 JUMP JUMPDEST DUP2 DUP2 SUB PUSH1 0x20 DUP4 ADD MSTORE PUSH2 0x1ED DUP2 DUP5 DUP7 PUSH2 0x19B JUMP JUMPDEST SWAP1 POP SWAP5 SWAP4 POP POP POP POP JUMP JUMPDEST PUSH32 0x6C6F6767696E672066726F6D206465706F736974000000000000000000000000 PUSH0 DUP3 ADD MSTORE POP JUMP JUMPDEST PUSH0 PUSH2 0x22B PUSH1 0x14 DUP4 PUSH2 0xF7 JUMP JUMPDEST SWAP2 POP PUSH2 0x236 DUP3 PUSH2 0x1F7 JUMP JUMPDEST PUSH1 0x20 DUP3 ADD SWAP1 POP SWAP2 SWAP1 POP JUMP JUMPDEST PUSH0 PUSH1 0x40 DUP3 ADD SWAP1 POP PUSH2 0x254 PUSH0 DUP4 ADD DUP5 PUSH2 0xE8 JUMP JUMPDEST DUP2 DUP2 SUB PUSH1 0x20 DUP4 ADD MSTORE PUSH2 0x265 DUP2 PUSH2 0x21F JUMP JUMPDEST SWAP1 POP SWAP3 SWAP2 POP POP JUMP INVALID LOG2 PUSH5 0x6970667358 0x22 SLT KECCAK256 ADD 0x2E SWAP2 TSTORE EQ PUSH16 0x95CF55E26E4CC61A8A34D9E61B49EC6 SWAP6 0x29 LT 0xE9 DATALOADN 0x7F1D 0xF6 ADDMOD MSTORE8 PUSH5 0x736F6C6343 STOP ADDMOD 0x1E STOP CALLER "
				},
				"gasEstimates": {
					"creation": {
						"codeDepositCost": "133200",
						"executionCost": "infinite",
						"totalCost": "infinite"
					},
					"external": {
						"showAddresses()": "infinite",
						"useBank()": "infinite"
					}
				},
				"methodIdentifiers": {
					"showAddresses()": "f4a67395",
					"useBank()": "046916f1"
				}
			},
			"storageLayout": {
				"storage": [
					{
						"astId": 67,
						"contract": "contracts/practice.sol:Broker",
						"label": "bank",
						"offset": 0,
						"slot": "0",
						"type": "t_contract(Bank)64"
					},
					{
						"astId": 69,
						"contract": "contracts/practice.sol:Broker",
						"label": "customer",
						"offset": 0,
						"slot": "1",
						"type": "t_address"
					}
				],
				"types": {
					"t_address": {
						"encoding": "inplace",
						"label": "address",
						"numberOfBytes": "20"
					},
					"t_contract(Bank)64": {
						"encoding": "inplace",
						"label": "contract Bank",
						"numberOfBytes": "20"
					}
				}
			},
			"userdoc": {
				"kind": "user",
				"methods": {},
				"version": 1
			}
		}
	}
}