{
	"contracts/practice.sol": {
		"Bank": {
			"abi": [
				{
					"inputs": [],
					"stateMutability": "payable",
					"type": "constructor"
				},
				{
					"anonymous": false,
					"inputs": [
						{
							"indexed": false,
							"internalType": "uint256",
							"name": "balance",
							"type": "uint256"
						},
						{
							"indexed": false,
							"internalType": "string",
							"name": "message",
							"type": "string"
						}
					],
					"name": "info",
					"type": "event"
				},
				{
					"stateMutability": "payable",
					"type": "fallback"
				},
				{
					"inputs": [],
					"name": "deposit",
					"outputs": [],
					"stateMutability": "payable",
					"type": "function"
				},
				{
					"stateMutability": "payable",
					"type": "receive"
				}
			],
			"devdoc": {
				"kind": "dev",
				"methods": {},
				"version": 1
			},
			"evm": {
				"assembly": "    /* \"contracts/practice.sol\":76:589  contract Bank {... */\n  mstore(0x40, 0x80)\n    /* \"contracts/practice.sol\":189:244  info(address(this).balance, \"logging from constructor\") */\n  0x4a759d99b61d239e78f4d13e96f8f23087fcee25f12c21835dd0dc076320247e\n    /* \"contracts/practice.sol\":194:215  address(this).balance */\n  selfbalance\n    /* \"contracts/practice.sol\":189:244  info(address(this).balance, \"logging from constructor\") */\n  mload(0x40)\n  tag_3\n  swap2\n  swap1\n  tag_4\n  jump\t// in\ntag_3:\n  mload(0x40)\n  dup1\n  swap2\n  sub\n  swap1\n  log1\n    /* \"contracts/practice.sol\":76:589  contract Bank {... */\n  jump(tag_5)\n    /* \"#utility.yul\":7:84   */\ntag_6:\n    /* \"#utility.yul\":44:51   */\n  0x00\n    /* \"#utility.yul\":73:78   */\n  dup2\n    /* \"#utility.yul\":62:78   */\n  swap1\n  pop\n    /* \"#utility.yul\":7:84   */\n  swap2\n  swap1\n  pop\n  jump\t// out\n    /* \"#utility.yul\":90:208   */\ntag_7:\n    /* \"#utility.yul\":177:201   */\n  tag_14\n    /* \"#utility.yul\":195:200   */\n  dup2\n    /* \"#utility.yul\":177:201   */\n  tag_6\n  jump\t// in\ntag_14:\n    /* \"#utility.yul\":172:175   */\n  dup3\n    /* \"#utility.yul\":165:202   */\n  mstore\n    /* \"#utility.yul\":90:208   */\n  pop\n  pop\n  jump\t// out\n    /* \"#utility.yul\":214:383   */\ntag_8:\n    /* \"#utility.yul\":298:309   */\n  0x00\n    /* \"#utility.yul\":332:338   */\n  dup3\n    /* \"#utility.yul\":327:330   */\n  dup3\n    /* \"#utility.yul\":320:339   */\n  mstore\n    /* \"#utility.yul\":372:376   */\n  0x20\n    /* \"#utility.yul\":367:370   */\n  dup3\n    /* \"#utility.yul\":363:377   */\n  add\n    /* \"#utility.yul\":348:377   */\n  swap1\n  pop\n    /* \"#utility.yul\":214:383   */\n  swap3\n  swap2\n  pop\n  pop\n  jump\t// out\n    /* \"#utility.yul\":389:563   */\ntag_9:\n    /* \"#utility.yul\":529:555   */\n  0x6c6f6767696e672066726f6d20636f6e7374727563746f720000000000000000\n    /* \"#utility.yul\":525:526   */\n  0x00\n    /* \"#utility.yul\":517:523   */\n  dup3\n    /* \"#utility.yul\":513:527   */\n  add\n    /* \"#utility.yul\":506:556   */\n  mstore\n    /* \"#utility.yul\":389:563   */\n  pop\n  jump\t// out\n    /* \"#utility.yul\":569:935   */\ntag_10:\n    /* \"#utility.yul\":711:714   */\n  0x00\n    /* \"#utility.yul\":732:799   */\n  tag_18\n    /* \"#utility.yul\":796:798   */\n  0x18\n    /* \"#utility.yul\":791:794   */\n  dup4\n    /* \"#utility.yul\":732:799   */\n  tag_8\n  jump\t// in\ntag_18:\n    /* \"#utility.yul\":725:799   */\n  swap2\n  pop\n    /* \"#utility.yul\":808:901   */\n  tag_19\n    /* \"#utility.yul\":897:900   */\n  dup3\n    /* \"#utility.yul\":808:901   */\n  tag_9\n  jump\t// in\ntag_19:\n    /* \"#utility.yul\":926:928   */\n  0x20\n    /* \"#utility.yul\":921:924   */\n  dup3\n    /* \"#utility.yul\":917:929   */\n  add\n    /* \"#utility.yul\":910:929   */\n  swap1\n  pop\n    /* \"#utility.yul\":569:935   */\n  swap2\n  swap1\n  pop\n  jump\t// out\n    /* \"#utility.yul\":941:1470   */\ntag_4:\n    /* \"#utility.yul\":1135:1139   */\n  0x00\n    /* \"#utility.yul\":1173:1175   */\n  0x40\n    /* \"#utility.yul\":1162:1171   */\n  dup3\n    /* \"#utility.yul\":1158:1176   */\n  add\n    /* \"#utility.yul\":1150:1176   */\n  swap1\n  pop\n    /* \"#utility.yul\":1186:1257   */\n  tag_21\n    /* \"#utility.yul\":1254:1255   */\n  0x00\n    /* \"#utility.yul\":1243:1252   */\n  dup4\n    /* \"#utility.yul\":1239:1256   */\n  add\n    /* \"#utility.yul\":1230:1236   */\n  dup5\n    /* \"#utility.yul\":1186:1257   */\n  tag_7\n  jump\t// in\ntag_21:\n    /* \"#utility.yul\":1304:1313   */\n  dup2\n    /* \"#utility.yul\":1298:1302   */\n  dup2\n    /* \"#utility.yul\":1294:1314   */\n  sub\n    /* \"#utility.yul\":1289:1291   */\n  0x20\n    /* \"#utility.yul\":1278:1287   */\n  dup4\n    /* \"#utility.yul\":1274:1292   */\n  add\n    /* \"#utility.yul\":1267:1315   */\n  mstore\n    /* \"#utility.yul\":1332:1463   */\n  tag_22\n    /* \"#utility.yul\":1458:1462   */\n  dup2\n    /* \"#utility.yul\":1332:1463   */\n  tag_10\n  jump\t// in\ntag_22:\n    /* \"#utility.yul\":1324:1463   */\n  swap1\n  pop\n    /* \"#utility.yul\":941:1470   */\n  swap3\n  swap2\n  pop\n  pop\n  jump\t// out\n    /* \"contracts/practice.sol\":76:589  contract Bank {... */\ntag_5:\n  dataSize(sub_0)\n  dup1\n  dataOffset(sub_0)\n  0x00\n  codecopy\n  0x00\n  return\nstop\n\nsub_0: assembly {\n        /* \"contracts/practice.sol\":76:589  contract Bank {... */\n      mstore(0x40, 0x80)\n      jumpi(tag_1, lt(calldatasize, 0x04))\n      shr(0xe0, calldataload(0x00))\n      dup1\n      0xd0e30db0\n      eq\n      tag_3\n      jumpi\n      jump(tag_2)\n    tag_1:\n      jumpi(tag_2, calldatasize)\n        /* \"contracts/practice.sol\":422:473  info(address(this).balance, \"logging from receive\") */\n      0x4a759d99b61d239e78f4d13e96f8f23087fcee25f12c21835dd0dc076320247e\n        /* \"contracts/practice.sol\":427:448  address(this).balance */\n      selfbalance\n        /* \"contracts/practice.sol\":422:473  info(address(this).balance, \"logging from receive\") */\n      mload(0x40)\n      tag_6\n      swap2\n      swap1\n      tag_7\n      jump\t// in\n    tag_6:\n      mload(0x40)\n      dup1\n      swap2\n      sub\n      swap1\n      log1\n        /* \"contracts/practice.sol\":76:589  contract Bank {... */\n      stop\n    tag_2:\n        /* \"contracts/practice.sol\":533:578  info(address(this).balance, string(msg.data)) */\n      0x4a759d99b61d239e78f4d13e96f8f23087fcee25f12c21835dd0dc076320247e\n        /* \"contracts/practice.sol\":538:559  address(this).balance */\n      selfbalance\n        /* \"contracts/practice.sol\":568:576  msg.data */\n      0x00\n      calldatasize\n        /* \"contracts/practice.sol\":533:578  info(address(this).balance, string(msg.data)) */\n      mload(0x40)\n      tag_10\n      swap4\n      swap3\n      swap2\n      swap1\n      tag_11\n      jump\t// in\n    tag_10:\n      mload(0x40)\n      dup1\n      swap2\n      sub\n      swap1\n      log1\n        /* \"contracts/practice.sol\":76:589  contract Bank {... */\n      stop\n        /* \"contracts/practice.sol\":260:371  function deposit() external payable {... */\n    tag_3:\n      tag_12\n      tag_13\n      jump\t// in\n    tag_12:\n      stop\n    tag_13:\n        /* \"contracts/practice.sol\":312:363  info(address(this).balance, \"logging from deposit\") */\n      0x4a759d99b61d239e78f4d13e96f8f23087fcee25f12c21835dd0dc076320247e\n        /* \"contracts/practice.sol\":317:338  address(this).balance */\n      selfbalance\n        /* \"contracts/practice.sol\":312:363  info(address(this).balance, \"logging from deposit\") */\n      mload(0x40)\n      tag_15\n      swap2\n      swap1\n      tag_16\n      jump\t// in\n    tag_15:\n      mload(0x40)\n      dup1\n      swap2\n      sub\n      swap1\n      log1\n        /* \"contracts/practice.sol\":260:371  function deposit() external payable {... */\n      jump\t// out\n        /* \"#utility.yul\":7:84   */\n    tag_17:\n        /* \"#utility.yul\":44:51   */\n      0x00\n        /* \"#utility.yul\":73:78   */\n      dup2\n        /* \"#utility.yul\":62:78   */\n      swap1\n      pop\n        /* \"#utility.yul\":7:84   */\n      swap2\n      swap1\n      pop\n      jump\t// out\n        /* \"#utility.yul\":90:208   */\n    tag_18:\n        /* \"#utility.yul\":177:201   */\n      tag_30\n        /* \"#utility.yul\":195:200   */\n      dup2\n        /* \"#utility.yul\":177:201   */\n      tag_17\n      jump\t// in\n    tag_30:\n        /* \"#utility.yul\":172:175   */\n      dup3\n        /* \"#utility.yul\":165:202   */\n      mstore\n        /* \"#utility.yul\":90:208   */\n      pop\n      pop\n      jump\t// out\n        /* \"#utility.yul\":214:383   */\n    tag_19:\n        /* \"#utility.yul\":298:309   */\n      0x00\n        /* \"#utility.yul\":332:338   */\n      dup3\n        /* \"#utility.yul\":327:330   */\n      dup3\n        /* \"#utility.yul\":320:339   */\n      mstore\n        /* \"#utility.yul\":372:376   */\n      0x20\n        /* \"#utility.yul\":367:370   */\n      dup3\n        /* \"#utility.yul\":363:377   */\n      add\n        /* \"#utility.yul\":348:377   */\n      swap1\n      pop\n        /* \"#utility.yul\":214:383   */\n      swap3\n      swap2\n      pop\n      pop\n      jump\t// out\n        /* \"#utility.yul\":389:559   */\n    tag_20:\n        /* \"#utility.yul\":529:551   */\n      0x6c6f6767696e672066726f6d2072656365697665000000000000000000000000\n        /* \"#utility.yul\":525:526   */\n      0x00\n        /* \"#utility.yul\":517:523   */\n      dup3\n        /* \"#utility.yul\":513:527   */\n      add\n        /* \"#utility.yul\":506:552   */\n      mstore\n        /* \"#utility.yul\":389:559   */\n      pop\n      jump\t// out\n        /* \"#utility.yul\":565:931   */\n    tag_21:\n        /* \"#utility.yul\":707:710   */\n      0x00\n        /* \"#utility.yul\":728:795   */\n      tag_34\n        /* \"#utility.yul\":792:794   */\n      0x14\n        /* \"#utility.yul\":787:790   */\n      dup4\n        /* \"#utility.yul\":728:795   */\n      tag_19\n      jump\t// in\n    tag_34:\n        /* \"#utility.yul\":721:795   */\n      swap2\n      pop\n        /* \"#utility.yul\":804:897   */\n      tag_35\n        /* \"#utility.yul\":893:896   */\n      dup3\n        /* \"#utility.yul\":804:897   */\n      tag_20\n      jump\t// in\n    tag_35:\n        /* \"#utility.yul\":922:924   */\n      0x20\n        /* \"#utility.yul\":917:920   */\n      dup3\n        /* \"#utility.yul\":913:925   */\n      add\n        /* \"#utility.yul\":906:925   */\n      swap1\n      pop\n        /* \"#utility.yul\":565:931   */\n      swap2\n      swap1\n      pop\n      jump\t// out\n        /* \"#utility.yul\":937:1466   */\n    tag_7:\n        /* \"#utility.yul\":1131:1135   */\n      0x00\n        /* \"#utility.yul\":1169:1171   */\n      0x40\n        /* \"#utility.yul\":1158:1167   */\n      dup3\n        /* \"#utility.yul\":1154:1172   */\n      add\n        /* \"#utility.yul\":1146:1172   */\n      swap1\n      pop\n        /* \"#utility.yul\":1182:1253   */\n      tag_37\n        /* \"#utility.yul\":1250:1251   */\n      0x00\n        /* \"#utility.yul\":1239:1248   */\n      dup4\n        /* \"#utility.yul\":1235:1252   */\n      add\n        /* \"#utility.yul\":1226:1232   */\n      dup5\n        /* \"#utility.yul\":1182:1253   */\n      tag_18\n      jump\t// in\n    tag_37:\n        /* \"#utility.yul\":1300:1309   */\n      dup2\n        /* \"#utility.yul\":1294:1298   */\n      dup2\n        /* \"#utility.yul\":1290:1310   */\n      sub\n        /* \"#utility.yul\":1285:1287   */\n      0x20\n        /* \"#utility.yul\":1274:1283   */\n      dup4\n        /* \"#utility.yul\":1270:1288   */\n      add\n        /* \"#utility.yul\":1263:1311   */\n      mstore\n        /* \"#utility.yul\":1328:1459   */\n      tag_38\n        /* \"#utility.yul\":1454:1458   */\n      dup2\n        /* \"#utility.yul\":1328:1459   */\n      tag_21\n      jump\t// in\n    tag_38:\n        /* \"#utility.yul\":1320:1459   */\n      swap1\n      pop\n        /* \"#utility.yul\":937:1466   */\n      swap3\n      swap2\n      pop\n      pop\n      jump\t// out\n        /* \"#utility.yul\":1472:1620   */\n    tag_22:\n        /* \"#utility.yul\":1570:1576   */\n      dup3\n        /* \"#utility.yul\":1565:1568   */\n      dup2\n        /* \"#utility.yul\":1560:1563   */\n      dup4\n        /* \"#utility.yul\":1547:1577   */\n      calldatacopy\n        /* \"#utility.yul\":1611:1612   */\n      0x00\n        /* \"#utility.yul\":1602:1608   */\n      dup4\n        /* \"#utility.yul\":1597:1600   */\n      dup4\n        /* \"#utility.yul\":1593:1609   */\n      add\n        /* \"#utility.yul\":1586:1613   */\n      mstore\n        /* \"#utility.yul\":1472:1620   */\n      pop\n      pop\n      pop\n      jump\t// out\n        /* \"#utility.yul\":1626:1728   */\n    tag_23:\n        /* \"#utility.yul\":1667:1673   */\n      0x00\n        /* \"#utility.yul\":1718:1720   */\n      0x1f\n        /* \"#utility.yul\":1714:1721   */\n      not\n        /* \"#utility.yul\":1709:1711   */\n      0x1f\n        /* \"#utility.yul\":1702:1707   */\n      dup4\n        /* \"#utility.yul\":1698:1712   */\n      add\n        /* \"#utility.yul\":1694:1722   */\n      and\n        /* \"#utility.yul\":1684:1722   */\n      swap1\n      pop\n        /* \"#utility.yul\":1626:1728   */\n      swap2\n      swap1\n      pop\n      jump\t// out\n        /* \"#utility.yul\":1758:2075   */\n    tag_24:\n        /* \"#utility.yul\":1856:1859   */\n      0x00\n        /* \"#utility.yul\":1877:1948   */\n      tag_42\n        /* \"#utility.yul\":1941:1947   */\n      dup4\n        /* \"#utility.yul\":1936:1939   */\n      dup6\n        /* \"#utility.yul\":1877:1948   */\n      tag_19\n      jump\t// in\n    tag_42:\n        /* \"#utility.yul\":1870:1948   */\n      swap4\n      pop\n        /* \"#utility.yul\":1958:2014   */\n      tag_43\n        /* \"#utility.yul\":2007:2013   */\n      dup4\n        /* \"#utility.yul\":2002:2005   */\n      dup6\n        /* \"#utility.yul\":1995:2000   */\n      dup5\n        /* \"#utility.yul\":1958:2014   */\n      tag_22\n      jump\t// in\n    tag_43:\n        /* \"#utility.yul\":2039:2068   */\n      tag_44\n        /* \"#utility.yul\":2061:2067   */\n      dup4\n        /* \"#utility.yul\":2039:2068   */\n      tag_23\n      jump\t// in\n    tag_44:\n        /* \"#utility.yul\":2034:2037   */\n      dup5\n        /* \"#utility.yul\":2030:2069   */\n      add\n        /* \"#utility.yul\":2023:2069   */\n      swap1\n      pop\n        /* \"#utility.yul\":1758:2075   */\n      swap4\n      swap3\n      pop\n      pop\n      pop\n      jump\t// out\n        /* \"#utility.yul\":2081:2524   */\n    tag_11:\n        /* \"#utility.yul\":2232:2236   */\n      0x00\n        /* \"#utility.yul\":2270:2272   */\n      0x40\n        /* \"#utility.yul\":2259:2268   */\n      dup3\n        /* \"#utility.yul\":2255:2273   */\n      add\n        /* \"#utility.yul\":2247:2273   */\n      swap1\n      pop\n        /* \"#utility.yul\":2283:2354   */\n      tag_46\n        /* \"#utility.yul\":2351:2352   */\n      0x00\n        /* \"#utility.yul\":2340:2349   */\n      dup4\n        /* \"#utility.yul\":2336:2353   */\n      add\n        /* \"#utility.yul\":2327:2333   */\n      dup7\n        /* \"#utility.yul\":2283:2354   */\n      tag_18\n      jump\t// in\n    tag_46:\n        /* \"#utility.yul\":2401:2410   */\n      dup2\n        /* \"#utility.yul\":2395:2399   */\n      dup2\n        /* \"#utility.yul\":2391:2411   */\n      sub\n        /* \"#utility.yul\":2386:2388   */\n      0x20\n        /* \"#utility.yul\":2375:2384   */\n      dup4\n        /* \"#utility.yul\":2371:2389   */\n      add\n        /* \"#utility.yul\":2364:2412   */\n      mstore\n        /* \"#utility.yul\":2429:2517   */\n      tag_47\n        /* \"#utility.yul\":2512:2516   */\n      dup2\n        /* \"#utility.yul\":2503:2509   */\n      dup5\n        /* \"#utility.yul\":2495:2501   */\n      dup7\n        /* \"#utility.yul\":2429:2517   */\n      tag_24\n      jump\t// in\n    tag_47:\n        /* \"#utility.yul\":2421:2517   */\n      swap1\n      pop\n        /* \"#utility.yul\":2081:2524   */\n      swap5\n      swap4\n      pop\n      pop\n      pop\n      pop\n      jump\t// out\n        /* \"#utility.yul\":2530:2700   */\n    tag_25:\n        /* \"#utility.yul\":2670:2692   */\n      0x6c6f6767696e672066726f6d206465706f736974000000000000000000000000\n        /* \"#utility.yul\":2666:2667   */\n      0x00\n        /* \"#utility.yul\":2658:2664   */\n      dup3\n        /* \"#utility.yul\":2654:2668   */\n      add\n        /* \"#utility.yul\":2647:2693   */\n      mstore\n        /* \"#utility.yul\":2530:2700   */\n      pop\n      jump\t// out\n        /* \"#utility.yul\":2706:3072   */\n    tag_26:\n        /* \"#utility.yul\":2848:2851   */\n      0x00\n        /* \"#utility.yul\":2869:2936   */\n      tag_50\n        /* \"#utility.yul\":2933:2935   */\n      0x14\n        /* \"#utility.yul\":2928:2931   */\n      dup4\n        /* \"#utility.yul\":2869:2936   */\n      tag_19\n      jump\t// in\n    tag_50:\n        /* \"#utility.yul\":2862:2936   */\n      swap2\n      pop\n        /* \"#utility.yul\":2945:3038   */\n      tag_51\n        /* \"#utility.yul\":3034:3037   */\n      dup3\n        /* \"#utility.yul\":2945:3038   */\n      tag_25\n      jump\t// in\n    tag_51:\n        /* \"#utility.yul\":3063:3065   */\n      0x20\n        /* \"#utility.yul\":3058:3061   */\n      dup3\n        /* \"#utility.yul\":3054:3066   */\n      add\n        /* \"#utility.yul\":3047:3066   */\n      swap1\n      pop\n        /* \"#utility.yul\":2706:3072   */\n      swap2\n      swap1\n      pop\n      jump\t// out\n        /* \"#utility.yul\":3078:3607   */\n    tag_16:\n        /* \"#utility.yul\":3272:3276   */\n      0x00\n        /* \"#utility.yul\":3310:3312   */\n      0x40\n        /* \"#utility.yul\":3299:3308   */\n      dup3\n        /* \"#utility.yul\":3295:3313   */\n      add\n        /* \"#utility.yul\":3287:3313   */\n      swap1\n      pop\n        /* \"#utility.yul\":3323:3394   */\n      tag_53\n        /* \"#utility.yul\":3391:3392   */\n      0x00\n        /* \"#utility.yul\":3380:3389   */\n      dup4\n        /* \"#utility.yul\":3376:3393   */\n      add\n        /* \"#utility.yul\":3367:3373   */\n      dup5\n        /* \"#utility.yul\":3323:3394   */\n      tag_18\n      jump\t// in\n    tag_53:\n        /* \"#utility.yul\":3441:3450   */\n      dup2\n        /* \"#utility.yul\":3435:3439   */\n      dup2\n        /* \"#utility.yul\":3431:3451   */\n      sub\n        /* \"#utility.yul\":3426:3428   */\n      0x20\n        /* \"#utility.yul\":3415:3424   */\n      dup4\n        /* \"#utility.yul\":3411:3429   */\n      add\n        /* \"#utility.yul\":3404:3452   */\n      mstore\n        /* \"#utility.yul\":3469:3600   */\n      tag_54\n        /* \"#utility.yul\":3595:3599   */\n      dup2\n        /* \"#utility.yul\":3469:3600   */\n      tag_26\n      jump\t// in\n    tag_54:\n        /* \"#utility.yul\":3461:3600   */\n      swap1\n      pop\n        /* \"#utility.yul\":3078:3607   */\n      swap3\n      swap2\n      pop\n      pop\n      jump\t// out\n\n    auxdata: 0xa2646970667358221220012e915d146f095cf55e26e4cc61a8a34d9e61b49ec6952910e9d17f1df6085364736f6c634300081e0033\n}\n",
				"bytecode": {
					"linkReferences": {},
					"object": "60806040527f4a759d99b61d239e78f4d13e96f8f23087fcee25f12c21835dd0dc076320247e476040516031919060a9565b60405180910390a160d1565b5f819050919050565b604d81603d565b82525050565b5f82825260208201905092915050565b7f6c6f6767696e672066726f6d20636f6e7374727563746f7200000000000000005f82015250565b5f60956018836053565b9150609e826063565b602082019050919050565b5f60408201905060ba5f8301846046565b818103602083015260c981608b565b905092915050565b6102a3806100de5f395ff3fe608060405260043610610021575f3560e01c8063d0e30db01461009c5761005f565b3661005f577f4a759d99b61d239e78f4d13e96f8f23087fcee25f12c21835dd0dc076320247e476040516100559190610151565b60405180910390a1005b7f4a759d99b61d239e78f4d13e96f8f23087fcee25f12c21835dd0dc076320247e475f36604051610092939291906101c7565b60405180910390a1005b6100a46100a6565b005b7f4a759d99b61d239e78f4d13e96f8f23087fcee25f12c21835dd0dc076320247e476040516100d59190610241565b60405180910390a1565b5f819050919050565b6100f1816100df565b82525050565b5f82825260208201905092915050565b7f6c6f6767696e672066726f6d20726563656976650000000000000000000000005f82015250565b5f61013b6014836100f7565b915061014682610107565b602082019050919050565b5f6040820190506101645f8301846100e8565b81810360208301526101758161012f565b905092915050565b828183375f83830152505050565b5f601f19601f8301169050919050565b5f6101a683856100f7565b93506101b383858461017d565b6101bc8361018b565b840190509392505050565b5f6040820190506101da5f8301866100e8565b81810360208301526101ed81848661019b565b9050949350505050565b7f6c6f6767696e672066726f6d206465706f7369740000000000000000000000005f82015250565b5f61022b6014836100f7565b9150610236826101f7565b602082019050919050565b5f6040820190506102545f8301846100e8565b81810360208301526102658161021f565b90509291505056fea2646970667358221220012e915d146f095cf55e26e4cc61a8a34d9e61b49ec6952910e9d17f1df6085364736f6c634300081e0033",
					"opcodes": "PUSH1 0x80 PUSH1 0x40 MSTORE PUSH32 0x4A759D99B61D239E78F4D13E96F8F23087FCEE25F12C21835DD0DC076320247E SELFBALANCE PUSH1 0x40 MLOAD PUSH1 0x31 SWAP2 SWAP1 PUSH1 0xA9 JUMP JUMPDEST PUSH1 0x40 MLOAD DUP1 SWAP2 SUB SWAP1 LOG1 PUSH1 0xD1 JUMP JUMPDEST PUSH0 DUP2 SWAP1 POP SWAP2 SWAP1 POP JUMP JUMPDEST PUSH1 0x4D DUP2 PUSH1 0x3D JUMP JUMPDEST DUP3 MSTORE POP POP JUMP JUMPDEST PUSH0 DUP3 DUP3 MSTORE PUSH1 0x20 DUP3 ADD SWAP1 POP SWAP3 SWAP2 POP POP JUMP JUMPDEST PUSH32 0x6C6F6767696E672066726F6D20636F6E7374727563746F720000000000000000 PUSH0 DUP3 ADD MSTORE POP JUMP JUMPDEST PUSH0 PUSH1 0x95 PUSH1 0x18 DUP4 PUSH1 0x53 JUMP JUMPDEST SWAP2 POP PUSH1 0x9E DUP3 PUSH1 0x63 JUMP JUMPDEST PUSH1 0x20 DUP3 ADD SWAP1 POP SWAP2 SWAP1 POP JUMP JUMPDEST PUSH0 PUSH1 0x40 DUP3 ADD SWAP1 POP PUSH1 0xBA PUSH0 DUP4 ADD DUP5 PUSH1 0x46 JUMP JUMPDEST DUP2 DUP2 SUB PUSH1 0x20 DUP4 ADD MSTORE PUSH1 0xC9 DUP2 PUSH1 0x8B JUMP JUMPDEST SWAP1 POP SWAP3 SWAP2 POP POP JUMP JUMPDEST PUSH2 0x2A3 DUP1 PUSH2 0xDE PUSH0 CODECOPY PUSH0 RETURN INVALID PUSH1 0x80 PUSH1 0x40 MSTORE PUSH1 0x4 CALLDATASIZE LT PUSH2 0x21 JUMPI PUSH0 CALLDATALOAD PUSH1 0xE0 SHR DUP1 PUSH4 0xD0E30DB0 EQ PUSH2 0x9C JUMPI PUSH2 0x5F JUMP JUMPDEST CALLDATASIZE PUSH2 0x5F JUMPI PUSH32 0x4A759D99B61D239E78F4D13E96F8F23087FCEE25F12C21835DD0DC076320247E SELFBALANCE PUSH1 0x40 MLOAD PUSH2 0x55 SWAP2 SWAP1 PUSH2 0x151 JUMP JUMPDEST PUSH1 0x40 MLOAD DUP1 SWAP2 SUB SWAP1 LOG1 STOP JUMPDEST PUSH32 0x4A759D99B61D239E78F4D13E96F8F23087FCEE25F12C21835DD0DC076320247E SELFBALANCE PUSH0 CALLDATASIZE PUSH1 0x40 MLOAD PUSH2 0x92 SWAP4 SWAP3 SWAP2 SWAP1 PUSH2 0x1C7 JUMP JUMPDEST PUSH1 0x40 MLOAD DUP1 SWAP2 SUB SWAP1 LOG1 STOP JUMPDEST PUSH2 0xA4 PUSH2 0xA6 JUMP JUMPDEST STOP JUMPDEST PUSH32 0x4A759D99B61D239E78F4D13E96F8F23087FCEE25F12C21835DD0DC076320247E SELFBALANCE PUSH1 0x40 MLOAD PUSH2 0xD5 SWAP2 SWAP1 PUSH2 0x241 JUMP JUMPDEST PUSH1 0x40 MLOAD DUP1 SWAP2 SUB SWAP1 LOG1 JUMP JUMPDEST PUSH0 DUP2 SWAP1 POP SWAP2 SWAP1 POP JUMP JUMPDEST PUSH2 0xF1 DUP2 PUSH2 0xDF JUMP JUMPDEST DUP3 MSTORE POP POP JUMP JUMPDEST PUSH0 DUP3 DUP3 MSTORE PUSH1 0x20 DUP3 ADD SWAP1 POP SWAP3 SWAP2 POP POP JUMP JUMPDEST PUSH32 0x6C6F6767696E672066726F6D2072656365697665000000000000000000000000 PUSH0 DUP3 ADD MSTORE POP JUMP JUMPDEST PUSH0 PUSH2 0x13B PUSH1 0x14 DUP4 PUSH2 0xF7 JUMP JUMPDEST SWAP2 POP PUSH2 0x146 DUP3 PUSH2 0x107 JUMP JUMPDEST PUSH1 0x20 DUP3 ADD SWAP1 POP SWAP2 SWAP1 POP JUMP JUMPDEST PUSH0 PUSH1 0x40 DUP3 ADD SWAP1 POP PUSH2 0x164 PUSH0 DUP4 ADD DUP5 PUSH2 0xE8 JUMP JUMPDEST DUP2 DUP2 SUB PUSH1 0x20 DUP4 ADD MSTORE PUSH2 0x175 DUP2 PUSH2 0x12F JUMP JUMPDEST SWAP1 POP SWAP3 SWAP2 POP POP JUMP JUMPDEST DUP3 DUP2 DUP4 CALLDATACOPY PUSH0 DUP4 DUP4 ADD MSTORE POP POP POP JUMP JUMPDEST PUSH0 PUSH1 0x1F NOT PUSH1 0x1F DUP4 ADD AND SWAP1 POP SWAP2 SWAP1 POP JUMP JUMPDEST PUSH0 PUSH2 0x1A6 DUP4 DUP6 PUSH2 0xF7 JUMP JUMPDEST SWAP4 POP PUSH2 0x1B3 DUP4 DUP6 DUP5 PUSH2 0x17D JUMP JUMPDEST PUSH2 0x1BC DUP4 PUSH2 0x18B JUMP JUMPDEST DUP5 ADD SWAP1 POP SWAP4 SWAP3 POP POP POP JUMP JUMPDEST PUSH0 PUSH1 0x40 DUP3 ADD SWAP1 POP PUSH2 0x1DA PUSH0 DUP4 ADD DUP7 PUSH2 0xE8 JUMP JUMPDEST DUP2 DUP2 SUB PUSH1 0x20 DUP4 ADD MSTORE PUSH2 0x1ED DUP2 DUP5 DUP7 PUSH2 0x19B JUMP JUMPDEST SWAP1 POP SWAP5 SWAP4 POP POP POP POP JUMP JUMPDEST PUSH32 0x6C6F6767696E672066726F6D206465706F736974000000000000000000000000 PUSH0 DUP3 ADD MSTORE POP JUMP JUMPDEST PUSH0 PUSH2 0x22B PUSH1 0x14 DUP4 PUSH2 0xF7 JUMP JUMPDEST SWAP2 POP PUSH2 0x236 DUP3 PUSH2 0x1F7 JUMP JUMPDEST PUSH1 0x20 DUP3 ADD SWAP1 POP SWAP2 SWAP1 POP JUMP JUMPDEST PUSH0 PUSH1 0x40 DUP3 ADD SWAP1 POP PUSH2 0x254 PUSH0 DUP4 ADD DUP5 PUSH2 0xE8 JUMP JUMPDEST DUP2 DUP2 SUB PUSH1 0x20 DUP4 ADD MSTORE PUSH2 0x265 DUP2 PUSH2 0x21F JUMP JUMPDEST SWAP1 POP SWAP3 SWAP2 POP POP JUMP INVALID LOG2 PUSH5 0x6970667358 0x22 SLT KECCAK256 ADD 0x2E SWAP2 TSTORE EQ PUSH16 0x95CF55E26E4CC61A8A34D9E61B49EC6 SWAP6 0x29 LT 0xE9 DATALOADN 0x7F1D 0xF6 ADDMOD MSTORE8 PUSH5 0x736F6C6343 STOP ADDMOD 0x1E STOP CALLER "
				},
				"gasEstimates": {
					"creation": {
						"codeDepositCost": "135000",
						"executionCost": "2311",
						"totalCost": "137311"
					},
					"external": {
						"": "infinite",
						"deposit()": "2254"
					}
				},
				"methodIdentifiers": {
					"deposit()": "d0e30db0"
				}
			},
			"storageLayout": {
				"storage": [],
				"types": null
			},
			"userdoc": {
				"kind": "user",
				"methods": {},
				"version": 1
			}
		}
	}
}