{
	"contracts/M0d_n0TQEeigbgqkS_SCag_33725f6044d011e8a24183dd10a23236_BallotBasic.sol": {
		"Ballot": {
			"abi": [
				{
					"inputs": [
						{
							"internalType": "uint8",
							"name": "_numProposals",
							"type": "uint8"
						}
					],
					"stateMutability": "nonpayable",
					"type": "constructor"
				},
				{
					"inputs": [],
					"name": "getVoterAddresses",
					"outputs": [
						{
							"internalType": "address[]",
							"name": "",
							"type": "address[]"
						}
					],
					"stateMutability": "view",
					"type": "function"
				},
				{
					"inputs": [
						{
							"internalType": "address",
							"name": "toVoter",
							"type": "address"
						}
					],
					"name": "register",
					"outputs": [],
					"stateMutability": "nonpayable",
					"type": "function"
				},
				{
					"inputs": [
						{
							"internalType": "uint8",
							"name": "toProposal",
							"type": "uint8"
						}
					],
					"name": "vote",
					"outputs": [],
					"stateMutability": "nonpayable",
					"type": "function"
				},
				{
					"inputs": [],
					"name": "winningProposal",
					"outputs": [
						{
							"internalType": "uint8",
							"name": "_winningProposal",
							"type": "uint8"
						}
					],
					"stateMutability": "view",
					"type": "function"
				}
			],
			"devdoc": {
				"kind": "dev",
				"methods": {},
				"version": 1
			},
			"evm": {
				"assembly": "    /* \"contracts/M0d_n0TQEeigbgqkS_SCag_33725f6044d011e8a24183dd10a23236_BallotBasic.sol\":74:2002  contract Ballot {... */\n  mstore(0x40, 0x80)\n    /* \"contracts/M0d_n0TQEeigbgqkS_SCag_33725f6044d011e8a24183dd10a23236_BallotBasic.sol\":518:796  constructor(uint8 _numProposals) {... */\n  callvalue\n  dup1\n  iszero\n  tag_1\n  jumpi\n  revert(0x00, 0x00)\ntag_1:\n  pop\n  mload(0x40)\n  sub(codesize, bytecodeSize)\n  dup1\n  bytecodeSize\n  dup4\n  codecopy\n  dup2\n  dup2\n  add\n  0x40\n  mstore\n  dup2\n  add\n  swap1\n  tag_2\n  swap2\n  swap1\n  tag_3\n  jump\t// in\ntag_2:\n    /* \"contracts/M0d_n0TQEeigbgqkS_SCag_33725f6044d011e8a24183dd10a23236_BallotBasic.sol\":576:586  msg.sender */\n  caller\n    /* \"contracts/M0d_n0TQEeigbgqkS_SCag_33725f6044d011e8a24183dd10a23236_BallotBasic.sol\":562:573  chairperson */\n  0x00\n  0x00\n    /* \"contracts/M0d_n0TQEeigbgqkS_SCag_33725f6044d011e8a24183dd10a23236_BallotBasic.sol\":562:586  chairperson = msg.sender */\n  0x0100\n  exp\n  dup2\n  sload\n  dup2\n  0xffffffffffffffffffffffffffffffffffffffff\n  mul\n  not\n  and\n  swap1\n  dup4\n  0xffffffffffffffffffffffffffffffffffffffff\n  and\n  mul\n  or\n  swap1\n  sstore\n  pop\n    /* \"contracts/M0d_n0TQEeigbgqkS_SCag_33725f6044d011e8a24183dd10a23236_BallotBasic.sol\":626:627  2 */\n  0x02\n    /* \"contracts/M0d_n0TQEeigbgqkS_SCag_33725f6044d011e8a24183dd10a23236_BallotBasic.sol\":597:603  voters */\n  0x01\n    /* \"contracts/M0d_n0TQEeigbgqkS_SCag_33725f6044d011e8a24183dd10a23236_BallotBasic.sol\":597:616  voters[chairperson] */\n  0x00\n    /* \"contracts/M0d_n0TQEeigbgqkS_SCag_33725f6044d011e8a24183dd10a23236_BallotBasic.sol\":604:615  chairperson */\n  0x00\n  0x00\n  swap1\n  sload\n  swap1\n  0x0100\n  exp\n  swap1\n  div\n  0xffffffffffffffffffffffffffffffffffffffff\n  and\n    /* \"contracts/M0d_n0TQEeigbgqkS_SCag_33725f6044d011e8a24183dd10a23236_BallotBasic.sol\":597:616  voters[chairperson] */\n  0xffffffffffffffffffffffffffffffffffffffff\n  and\n  0xffffffffffffffffffffffffffffffffffffffff\n  and\n  dup2\n  mstore\n  0x20\n  add\n  swap1\n  dup2\n  mstore\n  0x20\n  add\n  0x00\n  keccak256\n    /* \"contracts/M0d_n0TQEeigbgqkS_SCag_33725f6044d011e8a24183dd10a23236_BallotBasic.sol\":597:623  voters[chairperson].weight */\n  0x00\n  add\n    /* \"contracts/M0d_n0TQEeigbgqkS_SCag_33725f6044d011e8a24183dd10a23236_BallotBasic.sol\":597:627  voters[chairperson].weight = 2 */\n  dup2\n  swap1\n  sstore\n  pop\n    /* \"contracts/M0d_n0TQEeigbgqkS_SCag_33725f6044d011e8a24183dd10a23236_BallotBasic.sol\":643:650  uint8 i */\n  0x00\n    /* \"contracts/M0d_n0TQEeigbgqkS_SCag_33725f6044d011e8a24183dd10a23236_BallotBasic.sol\":653:654  0 */\n  0x00\n    /* \"contracts/M0d_n0TQEeigbgqkS_SCag_33725f6044d011e8a24183dd10a23236_BallotBasic.sol\":643:654  uint8 i = 0 */\n  swap1\n  pop\n    /* \"contracts/M0d_n0TQEeigbgqkS_SCag_33725f6044d011e8a24183dd10a23236_BallotBasic.sol\":638:789  for (uint8 i = 0; i < _numProposals; i++) ... */\ntag_6:\n    /* \"contracts/M0d_n0TQEeigbgqkS_SCag_33725f6044d011e8a24183dd10a23236_BallotBasic.sol\":660:673  _numProposals */\n  dup2\n    /* \"contracts/M0d_n0TQEeigbgqkS_SCag_33725f6044d011e8a24183dd10a23236_BallotBasic.sol\":656:673  i < _numProposals */\n  0xff\n  and\n    /* \"contracts/M0d_n0TQEeigbgqkS_SCag_33725f6044d011e8a24183dd10a23236_BallotBasic.sol\":656:657  i */\n  dup2\n    /* \"contracts/M0d_n0TQEeigbgqkS_SCag_33725f6044d011e8a24183dd10a23236_BallotBasic.sol\":656:673  i < _numProposals */\n  0xff\n  and\n  lt\n    /* \"contracts/M0d_n0TQEeigbgqkS_SCag_33725f6044d011e8a24183dd10a23236_BallotBasic.sol\":638:789  for (uint8 i = 0; i < _numProposals; i++) ... */\n  iszero\n  tag_7\n  jumpi\n    /* \"contracts/M0d_n0TQEeigbgqkS_SCag_33725f6044d011e8a24183dd10a23236_BallotBasic.sol\":705:714  proposals */\n  0x03\n    /* \"contracts/M0d_n0TQEeigbgqkS_SCag_33725f6044d011e8a24183dd10a23236_BallotBasic.sol\":720:776  Proposal({... */\n  mload(0x40)\n  dup1\n  0x20\n  add\n  0x40\n  mstore\n  dup1\n    /* \"contracts/M0d_n0TQEeigbgqkS_SCag_33725f6044d011e8a24183dd10a23236_BallotBasic.sol\":759:760  0 */\n  0x00\n    /* \"contracts/M0d_n0TQEeigbgqkS_SCag_33725f6044d011e8a24183dd10a23236_BallotBasic.sol\":720:776  Proposal({... */\n  dup2\n  mstore\n  pop\n    /* \"contracts/M0d_n0TQEeigbgqkS_SCag_33725f6044d011e8a24183dd10a23236_BallotBasic.sol\":705:777  proposals.push(Proposal({... */\n  swap1\n  dup1\n  0x01\n  dup2\n  sload\n  add\n  dup1\n  dup3\n  sstore\n  dup1\n  swap2\n  pop\n  pop\n  0x01\n  swap1\n  sub\n  swap1\n  0x00\n  mstore\n  keccak256(0x00, 0x20)\n  add\n  0x00\n  swap1\n  swap2\n  swap1\n  swap2\n  swap1\n  swap2\n  pop\n  0x00\n  dup3\n  add\n  mload\n  dup2\n  0x00\n  add\n  sstore\n  pop\n  pop\n    /* \"contracts/M0d_n0TQEeigbgqkS_SCag_33725f6044d011e8a24183dd10a23236_BallotBasic.sol\":675:678  i++ */\n  dup1\n  dup1\n  0x01\n  add\n  swap2\n  pop\n  pop\n    /* \"contracts/M0d_n0TQEeigbgqkS_SCag_33725f6044d011e8a24183dd10a23236_BallotBasic.sol\":638:789  for (uint8 i = 0; i < _numProposals; i++) ... */\n  jump(tag_6)\ntag_7:\n  pop\n    /* \"contracts/M0d_n0TQEeigbgqkS_SCag_33725f6044d011e8a24183dd10a23236_BallotBasic.sol\":518:796  constructor(uint8 _numProposals) {... */\n  pop\n    /* \"contracts/M0d_n0TQEeigbgqkS_SCag_33725f6044d011e8a24183dd10a23236_BallotBasic.sol\":74:2002  contract Ballot {... */\n  jump(tag_10)\n    /* \"#utility.yul\":88:205   */\ntag_12:\n    /* \"#utility.yul\":197:198   */\n  0x00\n    /* \"#utility.yul\":194:195   */\n  0x00\n    /* \"#utility.yul\":187:199   */\n  revert\n    /* \"#utility.yul\":334:420   */\ntag_14:\n    /* \"#utility.yul\":369:376   */\n  0x00\n    /* \"#utility.yul\":409:413   */\n  0xff\n    /* \"#utility.yul\":402:407   */\n  dup3\n    /* \"#utility.yul\":398:414   */\n  and\n    /* \"#utility.yul\":387:414   */\n  swap1\n  pop\n    /* \"#utility.yul\":334:420   */\n  swap2\n  swap1\n  pop\n  jump\t// out\n    /* \"#utility.yul\":426:544   */\ntag_15:\n    /* \"#utility.yul\":497:519   */\n  tag_23\n    /* \"#utility.yul\":513:518   */\n  dup2\n    /* \"#utility.yul\":497:519   */\n  tag_14\n  jump\t// in\ntag_23:\n    /* \"#utility.yul\":490:495   */\n  dup2\n    /* \"#utility.yul\":487:520   */\n  eq\n    /* \"#utility.yul\":477:538   */\n  tag_24\n  jumpi\n    /* \"#utility.yul\":534:535   */\n  0x00\n    /* \"#utility.yul\":531:532   */\n  0x00\n    /* \"#utility.yul\":524:536   */\n  revert\n    /* \"#utility.yul\":477:538   */\ntag_24:\n    /* \"#utility.yul\":426:544   */\n  pop\n  jump\t// out\n    /* \"#utility.yul\":550:689   */\ntag_16:\n    /* \"#utility.yul\":605:610   */\n  0x00\n    /* \"#utility.yul\":636:642   */\n  dup2\n    /* \"#utility.yul\":630:643   */\n  mload\n    /* \"#utility.yul\":621:643   */\n  swap1\n  pop\n    /* \"#utility.yul\":652:683   */\n  tag_26\n    /* \"#utility.yul\":677:682   */\n  dup2\n    /* \"#utility.yul\":652:683   */\n  tag_15\n  jump\t// in\ntag_26:\n    /* \"#utility.yul\":550:689   */\n  swap3\n  swap2\n  pop\n  pop\n  jump\t// out\n    /* \"#utility.yul\":695:1042   */\ntag_3:\n    /* \"#utility.yul\":763:769   */\n  0x00\n    /* \"#utility.yul\":812:814   */\n  0x20\n    /* \"#utility.yul\":800:809   */\n  dup3\n    /* \"#utility.yul\":791:798   */\n  dup5\n    /* \"#utility.yul\":787:810   */\n  sub\n    /* \"#utility.yul\":783:815   */\n  slt\n    /* \"#utility.yul\":780:899   */\n  iszero\n  tag_28\n  jumpi\n    /* \"#utility.yul\":818:897   */\n  tag_29\n  tag_12\n  jump\t// in\ntag_29:\n    /* \"#utility.yul\":780:899   */\ntag_28:\n    /* \"#utility.yul\":938:939   */\n  0x00\n    /* \"#utility.yul\":963:1025   */\n  tag_30\n    /* \"#utility.yul\":1017:1024   */\n  dup5\n    /* \"#utility.yul\":1008:1014   */\n  dup3\n    /* \"#utility.yul\":997:1006   */\n  dup6\n    /* \"#utility.yul\":993:1015   */\n  add\n    /* \"#utility.yul\":963:1025   */\n  tag_16\n  jump\t// in\ntag_30:\n    /* \"#utility.yul\":953:1025   */\n  swap2\n  pop\n    /* \"#utility.yul\":909:1035   */\n  pop\n    /* \"#utility.yul\":695:1042   */\n  swap3\n  swap2\n  pop\n  pop\n  jump\t// out\n    /* \"contracts/M0d_n0TQEeigbgqkS_SCag_33725f6044d011e8a24183dd10a23236_BallotBasic.sol\":74:2002  contract Ballot {... */\ntag_10:\n  dataSize(sub_0)\n  dup1\n  dataOffset(sub_0)\n  0x00\n  codecopy\n  0x00\n  return\nstop\n\nsub_0: assembly {\n        /* \"contracts/M0d_n0TQEeigbgqkS_SCag_33725f6044d011e8a24183dd10a23236_BallotBasic.sol\":74:2002  contract Ballot {... */\n      mstore(0x40, 0x80)\n      callvalue\n      dup1\n      iszero\n      tag_1\n      jumpi\n      revert(0x00, 0x00)\n    tag_1:\n      pop\n      jumpi(tag_2, lt(calldatasize, 0x04))\n      shr(0xe0, calldataload(0x00))\n      dup1\n      0x0a16e30b\n      eq\n      tag_3\n      jumpi\n      dup1\n      0x4420e486\n      eq\n      tag_4\n      jumpi\n      dup1\n      0x609ff1bd\n      eq\n      tag_5\n      jumpi\n      dup1\n      0xb3f98adc\n      eq\n      tag_6\n      jumpi\n    tag_2:\n      revert(0x00, 0x00)\n        /* \"contracts/M0d_n0TQEeigbgqkS_SCag_33725f6044d011e8a24183dd10a23236_BallotBasic.sol\":1891:1999  function getVoterAddresses() public view returns (address[] memory) {... */\n    tag_3:\n      tag_7\n      tag_8\n      jump\t// in\n    tag_7:\n      mload(0x40)\n      tag_9\n      swap2\n      swap1\n      tag_10\n      jump\t// in\n    tag_9:\n      mload(0x40)\n      dup1\n      swap2\n      sub\n      swap1\n      return\n        /* \"contracts/M0d_n0TQEeigbgqkS_SCag_33725f6044d011e8a24183dd10a23236_BallotBasic.sol\":910:1149  function register(address toVoter) public {... */\n    tag_4:\n      tag_11\n      0x04\n      dup1\n      calldatasize\n      sub\n      dup2\n      add\n      swap1\n      tag_12\n      swap2\n      swap1\n      tag_13\n      jump\t// in\n    tag_12:\n      tag_14\n      jump\t// in\n    tag_11:\n      stop\n        /* \"contracts/M0d_n0TQEeigbgqkS_SCag_33725f6044d011e8a24183dd10a23236_BallotBasic.sol\":1512:1879  function winningProposal() public view returns (uint8 _winningProposal) {... */\n    tag_5:\n      tag_15\n      tag_16\n      jump\t// in\n    tag_15:\n      mload(0x40)\n      tag_17\n      swap2\n      swap1\n      tag_18\n      jump\t// in\n    tag_17:\n      mload(0x40)\n      dup1\n      swap2\n      sub\n      swap1\n      return\n        /* \"contracts/M0d_n0TQEeigbgqkS_SCag_33725f6044d011e8a24183dd10a23236_BallotBasic.sol\":1212:1504  function vote(uint8 toProposal) public {... */\n    tag_6:\n      tag_19\n      0x04\n      dup1\n      calldatasize\n      sub\n      dup2\n      add\n      swap1\n      tag_20\n      swap2\n      swap1\n      tag_21\n      jump\t// in\n    tag_20:\n      tag_22\n      jump\t// in\n    tag_19:\n      stop\n        /* \"contracts/M0d_n0TQEeigbgqkS_SCag_33725f6044d011e8a24183dd10a23236_BallotBasic.sol\":1891:1999  function getVoterAddresses() public view returns (address[] memory) {... */\n    tag_8:\n        /* \"contracts/M0d_n0TQEeigbgqkS_SCag_33725f6044d011e8a24183dd10a23236_BallotBasic.sol\":1941:1957  address[] memory */\n      0x60\n        /* \"contracts/M0d_n0TQEeigbgqkS_SCag_33725f6044d011e8a24183dd10a23236_BallotBasic.sol\":1977:1991  voterAddresses */\n      0x02\n        /* \"contracts/M0d_n0TQEeigbgqkS_SCag_33725f6044d011e8a24183dd10a23236_BallotBasic.sol\":1970:1991  return voterAddresses */\n      dup1\n      sload\n      dup1\n      0x20\n      mul\n      0x20\n      add\n      mload(0x40)\n      swap1\n      dup2\n      add\n      0x40\n      mstore\n      dup1\n      swap3\n      swap2\n      swap1\n      dup2\n      dup2\n      mstore\n      0x20\n      add\n      dup3\n      dup1\n      sload\n      dup1\n      iszero\n      tag_24\n      jumpi\n      0x20\n      mul\n      dup3\n      add\n      swap2\n      swap1\n      0x00\n      mstore\n      keccak256(0x00, 0x20)\n      swap1\n    tag_25:\n      dup2\n      0x00\n      swap1\n      sload\n      swap1\n      0x0100\n      exp\n      swap1\n      div\n      0xffffffffffffffffffffffffffffffffffffffff\n      and\n      0xffffffffffffffffffffffffffffffffffffffff\n      and\n      dup2\n      mstore\n      0x20\n      add\n      swap1\n      0x01\n      add\n      swap1\n      dup1\n      dup4\n      gt\n      tag_25\n      jumpi\n    tag_24:\n      pop\n      pop\n      pop\n      pop\n      pop\n      swap1\n      pop\n        /* \"contracts/M0d_n0TQEeigbgqkS_SCag_33725f6044d011e8a24183dd10a23236_BallotBasic.sol\":1891:1999  function getVoterAddresses() public view returns (address[] memory) {... */\n      swap1\n      jump\t// out\n        /* \"contracts/M0d_n0TQEeigbgqkS_SCag_33725f6044d011e8a24183dd10a23236_BallotBasic.sol\":910:1149  function register(address toVoter) public {... */\n    tag_14:\n        /* \"contracts/M0d_n0TQEeigbgqkS_SCag_33725f6044d011e8a24183dd10a23236_BallotBasic.sol\":981:992  chairperson */\n      0x00\n      0x00\n      swap1\n      sload\n      swap1\n      0x0100\n      exp\n      swap1\n      div\n      0xffffffffffffffffffffffffffffffffffffffff\n      and\n        /* \"contracts/M0d_n0TQEeigbgqkS_SCag_33725f6044d011e8a24183dd10a23236_BallotBasic.sol\":967:992  msg.sender != chairperson */\n      0xffffffffffffffffffffffffffffffffffffffff\n      and\n        /* \"contracts/M0d_n0TQEeigbgqkS_SCag_33725f6044d011e8a24183dd10a23236_BallotBasic.sol\":967:977  msg.sender */\n      caller\n        /* \"contracts/M0d_n0TQEeigbgqkS_SCag_33725f6044d011e8a24183dd10a23236_BallotBasic.sol\":967:992  msg.sender != chairperson */\n      0xffffffffffffffffffffffffffffffffffffffff\n      and\n      eq\n      iszero\n        /* \"contracts/M0d_n0TQEeigbgqkS_SCag_33725f6044d011e8a24183dd10a23236_BallotBasic.sol\":967:1017  msg.sender != chairperson || voters[toVoter].voted */\n      dup1\n      tag_27\n      jumpi\n      pop\n        /* \"contracts/M0d_n0TQEeigbgqkS_SCag_33725f6044d011e8a24183dd10a23236_BallotBasic.sol\":996:1002  voters */\n      0x01\n        /* \"contracts/M0d_n0TQEeigbgqkS_SCag_33725f6044d011e8a24183dd10a23236_BallotBasic.sol\":996:1011  voters[toVoter] */\n      0x00\n        /* \"contracts/M0d_n0TQEeigbgqkS_SCag_33725f6044d011e8a24183dd10a23236_BallotBasic.sol\":1003:1010  toVoter */\n      dup3\n        /* \"contracts/M0d_n0TQEeigbgqkS_SCag_33725f6044d011e8a24183dd10a23236_BallotBasic.sol\":996:1011  voters[toVoter] */\n      0xffffffffffffffffffffffffffffffffffffffff\n      and\n      0xffffffffffffffffffffffffffffffffffffffff\n      and\n      dup2\n      mstore\n      0x20\n      add\n      swap1\n      dup2\n      mstore\n      0x20\n      add\n      0x00\n      keccak256\n        /* \"contracts/M0d_n0TQEeigbgqkS_SCag_33725f6044d011e8a24183dd10a23236_BallotBasic.sol\":996:1017  voters[toVoter].voted */\n      0x01\n      add\n      0x00\n      swap1\n      sload\n      swap1\n      0x0100\n      exp\n      swap1\n      div\n      0xff\n      and\n        /* \"contracts/M0d_n0TQEeigbgqkS_SCag_33725f6044d011e8a24183dd10a23236_BallotBasic.sol\":967:1017  msg.sender != chairperson || voters[toVoter].voted */\n    tag_27:\n        /* \"contracts/M0d_n0TQEeigbgqkS_SCag_33725f6044d011e8a24183dd10a23236_BallotBasic.sol\":1019:1026  return; */\n      tag_26\n        /* \"contracts/M0d_n0TQEeigbgqkS_SCag_33725f6044d011e8a24183dd10a23236_BallotBasic.sol\":963:1026  if (msg.sender != chairperson || voters[toVoter].voted) return; */\n      jumpi\n        /* \"contracts/M0d_n0TQEeigbgqkS_SCag_33725f6044d011e8a24183dd10a23236_BallotBasic.sol\":1061:1062  1 */\n      0x01\n        /* \"contracts/M0d_n0TQEeigbgqkS_SCag_33725f6044d011e8a24183dd10a23236_BallotBasic.sol\":1036:1042  voters */\n      dup1\n        /* \"contracts/M0d_n0TQEeigbgqkS_SCag_33725f6044d011e8a24183dd10a23236_BallotBasic.sol\":1036:1051  voters[toVoter] */\n      0x00\n        /* \"contracts/M0d_n0TQEeigbgqkS_SCag_33725f6044d011e8a24183dd10a23236_BallotBasic.sol\":1043:1050  toVoter */\n      dup4\n        /* \"contracts/M0d_n0TQEeigbgqkS_SCag_33725f6044d011e8a24183dd10a23236_BallotBasic.sol\":1036:1051  voters[toVoter] */\n      0xffffffffffffffffffffffffffffffffffffffff\n      and\n      0xffffffffffffffffffffffffffffffffffffffff\n      and\n      dup2\n      mstore\n      0x20\n      add\n      swap1\n      dup2\n      mstore\n      0x20\n      add\n      0x00\n      keccak256\n        /* \"contracts/M0d_n0TQEeigbgqkS_SCag_33725f6044d011e8a24183dd10a23236_BallotBasic.sol\":1036:1058  voters[toVoter].weight */\n      0x00\n      add\n        /* \"contracts/M0d_n0TQEeigbgqkS_SCag_33725f6044d011e8a24183dd10a23236_BallotBasic.sol\":1036:1062  voters[toVoter].weight = 1 */\n      dup2\n      swap1\n      sstore\n      pop\n        /* \"contracts/M0d_n0TQEeigbgqkS_SCag_33725f6044d011e8a24183dd10a23236_BallotBasic.sol\":1097:1102  false */\n      0x00\n        /* \"contracts/M0d_n0TQEeigbgqkS_SCag_33725f6044d011e8a24183dd10a23236_BallotBasic.sol\":1073:1079  voters */\n      0x01\n        /* \"contracts/M0d_n0TQEeigbgqkS_SCag_33725f6044d011e8a24183dd10a23236_BallotBasic.sol\":1073:1088  voters[toVoter] */\n      0x00\n        /* \"contracts/M0d_n0TQEeigbgqkS_SCag_33725f6044d011e8a24183dd10a23236_BallotBasic.sol\":1080:1087  toVoter */\n      dup4\n        /* \"contracts/M0d_n0TQEeigbgqkS_SCag_33725f6044d011e8a24183dd10a23236_BallotBasic.sol\":1073:1088  voters[toVoter] */\n      0xffffffffffffffffffffffffffffffffffffffff\n      and\n      0xffffffffffffffffffffffffffffffffffffffff\n      and\n      dup2\n      mstore\n      0x20\n      add\n      swap1\n      dup2\n      mstore\n      0x20\n      add\n      0x00\n      keccak256\n        /* \"contracts/M0d_n0TQEeigbgqkS_SCag_33725f6044d011e8a24183dd10a23236_BallotBasic.sol\":1073:1094  voters[toVoter].voted */\n      0x01\n      add\n      0x00\n        /* \"contracts/M0d_n0TQEeigbgqkS_SCag_33725f6044d011e8a24183dd10a23236_BallotBasic.sol\":1073:1102  voters[toVoter].voted = false */\n      0x0100\n      exp\n      dup2\n      sload\n      dup2\n      0xff\n      mul\n      not\n      and\n      swap1\n      dup4\n      iszero\n      iszero\n      mul\n      or\n      swap1\n      sstore\n      pop\n        /* \"contracts/M0d_n0TQEeigbgqkS_SCag_33725f6044d011e8a24183dd10a23236_BallotBasic.sol\":1113:1127  voterAddresses */\n      0x02\n        /* \"contracts/M0d_n0TQEeigbgqkS_SCag_33725f6044d011e8a24183dd10a23236_BallotBasic.sol\":1133:1140  toVoter */\n      dup2\n        /* \"contracts/M0d_n0TQEeigbgqkS_SCag_33725f6044d011e8a24183dd10a23236_BallotBasic.sol\":1113:1141  voterAddresses.push(toVoter) */\n      swap1\n      dup1\n      0x01\n      dup2\n      sload\n      add\n      dup1\n      dup3\n      sstore\n      dup1\n      swap2\n      pop\n      pop\n      0x01\n      swap1\n      sub\n      swap1\n      0x00\n      mstore\n      keccak256(0x00, 0x20)\n      add\n      0x00\n      swap1\n      swap2\n      swap1\n      swap2\n      swap1\n      swap2\n      0x0100\n      exp\n      dup2\n      sload\n      dup2\n      0xffffffffffffffffffffffffffffffffffffffff\n      mul\n      not\n      and\n      swap1\n      dup4\n      0xffffffffffffffffffffffffffffffffffffffff\n      and\n      mul\n      or\n      swap1\n      sstore\n      pop\n        /* \"contracts/M0d_n0TQEeigbgqkS_SCag_33725f6044d011e8a24183dd10a23236_BallotBasic.sol\":910:1149  function register(address toVoter) public {... */\n    tag_26:\n      pop\n      jump\t// out\n        /* \"contracts/M0d_n0TQEeigbgqkS_SCag_33725f6044d011e8a24183dd10a23236_BallotBasic.sol\":1512:1879  function winningProposal() public view returns (uint8 _winningProposal) {... */\n    tag_16:\n        /* \"contracts/M0d_n0TQEeigbgqkS_SCag_33725f6044d011e8a24183dd10a23236_BallotBasic.sol\":1560:1582  uint8 _winningProposal */\n      0x00\n        /* \"contracts/M0d_n0TQEeigbgqkS_SCag_33725f6044d011e8a24183dd10a23236_BallotBasic.sol\":1595:1619  uint256 winningVoteCount */\n      0x00\n        /* \"contracts/M0d_n0TQEeigbgqkS_SCag_33725f6044d011e8a24183dd10a23236_BallotBasic.sol\":1622:1623  0 */\n      0x00\n        /* \"contracts/M0d_n0TQEeigbgqkS_SCag_33725f6044d011e8a24183dd10a23236_BallotBasic.sol\":1595:1623  uint256 winningVoteCount = 0 */\n      swap1\n      pop\n        /* \"contracts/M0d_n0TQEeigbgqkS_SCag_33725f6044d011e8a24183dd10a23236_BallotBasic.sol\":1639:1649  uint8 prop */\n      0x00\n        /* \"contracts/M0d_n0TQEeigbgqkS_SCag_33725f6044d011e8a24183dd10a23236_BallotBasic.sol\":1652:1653  0 */\n      0x00\n        /* \"contracts/M0d_n0TQEeigbgqkS_SCag_33725f6044d011e8a24183dd10a23236_BallotBasic.sol\":1639:1653  uint8 prop = 0 */\n      swap1\n      pop\n        /* \"contracts/M0d_n0TQEeigbgqkS_SCag_33725f6044d011e8a24183dd10a23236_BallotBasic.sol\":1634:1872  for (uint8 prop = 0; prop < proposals.length; prop++)... */\n    tag_31:\n        /* \"contracts/M0d_n0TQEeigbgqkS_SCag_33725f6044d011e8a24183dd10a23236_BallotBasic.sol\":1662:1671  proposals */\n      0x03\n        /* \"contracts/M0d_n0TQEeigbgqkS_SCag_33725f6044d011e8a24183dd10a23236_BallotBasic.sol\":1662:1678  proposals.length */\n      dup1\n      sload\n      swap1\n      pop\n        /* \"contracts/M0d_n0TQEeigbgqkS_SCag_33725f6044d011e8a24183dd10a23236_BallotBasic.sol\":1655:1659  prop */\n      dup2\n        /* \"contracts/M0d_n0TQEeigbgqkS_SCag_33725f6044d011e8a24183dd10a23236_BallotBasic.sol\":1655:1678  prop < proposals.length */\n      0xff\n      and\n      lt\n        /* \"contracts/M0d_n0TQEeigbgqkS_SCag_33725f6044d011e8a24183dd10a23236_BallotBasic.sol\":1634:1872  for (uint8 prop = 0; prop < proposals.length; prop++)... */\n      iszero\n      tag_32\n      jumpi\n        /* \"contracts/M0d_n0TQEeigbgqkS_SCag_33725f6044d011e8a24183dd10a23236_BallotBasic.sol\":1733:1749  winningVoteCount */\n      dup2\n        /* \"contracts/M0d_n0TQEeigbgqkS_SCag_33725f6044d011e8a24183dd10a23236_BallotBasic.sol\":1705:1714  proposals */\n      0x03\n        /* \"contracts/M0d_n0TQEeigbgqkS_SCag_33725f6044d011e8a24183dd10a23236_BallotBasic.sol\":1715:1719  prop */\n      dup3\n        /* \"contracts/M0d_n0TQEeigbgqkS_SCag_33725f6044d011e8a24183dd10a23236_BallotBasic.sol\":1705:1720  proposals[prop] */\n      0xff\n      and\n      dup2\n      sload\n      dup2\n      lt\n      tag_34\n      jumpi\n      tag_35\n      tag_36\n      jump\t// in\n    tag_35:\n    tag_34:\n      swap1\n      0x00\n      mstore\n      keccak256(0x00, 0x20)\n      add\n        /* \"contracts/M0d_n0TQEeigbgqkS_SCag_33725f6044d011e8a24183dd10a23236_BallotBasic.sol\":1705:1730  proposals[prop].voteCount */\n      0x00\n      add\n      sload\n        /* \"contracts/M0d_n0TQEeigbgqkS_SCag_33725f6044d011e8a24183dd10a23236_BallotBasic.sol\":1705:1749  proposals[prop].voteCount > winningVoteCount */\n      gt\n        /* \"contracts/M0d_n0TQEeigbgqkS_SCag_33725f6044d011e8a24183dd10a23236_BallotBasic.sol\":1701:1872  if (proposals[prop].voteCount > winningVoteCount) {... */\n      iszero\n      tag_38\n      jumpi\n        /* \"contracts/M0d_n0TQEeigbgqkS_SCag_33725f6044d011e8a24183dd10a23236_BallotBasic.sol\":1789:1798  proposals */\n      0x03\n        /* \"contracts/M0d_n0TQEeigbgqkS_SCag_33725f6044d011e8a24183dd10a23236_BallotBasic.sol\":1799:1803  prop */\n      dup2\n        /* \"contracts/M0d_n0TQEeigbgqkS_SCag_33725f6044d011e8a24183dd10a23236_BallotBasic.sol\":1789:1804  proposals[prop] */\n      0xff\n      and\n      dup2\n      sload\n      dup2\n      lt\n      tag_39\n      jumpi\n      tag_40\n      tag_36\n      jump\t// in\n    tag_40:\n    tag_39:\n      swap1\n      0x00\n      mstore\n      keccak256(0x00, 0x20)\n      add\n        /* \"contracts/M0d_n0TQEeigbgqkS_SCag_33725f6044d011e8a24183dd10a23236_BallotBasic.sol\":1789:1814  proposals[prop].voteCount */\n      0x00\n      add\n      sload\n        /* \"contracts/M0d_n0TQEeigbgqkS_SCag_33725f6044d011e8a24183dd10a23236_BallotBasic.sol\":1770:1814  winningVoteCount = proposals[prop].voteCount */\n      swap2\n      pop\n        /* \"contracts/M0d_n0TQEeigbgqkS_SCag_33725f6044d011e8a24183dd10a23236_BallotBasic.sol\":1852:1856  prop */\n      dup1\n        /* \"contracts/M0d_n0TQEeigbgqkS_SCag_33725f6044d011e8a24183dd10a23236_BallotBasic.sol\":1833:1856  _winningProposal = prop */\n      swap3\n      pop\n        /* \"contracts/M0d_n0TQEeigbgqkS_SCag_33725f6044d011e8a24183dd10a23236_BallotBasic.sol\":1701:1872  if (proposals[prop].voteCount > winningVoteCount) {... */\n    tag_38:\n        /* \"contracts/M0d_n0TQEeigbgqkS_SCag_33725f6044d011e8a24183dd10a23236_BallotBasic.sol\":1680:1686  prop++ */\n      dup1\n      dup1\n      tag_42\n      swap1\n      tag_43\n      jump\t// in\n    tag_42:\n      swap2\n      pop\n      pop\n        /* \"contracts/M0d_n0TQEeigbgqkS_SCag_33725f6044d011e8a24183dd10a23236_BallotBasic.sol\":1634:1872  for (uint8 prop = 0; prop < proposals.length; prop++)... */\n      jump(tag_31)\n    tag_32:\n      pop\n        /* \"contracts/M0d_n0TQEeigbgqkS_SCag_33725f6044d011e8a24183dd10a23236_BallotBasic.sol\":1584:1879  {... */\n      pop\n        /* \"contracts/M0d_n0TQEeigbgqkS_SCag_33725f6044d011e8a24183dd10a23236_BallotBasic.sol\":1512:1879  function winningProposal() public view returns (uint8 _winningProposal) {... */\n      swap1\n      jump\t// out\n        /* \"contracts/M0d_n0TQEeigbgqkS_SCag_33725f6044d011e8a24183dd10a23236_BallotBasic.sol\":1212:1504  function vote(uint8 toProposal) public {... */\n    tag_22:\n        /* \"contracts/M0d_n0TQEeigbgqkS_SCag_33725f6044d011e8a24183dd10a23236_BallotBasic.sol\":1262:1282  Voter storage sender */\n      0x00\n        /* \"contracts/M0d_n0TQEeigbgqkS_SCag_33725f6044d011e8a24183dd10a23236_BallotBasic.sol\":1285:1291  voters */\n      0x01\n        /* \"contracts/M0d_n0TQEeigbgqkS_SCag_33725f6044d011e8a24183dd10a23236_BallotBasic.sol\":1285:1303  voters[msg.sender] */\n      0x00\n        /* \"contracts/M0d_n0TQEeigbgqkS_SCag_33725f6044d011e8a24183dd10a23236_BallotBasic.sol\":1292:1302  msg.sender */\n      caller\n        /* \"contracts/M0d_n0TQEeigbgqkS_SCag_33725f6044d011e8a24183dd10a23236_BallotBasic.sol\":1285:1303  voters[msg.sender] */\n      0xffffffffffffffffffffffffffffffffffffffff\n      and\n      0xffffffffffffffffffffffffffffffffffffffff\n      and\n      dup2\n      mstore\n      0x20\n      add\n      swap1\n      dup2\n      mstore\n      0x20\n      add\n      0x00\n      keccak256\n        /* \"contracts/M0d_n0TQEeigbgqkS_SCag_33725f6044d011e8a24183dd10a23236_BallotBasic.sol\":1262:1303  Voter storage sender = voters[msg.sender] */\n      swap1\n      pop\n        /* \"contracts/M0d_n0TQEeigbgqkS_SCag_33725f6044d011e8a24183dd10a23236_BallotBasic.sol\":1318:1324  sender */\n      dup1\n        /* \"contracts/M0d_n0TQEeigbgqkS_SCag_33725f6044d011e8a24183dd10a23236_BallotBasic.sol\":1318:1330  sender.voted */\n      0x01\n      add\n      0x00\n      swap1\n      sload\n      swap1\n      0x0100\n      exp\n      swap1\n      div\n      0xff\n      and\n        /* \"contracts/M0d_n0TQEeigbgqkS_SCag_33725f6044d011e8a24183dd10a23236_BallotBasic.sol\":1318:1364  sender.voted || toProposal >= proposals.length */\n      dup1\n      tag_45\n      jumpi\n      pop\n        /* \"contracts/M0d_n0TQEeigbgqkS_SCag_33725f6044d011e8a24183dd10a23236_BallotBasic.sol\":1348:1357  proposals */\n      0x03\n        /* \"contracts/M0d_n0TQEeigbgqkS_SCag_33725f6044d011e8a24183dd10a23236_BallotBasic.sol\":1348:1364  proposals.length */\n      dup1\n      sload\n      swap1\n      pop\n        /* \"contracts/M0d_n0TQEeigbgqkS_SCag_33725f6044d011e8a24183dd10a23236_BallotBasic.sol\":1334:1344  toProposal */\n      dup3\n        /* \"contracts/M0d_n0TQEeigbgqkS_SCag_33725f6044d011e8a24183dd10a23236_BallotBasic.sol\":1334:1364  toProposal >= proposals.length */\n      0xff\n      and\n      lt\n      iszero\n        /* \"contracts/M0d_n0TQEeigbgqkS_SCag_33725f6044d011e8a24183dd10a23236_BallotBasic.sol\":1318:1364  sender.voted || toProposal >= proposals.length */\n    tag_45:\n        /* \"contracts/M0d_n0TQEeigbgqkS_SCag_33725f6044d011e8a24183dd10a23236_BallotBasic.sol\":1314:1373  if (sender.voted || toProposal >= proposals.length) return; */\n      iszero\n      tag_46\n      jumpi\n        /* \"contracts/M0d_n0TQEeigbgqkS_SCag_33725f6044d011e8a24183dd10a23236_BallotBasic.sol\":1366:1373  return; */\n      pop\n      jump(tag_44)\n        /* \"contracts/M0d_n0TQEeigbgqkS_SCag_33725f6044d011e8a24183dd10a23236_BallotBasic.sol\":1314:1373  if (sender.voted || toProposal >= proposals.length) return; */\n    tag_46:\n        /* \"contracts/M0d_n0TQEeigbgqkS_SCag_33725f6044d011e8a24183dd10a23236_BallotBasic.sol\":1398:1402  true */\n      0x01\n        /* \"contracts/M0d_n0TQEeigbgqkS_SCag_33725f6044d011e8a24183dd10a23236_BallotBasic.sol\":1383:1389  sender */\n      dup2\n        /* \"contracts/M0d_n0TQEeigbgqkS_SCag_33725f6044d011e8a24183dd10a23236_BallotBasic.sol\":1383:1395  sender.voted */\n      0x01\n      add\n      0x00\n        /* \"contracts/M0d_n0TQEeigbgqkS_SCag_33725f6044d011e8a24183dd10a23236_BallotBasic.sol\":1383:1402  sender.voted = true */\n      0x0100\n      exp\n      dup2\n      sload\n      dup2\n      0xff\n      mul\n      not\n      and\n      swap1\n      dup4\n      iszero\n      iszero\n      mul\n      or\n      swap1\n      sstore\n      pop\n        /* \"contracts/M0d_n0TQEeigbgqkS_SCag_33725f6044d011e8a24183dd10a23236_BallotBasic.sol\":1427:1437  toProposal */\n      dup2\n        /* \"contracts/M0d_n0TQEeigbgqkS_SCag_33725f6044d011e8a24183dd10a23236_BallotBasic.sol\":1413:1419  sender */\n      dup2\n        /* \"contracts/M0d_n0TQEeigbgqkS_SCag_33725f6044d011e8a24183dd10a23236_BallotBasic.sol\":1413:1424  sender.vote */\n      0x01\n      add\n      0x01\n        /* \"contracts/M0d_n0TQEeigbgqkS_SCag_33725f6044d011e8a24183dd10a23236_BallotBasic.sol\":1413:1437  sender.vote = toProposal */\n      0x0100\n      exp\n      dup2\n      sload\n      dup2\n      0xff\n      mul\n      not\n      and\n      swap1\n      dup4\n      0xff\n      and\n      mul\n      or\n      swap1\n      sstore\n      pop\n        /* \"contracts/M0d_n0TQEeigbgqkS_SCag_33725f6044d011e8a24183dd10a23236_BallotBasic.sol\":1483:1489  sender */\n      dup1\n        /* \"contracts/M0d_n0TQEeigbgqkS_SCag_33725f6044d011e8a24183dd10a23236_BallotBasic.sol\":1483:1496  sender.weight */\n      0x00\n      add\n      sload\n        /* \"contracts/M0d_n0TQEeigbgqkS_SCag_33725f6044d011e8a24183dd10a23236_BallotBasic.sol\":1448:1457  proposals */\n      0x03\n        /* \"contracts/M0d_n0TQEeigbgqkS_SCag_33725f6044d011e8a24183dd10a23236_BallotBasic.sol\":1458:1468  toProposal */\n      dup4\n        /* \"contracts/M0d_n0TQEeigbgqkS_SCag_33725f6044d011e8a24183dd10a23236_BallotBasic.sol\":1448:1469  proposals[toProposal] */\n      0xff\n      and\n      dup2\n      sload\n      dup2\n      lt\n      tag_47\n      jumpi\n      tag_48\n      tag_36\n      jump\t// in\n    tag_48:\n    tag_47:\n      swap1\n      0x00\n      mstore\n      keccak256(0x00, 0x20)\n      add\n        /* \"contracts/M0d_n0TQEeigbgqkS_SCag_33725f6044d011e8a24183dd10a23236_BallotBasic.sol\":1448:1479  proposals[toProposal].voteCount */\n      0x00\n      add\n      0x00\n        /* \"contracts/M0d_n0TQEeigbgqkS_SCag_33725f6044d011e8a24183dd10a23236_BallotBasic.sol\":1448:1496  proposals[toProposal].voteCount += sender.weight */\n      dup3\n      dup3\n      sload\n      tag_50\n      swap2\n      swap1\n      tag_51\n      jump\t// in\n    tag_50:\n      swap3\n      pop\n      pop\n      dup2\n      swap1\n      sstore\n      pop\n        /* \"contracts/M0d_n0TQEeigbgqkS_SCag_33725f6044d011e8a24183dd10a23236_BallotBasic.sol\":1251:1504  {... */\n      pop\n        /* \"contracts/M0d_n0TQEeigbgqkS_SCag_33725f6044d011e8a24183dd10a23236_BallotBasic.sol\":1212:1504  function vote(uint8 toProposal) public {... */\n    tag_44:\n      pop\n      jump\t// out\n        /* \"#utility.yul\":7:121   */\n    tag_52:\n        /* \"#utility.yul\":74:80   */\n      0x00\n        /* \"#utility.yul\":108:113   */\n      dup2\n        /* \"#utility.yul\":102:114   */\n      mload\n        /* \"#utility.yul\":92:114   */\n      swap1\n      pop\n        /* \"#utility.yul\":7:121   */\n      swap2\n      swap1\n      pop\n      jump\t// out\n        /* \"#utility.yul\":127:311   */\n    tag_53:\n        /* \"#utility.yul\":226:237   */\n      0x00\n        /* \"#utility.yul\":260:266   */\n      dup3\n        /* \"#utility.yul\":255:258   */\n      dup3\n        /* \"#utility.yul\":248:267   */\n      mstore\n        /* \"#utility.yul\":300:304   */\n      0x20\n        /* \"#utility.yul\":295:298   */\n      dup3\n        /* \"#utility.yul\":291:305   */\n      add\n        /* \"#utility.yul\":276:305   */\n      swap1\n      pop\n        /* \"#utility.yul\":127:311   */\n      swap3\n      swap2\n      pop\n      pop\n      jump\t// out\n        /* \"#utility.yul\":317:449   */\n    tag_54:\n        /* \"#utility.yul\":384:388   */\n      0x00\n        /* \"#utility.yul\":407:410   */\n      dup2\n        /* \"#utility.yul\":399:410   */\n      swap1\n      pop\n        /* \"#utility.yul\":437:441   */\n      0x20\n        /* \"#utility.yul\":432:435   */\n      dup3\n        /* \"#utility.yul\":428:442   */\n      add\n        /* \"#utility.yul\":420:442   */\n      swap1\n      pop\n        /* \"#utility.yul\":317:449   */\n      swap2\n      swap1\n      pop\n      jump\t// out\n        /* \"#utility.yul\":455:581   */\n    tag_55:\n        /* \"#utility.yul\":492:499   */\n      0x00\n        /* \"#utility.yul\":532:574   */\n      0xffffffffffffffffffffffffffffffffffffffff\n        /* \"#utility.yul\":525:530   */\n      dup3\n        /* \"#utility.yul\":521:575   */\n      and\n        /* \"#utility.yul\":510:575   */\n      swap1\n      pop\n        /* \"#utility.yul\":455:581   */\n      swap2\n      swap1\n      pop\n      jump\t// out\n        /* \"#utility.yul\":587:683   */\n    tag_56:\n        /* \"#utility.yul\":624:631   */\n      0x00\n        /* \"#utility.yul\":653:677   */\n      tag_78\n        /* \"#utility.yul\":671:676   */\n      dup3\n        /* \"#utility.yul\":653:677   */\n      tag_55\n      jump\t// in\n    tag_78:\n        /* \"#utility.yul\":642:677   */\n      swap1\n      pop\n        /* \"#utility.yul\":587:683   */\n      swap2\n      swap1\n      pop\n      jump\t// out\n        /* \"#utility.yul\":689:797   */\n    tag_57:\n        /* \"#utility.yul\":766:790   */\n      tag_80\n        /* \"#utility.yul\":784:789   */\n      dup2\n        /* \"#utility.yul\":766:790   */\n      tag_56\n      jump\t// in\n    tag_80:\n        /* \"#utility.yul\":761:764   */\n      dup3\n        /* \"#utility.yul\":754:791   */\n      mstore\n        /* \"#utility.yul\":689:797   */\n      pop\n      pop\n      jump\t// out\n        /* \"#utility.yul\":803:982   */\n    tag_58:\n        /* \"#utility.yul\":872:882   */\n      0x00\n        /* \"#utility.yul\":893:939   */\n      tag_82\n        /* \"#utility.yul\":935:938   */\n      dup4\n        /* \"#utility.yul\":927:933   */\n      dup4\n        /* \"#utility.yul\":893:939   */\n      tag_57\n      jump\t// in\n    tag_82:\n        /* \"#utility.yul\":971:975   */\n      0x20\n        /* \"#utility.yul\":966:969   */\n      dup4\n        /* \"#utility.yul\":962:976   */\n      add\n        /* \"#utility.yul\":948:976   */\n      swap1\n      pop\n        /* \"#utility.yul\":803:982   */\n      swap3\n      swap2\n      pop\n      pop\n      jump\t// out\n        /* \"#utility.yul\":988:1101   */\n    tag_59:\n        /* \"#utility.yul\":1058:1062   */\n      0x00\n        /* \"#utility.yul\":1090:1094   */\n      0x20\n        /* \"#utility.yul\":1085:1088   */\n      dup3\n        /* \"#utility.yul\":1081:1095   */\n      add\n        /* \"#utility.yul\":1073:1095   */\n      swap1\n      pop\n        /* \"#utility.yul\":988:1101   */\n      swap2\n      swap1\n      pop\n      jump\t// out\n        /* \"#utility.yul\":1137:1869   */\n    tag_60:\n        /* \"#utility.yul\":1256:1259   */\n      0x00\n        /* \"#utility.yul\":1285:1339   */\n      tag_85\n        /* \"#utility.yul\":1333:1338   */\n      dup3\n        /* \"#utility.yul\":1285:1339   */\n      tag_52\n      jump\t// in\n    tag_85:\n        /* \"#utility.yul\":1355:1441   */\n      tag_86\n        /* \"#utility.yul\":1434:1440   */\n      dup2\n        /* \"#utility.yul\":1429:1432   */\n      dup6\n        /* \"#utility.yul\":1355:1441   */\n      tag_53\n      jump\t// in\n    tag_86:\n        /* \"#utility.yul\":1348:1441   */\n      swap4\n      pop\n        /* \"#utility.yul\":1465:1521   */\n      tag_87\n        /* \"#utility.yul\":1515:1520   */\n      dup4\n        /* \"#utility.yul\":1465:1521   */\n      tag_54\n      jump\t// in\n    tag_87:\n        /* \"#utility.yul\":1544:1551   */\n      dup1\n        /* \"#utility.yul\":1575:1576   */\n      0x00\n        /* \"#utility.yul\":1560:1844   */\n    tag_88:\n        /* \"#utility.yul\":1585:1591   */\n      dup4\n        /* \"#utility.yul\":1582:1583   */\n      dup2\n        /* \"#utility.yul\":1579:1592   */\n      lt\n        /* \"#utility.yul\":1560:1844   */\n      iszero\n      tag_90\n      jumpi\n        /* \"#utility.yul\":1661:1667   */\n      dup2\n        /* \"#utility.yul\":1655:1668   */\n      mload\n        /* \"#utility.yul\":1688:1751   */\n      tag_91\n        /* \"#utility.yul\":1747:1750   */\n      dup9\n        /* \"#utility.yul\":1732:1745   */\n      dup3\n        /* \"#utility.yul\":1688:1751   */\n      tag_58\n      jump\t// in\n    tag_91:\n        /* \"#utility.yul\":1681:1751   */\n      swap8\n      pop\n        /* \"#utility.yul\":1774:1834   */\n      tag_92\n        /* \"#utility.yul\":1827:1833   */\n      dup4\n        /* \"#utility.yul\":1774:1834   */\n      tag_59\n      jump\t// in\n    tag_92:\n        /* \"#utility.yul\":1764:1834   */\n      swap3\n      pop\n        /* \"#utility.yul\":1620:1844   */\n      pop\n        /* \"#utility.yul\":1607:1608   */\n      0x01\n        /* \"#utility.yul\":1604:1605   */\n      dup2\n        /* \"#utility.yul\":1600:1609   */\n      add\n        /* \"#utility.yul\":1595:1609   */\n      swap1\n      pop\n        /* \"#utility.yul\":1560:1844   */\n      jump(tag_88)\n    tag_90:\n        /* \"#utility.yul\":1564:1578   */\n      pop\n        /* \"#utility.yul\":1860:1863   */\n      dup6\n        /* \"#utility.yul\":1853:1863   */\n      swap4\n      pop\n        /* \"#utility.yul\":1261:1869   */\n      pop\n      pop\n      pop\n        /* \"#utility.yul\":1137:1869   */\n      swap3\n      swap2\n      pop\n      pop\n      jump\t// out\n        /* \"#utility.yul\":1875:2248   */\n    tag_10:\n        /* \"#utility.yul\":2018:2022   */\n      0x00\n        /* \"#utility.yul\":2056:2058   */\n      0x20\n        /* \"#utility.yul\":2045:2054   */\n      dup3\n        /* \"#utility.yul\":2041:2059   */\n      add\n        /* \"#utility.yul\":2033:2059   */\n      swap1\n      pop\n        /* \"#utility.yul\":2105:2114   */\n      dup2\n        /* \"#utility.yul\":2099:2103   */\n      dup2\n        /* \"#utility.yul\":2095:2115   */\n      sub\n        /* \"#utility.yul\":2091:2092   */\n      0x00\n        /* \"#utility.yul\":2080:2089   */\n      dup4\n        /* \"#utility.yul\":2076:2093   */\n      add\n        /* \"#utility.yul\":2069:2116   */\n      mstore\n        /* \"#utility.yul\":2133:2241   */\n      tag_94\n        /* \"#utility.yul\":2236:2240   */\n      dup2\n        /* \"#utility.yul\":2227:2233   */\n      dup5\n        /* \"#utility.yul\":2133:2241   */\n      tag_60\n      jump\t// in\n    tag_94:\n        /* \"#utility.yul\":2125:2241   */\n      swap1\n      pop\n        /* \"#utility.yul\":1875:2248   */\n      swap3\n      swap2\n      pop\n      pop\n      jump\t// out\n        /* \"#utility.yul\":2335:2452   */\n    tag_62:\n        /* \"#utility.yul\":2444:2445   */\n      0x00\n        /* \"#utility.yul\":2441:2442   */\n      0x00\n        /* \"#utility.yul\":2434:2446   */\n      revert\n        /* \"#utility.yul\":2581:2703   */\n    tag_64:\n        /* \"#utility.yul\":2654:2678   */\n      tag_99\n        /* \"#utility.yul\":2672:2677   */\n      dup2\n        /* \"#utility.yul\":2654:2678   */\n      tag_56\n      jump\t// in\n    tag_99:\n        /* \"#utility.yul\":2647:2652   */\n      dup2\n        /* \"#utility.yul\":2644:2679   */\n      eq\n        /* \"#utility.yul\":2634:2697   */\n      tag_100\n      jumpi\n        /* \"#utility.yul\":2693:2694   */\n      0x00\n        /* \"#utility.yul\":2690:2691   */\n      0x00\n        /* \"#utility.yul\":2683:2695   */\n      revert\n        /* \"#utility.yul\":2634:2697   */\n    tag_100:\n        /* \"#utility.yul\":2581:2703   */\n      pop\n      jump\t// out\n        /* \"#utility.yul\":2709:2848   */\n    tag_65:\n        /* \"#utility.yul\":2755:2760   */\n      0x00\n        /* \"#utility.yul\":2793:2799   */\n      dup2\n        /* \"#utility.yul\":2780:2800   */\n      calldataload\n        /* \"#utility.yul\":2771:2800   */\n      swap1\n      pop\n        /* \"#utility.yul\":2809:2842   */\n      tag_102\n        /* \"#utility.yul\":2836:2841   */\n      dup2\n        /* \"#utility.yul\":2809:2842   */\n      tag_64\n      jump\t// in\n    tag_102:\n        /* \"#utility.yul\":2709:2848   */\n      swap3\n      swap2\n      pop\n      pop\n      jump\t// out\n        /* \"#utility.yul\":2854:3183   */\n    tag_13:\n        /* \"#utility.yul\":2913:2919   */\n      0x00\n        /* \"#utility.yul\":2962:2964   */\n      0x20\n        /* \"#utility.yul\":2950:2959   */\n      dup3\n        /* \"#utility.yul\":2941:2948   */\n      dup5\n        /* \"#utility.yul\":2937:2960   */\n      sub\n        /* \"#utility.yul\":2933:2965   */\n      slt\n        /* \"#utility.yul\":2930:3049   */\n      iszero\n      tag_104\n      jumpi\n        /* \"#utility.yul\":2968:3047   */\n      tag_105\n      tag_62\n      jump\t// in\n    tag_105:\n        /* \"#utility.yul\":2930:3049   */\n    tag_104:\n        /* \"#utility.yul\":3088:3089   */\n      0x00\n        /* \"#utility.yul\":3113:3166   */\n      tag_106\n        /* \"#utility.yul\":3158:3165   */\n      dup5\n        /* \"#utility.yul\":3149:3155   */\n      dup3\n        /* \"#utility.yul\":3138:3147   */\n      dup6\n        /* \"#utility.yul\":3134:3156   */\n      add\n        /* \"#utility.yul\":3113:3166   */\n      tag_65\n      jump\t// in\n    tag_106:\n        /* \"#utility.yul\":3103:3166   */\n      swap2\n      pop\n        /* \"#utility.yul\":3059:3176   */\n      pop\n        /* \"#utility.yul\":2854:3183   */\n      swap3\n      swap2\n      pop\n      pop\n      jump\t// out\n        /* \"#utility.yul\":3189:3275   */\n    tag_66:\n        /* \"#utility.yul\":3224:3231   */\n      0x00\n        /* \"#utility.yul\":3264:3268   */\n      0xff\n        /* \"#utility.yul\":3257:3262   */\n      dup3\n        /* \"#utility.yul\":3253:3269   */\n      and\n        /* \"#utility.yul\":3242:3269   */\n      swap1\n      pop\n        /* \"#utility.yul\":3189:3275   */\n      swap2\n      swap1\n      pop\n      jump\t// out\n        /* \"#utility.yul\":3281:3393   */\n    tag_67:\n        /* \"#utility.yul\":3364:3386   */\n      tag_109\n        /* \"#utility.yul\":3380:3385   */\n      dup2\n        /* \"#utility.yul\":3364:3386   */\n      tag_66\n      jump\t// in\n    tag_109:\n        /* \"#utility.yul\":3359:3362   */\n      dup3\n        /* \"#utility.yul\":3352:3387   */\n      mstore\n        /* \"#utility.yul\":3281:3393   */\n      pop\n      pop\n      jump\t// out\n        /* \"#utility.yul\":3399:3613   */\n    tag_18:\n        /* \"#utility.yul\":3488:3492   */\n      0x00\n        /* \"#utility.yul\":3526:3528   */\n      0x20\n        /* \"#utility.yul\":3515:3524   */\n      dup3\n        /* \"#utility.yul\":3511:3529   */\n      add\n        /* \"#utility.yul\":3503:3529   */\n      swap1\n      pop\n        /* \"#utility.yul\":3539:3606   */\n      tag_111\n        /* \"#utility.yul\":3603:3604   */\n      0x00\n        /* \"#utility.yul\":3592:3601   */\n      dup4\n        /* \"#utility.yul\":3588:3605   */\n      add\n        /* \"#utility.yul\":3579:3585   */\n      dup5\n        /* \"#utility.yul\":3539:3606   */\n      tag_67\n      jump\t// in\n    tag_111:\n        /* \"#utility.yul\":3399:3613   */\n      swap3\n      swap2\n      pop\n      pop\n      jump\t// out\n        /* \"#utility.yul\":3619:3737   */\n    tag_68:\n        /* \"#utility.yul\":3690:3712   */\n      tag_113\n        /* \"#utility.yul\":3706:3711   */\n      dup2\n        /* \"#utility.yul\":3690:3712   */\n      tag_66\n      jump\t// in\n    tag_113:\n        /* \"#utility.yul\":3683:3688   */\n      dup2\n        /* \"#utility.yul\":3680:3713   */\n      eq\n        /* \"#utility.yul\":3670:3731   */\n      tag_114\n      jumpi\n        /* \"#utility.yul\":3727:3728   */\n      0x00\n        /* \"#utility.yul\":3724:3725   */\n      0x00\n        /* \"#utility.yul\":3717:3729   */\n      revert\n        /* \"#utility.yul\":3670:3731   */\n    tag_114:\n        /* \"#utility.yul\":3619:3737   */\n      pop\n      jump\t// out\n        /* \"#utility.yul\":3743:3878   */\n    tag_69:\n        /* \"#utility.yul\":3787:3792   */\n      0x00\n        /* \"#utility.yul\":3825:3831   */\n      dup2\n        /* \"#utility.yul\":3812:3832   */\n      calldataload\n        /* \"#utility.yul\":3803:3832   */\n      swap1\n      pop\n        /* \"#utility.yul\":3841:3872   */\n      tag_116\n        /* \"#utility.yul\":3866:3871   */\n      dup2\n        /* \"#utility.yul\":3841:3872   */\n      tag_68\n      jump\t// in\n    tag_116:\n        /* \"#utility.yul\":3743:3878   */\n      swap3\n      swap2\n      pop\n      pop\n      jump\t// out\n        /* \"#utility.yul\":3884:4209   */\n    tag_21:\n        /* \"#utility.yul\":3941:3947   */\n      0x00\n        /* \"#utility.yul\":3990:3992   */\n      0x20\n        /* \"#utility.yul\":3978:3987   */\n      dup3\n        /* \"#utility.yul\":3969:3976   */\n      dup5\n        /* \"#utility.yul\":3965:3988   */\n      sub\n        /* \"#utility.yul\":3961:3993   */\n      slt\n        /* \"#utility.yul\":3958:4077   */\n      iszero\n      tag_118\n      jumpi\n        /* \"#utility.yul\":3996:4075   */\n      tag_119\n      tag_62\n      jump\t// in\n    tag_119:\n        /* \"#utility.yul\":3958:4077   */\n    tag_118:\n        /* \"#utility.yul\":4116:4117   */\n      0x00\n        /* \"#utility.yul\":4141:4192   */\n      tag_120\n        /* \"#utility.yul\":4184:4191   */\n      dup5\n        /* \"#utility.yul\":4175:4181   */\n      dup3\n        /* \"#utility.yul\":4164:4173   */\n      dup6\n        /* \"#utility.yul\":4160:4182   */\n      add\n        /* \"#utility.yul\":4141:4192   */\n      tag_69\n      jump\t// in\n    tag_120:\n        /* \"#utility.yul\":4131:4192   */\n      swap2\n      pop\n        /* \"#utility.yul\":4087:4202   */\n      pop\n        /* \"#utility.yul\":3884:4209   */\n      swap3\n      swap2\n      pop\n      pop\n      jump\t// out\n        /* \"#utility.yul\":4215:4395   */\n    tag_36:\n        /* \"#utility.yul\":4263:4340   */\n      0x4e487b7100000000000000000000000000000000000000000000000000000000\n        /* \"#utility.yul\":4260:4261   */\n      0x00\n        /* \"#utility.yul\":4253:4341   */\n      mstore\n        /* \"#utility.yul\":4360:4364   */\n      0x32\n        /* \"#utility.yul\":4357:4358   */\n      0x04\n        /* \"#utility.yul\":4350:4365   */\n      mstore\n        /* \"#utility.yul\":4384:4388   */\n      0x24\n        /* \"#utility.yul\":4381:4382   */\n      0x00\n        /* \"#utility.yul\":4374:4389   */\n      revert\n        /* \"#utility.yul\":4401:4581   */\n    tag_70:\n        /* \"#utility.yul\":4449:4526   */\n      0x4e487b7100000000000000000000000000000000000000000000000000000000\n        /* \"#utility.yul\":4446:4447   */\n      0x00\n        /* \"#utility.yul\":4439:4527   */\n      mstore\n        /* \"#utility.yul\":4546:4550   */\n      0x11\n        /* \"#utility.yul\":4543:4544   */\n      0x04\n        /* \"#utility.yul\":4536:4551   */\n      mstore\n        /* \"#utility.yul\":4570:4574   */\n      0x24\n        /* \"#utility.yul\":4567:4568   */\n      0x00\n        /* \"#utility.yul\":4560:4575   */\n      revert\n        /* \"#utility.yul\":4587:4754   */\n    tag_43:\n        /* \"#utility.yul\":4624:4627   */\n      0x00\n        /* \"#utility.yul\":4647:4669   */\n      tag_124\n        /* \"#utility.yul\":4663:4668   */\n      dup3\n        /* \"#utility.yul\":4647:4669   */\n      tag_66\n      jump\t// in\n    tag_124:\n        /* \"#utility.yul\":4638:4669   */\n      swap2\n      pop\n        /* \"#utility.yul\":4691:4695   */\n      0xff\n        /* \"#utility.yul\":4684:4689   */\n      dup3\n        /* \"#utility.yul\":4681:4696   */\n      sub\n        /* \"#utility.yul\":4678:4719   */\n      tag_125\n      jumpi\n        /* \"#utility.yul\":4699:4717   */\n      tag_126\n      tag_70\n      jump\t// in\n    tag_126:\n        /* \"#utility.yul\":4678:4719   */\n    tag_125:\n        /* \"#utility.yul\":4746:4747   */\n      0x01\n        /* \"#utility.yul\":4739:4744   */\n      dup3\n        /* \"#utility.yul\":4735:4748   */\n      add\n        /* \"#utility.yul\":4728:4748   */\n      swap1\n      pop\n        /* \"#utility.yul\":4587:4754   */\n      swap2\n      swap1\n      pop\n      jump\t// out\n        /* \"#utility.yul\":4760:4837   */\n    tag_71:\n        /* \"#utility.yul\":4797:4804   */\n      0x00\n        /* \"#utility.yul\":4826:4831   */\n      dup2\n        /* \"#utility.yul\":4815:4831   */\n      swap1\n      pop\n        /* \"#utility.yul\":4760:4837   */\n      swap2\n      swap1\n      pop\n      jump\t// out\n        /* \"#utility.yul\":4843:5034   */\n    tag_51:\n        /* \"#utility.yul\":4883:4886   */\n      0x00\n        /* \"#utility.yul\":4902:4922   */\n      tag_129\n        /* \"#utility.yul\":4920:4921   */\n      dup3\n        /* \"#utility.yul\":4902:4922   */\n      tag_71\n      jump\t// in\n    tag_129:\n        /* \"#utility.yul\":4897:4922   */\n      swap2\n      pop\n        /* \"#utility.yul\":4936:4956   */\n      tag_130\n        /* \"#utility.yul\":4954:4955   */\n      dup4\n        /* \"#utility.yul\":4936:4956   */\n      tag_71\n      jump\t// in\n    tag_130:\n        /* \"#utility.yul\":4931:4956   */\n      swap3\n      pop\n        /* \"#utility.yul\":4979:4980   */\n      dup3\n        /* \"#utility.yul\":4976:4977   */\n      dup3\n        /* \"#utility.yul\":4972:4981   */\n      add\n        /* \"#utility.yul\":4965:4981   */\n      swap1\n      pop\n        /* \"#utility.yul\":5000:5003   */\n      dup1\n        /* \"#utility.yul\":4997:4998   */\n      dup3\n        /* \"#utility.yul\":4994:5004   */\n      gt\n        /* \"#utility.yul\":4991:5027   */\n      iszero\n      tag_131\n      jumpi\n        /* \"#utility.yul\":5007:5025   */\n      tag_132\n      tag_70\n      jump\t// in\n    tag_132:\n        /* \"#utility.yul\":4991:5027   */\n    tag_131:\n        /* \"#utility.yul\":4843:5034   */\n      swap3\n      swap2\n      pop\n      pop\n      jump\t// out\n\n    auxdata: 0xa2646970667358221220bf04483af09cf4c8ec408b37b049e73a4a5d26046b2f789a1ac6e509af3bc72e64736f6c634300081e0033\n}\n",
				"bytecode": {
					"linkReferences": {},
					"object": "608060405234801561000f575f5ffd5b506040516108e63803806108e683398181016040528101906100319190610173565b335f5f6101000a81548173ffffffffffffffffffffffffffffffffffffffff021916908373ffffffffffffffffffffffffffffffffffffffff160217905550600260015f5f5f9054906101000a900473ffffffffffffffffffffffffffffffffffffffff1673ffffffffffffffffffffffffffffffffffffffff1673ffffffffffffffffffffffffffffffffffffffff1681526020019081526020015f205f01819055505f5f90505b8160ff168160ff16101561013257600360405180602001604052805f815250908060018154018082558091505060019003905f5260205f20015f909190919091505f820151815f0155505080806001019150506100da565b505061019e565b5f5ffd5b5f60ff82169050919050565b6101528161013d565b811461015c575f5ffd5b50565b5f8151905061016d81610149565b92915050565b5f6020828403121561018857610187610139565b5b5f6101958482850161015f565b91505092915050565b61073b806101ab5f395ff3fe608060405234801561000f575f5ffd5b506004361061004a575f3560e01c80630a16e30b1461004e5780634420e4861461006c578063609ff1bd14610088578063b3f98adc146100a6575b5f5ffd5b6100566100c2565b6040516100639190610545565b60405180910390f35b61008660048036038101906100819190610593565b61014d565b005b6100906102f4565b60405161009d91906105d9565b60405180910390f35b6100c060048036038101906100bb919061061c565b610377565b005b6060600280548060200260200160405190810160405280929190818152602001828054801561014357602002820191905f5260205f20905b815f9054906101000a900473ffffffffffffffffffffffffffffffffffffffff1673ffffffffffffffffffffffffffffffffffffffff16815260200190600101908083116100fa575b5050505050905090565b5f5f9054906101000a900473ffffffffffffffffffffffffffffffffffffffff1673ffffffffffffffffffffffffffffffffffffffff163373ffffffffffffffffffffffffffffffffffffffff161415806101f1575060015f8273ffffffffffffffffffffffffffffffffffffffff1673ffffffffffffffffffffffffffffffffffffffff1681526020019081526020015f206001015f9054906101000a900460ff165b6102f1576001805f8373ffffffffffffffffffffffffffffffffffffffff1673ffffffffffffffffffffffffffffffffffffffff1681526020019081526020015f205f01819055505f60015f8373ffffffffffffffffffffffffffffffffffffffff1673ffffffffffffffffffffffffffffffffffffffff1681526020019081526020015f206001015f6101000a81548160ff021916908315150217905550600281908060018154018082558091505060019003905f5260205f20015f9091909190916101000a81548173ffffffffffffffffffffffffffffffffffffffff021916908373ffffffffffffffffffffffffffffffffffffffff1602179055505b50565b5f5f5f90505f5f90505b6003805490508160ff161015610372578160038260ff168154811061032657610325610647565b5b905f5260205f20015f0154111561035f5760038160ff168154811061034e5761034d610647565b5b905f5260205f20015f015491508092505b808061036a906106a1565b9150506102fe565b505090565b5f60015f3373ffffffffffffffffffffffffffffffffffffffff1673ffffffffffffffffffffffffffffffffffffffff1681526020019081526020015f209050806001015f9054906101000a900460ff16806103db57506003805490508260ff1610155b156103e6575061045b565b6001816001015f6101000a81548160ff021916908315150217905550818160010160016101000a81548160ff021916908360ff160217905550805f015460038360ff168154811061043a57610439610647565b5b905f5260205f20015f015f82825461045291906106d2565b92505081905550505b50565b5f81519050919050565b5f82825260208201905092915050565b5f819050602082019050919050565b5f73ffffffffffffffffffffffffffffffffffffffff82169050919050565b5f6104b082610487565b9050919050565b6104c0816104a6565b82525050565b5f6104d183836104b7565b60208301905092915050565b5f602082019050919050565b5f6104f38261045e565b6104fd8185610468565b935061050883610478565b805f5b8381101561053857815161051f88826104c6565b975061052a836104dd565b92505060018101905061050b565b5085935050505092915050565b5f6020820190508181035f83015261055d81846104e9565b905092915050565b5f5ffd5b610572816104a6565b811461057c575f5ffd5b50565b5f8135905061058d81610569565b92915050565b5f602082840312156105a8576105a7610565565b5b5f6105b58482850161057f565b91505092915050565b5f60ff82169050919050565b6105d3816105be565b82525050565b5f6020820190506105ec5f8301846105ca565b92915050565b6105fb816105be565b8114610605575f5ffd5b50565b5f81359050610616816105f2565b92915050565b5f6020828403121561063157610630610565565b5b5f61063e84828501610608565b91505092915050565b7f4e487b71000000000000000000000000000000000000000000000000000000005f52603260045260245ffd5b7f4e487b71000000000000000000000000000000000000000000000000000000005f52601160045260245ffd5b5f6106ab826105be565b915060ff82036106be576106bd610674565b5b600182019050919050565b5f819050919050565b5f6106dc826106c9565b91506106e7836106c9565b92508282019050808211156106ff576106fe610674565b5b9291505056fea2646970667358221220bf04483af09cf4c8ec408b37b049e73a4a5d26046b2f789a1ac6e509af3bc72e64736f6c634300081e0033",
					"opcodes": "PUSH1 0x80 PUSH1 0x40 MSTORE CALLVALUE DUP1 ISZERO PUSH2 0xF JUMPI PUSH0 PUSH0 REVERT JUMPDEST POP PUSH1 0x40 MLOAD PUSH2 0x8E6 CODESIZE SUB DUP1 PUSH2 0x8E6 DUP4 CODECOPY DUP2 DUP2 ADD PUSH1 0x40 MSTORE DUP2 ADD SWAP1 PUSH2 0x31 SWAP2 SWAP1 PUSH2 0x173 JUMP JUMPDEST CALLER PUSH0 PUSH0 PUSH2 0x100 EXP DUP2 SLOAD DUP2 PUSH20 0xFFFFFFFFFFFFFFFFFFFFFFFFFFFFFFFFFFFFFFFF MUL NOT AND SWAP1 DUP4 PUSH20 0xFFFFFFFFFFFFFFFFFFFFFFFFFFFFFFFFFFFFFFFF AND MUL OR SWAP1 SSTORE POP PUSH1 0x2 PUSH1 0x1 PUSH0 PUSH0 PUSH0 SWAP1 SLOAD SWAP1 PUSH2 0x100 EXP SWAP1 DIV PUSH20 0xFFFFFFFFFFFFFFFFFFFFFFFFFFFFFFFFFFFFFFFF AND PUSH20 0xFFFFFFFFFFFFFFFFFFFFFFFFFFFFFFFFFFFFFFFF AND PUSH20 0xFFFFFFFFFFFFFFFFFFFFFFFFFFFFFFFFFFFFFFFF AND DUP2 MSTORE PUSH1 0x20 ADD SWAP1 DUP2 MSTORE PUSH1 0x20 ADD PUSH0 KECCAK256 PUSH0 ADD DUP2 SWAP1 SSTORE POP PUSH0 PUSH0 SWAP1 POP JUMPDEST DUP2 PUSH1 0xFF AND DUP2 PUSH1 0xFF AND LT ISZERO PUSH2 0x132 JUMPI PUSH1 0x3 PUSH1 0x40 MLOAD DUP1 PUSH1 0x20 ADD PUSH1 0x40 MSTORE DUP1 PUSH0 DUP2 MSTORE POP SWAP1 DUP1 PUSH1 0x1 DUP2 SLOAD ADD DUP1 DUP3 SSTORE DUP1 SWAP2 POP POP PUSH1 0x1 SWAP1 SUB SWAP1 PUSH0 MSTORE PUSH1 0x20 PUSH0 KECCAK256 ADD PUSH0 SWAP1 SWAP2 SWAP1 SWAP2 SWAP1 SWAP2 POP PUSH0 DUP3 ADD MLOAD DUP2 PUSH0 ADD SSTORE POP POP DUP1 DUP1 PUSH1 0x1 ADD SWAP2 POP POP PUSH2 0xDA JUMP JUMPDEST POP POP PUSH2 0x19E JUMP JUMPDEST PUSH0 PUSH0 REVERT JUMPDEST PUSH0 PUSH1 0xFF DUP3 AND SWAP1 POP SWAP2 SWAP1 POP JUMP JUMPDEST PUSH2 0x152 DUP2 PUSH2 0x13D JUMP JUMPDEST DUP2 EQ PUSH2 0x15C JUMPI PUSH0 PUSH0 REVERT JUMPDEST POP JUMP JUMPDEST PUSH0 DUP2 MLOAD SWAP1 POP PUSH2 0x16D DUP2 PUSH2 0x149 JUMP JUMPDEST SWAP3 SWAP2 POP POP JUMP JUMPDEST PUSH0 PUSH1 0x20 DUP3 DUP5 SUB SLT ISZERO PUSH2 0x188 JUMPI PUSH2 0x187 PUSH2 0x139 JUMP JUMPDEST JUMPDEST PUSH0 PUSH2 0x195 DUP5 DUP3 DUP6 ADD PUSH2 0x15F JUMP JUMPDEST SWAP2 POP POP SWAP3 SWAP2 POP POP JUMP JUMPDEST PUSH2 0x73B DUP1 PUSH2 0x1AB PUSH0 CODECOPY PUSH0 RETURN INVALID PUSH1 0x80 PUSH1 0x40 MSTORE CALLVALUE DUP1 ISZERO PUSH2 0xF JUMPI PUSH0 PUSH0 REVERT JUMPDEST POP PUSH1 0x4 CALLDATASIZE LT PUSH2 0x4A JUMPI PUSH0 CALLDATALOAD PUSH1 0xE0 SHR DUP1 PUSH4 0xA16E30B EQ PUSH2 0x4E JUMPI DUP1 PUSH4 0x4420E486 EQ PUSH2 0x6C JUMPI DUP1 PUSH4 0x609FF1BD EQ PUSH2 0x88 JUMPI DUP1 PUSH4 0xB3F98ADC EQ PUSH2 0xA6 JUMPI JUMPDEST PUSH0 PUSH0 REVERT JUMPDEST PUSH2 0x56 PUSH2 0xC2 JUMP JUMPDEST PUSH1 0x40 MLOAD PUSH2 0x63 SWAP2 SWAP1 PUSH2 0x545 JUMP JUMPDEST PUSH1 0x40 MLOAD DUP1 SWAP2 SUB SWAP1 RETURN JUMPDEST PUSH2 0x86 PUSH1 0x4 DUP1 CALLDATASIZE SUB DUP2 ADD SWAP1 PUSH2 0x81 SWAP2 SWAP1 PUSH2 0x593 JUMP JUMPDEST PUSH2 0x14D JUMP JUMPDEST STOP JUMPDEST PUSH2 0x90 PUSH2 0x2F4 JUMP JUMPDEST PUSH1 0x40 MLOAD PUSH2 0x9D SWAP2 SWAP1 PUSH2 0x5D9 JUMP JUMPDEST PUSH1 0x40 MLOAD DUP1 SWAP2 SUB SWAP1 RETURN JUMPDEST PUSH2 0xC0 PUSH1 0x4 DUP1 CALLDATASIZE SUB DUP2 ADD SWAP1 PUSH2 0xBB SWAP2 SWAP1 PUSH2 0x61C JUMP JUMPDEST PUSH2 0x377 JUMP JUMPDEST STOP JUMPDEST PUSH1 0x60 PUSH1 0x2 DUP1 SLOAD DUP1 PUSH1 0x20 MUL PUSH1 0x20 ADD PUSH1 0x40 MLOAD SWAP1 DUP2 ADD PUSH1 0x40 MSTORE DUP1 SWAP3 SWAP2 SWAP1 DUP2 DUP2 MSTORE PUSH1 0x20 ADD DUP3 DUP1 SLOAD DUP1 ISZERO PUSH2 0x143 JUMPI PUSH1 0x20 MUL DUP3 ADD SWAP2 SWAP1 PUSH0 MSTORE PUSH1 0x20 PUSH0 KECCAK256 SWAP1 JUMPDEST DUP2 PUSH0 SWAP1 SLOAD SWAP1 PUSH2 0x100 EXP SWAP1 DIV PUSH20 0xFFFFFFFFFFFFFFFFFFFFFFFFFFFFFFFFFFFFFFFF AND PUSH20 0xFFFFFFFFFFFFFFFFFFFFFFFFFFFFFFFFFFFFFFFF AND DUP2 MSTORE PUSH1 0x20 ADD SWAP1 PUSH1 0x1 ADD SWAP1 DUP1 DUP4 GT PUSH2 0xFA JUMPI JUMPDEST POP POP POP POP POP SWAP1 POP SWAP1 JUMP JUMPDEST PUSH0 PUSH0 SWAP1 SLOAD SWAP1 PUSH2 0x100 EXP SWAP1 DIV PUSH20 0xFFFFFFFFFFFFFFFFFFFFFFFFFFFFFFFFFFFFFFFF AND PUSH20 0xFFFFFFFFFFFFFFFFFFFFFFFFFFFFFFFFFFFFFFFF AND CALLER PUSH20 0xFFFFFFFFFFFFFFFFFFFFFFFFFFFFFFFFFFFFFFFF AND EQ ISZERO DUP1 PUSH2 0x1F1 JUMPI POP PUSH1 0x1 PUSH0 DUP3 PUSH20 0xFFFFFFFFFFFFFFFFFFFFFFFFFFFFFFFFFFFFFFFF AND PUSH20 0xFFFFFFFFFFFFFFFFFFFFFFFFFFFFFFFFFFFFFFFF AND DUP2 MSTORE PUSH1 0x20 ADD SWAP1 DUP2 MSTORE PUSH1 0x20 ADD PUSH0 KECCAK256 PUSH1 0x1 ADD PUSH0 SWAP1 SLOAD SWAP1 PUSH2 0x100 EXP SWAP1 DIV PUSH1 0xFF AND JUMPDEST PUSH2 0x2F1 JUMPI PUSH1 0x1 DUP1 PUSH0 DUP4 PUSH20 0xFFFFFFFFFFFFFFFFFFFFFFFFFFFFFFFFFFFFFFFF AND PUSH20 0xFFFFFFFFFFFFFFFFFFFFFFFFFFFFFFFFFFFFFFFF AND DUP2 MSTORE PUSH1 0x20 ADD SWAP1 DUP2 MSTORE PUSH1 0x20 ADD PUSH0 KECCAK256 PUSH0 ADD DUP2 SWAP1 SSTORE POP PUSH0 PUSH1 0x1 PUSH0 DUP4 PUSH20 0xFFFFFFFFFFFFFFFFFFFFFFFFFFFFFFFFFFFFFFFF AND PUSH20 0xFFFFFFFFFFFFFFFFFFFFFFFFFFFFFFFFFFFFFFFF AND DUP2 MSTORE PUSH1 0x20 ADD SWAP1 DUP2 MSTORE PUSH1 0x20 ADD PUSH0 KECCAK256 PUSH1 0x1 ADD PUSH0 PUSH2 0x100 EXP DUP2 SLOAD DUP2 PUSH1 0xFF MUL NOT AND SWAP1 DUP4 ISZERO ISZERO MUL OR SWAP1 SSTORE POP PUSH1 0x2 DUP2 SWAP1 DUP1 PUSH1 0x1 DUP2 SLOAD ADD DUP1 DUP3 SSTORE DUP1 SWAP2 POP POP PUSH1 0x1 SWAP1 SUB SWAP1 PUSH0 MSTORE PUSH1 0x20 PUSH0 KECCAK256 ADD PUSH0 SWAP1 SWAP2 SWAP1 SWAP2 SWAP1 SWAP2 PUSH2 0x100 EXP DUP2 SLOAD DUP2 PUSH20 0xFFFFFFFFFFFFFFFFFFFFFFFFFFFFFFFFFFFFFFFF MUL NOT AND SWAP1 DUP4 PUSH20 0xFFFFFFFFFFFFFFFFFFFFFFFFFFFFFFFFFFFFFFFF AND MUL OR SWAP1 SSTORE POP JUMPDEST POP JUMP JUMPDEST PUSH0 PUSH0 PUSH0 SWAP1 POP PUSH0 PUSH0 SWAP1 POP JUMPDEST PUSH1 0x3 DUP1 SLOAD SWAP1 POP DUP2 PUSH1 0xFF AND LT ISZERO PUSH2 0x372 JUMPI DUP2 PUSH1 0x3 DUP3 PUSH1 0xFF AND DUP2 SLOAD DUP2 LT PUSH2 0x326 JUMPI PUSH2 0x325 PUSH2 0x647 JUMP JUMPDEST JUMPDEST SWAP1 PUSH0 MSTORE PUSH1 0x20 PUSH0 KECCAK256 ADD PUSH0 ADD SLOAD GT ISZERO PUSH2 0x35F JUMPI PUSH1 0x3 DUP2 PUSH1 0xFF AND DUP2 SLOAD DUP2 LT PUSH2 0x34E JUMPI PUSH2 0x34D PUSH2 0x647 JUMP JUMPDEST JUMPDEST SWAP1 PUSH0 MSTORE PUSH1 0x20 PUSH0 KECCAK256 ADD PUSH0 ADD SLOAD SWAP2 POP DUP1 SWAP3 POP JUMPDEST DUP1 DUP1 PUSH2 0x36A SWAP1 PUSH2 0x6A1 JUMP JUMPDEST SWAP2 POP POP PUSH2 0x2FE JUMP JUMPDEST POP POP SWAP1 JUMP JUMPDEST PUSH0 PUSH1 0x1 PUSH0 CALLER PUSH20 0xFFFFFFFFFFFFFFFFFFFFFFFFFFFFFFFFFFFFFFFF AND PUSH20 0xFFFFFFFFFFFFFFFFFFFFFFFFFFFFFFFFFFFFFFFF AND DUP2 MSTORE PUSH1 0x20 ADD SWAP1 DUP2 MSTORE PUSH1 0x20 ADD PUSH0 KECCAK256 SWAP1 POP DUP1 PUSH1 0x1 ADD PUSH0 SWAP1 SLOAD SWAP1 PUSH2 0x100 EXP SWAP1 DIV PUSH1 0xFF AND DUP1 PUSH2 0x3DB JUMPI POP PUSH1 0x3 DUP1 SLOAD SWAP1 POP DUP3 PUSH1 0xFF AND LT ISZERO JUMPDEST ISZERO PUSH2 0x3E6 JUMPI POP PUSH2 0x45B JUMP JUMPDEST PUSH1 0x1 DUP2 PUSH1 0x1 ADD PUSH0 PUSH2 0x100 EXP DUP2 SLOAD DUP2 PUSH1 0xFF MUL NOT AND SWAP1 DUP4 ISZERO ISZERO MUL OR SWAP1 SSTORE POP DUP2 DUP2 PUSH1 0x1 ADD PUSH1 0x1 PUSH2 0x100 EXP DUP2 SLOAD DUP2 PUSH1 0xFF MUL NOT AND SWAP1 DUP4 PUSH1 0xFF AND MUL OR SWAP1 SSTORE POP DUP1 PUSH0 ADD SLOAD PUSH1 0x3 DUP4 PUSH1 0xFF AND DUP2 SLOAD DUP2 LT PUSH2 0x43A JUMPI PUSH2 0x439 PUSH2 0x647 JUMP JUMPDEST JUMPDEST SWAP1 PUSH0 MSTORE PUSH1 0x20 PUSH0 KECCAK256 ADD PUSH0 ADD PUSH0 DUP3 DUP3 SLOAD PUSH2 0x452 SWAP2 SWAP1 PUSH2 0x6D2 JUMP JUMPDEST SWAP3 POP POP DUP2 SWAP1 SSTORE POP POP JUMPDEST POP JUMP JUMPDEST PUSH0 DUP2 MLOAD SWAP1 POP SWAP2 SWAP1 POP JUMP JUMPDEST PUSH0 DUP3 DUP3 MSTORE PUSH1 0x20 DUP3 ADD SWAP1 POP SWAP3 SWAP2 POP POP JUMP JUMPDEST PUSH0 DUP2 SWAP1 POP PUSH1 0x20 DUP3 ADD SWAP1 POP SWAP2 SWAP1 POP JUMP JUMPDEST PUSH0 PUSH20 0xFFFFFFFFFFFFFFFFFFFFFFFFFFFFFFFFFFFFFFFF DUP3 AND SWAP1 POP SWAP2 SWAP1 POP JUMP JUMPDEST PUSH0 PUSH2 0x4B0 DUP3 PUSH2 0x487 JUMP JUMPDEST SWAP1 POP SWAP2 SWAP1 POP JUMP JUMPDEST PUSH2 0x4C0 DUP2 PUSH2 0x4A6 JUMP JUMPDEST DUP3 MSTORE POP POP JUMP JUMPDEST PUSH0 PUSH2 0x4D1 DUP4 DUP4 PUSH2 0x4B7 JUMP JUMPDEST PUSH1 0x20 DUP4 ADD SWAP1 POP SWAP3 SWAP2 POP POP JUMP JUMPDEST PUSH0 PUSH1 0x20 DUP3 ADD SWAP1 POP SWAP2 SWAP1 POP JUMP JUMPDEST PUSH0 PUSH2 0x4F3 DUP3 PUSH2 0x45E JUMP JUMPDEST PUSH2 0x4FD DUP2 DUP6 PUSH2 0x468 JUMP JUMPDEST SWAP4 POP PUSH2 0x508 DUP4 PUSH2 0x478 JUMP JUMPDEST DUP1 PUSH0 JUMPDEST DUP4 DUP2 LT ISZERO PUSH2 0x538 JUMPI DUP2 MLOAD PUSH2 0x51F DUP9 DUP3 PUSH2 0x4C6 JUMP JUMPDEST SWAP8 POP PUSH2 0x52A DUP4 PUSH2 0x4DD JUMP JUMPDEST SWAP3 POP POP PUSH1 0x1 DUP2 ADD SWAP1 POP PUSH2 0x50B JUMP JUMPDEST POP DUP6 SWAP4 POP POP POP POP SWAP3 SWAP2 POP POP JUMP JUMPDEST PUSH0 PUSH1 0x20 DUP3 ADD SWAP1 POP DUP2 DUP2 SUB PUSH0 DUP4 ADD MSTORE PUSH2 0x55D DUP2 DUP5 PUSH2 0x4E9 JUMP JUMPDEST SWAP1 POP SWAP3 SWAP2 POP POP JUMP JUMPDEST PUSH0 PUSH0 REVERT JUMPDEST PUSH2 0x572 DUP2 PUSH2 0x4A6 JUMP JUMPDEST DUP2 EQ PUSH2 0x57C JUMPI PUSH0 PUSH0 REVERT JUMPDEST POP JUMP JUMPDEST PUSH0 DUP2 CALLDATALOAD SWAP1 POP PUSH2 0x58D DUP2 PUSH2 0x569 JUMP JUMPDEST SWAP3 SWAP2 POP POP JUMP JUMPDEST PUSH0 PUSH1 0x20 DUP3 DUP5 SUB SLT ISZERO PUSH2 0x5A8 JUMPI PUSH2 0x5A7 PUSH2 0x565 JUMP JUMPDEST JUMPDEST PUSH0 PUSH2 0x5B5 DUP5 DUP3 DUP6 ADD PUSH2 0x57F JUMP JUMPDEST SWAP2 POP POP SWAP3 SWAP2 POP POP JUMP JUMPDEST PUSH0 PUSH1 0xFF DUP3 AND SWAP1 POP SWAP2 SWAP1 POP JUMP JUMPDEST PUSH2 0x5D3 DUP2 PUSH2 0x5BE JUMP JUMPDEST DUP3 MSTORE POP POP JUMP JUMPDEST PUSH0 PUSH1 0x20 DUP3 ADD SWAP1 POP PUSH2 0x5EC PUSH0 DUP4 ADD DUP5 PUSH2 0x5CA JUMP JUMPDEST SWAP3 SWAP2 POP POP JUMP JUMPDEST PUSH2 0x5FB DUP2 PUSH2 0x5BE JUMP JUMPDEST DUP2 EQ PUSH2 0x605 JUMPI PUSH0 PUSH0 REVERT JUMPDEST POP JUMP JUMPDEST PUSH0 DUP2 CALLDATALOAD SWAP1 POP PUSH2 0x616 DUP2 PUSH2 0x5F2 JUMP JUMPDEST SWAP3 SWAP2 POP POP JUMP JUMPDEST PUSH0 PUSH1 0x20 DUP3 DUP5 SUB SLT ISZERO PUSH2 0x631 JUMPI PUSH2 0x630 PUSH2 0x565 JUMP JUMPDEST JUMPDEST PUSH0 PUSH2 0x63E DUP5 DUP3 DUP6 ADD PUSH2 0x608 JUMP JUMPDEST SWAP2 POP POP SWAP3 SWAP2 POP POP JUMP JUMPDEST PUSH32 0x4E487B7100000000000000000000000000000000000000000000000000000000 PUSH0 MSTORE PUSH1 0x32 PUSH1 0x4 MSTORE PUSH1 0x24 PUSH0 REVERT JUMPDEST PUSH32 0x4E487B7100000000000000000000000000000000000000000000000000000000 PUSH0 MSTORE PUSH1 0x11 PUSH1 0x4 MSTORE PUSH1 0x24 PUSH0 REVERT JUMPDEST PUSH0 PUSH2 0x6AB DUP3 PUSH2 0x5BE JUMP JUMPDEST SWAP2 POP PUSH1 0xFF DUP3 SUB PUSH2 0x6BE JUMPI PUSH2 0x6BD PUSH2 0x674 JUMP JUMPDEST JUMPDEST PUSH1 0x1 DUP3 ADD SWAP1 POP SWAP2 SWAP1 POP JUMP JUMPDEST PUSH0 DUP2 SWAP1 POP SWAP2 SWAP1 POP JUMP JUMPDEST PUSH0 PUSH2 0x6DC DUP3 PUSH2 0x6C9 JUMP JUMPDEST SWAP2 POP PUSH2 0x6E7 DUP4 PUSH2 0x6C9 JUMP JUMPDEST SWAP3 POP DUP3 DUP3 ADD SWAP1 POP DUP1 DUP3 GT ISZERO PUSH2 0x6FF JUMPI PUSH2 0x6FE PUSH2 0x674 JUMP JUMPDEST JUMPDEST SWAP3 SWAP2 POP POP JUMP INVALID LOG2 PUSH5 0x6970667358 0x22 SLT KECCAK256 0xBF DIV BASEFEE GASPRICE CREATE SWAP13 DELEGATECALL 0xC8 EOFCREATE 0x40 DUP12 CALLDATACOPY 0xB0 BLOBHASH SWAPN 0x3A BLOBBASEFEE TSTORE 0x26 DIV PUSH12 0x2F789A1AC6E509AF3BC72E64 PUSH20 0x6F6C634300081E00330000000000000000000000 "
				},
				"gasEstimates": {
					"creation": {
						"codeDepositCost": "370200",
						"executionCost": "infinite",
						"totalCost": "infinite"
					},
					"external": {
						"getVoterAddresses()": "infinite",
						"register(address)": "100013",
						"vote(uint8)": "infinite",
						"winningProposal()": "infinite"
					}
				},
				"methodIdentifiers": {
					"getVoterAddresses()": "0a16e30b",
					"register(address)": "4420e486",
					"vote(uint8)": "b3f98adc",
					"winningProposal()": "609ff1bd"
				}
			},
			"storageLayout": {
				"storage": [
					{
						"astId": 13,
						"contract": "contracts/M0d_n0TQEeigbgqkS_SCag_33725f6044d011e8a24183dd10a23236_BallotBasic.sol:Ballot",
						"label": "chairperson",
						"offset": 0,
						"slot": "0",
						"type": "t_address"
					},
					{
						"astId": 18,
						"contract": "contracts/M0d_n0TQEeigbgqkS_SCag_33725f6044d011e8a24183dd10a23236_BallotBasic.sol:Ballot",
						"label": "voters",
						"offset": 0,
						"slot": "1",
						"type": "t_mapping(t_address,t_struct(Voter)8_storage)"
					},
					{
						"astId": 21,
						"contract": "contracts/M0d_n0TQEeigbgqkS_SCag_33725f6044d011e8a24183dd10a23236_BallotBasic.sol:Ballot",
						"label": "voterAddresses",
						"offset": 0,
						"slot": "2",
						"type": "t_array(t_address)dyn_storage"
					},
					{
						"astId": 25,
						"contract": "contracts/M0d_n0TQEeigbgqkS_SCag_33725f6044d011e8a24183dd10a23236_BallotBasic.sol:Ballot",
						"label": "proposals",
						"offset": 0,
						"slot": "3",
						"type": "t_array(t_struct(Proposal)11_storage)dyn_storage"
					}
				],
				"types": {
					"t_address": {
						"encoding": "inplace",
						"label": "address",
						"numberOfBytes": "20"
					},
					"t_array(t_address)dyn_storage": {
						"base": "t_address",
						"encoding": "dynamic_array",
						"label": "address[]",
						"numberOfBytes": "32"
					},
					"t_array(t_struct(Proposal)11_storage)dyn_storage": {
						"base": "t_struct(Proposal)11_storage",
						"encoding": "dynamic_array",
						"label": "struct Ballot.Proposal[]",
						"numberOfBytes": "32"
					},
					"t_bool": {
						"encoding": "inplace",
						"label": "bool",
						"numberOfBytes": "1"
					},
					"t_mapping(t_address,t_struct(Voter)8_storage)": {
						"encoding": "mapping",
						"key": "t_address",
						"label": "mapping(address => struct Ballot.Voter)",
						"numberOfBytes": "32",
						"value": "t_struct(Voter)8_storage"
					},
					"t_struct(Proposal)11_storage": {
						"encoding": "inplace",
						"label": "struct Ballot.Proposal",
						"members": [
							{
								"astId": 10,
								"contract": "contracts/M0d_n0TQEeigbgqkS_SCag_33725f6044d011e8a24183dd10a23236_BallotBasic.sol:Ballot",
								"label": "voteCount",
								"offset": 0,
								"slot": "0",
								"type": "t_uint256"
							}
						],
						"numberOfBytes": "32"
					},
					"t_struct(Voter)8_storage": {
						"encoding": "inplace",
						"label": "struct Ballot.Voter",
						"members": [
							{
								"astId": 3,
								"contract": "contracts/M0d_n0TQEeigbgqkS_SCag_33725f6044d011e8a24183dd10a23236_BallotBasic.sol:Ballot",
								"label": "weight",
								"offset": 0,
								"slot": "0",
								"type": "t_uint256"
							},
							{
								"astId": 5,
								"contract": "contracts/M0d_n0TQEeigbgqkS_SCag_33725f6044d011e8a24183dd10a23236_BallotBasic.sol:Ballot",
								"label": "voted",
								"offset": 0,
								"slot": "1",
								"type": "t_bool"
							},
							{
								"astId": 7,
								"contract": "contracts/M0d_n0TQEeigbgqkS_SCag_33725f6044d011e8a24183dd10a23236_BallotBasic.sol:Ballot",
								"label": "vote",
								"offset": 1,
								"slot": "1",
								"type": "t_uint8"
							}
						],
						"numberOfBytes": "64"
					},
					"t_uint256": {
						"encoding": "inplace",
						"label": "uint256",
						"numberOfBytes": "32"
					},
					"t_uint8": {
						"encoding": "inplace",
						"label": "uint8",
						"numberOfBytes": "1"
					}
				}
			},
			"userdoc": {
				"kind": "user",
				"methods": {
					"constructor": {
						"notice": "Create a new ballot with $(_numProposals) different proposals."
					},
					"register(address)": {
						"notice": "Give $(toVoter) the right to vote on this ballot. May only be called by $(chairperson)."
					},
					"vote(uint8)": {
						"notice": "Give a single vote to proposal $(toProposal)."
					}
				},
				"version": 1
			}
		}
	}
}