{
	"contracts/BallotV1.sol": {
		"Ballot": {
			"abi": [
				{
					"inputs": [
						{
							"internalType": "string[]",
							"name": "proposalNames",
							"type": "string[]"
						}
					],
					"stateMutability": "nonpayable",
					"type": "constructor"
				},
				{
					"anonymous": false,
					"inputs": [],
					"name": "registerCompleted",
					"type": "event"
				},
				{
					"anonymous": false,
					"inputs": [],
					"name": "votingCompleted",
					"type": "event"
				},
				{
					"inputs": [
						{
							"internalType": "address",
							"name": "voter",
							"type": "address"
						}
					],
					"name": "register",
					"outputs": [],
					"stateMutability": "payable",
					"type": "function"
				},
				{
					"inputs": [
						{
							"internalType": "uint256",
							"name": "proposal",
							"type": "uint256"
						}
					],
					"name": "vote",
					"outputs": [],
					"stateMutability": "payable",
					"type": "function"
				},
				{
					"inputs": [],
					"name": "winningProposal",
					"outputs": [
						{
							"internalType": "uint256",
							"name": "winningProposal_",
							"type": "uint256"
						}
					],
					"stateMutability": "view",
					"type": "function"
				}
			],
			"devdoc": {
				"kind": "dev",
				"methods": {},
				"version": 1
			},
			"evm": {
				"assembly": "    /* \"contracts/BallotV1.sol\":74:2760  contract Ballot {... */\n  mstore(0x40, 0x80)\n    /* \"contracts/BallotV1.sol\":450:460  Stage.Init */\n  0x00\n    /* \"contracts/BallotV1.sol\":429:460  Stage currentStage = Stage.Init */\n  0x04\n  exp(0x0100, 0x00)\n  dup2\n  sload\n  dup2\n  0xff\n  mul\n  not\n  and\n  swap1\n  dup4\n  0x03\n  dup2\n  gt\n  iszero\n  tag_1\n  jumpi\n  tag_2\n  tag_3\n  jump\t// in\ntag_2:\ntag_1:\n  mul\n  or\n  swap1\n  sstore\n  pop\n    /* \"contracts/BallotV1.sol\":758:1195  constructor(string[] memory proposalNames) validStage(Stage.Init) {... */\n  callvalue\n  dup1\n  iszero\n  tag_4\n  jumpi\n  revert(0x00, 0x00)\ntag_4:\n  pop\n  mload(0x40)\n  sub(codesize, bytecodeSize)\n  dup1\n  bytecodeSize\n  dup4\n  codecopy\n  dup2\n  dup2\n  add\n  0x40\n  mstore\n  dup2\n  add\n  swap1\n  tag_5\n  swap2\n  swap1\n  tag_6\n  jump\t// in\ntag_5:\n    /* \"contracts/BallotV1.sol\":812:822  Stage.Init */\n  0x00\n    /* \"contracts/BallotV1.sol\":545:558  requiredStage */\n  dup1\n    /* \"contracts/BallotV1.sol\":529:558  currentStage == requiredStage */\n  0x03\n  dup2\n  gt\n  iszero\n  tag_9\n  jumpi\n  tag_10\n  tag_3\n  jump\t// in\ntag_10:\ntag_9:\n    /* \"contracts/BallotV1.sol\":529:541  currentStage */\n  0x04\n  0x00\n  swap1\n  sload\n  swap1\n  0x0100\n  exp\n  swap1\n  div\n  0xff\n  and\n    /* \"contracts/BallotV1.sol\":529:558  currentStage == requiredStage */\n  0x03\n  dup2\n  gt\n  iszero\n  tag_11\n  jumpi\n  tag_12\n  tag_3\n  jump\t// in\ntag_12:\ntag_11:\n  eq\n    /* \"contracts/BallotV1.sol\":521:559  require(currentStage == requiredStage) */\n  tag_13\n  jumpi\n  revert(0x00, 0x00)\ntag_13:\n    /* \"contracts/BallotV1.sol\":849:859  msg.sender */\n  caller\n    /* \"contracts/BallotV1.sol\":835:846  chairperson */\n  0x02\n  0x00\n    /* \"contracts/BallotV1.sol\":835:859  chairperson = msg.sender */\n  0x0100\n  exp\n  dup2\n  sload\n  dup2\n  0xffffffffffffffffffffffffffffffffffffffff\n  mul\n  not\n  and\n  swap1\n  dup4\n  0xffffffffffffffffffffffffffffffffffffffff\n  and\n  mul\n  or\n  swap1\n  sstore\n  pop\n    /* \"contracts/BallotV1.sol\":899:900  2 */\n  0x02\n    /* \"contracts/BallotV1.sol\":870:876  voters */\n  0x01\n    /* \"contracts/BallotV1.sol\":870:889  voters[chairperson] */\n  0x00\n    /* \"contracts/BallotV1.sol\":877:888  chairperson */\n  0x02\n  0x00\n  swap1\n  sload\n  swap1\n  0x0100\n  exp\n  swap1\n  div\n  0xffffffffffffffffffffffffffffffffffffffff\n  and\n    /* \"contracts/BallotV1.sol\":870:889  voters[chairperson] */\n  0xffffffffffffffffffffffffffffffffffffffff\n  and\n  0xffffffffffffffffffffffffffffffffffffffff\n  and\n  dup2\n  mstore\n  0x20\n  add\n  swap1\n  dup2\n  mstore\n  0x20\n  add\n  0x00\n  keccak256\n    /* \"contracts/BallotV1.sol\":870:896  voters[chairperson].weight */\n  0x01\n  add\n    /* \"contracts/BallotV1.sol\":870:900  voters[chairperson].weight = 2 */\n  dup2\n  swap1\n  sstore\n  pop\n    /* \"contracts/BallotV1.sol\":916:922  uint i */\n  0x00\n    /* \"contracts/BallotV1.sol\":925:926  0 */\n  0x00\n    /* \"contracts/BallotV1.sol\":916:926  uint i = 0 */\n  swap1\n  pop\n    /* \"contracts/BallotV1.sol\":911:1107  for (uint i = 0; i < proposalNames.length; i++) {... */\ntag_15:\n    /* \"contracts/BallotV1.sol\":932:945  proposalNames */\n  dup3\n    /* \"contracts/BallotV1.sol\":932:952  proposalNames.length */\n  mload\n    /* \"contracts/BallotV1.sol\":928:929  i */\n  dup2\n    /* \"contracts/BallotV1.sol\":928:952  i < proposalNames.length */\n  lt\n    /* \"contracts/BallotV1.sol\":911:1107  for (uint i = 0; i < proposalNames.length; i++) {... */\n  iszero\n  tag_16\n  jumpi\n    /* \"contracts/BallotV1.sol\":974:983  proposals */\n  0x00\n    /* \"contracts/BallotV1.sol\":989:1094  Proposal({... */\n  mload(0x40)\n  dup1\n  0x40\n  add\n  0x40\n  mstore\n  dup1\n    /* \"contracts/BallotV1.sol\":1027:1040  proposalNames */\n  dup6\n    /* \"contracts/BallotV1.sol\":1041:1042  i */\n  dup5\n    /* \"contracts/BallotV1.sol\":1027:1043  proposalNames[i] */\n  dup2\n  mload\n  dup2\n  lt\n  tag_18\n  jumpi\n  tag_19\n  tag_20\n  jump\t// in\ntag_19:\ntag_18:\n  0x20\n  mul\n  0x20\n  add\n  add\n  mload\n    /* \"contracts/BallotV1.sol\":989:1094  Proposal({... */\n  dup2\n  mstore\n  0x20\n  add\n    /* \"contracts/BallotV1.sol\":1077:1078  0 */\n  0x00\n    /* \"contracts/BallotV1.sol\":989:1094  Proposal({... */\n  dup2\n  mstore\n  pop\n    /* \"contracts/BallotV1.sol\":974:1095  proposals.push(Proposal({... */\n  swap1\n  dup1\n  0x01\n  dup2\n  sload\n  add\n  dup1\n  dup3\n  sstore\n  dup1\n  swap2\n  pop\n  pop\n  0x01\n  swap1\n  sub\n  swap1\n  0x00\n  mstore\n  keccak256(0x00, 0x20)\n  swap1\n  0x02\n  mul\n  add\n  0x00\n  swap1\n  swap2\n  swap1\n  swap2\n  swap1\n  swap2\n  pop\n  0x00\n  dup3\n  add\n  mload\n  dup2\n  0x00\n  add\n  swap1\n  dup2\n  tag_22\n  swap2\n  swap1\n  tag_23\n  jump\t// in\ntag_22:\n  pop\n  0x20\n  dup3\n  add\n  mload\n  dup2\n  0x01\n  add\n  sstore\n  pop\n  pop\n    /* \"contracts/BallotV1.sol\":954:957  i++ */\n  dup1\n  dup1\n  0x01\n  add\n  swap2\n  pop\n  pop\n    /* \"contracts/BallotV1.sol\":911:1107  for (uint i = 0; i < proposalNames.length; i++) {... */\n  jump(tag_15)\ntag_16:\n  pop\n    /* \"contracts/BallotV1.sol\":1132:1146  Stage.Register */\n  0x01\n    /* \"contracts/BallotV1.sol\":1117:1129  currentStage */\n  0x04\n  0x00\n    /* \"contracts/BallotV1.sol\":1117:1146  currentStage = Stage.Register */\n  0x0100\n  exp\n  dup2\n  sload\n  dup2\n  0xff\n  mul\n  not\n  and\n  swap1\n  dup4\n  0x03\n  dup2\n  gt\n  iszero\n  tag_24\n  jumpi\n  tag_25\n  tag_3\n  jump\t// in\ntag_25:\ntag_24:\n  mul\n  or\n  swap1\n  sstore\n  pop\n    /* \"contracts/BallotV1.sol\":1172:1187  block.timestamp */\n  timestamp\n    /* \"contracts/BallotV1.sol\":1157:1169  creationTime */\n  0x03\n    /* \"contracts/BallotV1.sol\":1157:1187  creationTime = block.timestamp */\n  dup2\n  swap1\n  sstore\n  pop\n    /* \"contracts/BallotV1.sol\":758:1195  constructor(string[] memory proposalNames) validStage(Stage.Init) {... */\n  pop\n  pop\n    /* \"contracts/BallotV1.sol\":74:2760  contract Ballot {... */\n  jump(tag_26)\n    /* \"#utility.yul\":7:187   */\ntag_3:\n    /* \"#utility.yul\":55:132   */\n  0x4e487b7100000000000000000000000000000000000000000000000000000000\n    /* \"#utility.yul\":52:53   */\n  0x00\n    /* \"#utility.yul\":45:133   */\n  mstore\n    /* \"#utility.yul\":152:156   */\n  0x21\n    /* \"#utility.yul\":149:150   */\n  0x04\n    /* \"#utility.yul\":142:157   */\n  mstore\n    /* \"#utility.yul\":176:180   */\n  0x24\n    /* \"#utility.yul\":173:174   */\n  0x00\n    /* \"#utility.yul\":166:181   */\n  revert\n    /* \"#utility.yul\":193:268   */\ntag_27:\n    /* \"#utility.yul\":226:232   */\n  0x00\n    /* \"#utility.yul\":259:261   */\n  0x40\n    /* \"#utility.yul\":253:262   */\n  mload\n    /* \"#utility.yul\":243:262   */\n  swap1\n  pop\n    /* \"#utility.yul\":193:268   */\n  swap1\n  jump\t// out\n    /* \"#utility.yul\":274:391   */\ntag_28:\n    /* \"#utility.yul\":383:384   */\n  0x00\n    /* \"#utility.yul\":380:381   */\n  0x00\n    /* \"#utility.yul\":373:385   */\n  revert\n    /* \"#utility.yul\":397:514   */\ntag_29:\n    /* \"#utility.yul\":506:507   */\n  0x00\n    /* \"#utility.yul\":503:504   */\n  0x00\n    /* \"#utility.yul\":496:508   */\n  revert\n    /* \"#utility.yul\":520:637   */\ntag_30:\n    /* \"#utility.yul\":629:630   */\n  0x00\n    /* \"#utility.yul\":626:627   */\n  0x00\n    /* \"#utility.yul\":619:631   */\n  revert\n    /* \"#utility.yul\":643:745   */\ntag_31:\n    /* \"#utility.yul\":684:690   */\n  0x00\n    /* \"#utility.yul\":735:737   */\n  0x1f\n    /* \"#utility.yul\":731:738   */\n  not\n    /* \"#utility.yul\":726:728   */\n  0x1f\n    /* \"#utility.yul\":719:724   */\n  dup4\n    /* \"#utility.yul\":715:729   */\n  add\n    /* \"#utility.yul\":711:739   */\n  and\n    /* \"#utility.yul\":701:739   */\n  swap1\n  pop\n    /* \"#utility.yul\":643:745   */\n  swap2\n  swap1\n  pop\n  jump\t// out\n    /* \"#utility.yul\":751:931   */\ntag_32:\n    /* \"#utility.yul\":799:876   */\n  0x4e487b7100000000000000000000000000000000000000000000000000000000\n    /* \"#utility.yul\":796:797   */\n  0x00\n    /* \"#utility.yul\":789:877   */\n  mstore\n    /* \"#utility.yul\":896:900   */\n  0x41\n    /* \"#utility.yul\":893:894   */\n  0x04\n    /* \"#utility.yul\":886:901   */\n  mstore\n    /* \"#utility.yul\":920:924   */\n  0x24\n    /* \"#utility.yul\":917:918   */\n  0x00\n    /* \"#utility.yul\":910:925   */\n  revert\n    /* \"#utility.yul\":937:1218   */\ntag_33:\n    /* \"#utility.yul\":1020:1047   */\n  tag_72\n    /* \"#utility.yul\":1042:1046   */\n  dup3\n    /* \"#utility.yul\":1020:1047   */\n  tag_31\n  jump\t// in\ntag_72:\n    /* \"#utility.yul\":1012:1018   */\n  dup2\n    /* \"#utility.yul\":1008:1048   */\n  add\n    /* \"#utility.yul\":1150:1156   */\n  dup2\n    /* \"#utility.yul\":1138:1148   */\n  dup2\n    /* \"#utility.yul\":1135:1157   */\n  lt\n    /* \"#utility.yul\":1114:1132   */\n  0xffffffffffffffff\n    /* \"#utility.yul\":1102:1112   */\n  dup3\n    /* \"#utility.yul\":1099:1133   */\n  gt\n    /* \"#utility.yul\":1096:1158   */\n  or\n    /* \"#utility.yul\":1093:1181   */\n  iszero\n  tag_73\n  jumpi\n    /* \"#utility.yul\":1161:1179   */\n  tag_74\n  tag_32\n  jump\t// in\ntag_74:\n    /* \"#utility.yul\":1093:1181   */\ntag_73:\n    /* \"#utility.yul\":1201:1211   */\n  dup1\n    /* \"#utility.yul\":1197:1199   */\n  0x40\n    /* \"#utility.yul\":1190:1212   */\n  mstore\n    /* \"#utility.yul\":980:1218   */\n  pop\n    /* \"#utility.yul\":937:1218   */\n  pop\n  pop\n  jump\t// out\n    /* \"#utility.yul\":1224:1353   */\ntag_34:\n    /* \"#utility.yul\":1258:1264   */\n  0x00\n    /* \"#utility.yul\":1285:1305   */\n  tag_76\n  tag_27\n  jump\t// in\ntag_76:\n    /* \"#utility.yul\":1275:1305   */\n  swap1\n  pop\n    /* \"#utility.yul\":1314:1347   */\n  tag_77\n    /* \"#utility.yul\":1342:1346   */\n  dup3\n    /* \"#utility.yul\":1334:1340   */\n  dup3\n    /* \"#utility.yul\":1314:1347   */\n  tag_33\n  jump\t// in\ntag_77:\n    /* \"#utility.yul\":1224:1353   */\n  swap2\n  swap1\n  pop\n  jump\t// out\n    /* \"#utility.yul\":1359:1680   */\ntag_35:\n    /* \"#utility.yul\":1446:1450   */\n  0x00\n    /* \"#utility.yul\":1536:1554   */\n  0xffffffffffffffff\n    /* \"#utility.yul\":1528:1534   */\n  dup3\n    /* \"#utility.yul\":1525:1555   */\n  gt\n    /* \"#utility.yul\":1522:1578   */\n  iszero\n  tag_79\n  jumpi\n    /* \"#utility.yul\":1558:1576   */\n  tag_80\n  tag_32\n  jump\t// in\ntag_80:\n    /* \"#utility.yul\":1522:1578   */\ntag_79:\n    /* \"#utility.yul\":1608:1612   */\n  0x20\n    /* \"#utility.yul\":1600:1606   */\n  dup3\n    /* \"#utility.yul\":1596:1613   */\n  mul\n    /* \"#utility.yul\":1588:1613   */\n  swap1\n  pop\n    /* \"#utility.yul\":1668:1672   */\n  0x20\n    /* \"#utility.yul\":1662:1666   */\n  dup2\n    /* \"#utility.yul\":1658:1673   */\n  add\n    /* \"#utility.yul\":1650:1673   */\n  swap1\n  pop\n    /* \"#utility.yul\":1359:1680   */\n  swap2\n  swap1\n  pop\n  jump\t// out\n    /* \"#utility.yul\":1686:1803   */\ntag_36:\n    /* \"#utility.yul\":1795:1796   */\n  0x00\n    /* \"#utility.yul\":1792:1793   */\n  0x00\n    /* \"#utility.yul\":1785:1797   */\n  revert\n    /* \"#utility.yul\":1809:1926   */\ntag_37:\n    /* \"#utility.yul\":1918:1919   */\n  0x00\n    /* \"#utility.yul\":1915:1916   */\n  0x00\n    /* \"#utility.yul\":1908:1920   */\n  revert\n    /* \"#utility.yul\":1932:2240   */\ntag_38:\n    /* \"#utility.yul\":1994:1998   */\n  0x00\n    /* \"#utility.yul\":2084:2102   */\n  0xffffffffffffffff\n    /* \"#utility.yul\":2076:2082   */\n  dup3\n    /* \"#utility.yul\":2073:2103   */\n  gt\n    /* \"#utility.yul\":2070:2126   */\n  iszero\n  tag_84\n  jumpi\n    /* \"#utility.yul\":2106:2124   */\n  tag_85\n  tag_32\n  jump\t// in\ntag_85:\n    /* \"#utility.yul\":2070:2126   */\ntag_84:\n    /* \"#utility.yul\":2144:2173   */\n  tag_86\n    /* \"#utility.yul\":2166:2172   */\n  dup3\n    /* \"#utility.yul\":2144:2173   */\n  tag_31\n  jump\t// in\ntag_86:\n    /* \"#utility.yul\":2136:2173   */\n  swap1\n  pop\n    /* \"#utility.yul\":2228:2232   */\n  0x20\n    /* \"#utility.yul\":2222:2226   */\n  dup2\n    /* \"#utility.yul\":2218:2233   */\n  add\n    /* \"#utility.yul\":2210:2233   */\n  swap1\n  pop\n    /* \"#utility.yul\":1932:2240   */\n  swap2\n  swap1\n  pop\n  jump\t// out\n    /* \"#utility.yul\":2246:2385   */\ntag_39:\n    /* \"#utility.yul\":2335:2341   */\n  dup3\n    /* \"#utility.yul\":2330:2333   */\n  dup2\n    /* \"#utility.yul\":2325:2328   */\n  dup4\n    /* \"#utility.yul\":2319:2342   */\n  mcopy\n    /* \"#utility.yul\":2376:2377   */\n  0x00\n    /* \"#utility.yul\":2367:2373   */\n  dup4\n    /* \"#utility.yul\":2362:2365   */\n  dup4\n    /* \"#utility.yul\":2358:2374   */\n  add\n    /* \"#utility.yul\":2351:2378   */\n  mstore\n    /* \"#utility.yul\":2246:2385   */\n  pop\n  pop\n  pop\n  jump\t// out\n    /* \"#utility.yul\":2391:2825   */\ntag_40:\n    /* \"#utility.yul\":2480:2485   */\n  0x00\n    /* \"#utility.yul\":2505:2571   */\n  tag_89\n    /* \"#utility.yul\":2521:2570   */\n  tag_90\n    /* \"#utility.yul\":2563:2569   */\n  dup5\n    /* \"#utility.yul\":2521:2570   */\n  tag_38\n  jump\t// in\ntag_90:\n    /* \"#utility.yul\":2505:2571   */\n  tag_34\n  jump\t// in\ntag_89:\n    /* \"#utility.yul\":2496:2571   */\n  swap1\n  pop\n    /* \"#utility.yul\":2594:2600   */\n  dup3\n    /* \"#utility.yul\":2587:2592   */\n  dup2\n    /* \"#utility.yul\":2580:2601   */\n  mstore\n    /* \"#utility.yul\":2632:2636   */\n  0x20\n    /* \"#utility.yul\":2625:2630   */\n  dup2\n    /* \"#utility.yul\":2621:2637   */\n  add\n    /* \"#utility.yul\":2670:2673   */\n  dup5\n    /* \"#utility.yul\":2661:2667   */\n  dup5\n    /* \"#utility.yul\":2656:2659   */\n  dup5\n    /* \"#utility.yul\":2652:2668   */\n  add\n    /* \"#utility.yul\":2649:2674   */\n  gt\n    /* \"#utility.yul\":2646:2758   */\n  iszero\n  tag_91\n  jumpi\n    /* \"#utility.yul\":2677:2756   */\n  tag_92\n  tag_37\n  jump\t// in\ntag_92:\n    /* \"#utility.yul\":2646:2758   */\ntag_91:\n    /* \"#utility.yul\":2767:2819   */\n  tag_93\n    /* \"#utility.yul\":2812:2818   */\n  dup5\n    /* \"#utility.yul\":2807:2810   */\n  dup3\n    /* \"#utility.yul\":2802:2805   */\n  dup6\n    /* \"#utility.yul\":2767:2819   */\n  tag_39\n  jump\t// in\ntag_93:\n    /* \"#utility.yul\":2486:2825   */\n  pop\n    /* \"#utility.yul\":2391:2825   */\n  swap4\n  swap3\n  pop\n  pop\n  pop\n  jump\t// out\n    /* \"#utility.yul\":2845:3200   */\ntag_41:\n    /* \"#utility.yul\":2912:2917   */\n  0x00\n    /* \"#utility.yul\":2961:2964   */\n  dup3\n    /* \"#utility.yul\":2954:2958   */\n  0x1f\n    /* \"#utility.yul\":2946:2952   */\n  dup4\n    /* \"#utility.yul\":2942:2959   */\n  add\n    /* \"#utility.yul\":2938:2965   */\n  slt\n    /* \"#utility.yul\":2928:3050   */\n  tag_95\n  jumpi\n    /* \"#utility.yul\":2969:3048   */\n  tag_96\n  tag_30\n  jump\t// in\ntag_96:\n    /* \"#utility.yul\":2928:3050   */\ntag_95:\n    /* \"#utility.yul\":3079:3085   */\n  dup2\n    /* \"#utility.yul\":3073:3086   */\n  mload\n    /* \"#utility.yul\":3104:3194   */\n  tag_97\n    /* \"#utility.yul\":3190:3193   */\n  dup5\n    /* \"#utility.yul\":3182:3188   */\n  dup3\n    /* \"#utility.yul\":3175:3179   */\n  0x20\n    /* \"#utility.yul\":3167:3173   */\n  dup7\n    /* \"#utility.yul\":3163:3180   */\n  add\n    /* \"#utility.yul\":3104:3194   */\n  tag_40\n  jump\t// in\ntag_97:\n    /* \"#utility.yul\":3095:3194   */\n  swap2\n  pop\n    /* \"#utility.yul\":2918:3200   */\n  pop\n    /* \"#utility.yul\":2845:3200   */\n  swap3\n  swap2\n  pop\n  pop\n  jump\t// out\n    /* \"#utility.yul\":3222:4182   */\ntag_42:\n    /* \"#utility.yul\":3339:3344   */\n  0x00\n    /* \"#utility.yul\":3364:3455   */\n  tag_99\n    /* \"#utility.yul\":3380:3454   */\n  tag_100\n    /* \"#utility.yul\":3447:3453   */\n  dup5\n    /* \"#utility.yul\":3380:3454   */\n  tag_35\n  jump\t// in\ntag_100:\n    /* \"#utility.yul\":3364:3455   */\n  tag_34\n  jump\t// in\ntag_99:\n    /* \"#utility.yul\":3355:3455   */\n  swap1\n  pop\n    /* \"#utility.yul\":3475:3480   */\n  dup1\n    /* \"#utility.yul\":3504:3510   */\n  dup4\n    /* \"#utility.yul\":3497:3502   */\n  dup3\n    /* \"#utility.yul\":3490:3511   */\n  mstore\n    /* \"#utility.yul\":3538:3542   */\n  0x20\n    /* \"#utility.yul\":3531:3536   */\n  dup3\n    /* \"#utility.yul\":3527:3543   */\n  add\n    /* \"#utility.yul\":3520:3543   */\n  swap1\n  pop\n    /* \"#utility.yul\":3591:3595   */\n  0x20\n    /* \"#utility.yul\":3583:3589   */\n  dup5\n    /* \"#utility.yul\":3579:3596   */\n  mul\n    /* \"#utility.yul\":3571:3577   */\n  dup4\n    /* \"#utility.yul\":3567:3597   */\n  add\n    /* \"#utility.yul\":3620:3623   */\n  dup6\n    /* \"#utility.yul\":3612:3618   */\n  dup2\n    /* \"#utility.yul\":3609:3624   */\n  gt\n    /* \"#utility.yul\":3606:3728   */\n  iszero\n  tag_101\n  jumpi\n    /* \"#utility.yul\":3639:3718   */\n  tag_102\n  tag_36\n  jump\t// in\ntag_102:\n    /* \"#utility.yul\":3606:3728   */\ntag_101:\n    /* \"#utility.yul\":3754:3760   */\n  dup4\n    /* \"#utility.yul\":3737:4176   */\ntag_103:\n    /* \"#utility.yul\":3771:3777   */\n  dup2\n    /* \"#utility.yul\":3766:3769   */\n  dup2\n    /* \"#utility.yul\":3763:3778   */\n  lt\n    /* \"#utility.yul\":3737:4176   */\n  iszero\n  tag_105\n  jumpi\n    /* \"#utility.yul\":3853:3856   */\n  dup1\n    /* \"#utility.yul\":3847:3857   */\n  mload\n    /* \"#utility.yul\":3889:3907   */\n  0xffffffffffffffff\n    /* \"#utility.yul\":3876:3887   */\n  dup2\n    /* \"#utility.yul\":3873:3908   */\n  gt\n    /* \"#utility.yul\":3870:3992   */\n  iszero\n  tag_106\n  jumpi\n    /* \"#utility.yul\":3911:3990   */\n  tag_107\n  tag_30\n  jump\t// in\ntag_107:\n    /* \"#utility.yul\":3870:3992   */\ntag_106:\n    /* \"#utility.yul\":4035:4046   */\n  dup1\n    /* \"#utility.yul\":4027:4033   */\n  dup7\n    /* \"#utility.yul\":4023:4047   */\n  add\n    /* \"#utility.yul\":4073:4131   */\n  tag_108\n    /* \"#utility.yul\":4127:4130   */\n  dup10\n    /* \"#utility.yul\":4115:4125   */\n  dup3\n    /* \"#utility.yul\":4073:4131   */\n  tag_41\n  jump\t// in\ntag_108:\n    /* \"#utility.yul\":4068:4071   */\n  dup6\n    /* \"#utility.yul\":4061:4132   */\n  mstore\n    /* \"#utility.yul\":4161:4165   */\n  0x20\n    /* \"#utility.yul\":4156:4159   */\n  dup6\n    /* \"#utility.yul\":4152:4166   */\n  add\n    /* \"#utility.yul\":4145:4166   */\n  swap5\n  pop\n    /* \"#utility.yul\":3813:4176   */\n  pop\n  pop\n    /* \"#utility.yul\":3797:3801   */\n  0x20\n    /* \"#utility.yul\":3792:3795   */\n  dup2\n    /* \"#utility.yul\":3788:3802   */\n  add\n    /* \"#utility.yul\":3781:3802   */\n  swap1\n  pop\n    /* \"#utility.yul\":3737:4176   */\n  jump(tag_103)\ntag_105:\n    /* \"#utility.yul\":3741:3762   */\n  pop\n    /* \"#utility.yul\":3345:4182   */\n  pop\n  pop\n    /* \"#utility.yul\":3222:4182   */\n  swap4\n  swap3\n  pop\n  pop\n  pop\n  jump\t// out\n    /* \"#utility.yul\":4204:4609   */\ntag_43:\n    /* \"#utility.yul\":4296:4301   */\n  0x00\n    /* \"#utility.yul\":4345:4348   */\n  dup3\n    /* \"#utility.yul\":4338:4342   */\n  0x1f\n    /* \"#utility.yul\":4330:4336   */\n  dup4\n    /* \"#utility.yul\":4326:4343   */\n  add\n    /* \"#utility.yul\":4322:4349   */\n  slt\n    /* \"#utility.yul\":4312:4434   */\n  tag_110\n  jumpi\n    /* \"#utility.yul\":4353:4432   */\n  tag_111\n  tag_30\n  jump\t// in\ntag_111:\n    /* \"#utility.yul\":4312:4434   */\ntag_110:\n    /* \"#utility.yul\":4463:4469   */\n  dup2\n    /* \"#utility.yul\":4457:4470   */\n  mload\n    /* \"#utility.yul\":4488:4603   */\n  tag_112\n    /* \"#utility.yul\":4599:4602   */\n  dup5\n    /* \"#utility.yul\":4591:4597   */\n  dup3\n    /* \"#utility.yul\":4584:4588   */\n  0x20\n    /* \"#utility.yul\":4576:4582   */\n  dup7\n    /* \"#utility.yul\":4572:4589   */\n  add\n    /* \"#utility.yul\":4488:4603   */\n  tag_42\n  jump\t// in\ntag_112:\n    /* \"#utility.yul\":4479:4603   */\n  swap2\n  pop\n    /* \"#utility.yul\":4302:4609   */\n  pop\n    /* \"#utility.yul\":4204:4609   */\n  swap3\n  swap2\n  pop\n  pop\n  jump\t// out\n    /* \"#utility.yul\":4615:5189   */\ntag_6:\n    /* \"#utility.yul\":4720:4726   */\n  0x00\n    /* \"#utility.yul\":4769:4771   */\n  0x20\n    /* \"#utility.yul\":4757:4766   */\n  dup3\n    /* \"#utility.yul\":4748:4755   */\n  dup5\n    /* \"#utility.yul\":4744:4767   */\n  sub\n    /* \"#utility.yul\":4740:4772   */\n  slt\n    /* \"#utility.yul\":4737:4856   */\n  iszero\n  tag_114\n  jumpi\n    /* \"#utility.yul\":4775:4854   */\n  tag_115\n  tag_28\n  jump\t// in\ntag_115:\n    /* \"#utility.yul\":4737:4856   */\ntag_114:\n    /* \"#utility.yul\":4916:4917   */\n  0x00\n    /* \"#utility.yul\":4905:4914   */\n  dup3\n    /* \"#utility.yul\":4901:4918   */\n  add\n    /* \"#utility.yul\":4895:4919   */\n  mload\n    /* \"#utility.yul\":4946:4964   */\n  0xffffffffffffffff\n    /* \"#utility.yul\":4938:4944   */\n  dup2\n    /* \"#utility.yul\":4935:4965   */\n  gt\n    /* \"#utility.yul\":4932:5049   */\n  iszero\n  tag_116\n  jumpi\n    /* \"#utility.yul\":4968:5047   */\n  tag_117\n  tag_29\n  jump\t// in\ntag_117:\n    /* \"#utility.yul\":4932:5049   */\ntag_116:\n    /* \"#utility.yul\":5073:5172   */\n  tag_118\n    /* \"#utility.yul\":5164:5171   */\n  dup5\n    /* \"#utility.yul\":5155:5161   */\n  dup3\n    /* \"#utility.yul\":5144:5153   */\n  dup6\n    /* \"#utility.yul\":5140:5162   */\n  add\n    /* \"#utility.yul\":5073:5172   */\n  tag_43\n  jump\t// in\ntag_118:\n    /* \"#utility.yul\":5063:5172   */\n  swap2\n  pop\n    /* \"#utility.yul\":4866:5182   */\n  pop\n    /* \"#utility.yul\":4615:5189   */\n  swap3\n  swap2\n  pop\n  pop\n  jump\t// out\n    /* \"#utility.yul\":5195:5375   */\ntag_20:\n    /* \"#utility.yul\":5243:5320   */\n  0x4e487b7100000000000000000000000000000000000000000000000000000000\n    /* \"#utility.yul\":5240:5241   */\n  0x00\n    /* \"#utility.yul\":5233:5321   */\n  mstore\n    /* \"#utility.yul\":5340:5344   */\n  0x32\n    /* \"#utility.yul\":5337:5338   */\n  0x04\n    /* \"#utility.yul\":5330:5345   */\n  mstore\n    /* \"#utility.yul\":5364:5368   */\n  0x24\n    /* \"#utility.yul\":5361:5362   */\n  0x00\n    /* \"#utility.yul\":5354:5369   */\n  revert\n    /* \"#utility.yul\":5381:5480   */\ntag_44:\n    /* \"#utility.yul\":5433:5439   */\n  0x00\n    /* \"#utility.yul\":5467:5472   */\n  dup2\n    /* \"#utility.yul\":5461:5473   */\n  mload\n    /* \"#utility.yul\":5451:5473   */\n  swap1\n  pop\n    /* \"#utility.yul\":5381:5480   */\n  swap2\n  swap1\n  pop\n  jump\t// out\n    /* \"#utility.yul\":5486:5666   */\ntag_45:\n    /* \"#utility.yul\":5534:5611   */\n  0x4e487b7100000000000000000000000000000000000000000000000000000000\n    /* \"#utility.yul\":5531:5532   */\n  0x00\n    /* \"#utility.yul\":5524:5612   */\n  mstore\n    /* \"#utility.yul\":5631:5635   */\n  0x22\n    /* \"#utility.yul\":5628:5629   */\n  0x04\n    /* \"#utility.yul\":5621:5636   */\n  mstore\n    /* \"#utility.yul\":5655:5659   */\n  0x24\n    /* \"#utility.yul\":5652:5653   */\n  0x00\n    /* \"#utility.yul\":5645:5660   */\n  revert\n    /* \"#utility.yul\":5672:5992   */\ntag_46:\n    /* \"#utility.yul\":5716:5722   */\n  0x00\n    /* \"#utility.yul\":5753:5754   */\n  0x02\n    /* \"#utility.yul\":5747:5751   */\n  dup3\n    /* \"#utility.yul\":5743:5755   */\n  div\n    /* \"#utility.yul\":5733:5755   */\n  swap1\n  pop\n    /* \"#utility.yul\":5800:5801   */\n  0x01\n    /* \"#utility.yul\":5794:5798   */\n  dup3\n    /* \"#utility.yul\":5790:5802   */\n  and\n    /* \"#utility.yul\":5821:5839   */\n  dup1\n    /* \"#utility.yul\":5811:5892   */\n  tag_123\n  jumpi\n    /* \"#utility.yul\":5877:5881   */\n  0x7f\n    /* \"#utility.yul\":5869:5875   */\n  dup3\n    /* \"#utility.yul\":5865:5882   */\n  and\n    /* \"#utility.yul\":5855:5882   */\n  swap2\n  pop\n    /* \"#utility.yul\":5811:5892   */\ntag_123:\n    /* \"#utility.yul\":5939:5941   */\n  0x20\n    /* \"#utility.yul\":5931:5937   */\n  dup3\n    /* \"#utility.yul\":5928:5942   */\n  lt\n    /* \"#utility.yul\":5908:5926   */\n  dup2\n    /* \"#utility.yul\":5905:5943   */\n  sub\n    /* \"#utility.yul\":5902:5986   */\n  tag_124\n  jumpi\n    /* \"#utility.yul\":5958:5976   */\n  tag_125\n  tag_45\n  jump\t// in\ntag_125:\n    /* \"#utility.yul\":5902:5986   */\ntag_124:\n    /* \"#utility.yul\":5723:5992   */\n  pop\n    /* \"#utility.yul\":5672:5992   */\n  swap2\n  swap1\n  pop\n  jump\t// out\n    /* \"#utility.yul\":5998:6139   */\ntag_47:\n    /* \"#utility.yul\":6047:6051   */\n  0x00\n    /* \"#utility.yul\":6070:6073   */\n  dup2\n    /* \"#utility.yul\":6062:6073   */\n  swap1\n  pop\n    /* \"#utility.yul\":6093:6096   */\n  dup2\n    /* \"#utility.yul\":6090:6091   */\n  0x00\n    /* \"#utility.yul\":6083:6097   */\n  mstore\n    /* \"#utility.yul\":6127:6131   */\n  0x20\n    /* \"#utility.yul\":6124:6125   */\n  0x00\n    /* \"#utility.yul\":6114:6132   */\n  keccak256\n    /* \"#utility.yul\":6106:6132   */\n  swap1\n  pop\n    /* \"#utility.yul\":5998:6139   */\n  swap2\n  swap1\n  pop\n  jump\t// out\n    /* \"#utility.yul\":6145:6238   */\ntag_48:\n    /* \"#utility.yul\":6182:6188   */\n  0x00\n    /* \"#utility.yul\":6229:6231   */\n  0x20\n    /* \"#utility.yul\":6224:6226   */\n  0x1f\n    /* \"#utility.yul\":6217:6222   */\n  dup4\n    /* \"#utility.yul\":6213:6227   */\n  add\n    /* \"#utility.yul\":6209:6232   */\n  div\n    /* \"#utility.yul\":6199:6232   */\n  swap1\n  pop\n    /* \"#utility.yul\":6145:6238   */\n  swap2\n  swap1\n  pop\n  jump\t// out\n    /* \"#utility.yul\":6244:6351   */\ntag_49:\n    /* \"#utility.yul\":6288:6296   */\n  0x00\n    /* \"#utility.yul\":6338:6343   */\n  dup3\n    /* \"#utility.yul\":6332:6336   */\n  dup3\n    /* \"#utility.yul\":6328:6344   */\n  shl\n    /* \"#utility.yul\":6307:6344   */\n  swap1\n  pop\n    /* \"#utility.yul\":6244:6351   */\n  swap3\n  swap2\n  pop\n  pop\n  jump\t// out\n    /* \"#utility.yul\":6357:6750   */\ntag_50:\n    /* \"#utility.yul\":6426:6432   */\n  0x00\n    /* \"#utility.yul\":6476:6477   */\n  0x08\n    /* \"#utility.yul\":6464:6474   */\n  dup4\n    /* \"#utility.yul\":6460:6478   */\n  mul\n    /* \"#utility.yul\":6499:6596   */\n  tag_130\n    /* \"#utility.yul\":6529:6595   */\n  0xffffffffffffffffffffffffffffffffffffffffffffffffffffffffffffffff\n    /* \"#utility.yul\":6518:6527   */\n  dup3\n    /* \"#utility.yul\":6499:6596   */\n  tag_49\n  jump\t// in\ntag_130:\n    /* \"#utility.yul\":6617:6656   */\n  tag_131\n    /* \"#utility.yul\":6647:6655   */\n  dup7\n    /* \"#utility.yul\":6636:6645   */\n  dup4\n    /* \"#utility.yul\":6617:6656   */\n  tag_49\n  jump\t// in\ntag_131:\n    /* \"#utility.yul\":6605:6656   */\n  swap6\n  pop\n    /* \"#utility.yul\":6689:6693   */\n  dup1\n    /* \"#utility.yul\":6685:6694   */\n  not\n    /* \"#utility.yul\":6678:6683   */\n  dup5\n    /* \"#utility.yul\":6674:6695   */\n  and\n    /* \"#utility.yul\":6665:6695   */\n  swap4\n  pop\n    /* \"#utility.yul\":6738:6742   */\n  dup1\n    /* \"#utility.yul\":6728:6736   */\n  dup7\n    /* \"#utility.yul\":6724:6743   */\n  and\n    /* \"#utility.yul\":6717:6722   */\n  dup5\n    /* \"#utility.yul\":6714:6744   */\n  or\n    /* \"#utility.yul\":6704:6744   */\n  swap3\n  pop\n    /* \"#utility.yul\":6433:6750   */\n  pop\n  pop\n    /* \"#utility.yul\":6357:6750   */\n  swap4\n  swap3\n  pop\n  pop\n  pop\n  jump\t// out\n    /* \"#utility.yul\":6756:6833   */\ntag_51:\n    /* \"#utility.yul\":6793:6800   */\n  0x00\n    /* \"#utility.yul\":6822:6827   */\n  dup2\n    /* \"#utility.yul\":6811:6827   */\n  swap1\n  pop\n    /* \"#utility.yul\":6756:6833   */\n  swap2\n  swap1\n  pop\n  jump\t// out\n    /* \"#utility.yul\":6839:6899   */\ntag_52:\n    /* \"#utility.yul\":6867:6870   */\n  0x00\n    /* \"#utility.yul\":6888:6893   */\n  dup2\n    /* \"#utility.yul\":6881:6893   */\n  swap1\n  pop\n    /* \"#utility.yul\":6839:6899   */\n  swap2\n  swap1\n  pop\n  jump\t// out\n    /* \"#utility.yul\":6905:7047   */\ntag_53:\n    /* \"#utility.yul\":6955:6964   */\n  0x00\n    /* \"#utility.yul\":6988:7041   */\n  tag_135\n    /* \"#utility.yul\":7006:7040   */\n  tag_136\n    /* \"#utility.yul\":7015:7039   */\n  tag_137\n    /* \"#utility.yul\":7033:7038   */\n  dup5\n    /* \"#utility.yul\":7015:7039   */\n  tag_51\n  jump\t// in\ntag_137:\n    /* \"#utility.yul\":7006:7040   */\n  tag_52\n  jump\t// in\ntag_136:\n    /* \"#utility.yul\":6988:7041   */\n  tag_51\n  jump\t// in\ntag_135:\n    /* \"#utility.yul\":6975:7041   */\n  swap1\n  pop\n    /* \"#utility.yul\":6905:7047   */\n  swap2\n  swap1\n  pop\n  jump\t// out\n    /* \"#utility.yul\":7053:7128   */\ntag_54:\n    /* \"#utility.yul\":7096:7099   */\n  0x00\n    /* \"#utility.yul\":7117:7122   */\n  dup2\n    /* \"#utility.yul\":7110:7122   */\n  swap1\n  pop\n    /* \"#utility.yul\":7053:7128   */\n  swap2\n  swap1\n  pop\n  jump\t// out\n    /* \"#utility.yul\":7134:7403   */\ntag_55:\n    /* \"#utility.yul\":7244:7283   */\n  tag_140\n    /* \"#utility.yul\":7275:7282   */\n  dup4\n    /* \"#utility.yul\":7244:7283   */\n  tag_53\n  jump\t// in\ntag_140:\n    /* \"#utility.yul\":7305:7396   */\n  tag_141\n    /* \"#utility.yul\":7354:7395   */\n  tag_142\n    /* \"#utility.yul\":7378:7394   */\n  dup3\n    /* \"#utility.yul\":7354:7395   */\n  tag_54\n  jump\t// in\ntag_142:\n    /* \"#utility.yul\":7346:7352   */\n  dup5\n    /* \"#utility.yul\":7339:7343   */\n  dup5\n    /* \"#utility.yul\":7333:7344   */\n  sload\n    /* \"#utility.yul\":7305:7396   */\n  tag_50\n  jump\t// in\ntag_141:\n    /* \"#utility.yul\":7299:7303   */\n  dup3\n    /* \"#utility.yul\":7292:7397   */\n  sstore\n    /* \"#utility.yul\":7210:7403   */\n  pop\n    /* \"#utility.yul\":7134:7403   */\n  pop\n  pop\n  pop\n  jump\t// out\n    /* \"#utility.yul\":7409:7482   */\ntag_56:\n    /* \"#utility.yul\":7454:7457   */\n  0x00\n    /* \"#utility.yul\":7475:7476   */\n  0x00\n    /* \"#utility.yul\":7468:7476   */\n  swap1\n  pop\n    /* \"#utility.yul\":7409:7482   */\n  swap1\n  jump\t// out\n    /* \"#utility.yul\":7488:7677   */\ntag_57:\n    /* \"#utility.yul\":7565:7597   */\n  tag_145\n  tag_56\n  jump\t// in\ntag_145:\n    /* \"#utility.yul\":7606:7671   */\n  tag_146\n    /* \"#utility.yul\":7664:7670   */\n  dup2\n    /* \"#utility.yul\":7656:7662   */\n  dup5\n    /* \"#utility.yul\":7650:7654   */\n  dup5\n    /* \"#utility.yul\":7606:7671   */\n  tag_55\n  jump\t// in\ntag_146:\n    /* \"#utility.yul\":7541:7677   */\n  pop\n    /* \"#utility.yul\":7488:7677   */\n  pop\n  pop\n  jump\t// out\n    /* \"#utility.yul\":7683:7869   */\ntag_58:\n    /* \"#utility.yul\":7743:7863   */\ntag_148:\n    /* \"#utility.yul\":7760:7763   */\n  dup2\n    /* \"#utility.yul\":7753:7758   */\n  dup2\n    /* \"#utility.yul\":7750:7764   */\n  lt\n    /* \"#utility.yul\":7743:7863   */\n  iszero\n  tag_150\n  jumpi\n    /* \"#utility.yul\":7814:7853   */\n  tag_151\n    /* \"#utility.yul\":7851:7852   */\n  0x00\n    /* \"#utility.yul\":7844:7849   */\n  dup3\n    /* \"#utility.yul\":7814:7853   */\n  tag_57\n  jump\t// in\ntag_151:\n    /* \"#utility.yul\":7787:7788   */\n  0x01\n    /* \"#utility.yul\":7780:7785   */\n  dup2\n    /* \"#utility.yul\":7776:7789   */\n  add\n    /* \"#utility.yul\":7767:7789   */\n  swap1\n  pop\n    /* \"#utility.yul\":7743:7863   */\n  jump(tag_148)\ntag_150:\n    /* \"#utility.yul\":7683:7869   */\n  pop\n  pop\n  jump\t// out\n    /* \"#utility.yul\":7875:8418   */\ntag_59:\n    /* \"#utility.yul\":7976:7978   */\n  0x1f\n    /* \"#utility.yul\":7971:7974   */\n  dup3\n    /* \"#utility.yul\":7968:7979   */\n  gt\n    /* \"#utility.yul\":7965:8411   */\n  iszero\n  tag_153\n  jumpi\n    /* \"#utility.yul\":8010:8048   */\n  tag_154\n    /* \"#utility.yul\":8042:8047   */\n  dup2\n    /* \"#utility.yul\":8010:8048   */\n  tag_47\n  jump\t// in\ntag_154:\n    /* \"#utility.yul\":8094:8123   */\n  tag_155\n    /* \"#utility.yul\":8112:8122   */\n  dup5\n    /* \"#utility.yul\":8094:8123   */\n  tag_48\n  jump\t// in\ntag_155:\n    /* \"#utility.yul\":8084:8092   */\n  dup2\n    /* \"#utility.yul\":8080:8124   */\n  add\n    /* \"#utility.yul\":8277:8279   */\n  0x20\n    /* \"#utility.yul\":8265:8275   */\n  dup6\n    /* \"#utility.yul\":8262:8280   */\n  lt\n    /* \"#utility.yul\":8259:8308   */\n  iszero\n  tag_156\n  jumpi\n    /* \"#utility.yul\":8298:8306   */\n  dup2\n    /* \"#utility.yul\":8283:8306   */\n  swap1\n  pop\n    /* \"#utility.yul\":8259:8308   */\ntag_156:\n    /* \"#utility.yul\":8321:8401   */\n  tag_157\n    /* \"#utility.yul\":8377:8399   */\n  tag_158\n    /* \"#utility.yul\":8395:8398   */\n  dup6\n    /* \"#utility.yul\":8377:8399   */\n  tag_48\n  jump\t// in\ntag_158:\n    /* \"#utility.yul\":8367:8375   */\n  dup4\n    /* \"#utility.yul\":8363:8400   */\n  add\n    /* \"#utility.yul\":8350:8361   */\n  dup3\n    /* \"#utility.yul\":8321:8401   */\n  tag_58\n  jump\t// in\ntag_157:\n    /* \"#utility.yul\":7980:8411   */\n  pop\n  pop\n    /* \"#utility.yul\":7965:8411   */\ntag_153:\n    /* \"#utility.yul\":7875:8418   */\n  pop\n  pop\n  pop\n  jump\t// out\n    /* \"#utility.yul\":8424:8541   */\ntag_60:\n    /* \"#utility.yul\":8478:8486   */\n  0x00\n    /* \"#utility.yul\":8528:8533   */\n  dup3\n    /* \"#utility.yul\":8522:8526   */\n  dup3\n    /* \"#utility.yul\":8518:8534   */\n  shr\n    /* \"#utility.yul\":8497:8534   */\n  swap1\n  pop\n    /* \"#utility.yul\":8424:8541   */\n  swap3\n  swap2\n  pop\n  pop\n  jump\t// out\n    /* \"#utility.yul\":8547:8716   */\ntag_61:\n    /* \"#utility.yul\":8591:8597   */\n  0x00\n    /* \"#utility.yul\":8624:8675   */\n  tag_161\n    /* \"#utility.yul\":8672:8673   */\n  0x00\n    /* \"#utility.yul\":8668:8674   */\n  not\n    /* \"#utility.yul\":8660:8665   */\n  dup5\n    /* \"#utility.yul\":8657:8658   */\n  0x08\n    /* \"#utility.yul\":8653:8666   */\n  mul\n    /* \"#utility.yul\":8624:8675   */\n  tag_60\n  jump\t// in\ntag_161:\n    /* \"#utility.yul\":8620:8676   */\n  not\n    /* \"#utility.yul\":8705:8709   */\n  dup1\n    /* \"#utility.yul\":8699:8703   */\n  dup4\n    /* \"#utility.yul\":8695:8710   */\n  and\n    /* \"#utility.yul\":8685:8710   */\n  swap2\n  pop\n    /* \"#utility.yul\":8598:8716   */\n  pop\n    /* \"#utility.yul\":8547:8716   */\n  swap3\n  swap2\n  pop\n  pop\n  jump\t// out\n    /* \"#utility.yul\":8721:9016   */\ntag_62:\n    /* \"#utility.yul\":8797:8801   */\n  0x00\n    /* \"#utility.yul\":8943:8972   */\n  tag_163\n    /* \"#utility.yul\":8968:8971   */\n  dup4\n    /* \"#utility.yul\":8962:8966   */\n  dup4\n    /* \"#utility.yul\":8943:8972   */\n  tag_61\n  jump\t// in\ntag_163:\n    /* \"#utility.yul\":8935:8972   */\n  swap2\n  pop\n    /* \"#utility.yul\":9005:9008   */\n  dup3\n    /* \"#utility.yul\":9002:9003   */\n  0x02\n    /* \"#utility.yul\":8998:9009   */\n  mul\n    /* \"#utility.yul\":8992:8996   */\n  dup3\n    /* \"#utility.yul\":8989:9010   */\n  or\n    /* \"#utility.yul\":8981:9010   */\n  swap1\n  pop\n    /* \"#utility.yul\":8721:9016   */\n  swap3\n  swap2\n  pop\n  pop\n  jump\t// out\n    /* \"#utility.yul\":9021:10416   */\ntag_23:\n    /* \"#utility.yul\":9138:9175   */\n  tag_165\n    /* \"#utility.yul\":9171:9174   */\n  dup3\n    /* \"#utility.yul\":9138:9175   */\n  tag_44\n  jump\t// in\ntag_165:\n    /* \"#utility.yul\":9240:9258   */\n  0xffffffffffffffff\n    /* \"#utility.yul\":9232:9238   */\n  dup2\n    /* \"#utility.yul\":9229:9259   */\n  gt\n    /* \"#utility.yul\":9226:9282   */\n  iszero\n  tag_166\n  jumpi\n    /* \"#utility.yul\":9262:9280   */\n  tag_167\n  tag_32\n  jump\t// in\ntag_167:\n    /* \"#utility.yul\":9226:9282   */\ntag_166:\n    /* \"#utility.yul\":9306:9344   */\n  tag_168\n    /* \"#utility.yul\":9338:9342   */\n  dup3\n    /* \"#utility.yul\":9332:9343   */\n  sload\n    /* \"#utility.yul\":9306:9344   */\n  tag_46\n  jump\t// in\ntag_168:\n    /* \"#utility.yul\":9391:9458   */\n  tag_169\n    /* \"#utility.yul\":9451:9457   */\n  dup3\n    /* \"#utility.yul\":9443:9449   */\n  dup3\n    /* \"#utility.yul\":9437:9441   */\n  dup6\n    /* \"#utility.yul\":9391:9458   */\n  tag_59\n  jump\t// in\ntag_169:\n    /* \"#utility.yul\":9485:9486   */\n  0x00\n    /* \"#utility.yul\":9509:9513   */\n  0x20\n    /* \"#utility.yul\":9496:9513   */\n  swap1\n  pop\n    /* \"#utility.yul\":9541:9543   */\n  0x1f\n    /* \"#utility.yul\":9533:9539   */\n  dup4\n    /* \"#utility.yul\":9530:9544   */\n  gt\n    /* \"#utility.yul\":9558:9559   */\n  0x01\n    /* \"#utility.yul\":9553:10171   */\n  dup2\n  eq\n  tag_171\n  jumpi\n    /* \"#utility.yul\":10215:10216   */\n  0x00\n    /* \"#utility.yul\":10232:10238   */\n  dup5\n    /* \"#utility.yul\":10229:10306   */\n  iszero\n  tag_172\n  jumpi\n    /* \"#utility.yul\":10281:10290   */\n  dup3\n    /* \"#utility.yul\":10276:10279   */\n  dup8\n    /* \"#utility.yul\":10272:10291   */\n  add\n    /* \"#utility.yul\":10266:10292   */\n  mload\n    /* \"#utility.yul\":10257:10292   */\n  swap1\n  pop\n    /* \"#utility.yul\":10229:10306   */\ntag_172:\n    /* \"#utility.yul\":10332:10399   */\n  tag_173\n    /* \"#utility.yul\":10392:10398   */\n  dup6\n    /* \"#utility.yul\":10385:10390   */\n  dup3\n    /* \"#utility.yul\":10332:10399   */\n  tag_62\n  jump\t// in\ntag_173:\n    /* \"#utility.yul\":10326:10330   */\n  dup7\n    /* \"#utility.yul\":10319:10400   */\n  sstore\n    /* \"#utility.yul\":10188:10410   */\n  pop\n    /* \"#utility.yul\":9523:10410   */\n  jump(tag_170)\n    /* \"#utility.yul\":9553:10171   */\ntag_171:\n    /* \"#utility.yul\":9605:9609   */\n  0x1f\n    /* \"#utility.yul\":9601:9610   */\n  not\n    /* \"#utility.yul\":9593:9599   */\n  dup5\n    /* \"#utility.yul\":9589:9611   */\n  and\n    /* \"#utility.yul\":9639:9676   */\n  tag_174\n    /* \"#utility.yul\":9671:9675   */\n  dup7\n    /* \"#utility.yul\":9639:9676   */\n  tag_47\n  jump\t// in\ntag_174:\n    /* \"#utility.yul\":9698:9699   */\n  0x00\n    /* \"#utility.yul\":9712:9920   */\ntag_175:\n    /* \"#utility.yul\":9726:9733   */\n  dup3\n    /* \"#utility.yul\":9723:9724   */\n  dup2\n    /* \"#utility.yul\":9720:9734   */\n  lt\n    /* \"#utility.yul\":9712:9920   */\n  iszero\n  tag_177\n  jumpi\n    /* \"#utility.yul\":9805:9814   */\n  dup5\n    /* \"#utility.yul\":9800:9803   */\n  dup10\n    /* \"#utility.yul\":9796:9815   */\n  add\n    /* \"#utility.yul\":9790:9816   */\n  mload\n    /* \"#utility.yul\":9782:9788   */\n  dup3\n    /* \"#utility.yul\":9775:9817   */\n  sstore\n    /* \"#utility.yul\":9856:9857   */\n  0x01\n    /* \"#utility.yul\":9848:9854   */\n  dup3\n    /* \"#utility.yul\":9844:9858   */\n  add\n    /* \"#utility.yul\":9834:9858   */\n  swap2\n  pop\n    /* \"#utility.yul\":9903:9905   */\n  0x20\n    /* \"#utility.yul\":9892:9901   */\n  dup6\n    /* \"#utility.yul\":9888:9906   */\n  add\n    /* \"#utility.yul\":9875:9906   */\n  swap5\n  pop\n    /* \"#utility.yul\":9749:9753   */\n  0x20\n    /* \"#utility.yul\":9746:9747   */\n  dup2\n    /* \"#utility.yul\":9742:9754   */\n  add\n    /* \"#utility.yul\":9737:9754   */\n  swap1\n  pop\n    /* \"#utility.yul\":9712:9920   */\n  jump(tag_175)\ntag_177:\n    /* \"#utility.yul\":9948:9954   */\n  dup7\n    /* \"#utility.yul\":9939:9946   */\n  dup4\n    /* \"#utility.yul\":9936:9955   */\n  lt\n    /* \"#utility.yul\":9933:10112   */\n  iszero\n  tag_178\n  jumpi\n    /* \"#utility.yul\":10006:10015   */\n  dup5\n    /* \"#utility.yul\":10001:10004   */\n  dup10\n    /* \"#utility.yul\":9997:10016   */\n  add\n    /* \"#utility.yul\":9991:10017   */\n  mload\n    /* \"#utility.yul\":10049:10097   */\n  tag_179\n    /* \"#utility.yul\":10091:10095   */\n  0x1f\n    /* \"#utility.yul\":10083:10089   */\n  dup10\n    /* \"#utility.yul\":10079:10096   */\n  and\n    /* \"#utility.yul\":10068:10077   */\n  dup3\n    /* \"#utility.yul\":10049:10097   */\n  tag_61\n  jump\t// in\ntag_179:\n    /* \"#utility.yul\":10041:10047   */\n  dup4\n    /* \"#utility.yul\":10034:10098   */\n  sstore\n    /* \"#utility.yul\":9956:10112   */\n  pop\n    /* \"#utility.yul\":9933:10112   */\ntag_178:\n    /* \"#utility.yul\":10158:10159   */\n  0x01\n    /* \"#utility.yul\":10154:10155   */\n  0x02\n    /* \"#utility.yul\":10146:10152   */\n  dup9\n    /* \"#utility.yul\":10142:10156   */\n  mul\n    /* \"#utility.yul\":10138:10160   */\n  add\n    /* \"#utility.yul\":10132:10136   */\n  dup9\n    /* \"#utility.yul\":10125:10161   */\n  sstore\n    /* \"#utility.yul\":9560:10171   */\n  pop\n  pop\n  pop\n    /* \"#utility.yul\":9523:10410   */\ntag_170:\n  pop\n    /* \"#utility.yul\":9113:10416   */\n  pop\n  pop\n  pop\n    /* \"#utility.yul\":9021:10416   */\n  pop\n  pop\n  jump\t// out\n    /* \"contracts/BallotV1.sol\":74:2760  contract Ballot {... */\ntag_26:\n  dataSize(sub_0)\n  dup1\n  dataOffset(sub_0)\n  0x00\n  codecopy\n  0x00\n  return\nstop\n\nsub_0: assembly {\n        /* \"contracts/BallotV1.sol\":74:2760  contract Ballot {... */\n      mstore(0x40, 0x80)\n      jumpi(tag_1, lt(calldatasize, 0x04))\n      shr(0xe0, calldataload(0x00))\n      dup1\n      0x0121b93f\n      eq\n      tag_2\n      jumpi\n      dup1\n      0x4420e486\n      eq\n      tag_3\n      jumpi\n      dup1\n      0x609ff1bd\n      eq\n      tag_4\n      jumpi\n    tag_1:\n      revert(0x00, 0x00)\n        /* \"contracts/BallotV1.sol\":1731:2255  function vote(uint proposal) external payable validStage(Stage.Vote) validVote(proposal) {... */\n    tag_2:\n      tag_5\n      0x04\n      dup1\n      calldatasize\n      sub\n      dup2\n      add\n      swap1\n      tag_6\n      swap2\n      swap1\n      tag_7\n      jump\t// in\n    tag_6:\n      tag_8\n      jump\t// in\n    tag_5:\n      stop\n        /* \"contracts/BallotV1.sol\":1203:1723  function register(address voter) external payable validStage(Stage.Register) {... */\n    tag_3:\n      tag_9\n      0x04\n      dup1\n      calldatasize\n      sub\n      dup2\n      add\n      swap1\n      tag_10\n      swap2\n      swap1\n      tag_11\n      jump\t// in\n    tag_10:\n      tag_12\n      jump\t// in\n    tag_9:\n      stop\n        /* \"contracts/BallotV1.sol\":2263:2757  function winningProposal() public view validStage(Stage.Done) returns (uint winningProposal_) {... */\n    tag_4:\n      callvalue\n      dup1\n      iszero\n      tag_13\n      jumpi\n      revert(0x00, 0x00)\n    tag_13:\n      pop\n      tag_14\n      tag_15\n      jump\t// in\n    tag_14:\n      mload(0x40)\n      tag_16\n      swap2\n      swap1\n      tag_17\n      jump\t// in\n    tag_16:\n      mload(0x40)\n      dup1\n      swap2\n      sub\n      swap1\n      return\n        /* \"contracts/BallotV1.sol\":1731:2255  function vote(uint proposal) external payable validStage(Stage.Vote) validVote(proposal) {... */\n    tag_8:\n        /* \"contracts/BallotV1.sol\":1788:1798  Stage.Vote */\n      0x02\n        /* \"contracts/BallotV1.sol\":545:558  requiredStage */\n      dup1\n        /* \"contracts/BallotV1.sol\":529:558  currentStage == requiredStage */\n      0x03\n      dup2\n      gt\n      iszero\n      tag_19\n      jumpi\n      tag_20\n      tag_21\n      jump\t// in\n    tag_20:\n    tag_19:\n        /* \"contracts/BallotV1.sol\":529:541  currentStage */\n      0x04\n      0x00\n      swap1\n      sload\n      swap1\n      0x0100\n      exp\n      swap1\n      div\n      0xff\n      and\n        /* \"contracts/BallotV1.sol\":529:558  currentStage == requiredStage */\n      0x03\n      dup2\n      gt\n      iszero\n      tag_22\n      jumpi\n      tag_23\n      tag_21\n      jump\t// in\n    tag_23:\n    tag_22:\n      eq\n        /* \"contracts/BallotV1.sol\":521:559  require(currentStage == requiredStage) */\n      tag_24\n      jumpi\n      revert(0x00, 0x00)\n    tag_24:\n        /* \"contracts/BallotV1.sol\":1810:1818  proposal */\n      dup2\n        /* \"contracts/BallotV1.sol\":649:658  proposals */\n      0x00\n        /* \"contracts/BallotV1.sol\":649:665  proposals.length */\n      dup1\n      sload\n      swap1\n      pop\n        /* \"contracts/BallotV1.sol\":638:646  proposal */\n      dup2\n        /* \"contracts/BallotV1.sol\":638:665  proposal < proposals.length */\n      lt\n        /* \"contracts/BallotV1.sol\":630:666  require(proposal < proposals.length) */\n      tag_26\n      jumpi\n      revert(0x00, 0x00)\n    tag_26:\n        /* \"contracts/BallotV1.sol\":1831:1850  Voter storage voter */\n      0x00\n        /* \"contracts/BallotV1.sol\":1853:1859  voters */\n      0x01\n        /* \"contracts/BallotV1.sol\":1853:1871  voters[msg.sender] */\n      0x00\n        /* \"contracts/BallotV1.sol\":1860:1870  msg.sender */\n      caller\n        /* \"contracts/BallotV1.sol\":1853:1871  voters[msg.sender] */\n      0xffffffffffffffffffffffffffffffffffffffff\n      and\n      0xffffffffffffffffffffffffffffffffffffffff\n      and\n      dup2\n      mstore\n      0x20\n      add\n      swap1\n      dup2\n      mstore\n      0x20\n      add\n      0x00\n      keccak256\n        /* \"contracts/BallotV1.sol\":1831:1871  Voter storage voter = voters[msg.sender] */\n      swap1\n      pop\n        /* \"contracts/BallotV1.sol\":1891:1896  voter */\n      dup1\n        /* \"contracts/BallotV1.sol\":1891:1902  voter.voted */\n      0x00\n      add\n      0x00\n      swap1\n      sload\n      swap1\n      0x0100\n      exp\n      swap1\n      div\n      0xff\n      and\n        /* \"contracts/BallotV1.sol\":1890:1902  !voter.voted */\n      iszero\n        /* \"contracts/BallotV1.sol\":1890:1922  !voter.voted && voter.weight > 0 */\n      dup1\n      iszero\n      tag_28\n      jumpi\n      pop\n        /* \"contracts/BallotV1.sol\":1921:1922  0 */\n      0x00\n        /* \"contracts/BallotV1.sol\":1906:1911  voter */\n      dup2\n        /* \"contracts/BallotV1.sol\":1906:1918  voter.weight */\n      0x01\n      add\n      sload\n        /* \"contracts/BallotV1.sol\":1906:1922  voter.weight > 0 */\n      gt\n        /* \"contracts/BallotV1.sol\":1890:1922  !voter.voted && voter.weight > 0 */\n    tag_28:\n        /* \"contracts/BallotV1.sol\":1882:1923  require(!voter.voted && voter.weight > 0) */\n      tag_29\n      jumpi\n      revert(0x00, 0x00)\n    tag_29:\n        /* \"contracts/BallotV1.sol\":2024:2029  voter */\n      dup1\n        /* \"contracts/BallotV1.sol\":2024:2036  voter.weight */\n      0x01\n      add\n      sload\n        /* \"contracts/BallotV1.sol\":1991:2000  proposals */\n      0x00\n        /* \"contracts/BallotV1.sol\":2001:2009  proposal */\n      dup6\n        /* \"contracts/BallotV1.sol\":1991:2010  proposals[proposal] */\n      dup2\n      sload\n      dup2\n      lt\n      tag_30\n      jumpi\n      tag_31\n      tag_32\n      jump\t// in\n    tag_31:\n    tag_30:\n      swap1\n      0x00\n      mstore\n      keccak256(0x00, 0x20)\n      swap1\n      0x02\n      mul\n      add\n        /* \"contracts/BallotV1.sol\":1991:2020  proposals[proposal].voteCount */\n      0x01\n      add\n      0x00\n        /* \"contracts/BallotV1.sol\":1991:2036  proposals[proposal].voteCount += voter.weight */\n      dup3\n      dup3\n      sload\n      tag_34\n      swap2\n      swap1\n      tag_35\n      jump\t// in\n    tag_34:\n      swap3\n      pop\n      pop\n      dup2\n      swap1\n      sstore\n      pop\n        /* \"contracts/BallotV1.sol\":2061:2065  true */\n      0x01\n        /* \"contracts/BallotV1.sol\":2047:2052  voter */\n      dup2\n        /* \"contracts/BallotV1.sol\":2047:2058  voter.voted */\n      0x00\n      add\n      0x00\n        /* \"contracts/BallotV1.sol\":2047:2065  voter.voted = true */\n      0x0100\n      exp\n      dup2\n      sload\n      dup2\n      0xff\n      mul\n      not\n      and\n      swap1\n      dup4\n      iszero\n      iszero\n      mul\n      or\n      swap1\n      sstore\n      pop\n        /* \"contracts/BallotV1.sol\":2089:2097  proposal */\n      dup4\n        /* \"contracts/BallotV1.sol\":2076:2081  voter */\n      dup2\n        /* \"contracts/BallotV1.sol\":2076:2086  voter.vote */\n      0x02\n      add\n        /* \"contracts/BallotV1.sol\":2076:2097  voter.vote = proposal */\n      dup2\n      swap1\n      sstore\n      pop\n        /* \"contracts/BallotV1.sol\":2147:2157  60 seconds */\n      0x3c\n        /* \"contracts/BallotV1.sol\":2132:2144  creationTime */\n      sload(0x03)\n        /* \"contracts/BallotV1.sol\":2132:2157  creationTime + 60 seconds */\n      tag_36\n      swap2\n      swap1\n      tag_35\n      jump\t// in\n    tag_36:\n        /* \"contracts/BallotV1.sol\":2114:2129  block.timestamp */\n      timestamp\n        /* \"contracts/BallotV1.sol\":2114:2157  block.timestamp > creationTime + 60 seconds */\n      gt\n        /* \"contracts/BallotV1.sol\":2110:2248  if (block.timestamp > creationTime + 60 seconds) {... */\n      iszero\n      tag_37\n      jumpi\n        /* \"contracts/BallotV1.sol\":2189:2199  Stage.Done */\n      0x03\n        /* \"contracts/BallotV1.sol\":2174:2186  currentStage */\n      0x04\n      0x00\n        /* \"contracts/BallotV1.sol\":2174:2199  currentStage = Stage.Done */\n      0x0100\n      exp\n      dup2\n      sload\n      dup2\n      0xff\n      mul\n      not\n      and\n      swap1\n      dup4\n      0x03\n      dup2\n      gt\n      iszero\n      tag_38\n      jumpi\n      tag_39\n      tag_21\n      jump\t// in\n    tag_39:\n    tag_38:\n      mul\n      or\n      swap1\n      sstore\n      pop\n        /* \"contracts/BallotV1.sol\":2219:2236  votingCompleted() */\n      0x6ac0c89219f0135e3a87cecdf1851abced71da933a0a00e1eada0ef035382351\n      mload(0x40)\n      mload(0x40)\n      dup1\n      swap2\n      sub\n      swap1\n      log1\n        /* \"contracts/BallotV1.sol\":2110:2248  if (block.timestamp > creationTime + 60 seconds) {... */\n    tag_37:\n        /* \"contracts/BallotV1.sol\":1820:2255  {... */\n      pop\n        /* \"contracts/BallotV1.sol\":570:571  _ */\n      pop\n        /* \"contracts/BallotV1.sol\":1731:2255  function vote(uint proposal) external payable validStage(Stage.Vote) validVote(proposal) {... */\n      pop\n      pop\n      jump\t// out\n        /* \"contracts/BallotV1.sol\":1203:1723  function register(address voter) external payable validStage(Stage.Register) {... */\n    tag_12:\n        /* \"contracts/BallotV1.sol\":1264:1278  Stage.Register */\n      0x01\n        /* \"contracts/BallotV1.sol\":545:558  requiredStage */\n      dup1\n        /* \"contracts/BallotV1.sol\":529:558  currentStage == requiredStage */\n      0x03\n      dup2\n      gt\n      iszero\n      tag_41\n      jumpi\n      tag_42\n      tag_21\n      jump\t// in\n    tag_42:\n    tag_41:\n        /* \"contracts/BallotV1.sol\":529:541  currentStage */\n      0x04\n      0x00\n      swap1\n      sload\n      swap1\n      0x0100\n      exp\n      swap1\n      div\n      0xff\n      and\n        /* \"contracts/BallotV1.sol\":529:558  currentStage == requiredStage */\n      0x03\n      dup2\n      gt\n      iszero\n      tag_43\n      jumpi\n      tag_44\n      tag_21\n      jump\t// in\n    tag_44:\n    tag_43:\n      eq\n        /* \"contracts/BallotV1.sol\":521:559  require(currentStage == requiredStage) */\n      tag_45\n      jumpi\n      revert(0x00, 0x00)\n    tag_45:\n        /* \"contracts/BallotV1.sol\":1313:1324  chairperson */\n      0x02\n      0x00\n      swap1\n      sload\n      swap1\n      0x0100\n      exp\n      swap1\n      div\n      0xffffffffffffffffffffffffffffffffffffffff\n      and\n        /* \"contracts/BallotV1.sol\":1299:1324  msg.sender == chairperson */\n      0xffffffffffffffffffffffffffffffffffffffff\n      and\n        /* \"contracts/BallotV1.sol\":1299:1309  msg.sender */\n      caller\n        /* \"contracts/BallotV1.sol\":1299:1324  msg.sender == chairperson */\n      0xffffffffffffffffffffffffffffffffffffffff\n      and\n      eq\n        /* \"contracts/BallotV1.sol\":1291:1325  require(msg.sender == chairperson) */\n      tag_47\n      jumpi\n      revert(0x00, 0x00)\n    tag_47:\n        /* \"contracts/BallotV1.sol\":1377:1400  Voter storage voterInfo */\n      0x00\n        /* \"contracts/BallotV1.sol\":1403:1409  voters */\n      0x01\n        /* \"contracts/BallotV1.sol\":1403:1416  voters[voter] */\n      0x00\n        /* \"contracts/BallotV1.sol\":1410:1415  voter */\n      dup5\n        /* \"contracts/BallotV1.sol\":1403:1416  voters[voter] */\n      0xffffffffffffffffffffffffffffffffffffffff\n      and\n      0xffffffffffffffffffffffffffffffffffffffff\n      and\n      dup2\n      mstore\n      0x20\n      add\n      swap1\n      dup2\n      mstore\n      0x20\n      add\n      0x00\n      keccak256\n        /* \"contracts/BallotV1.sol\":1377:1416  Voter storage voterInfo = voters[voter] */\n      swap1\n      pop\n        /* \"contracts/BallotV1.sol\":1436:1445  voterInfo */\n      dup1\n        /* \"contracts/BallotV1.sol\":1436:1451  voterInfo.voted */\n      0x00\n      add\n      0x00\n      swap1\n      sload\n      swap1\n      0x0100\n      exp\n      swap1\n      div\n      0xff\n      and\n        /* \"contracts/BallotV1.sol\":1435:1451  !voterInfo.voted */\n      iszero\n        /* \"contracts/BallotV1.sol\":1427:1452  require(!voterInfo.voted) */\n      tag_48\n      jumpi\n      revert(0x00, 0x00)\n    tag_48:\n        /* \"contracts/BallotV1.sol\":1525:1526  1 */\n      0x01\n        /* \"contracts/BallotV1.sol\":1506:1515  voterInfo */\n      dup2\n        /* \"contracts/BallotV1.sol\":1506:1522  voterInfo.weight */\n      0x01\n      add\n        /* \"contracts/BallotV1.sol\":1506:1526  voterInfo.weight = 1 */\n      dup2\n      swap1\n      sstore\n      pop\n        /* \"contracts/BallotV1.sol\":1613:1623  30 seconds */\n      0x1e\n        /* \"contracts/BallotV1.sol\":1598:1610  creationTime */\n      sload(0x03)\n        /* \"contracts/BallotV1.sol\":1598:1623  creationTime + 30 seconds */\n      tag_49\n      swap2\n      swap1\n      tag_35\n      jump\t// in\n    tag_49:\n        /* \"contracts/BallotV1.sol\":1580:1595  block.timestamp */\n      timestamp\n        /* \"contracts/BallotV1.sol\":1580:1623  block.timestamp > creationTime + 30 seconds */\n      gt\n        /* \"contracts/BallotV1.sol\":1576:1716  if (block.timestamp > creationTime + 30 seconds) {... */\n      iszero\n      tag_50\n      jumpi\n        /* \"contracts/BallotV1.sol\":1655:1665  Stage.Vote */\n      0x02\n        /* \"contracts/BallotV1.sol\":1640:1652  currentStage */\n      0x04\n      0x00\n        /* \"contracts/BallotV1.sol\":1640:1665  currentStage = Stage.Vote */\n      0x0100\n      exp\n      dup2\n      sload\n      dup2\n      0xff\n      mul\n      not\n      and\n      swap1\n      dup4\n      0x03\n      dup2\n      gt\n      iszero\n      tag_51\n      jumpi\n      tag_52\n      tag_21\n      jump\t// in\n    tag_52:\n    tag_51:\n      mul\n      or\n      swap1\n      sstore\n      pop\n        /* \"contracts/BallotV1.sol\":1685:1704  registerCompleted() */\n      0x673b58118c1936254621bf28de50b15a993aaefb2b57c63ff0afc0edf7d97678\n      mload(0x40)\n      mload(0x40)\n      dup1\n      swap2\n      sub\n      swap1\n      log1\n        /* \"contracts/BallotV1.sol\":1576:1716  if (block.timestamp > creationTime + 30 seconds) {... */\n    tag_50:\n        /* \"contracts/BallotV1.sol\":1280:1723  {... */\n      pop\n        /* \"contracts/BallotV1.sol\":1203:1723  function register(address voter) external payable validStage(Stage.Register) {... */\n      pop\n      pop\n      jump\t// out\n        /* \"contracts/BallotV1.sol\":2263:2757  function winningProposal() public view validStage(Stage.Done) returns (uint winningProposal_) {... */\n    tag_15:\n        /* \"contracts/BallotV1.sol\":2334:2355  uint winningProposal_ */\n      0x00\n        /* \"contracts/BallotV1.sol\":2313:2323  Stage.Done */\n      0x03\n        /* \"contracts/BallotV1.sol\":545:558  requiredStage */\n      dup1\n        /* \"contracts/BallotV1.sol\":529:558  currentStage == requiredStage */\n      0x03\n      dup2\n      gt\n      iszero\n      tag_54\n      jumpi\n      tag_55\n      tag_21\n      jump\t// in\n    tag_55:\n    tag_54:\n        /* \"contracts/BallotV1.sol\":529:541  currentStage */\n      0x04\n      0x00\n      swap1\n      sload\n      swap1\n      0x0100\n      exp\n      swap1\n      div\n      0xff\n      and\n        /* \"contracts/BallotV1.sol\":529:558  currentStage == requiredStage */\n      0x03\n      dup2\n      gt\n      iszero\n      tag_56\n      jumpi\n      tag_57\n      tag_21\n      jump\t// in\n    tag_57:\n    tag_56:\n      eq\n        /* \"contracts/BallotV1.sol\":521:559  require(currentStage == requiredStage) */\n      tag_58\n      jumpi\n      revert(0x00, 0x00)\n    tag_58:\n        /* \"contracts/BallotV1.sol\":2368:2389  uint winningVoteCount */\n      0x00\n        /* \"contracts/BallotV1.sol\":2392:2393  0 */\n      0x00\n        /* \"contracts/BallotV1.sol\":2368:2393  uint winningVoteCount = 0 */\n      swap1\n      pop\n        /* \"contracts/BallotV1.sol\":2409:2415  uint p */\n      0x00\n        /* \"contracts/BallotV1.sol\":2418:2419  0 */\n      0x00\n        /* \"contracts/BallotV1.sol\":2409:2419  uint p = 0 */\n      swap1\n      pop\n        /* \"contracts/BallotV1.sol\":2404:2636  for (uint p = 0; p < proposals.length; p++) {... */\n    tag_60:\n        /* \"contracts/BallotV1.sol\":2425:2434  proposals */\n      0x00\n        /* \"contracts/BallotV1.sol\":2425:2441  proposals.length */\n      dup1\n      sload\n      swap1\n      pop\n        /* \"contracts/BallotV1.sol\":2421:2422  p */\n      dup2\n        /* \"contracts/BallotV1.sol\":2421:2441  p < proposals.length */\n      lt\n        /* \"contracts/BallotV1.sol\":2404:2636  for (uint p = 0; p < proposals.length; p++) {... */\n      iszero\n      tag_61\n      jumpi\n        /* \"contracts/BallotV1.sol\":2492:2508  winningVoteCount */\n      dup2\n        /* \"contracts/BallotV1.sol\":2467:2476  proposals */\n      0x00\n        /* \"contracts/BallotV1.sol\":2477:2478  p */\n      dup3\n        /* \"contracts/BallotV1.sol\":2467:2479  proposals[p] */\n      dup2\n      sload\n      dup2\n      lt\n      tag_63\n      jumpi\n      tag_64\n      tag_32\n      jump\t// in\n    tag_64:\n    tag_63:\n      swap1\n      0x00\n      mstore\n      keccak256(0x00, 0x20)\n      swap1\n      0x02\n      mul\n      add\n        /* \"contracts/BallotV1.sol\":2467:2489  proposals[p].voteCount */\n      0x01\n      add\n      sload\n        /* \"contracts/BallotV1.sol\":2467:2508  proposals[p].voteCount > winningVoteCount */\n      gt\n        /* \"contracts/BallotV1.sol\":2463:2625  if (proposals[p].voteCount > winningVoteCount) {... */\n      iszero\n      tag_66\n      jumpi\n        /* \"contracts/BallotV1.sol\":2548:2557  proposals */\n      0x00\n        /* \"contracts/BallotV1.sol\":2558:2559  p */\n      dup2\n        /* \"contracts/BallotV1.sol\":2548:2560  proposals[p] */\n      dup2\n      sload\n      dup2\n      lt\n      tag_67\n      jumpi\n      tag_68\n      tag_32\n      jump\t// in\n    tag_68:\n    tag_67:\n      swap1\n      0x00\n      mstore\n      keccak256(0x00, 0x20)\n      swap1\n      0x02\n      mul\n      add\n        /* \"contracts/BallotV1.sol\":2548:2570  proposals[p].voteCount */\n      0x01\n      add\n      sload\n        /* \"contracts/BallotV1.sol\":2529:2570  winningVoteCount = proposals[p].voteCount */\n      swap2\n      pop\n        /* \"contracts/BallotV1.sol\":2608:2609  p */\n      dup1\n        /* \"contracts/BallotV1.sol\":2589:2609  winningProposal_ = p */\n      swap4\n      pop\n        /* \"contracts/BallotV1.sol\":2463:2625  if (proposals[p].voteCount > winningVoteCount) {... */\n    tag_66:\n        /* \"contracts/BallotV1.sol\":2443:2446  p++ */\n      dup1\n      dup1\n      0x01\n      add\n      swap2\n      pop\n      pop\n        /* \"contracts/BallotV1.sol\":2404:2636  for (uint p = 0; p < proposals.length; p++) {... */\n      jump(tag_60)\n    tag_61:\n      pop\n        /* \"contracts/BallotV1.sol\":2673:2674  0 */\n      0x00\n        /* \"contracts/BallotV1.sol\":2654:2670  winningVoteCount */\n      dup2\n        /* \"contracts/BallotV1.sol\":2654:2674  winningVoteCount > 0 */\n      gt\n        /* \"contracts/BallotV1.sol\":2646:2675  require(winningVoteCount > 0) */\n      tag_70\n      jumpi\n      revert(0x00, 0x00)\n    tag_70:\n        /* \"contracts/BallotV1.sol\":2713:2714  0 */\n      0x00\n        /* \"contracts/BallotV1.sol\":2693:2709  winningProposal_ */\n      dup4\n        /* \"contracts/BallotV1.sol\":2693:2714  winningProposal_ >= 0 */\n      lt\n      iszero\n        /* \"contracts/BallotV1.sol\":2686:2715  assert(winningProposal_ >= 0) */\n      tag_71\n      jumpi\n      tag_72\n      tag_73\n      jump\t// in\n    tag_72:\n    tag_71:\n        /* \"contracts/BallotV1.sol\":2726:2749  return winningProposal_ */\n      pop\n        /* \"contracts/BallotV1.sol\":2263:2757  function winningProposal() public view validStage(Stage.Done) returns (uint winningProposal_) {... */\n      pop\n      swap1\n      jump\t// out\n        /* \"#utility.yul\":88:205   */\n    tag_75:\n        /* \"#utility.yul\":197:198   */\n      0x00\n        /* \"#utility.yul\":194:195   */\n      0x00\n        /* \"#utility.yul\":187:199   */\n      revert\n        /* \"#utility.yul\":334:411   */\n    tag_77:\n        /* \"#utility.yul\":371:378   */\n      0x00\n        /* \"#utility.yul\":400:405   */\n      dup2\n        /* \"#utility.yul\":389:405   */\n      swap1\n      pop\n        /* \"#utility.yul\":334:411   */\n      swap2\n      swap1\n      pop\n      jump\t// out\n        /* \"#utility.yul\":417:539   */\n    tag_78:\n        /* \"#utility.yul\":490:514   */\n      tag_92\n        /* \"#utility.yul\":508:513   */\n      dup2\n        /* \"#utility.yul\":490:514   */\n      tag_77\n      jump\t// in\n    tag_92:\n        /* \"#utility.yul\":483:488   */\n      dup2\n        /* \"#utility.yul\":480:515   */\n      eq\n        /* \"#utility.yul\":470:533   */\n      tag_93\n      jumpi\n        /* \"#utility.yul\":529:530   */\n      0x00\n        /* \"#utility.yul\":526:527   */\n      0x00\n        /* \"#utility.yul\":519:531   */\n      revert\n        /* \"#utility.yul\":470:533   */\n    tag_93:\n        /* \"#utility.yul\":417:539   */\n      pop\n      jump\t// out\n        /* \"#utility.yul\":545:684   */\n    tag_79:\n        /* \"#utility.yul\":591:596   */\n      0x00\n        /* \"#utility.yul\":629:635   */\n      dup2\n        /* \"#utility.yul\":616:636   */\n      calldataload\n        /* \"#utility.yul\":607:636   */\n      swap1\n      pop\n        /* \"#utility.yul\":645:678   */\n      tag_95\n        /* \"#utility.yul\":672:677   */\n      dup2\n        /* \"#utility.yul\":645:678   */\n      tag_78\n      jump\t// in\n    tag_95:\n        /* \"#utility.yul\":545:684   */\n      swap3\n      swap2\n      pop\n      pop\n      jump\t// out\n        /* \"#utility.yul\":690:1019   */\n    tag_7:\n        /* \"#utility.yul\":749:755   */\n      0x00\n        /* \"#utility.yul\":798:800   */\n      0x20\n        /* \"#utility.yul\":786:795   */\n      dup3\n        /* \"#utility.yul\":777:784   */\n      dup5\n        /* \"#utility.yul\":773:796   */\n      sub\n        /* \"#utility.yul\":769:801   */\n      slt\n        /* \"#utility.yul\":766:885   */\n      iszero\n      tag_97\n      jumpi\n        /* \"#utility.yul\":804:883   */\n      tag_98\n      tag_75\n      jump\t// in\n    tag_98:\n        /* \"#utility.yul\":766:885   */\n    tag_97:\n        /* \"#utility.yul\":924:925   */\n      0x00\n        /* \"#utility.yul\":949:1002   */\n      tag_99\n        /* \"#utility.yul\":994:1001   */\n      dup5\n        /* \"#utility.yul\":985:991   */\n      dup3\n        /* \"#utility.yul\":974:983   */\n      dup6\n        /* \"#utility.yul\":970:992   */\n      add\n        /* \"#utility.yul\":949:1002   */\n      tag_79\n      jump\t// in\n    tag_99:\n        /* \"#utility.yul\":939:1002   */\n      swap2\n      pop\n        /* \"#utility.yul\":895:1012   */\n      pop\n        /* \"#utility.yul\":690:1019   */\n      swap3\n      swap2\n      pop\n      pop\n      jump\t// out\n        /* \"#utility.yul\":1025:1151   */\n    tag_80:\n        /* \"#utility.yul\":1062:1069   */\n      0x00\n        /* \"#utility.yul\":1102:1144   */\n      0xffffffffffffffffffffffffffffffffffffffff\n        /* \"#utility.yul\":1095:1100   */\n      dup3\n        /* \"#utility.yul\":1091:1145   */\n      and\n        /* \"#utility.yul\":1080:1145   */\n      swap1\n      pop\n        /* \"#utility.yul\":1025:1151   */\n      swap2\n      swap1\n      pop\n      jump\t// out\n        /* \"#utility.yul\":1157:1253   */\n    tag_81:\n        /* \"#utility.yul\":1194:1201   */\n      0x00\n        /* \"#utility.yul\":1223:1247   */\n      tag_102\n        /* \"#utility.yul\":1241:1246   */\n      dup3\n        /* \"#utility.yul\":1223:1247   */\n      tag_80\n      jump\t// in\n    tag_102:\n        /* \"#utility.yul\":1212:1247   */\n      swap1\n      pop\n        /* \"#utility.yul\":1157:1253   */\n      swap2\n      swap1\n      pop\n      jump\t// out\n        /* \"#utility.yul\":1259:1381   */\n    tag_82:\n        /* \"#utility.yul\":1332:1356   */\n      tag_104\n        /* \"#utility.yul\":1350:1355   */\n      dup2\n        /* \"#utility.yul\":1332:1356   */\n      tag_81\n      jump\t// in\n    tag_104:\n        /* \"#utility.yul\":1325:1330   */\n      dup2\n        /* \"#utility.yul\":1322:1357   */\n      eq\n        /* \"#utility.yul\":1312:1375   */\n      tag_105\n      jumpi\n        /* \"#utility.yul\":1371:1372   */\n      0x00\n        /* \"#utility.yul\":1368:1369   */\n      0x00\n        /* \"#utility.yul\":1361:1373   */\n      revert\n        /* \"#utility.yul\":1312:1375   */\n    tag_105:\n        /* \"#utility.yul\":1259:1381   */\n      pop\n      jump\t// out\n        /* \"#utility.yul\":1387:1526   */\n    tag_83:\n        /* \"#utility.yul\":1433:1438   */\n      0x00\n        /* \"#utility.yul\":1471:1477   */\n      dup2\n        /* \"#utility.yul\":1458:1478   */\n      calldataload\n        /* \"#utility.yul\":1449:1478   */\n      swap1\n      pop\n        /* \"#utility.yul\":1487:1520   */\n      tag_107\n        /* \"#utility.yul\":1514:1519   */\n      dup2\n        /* \"#utility.yul\":1487:1520   */\n      tag_82\n      jump\t// in\n    tag_107:\n        /* \"#utility.yul\":1387:1526   */\n      swap3\n      swap2\n      pop\n      pop\n      jump\t// out\n        /* \"#utility.yul\":1532:1861   */\n    tag_11:\n        /* \"#utility.yul\":1591:1597   */\n      0x00\n        /* \"#utility.yul\":1640:1642   */\n      0x20\n        /* \"#utility.yul\":1628:1637   */\n      dup3\n        /* \"#utility.yul\":1619:1626   */\n      dup5\n        /* \"#utility.yul\":1615:1638   */\n      sub\n        /* \"#utility.yul\":1611:1643   */\n      slt\n        /* \"#utility.yul\":1608:1727   */\n      iszero\n      tag_109\n      jumpi\n        /* \"#utility.yul\":1646:1725   */\n      tag_110\n      tag_75\n      jump\t// in\n    tag_110:\n        /* \"#utility.yul\":1608:1727   */\n    tag_109:\n        /* \"#utility.yul\":1766:1767   */\n      0x00\n        /* \"#utility.yul\":1791:1844   */\n      tag_111\n        /* \"#utility.yul\":1836:1843   */\n      dup5\n        /* \"#utility.yul\":1827:1833   */\n      dup3\n        /* \"#utility.yul\":1816:1825   */\n      dup6\n        /* \"#utility.yul\":1812:1834   */\n      add\n        /* \"#utility.yul\":1791:1844   */\n      tag_83\n      jump\t// in\n    tag_111:\n        /* \"#utility.yul\":1781:1844   */\n      swap2\n      pop\n        /* \"#utility.yul\":1737:1854   */\n      pop\n        /* \"#utility.yul\":1532:1861   */\n      swap3\n      swap2\n      pop\n      pop\n      jump\t// out\n        /* \"#utility.yul\":1867:1985   */\n    tag_84:\n        /* \"#utility.yul\":1954:1978   */\n      tag_113\n        /* \"#utility.yul\":1972:1977   */\n      dup2\n        /* \"#utility.yul\":1954:1978   */\n      tag_77\n      jump\t// in\n    tag_113:\n        /* \"#utility.yul\":1949:1952   */\n      dup3\n        /* \"#utility.yul\":1942:1979   */\n      mstore\n        /* \"#utility.yul\":1867:1985   */\n      pop\n      pop\n      jump\t// out\n        /* \"#utility.yul\":1991:2213   */\n    tag_17:\n        /* \"#utility.yul\":2084:2088   */\n      0x00\n        /* \"#utility.yul\":2122:2124   */\n      0x20\n        /* \"#utility.yul\":2111:2120   */\n      dup3\n        /* \"#utility.yul\":2107:2125   */\n      add\n        /* \"#utility.yul\":2099:2125   */\n      swap1\n      pop\n        /* \"#utility.yul\":2135:2206   */\n      tag_115\n        /* \"#utility.yul\":2203:2204   */\n      0x00\n        /* \"#utility.yul\":2192:2201   */\n      dup4\n        /* \"#utility.yul\":2188:2205   */\n      add\n        /* \"#utility.yul\":2179:2185   */\n      dup5\n        /* \"#utility.yul\":2135:2206   */\n      tag_84\n      jump\t// in\n    tag_115:\n        /* \"#utility.yul\":1991:2213   */\n      swap3\n      swap2\n      pop\n      pop\n      jump\t// out\n        /* \"#utility.yul\":2219:2399   */\n    tag_21:\n        /* \"#utility.yul\":2267:2344   */\n      0x4e487b7100000000000000000000000000000000000000000000000000000000\n        /* \"#utility.yul\":2264:2265   */\n      0x00\n        /* \"#utility.yul\":2257:2345   */\n      mstore\n        /* \"#utility.yul\":2364:2368   */\n      0x21\n        /* \"#utility.yul\":2361:2362   */\n      0x04\n        /* \"#utility.yul\":2354:2369   */\n      mstore\n        /* \"#utility.yul\":2388:2392   */\n      0x24\n        /* \"#utility.yul\":2385:2386   */\n      0x00\n        /* \"#utility.yul\":2378:2393   */\n      revert\n        /* \"#utility.yul\":2405:2585   */\n    tag_32:\n        /* \"#utility.yul\":2453:2530   */\n      0x4e487b7100000000000000000000000000000000000000000000000000000000\n        /* \"#utility.yul\":2450:2451   */\n      0x00\n        /* \"#utility.yul\":2443:2531   */\n      mstore\n        /* \"#utility.yul\":2550:2554   */\n      0x32\n        /* \"#utility.yul\":2547:2548   */\n      0x04\n        /* \"#utility.yul\":2540:2555   */\n      mstore\n        /* \"#utility.yul\":2574:2578   */\n      0x24\n        /* \"#utility.yul\":2571:2572   */\n      0x00\n        /* \"#utility.yul\":2564:2579   */\n      revert\n        /* \"#utility.yul\":2591:2771   */\n    tag_85:\n        /* \"#utility.yul\":2639:2716   */\n      0x4e487b7100000000000000000000000000000000000000000000000000000000\n        /* \"#utility.yul\":2636:2637   */\n      0x00\n        /* \"#utility.yul\":2629:2717   */\n      mstore\n        /* \"#utility.yul\":2736:2740   */\n      0x11\n        /* \"#utility.yul\":2733:2734   */\n      0x04\n        /* \"#utility.yul\":2726:2741   */\n      mstore\n        /* \"#utility.yul\":2760:2764   */\n      0x24\n        /* \"#utility.yul\":2757:2758   */\n      0x00\n        /* \"#utility.yul\":2750:2765   */\n      revert\n        /* \"#utility.yul\":2777:2968   */\n    tag_35:\n        /* \"#utility.yul\":2817:2820   */\n      0x00\n        /* \"#utility.yul\":2836:2856   */\n      tag_120\n        /* \"#utility.yul\":2854:2855   */\n      dup3\n        /* \"#utility.yul\":2836:2856   */\n      tag_77\n      jump\t// in\n    tag_120:\n        /* \"#utility.yul\":2831:2856   */\n      swap2\n      pop\n        /* \"#utility.yul\":2870:2890   */\n      tag_121\n        /* \"#utility.yul\":2888:2889   */\n      dup4\n        /* \"#utility.yul\":2870:2890   */\n      tag_77\n      jump\t// in\n    tag_121:\n        /* \"#utility.yul\":2865:2890   */\n      swap3\n      pop\n        /* \"#utility.yul\":2913:2914   */\n      dup3\n        /* \"#utility.yul\":2910:2911   */\n      dup3\n        /* \"#utility.yul\":2906:2915   */\n      add\n        /* \"#utility.yul\":2899:2915   */\n      swap1\n      pop\n        /* \"#utility.yul\":2934:2937   */\n      dup1\n        /* \"#utility.yul\":2931:2932   */\n      dup3\n        /* \"#utility.yul\":2928:2938   */\n      gt\n        /* \"#utility.yul\":2925:2961   */\n      iszero\n      tag_122\n      jumpi\n        /* \"#utility.yul\":2941:2959   */\n      tag_123\n      tag_85\n      jump\t// in\n    tag_123:\n        /* \"#utility.yul\":2925:2961   */\n    tag_122:\n        /* \"#utility.yul\":2777:2968   */\n      swap3\n      swap2\n      pop\n      pop\n      jump\t// out\n        /* \"#utility.yul\":2974:3154   */\n    tag_73:\n        /* \"#utility.yul\":3022:3099   */\n      0x4e487b7100000000000000000000000000000000000000000000000000000000\n        /* \"#utility.yul\":3019:3020   */\n      0x00\n        /* \"#utility.yul\":3012:3100   */\n      mstore\n        /* \"#utility.yul\":3119:3123   */\n      0x01\n        /* \"#utility.yul\":3116:3117   */\n      0x04\n        /* \"#utility.yul\":3109:3124   */\n      mstore\n        /* \"#utility.yul\":3143:3147   */\n      0x24\n        /* \"#utility.yul\":3140:3141   */\n      0x00\n        /* \"#utility.yul\":3133:3148   */\n      revert\n\n    auxdata: 0xa264697066735822122001d88ce0293af7539567f7577bec34f31ac87b0ffb036223c043c132e7eb1c9b64736f6c634300081e0033\n}\n",
				"bytecode": {
					"linkReferences": {},
					"object": "60806040525f60045f6101000a81548160ff0219169083600381111561002857610027610209565b5b0217905550348015610038575f5ffd5b50604051610e57380380610e57833981810160405281019061005a9190610465565b5f80600381111561006e5761006d610209565b5b60045f9054906101000a900460ff16600381111561008f5761008e610209565b5b14610098575f5ffd5b3360025f6101000a81548173ffffffffffffffffffffffffffffffffffffffff021916908373ffffffffffffffffffffffffffffffffffffffff160217905550600260015f60025f9054906101000a900473ffffffffffffffffffffffffffffffffffffffff1673ffffffffffffffffffffffffffffffffffffffff1673ffffffffffffffffffffffffffffffffffffffff1681526020019081526020015f20600101819055505f5f90505b82518110156101d0575f604051806040016040528085848151811061016c5761016b6104ac565b5b602002602001015181526020015f815250908060018154018082558091505060019003905f5260205f2090600202015f909190919091505f820151815f0190816101b691906106e9565b506020820151816001015550508080600101915050610144565b50600160045f6101000a81548160ff021916908360038111156101f6576101f5610209565b5b02179055504260038190555050506107b8565b7f4e487b71000000000000000000000000000000000000000000000000000000005f52602160045260245ffd5b5f604051905090565b5f5ffd5b5f5ffd5b5f5ffd5b5f601f19601f8301169050919050565b7f4e487b71000000000000000000000000000000000000000000000000000000005f52604160045260245ffd5b6102918261024b565b810181811067ffffffffffffffff821117156102b0576102af61025b565b5b80604052505050565b5f6102c2610236565b90506102ce8282610288565b919050565b5f67ffffffffffffffff8211156102ed576102ec61025b565b5b602082029050602081019050919050565b5f5ffd5b5f5ffd5b5f67ffffffffffffffff8211156103205761031f61025b565b5b6103298261024b565b9050602081019050919050565b8281835e5f83830152505050565b5f61035661035184610306565b6102b9565b90508281526020810184848401111561037257610371610302565b5b61037d848285610336565b509392505050565b5f82601f83011261039957610398610247565b5b81516103a9848260208601610344565b91505092915050565b5f6103c46103bf846102d3565b6102b9565b905080838252602082019050602084028301858111156103e7576103e66102fe565b5b835b8181101561042e57805167ffffffffffffffff81111561040c5761040b610247565b5b8086016104198982610385565b855260208501945050506020810190506103e9565b5050509392505050565b5f82601f83011261044c5761044b610247565b5b815161045c8482602086016103b2565b91505092915050565b5f6020828403121561047a5761047961023f565b5b5f82015167ffffffffffffffff81111561049757610496610243565b5b6104a384828501610438565b91505092915050565b7f4e487b71000000000000000000000000000000000000000000000000000000005f52603260045260245ffd5b5f81519050919050565b7f4e487b71000000000000000000000000000000000000000000000000000000005f52602260045260245ffd5b5f600282049050600182168061052757607f821691505b60208210810361053a576105396104e3565b5b50919050565b5f819050815f5260205f209050919050565b5f6020601f8301049050919050565b5f82821b905092915050565b5f6008830261059c7fffffffffffffffffffffffffffffffffffffffffffffffffffffffffffffffff82610561565b6105a68683610561565b95508019841693508086168417925050509392505050565b5f819050919050565b5f819050919050565b5f6105ea6105e56105e0846105be565b6105c7565b6105be565b9050919050565b5f819050919050565b610603836105d0565b61061761060f826105f1565b84845461056d565b825550505050565b5f5f905090565b61062e61061f565b6106398184846105fa565b505050565b5b8181101561065c576106515f82610626565b60018101905061063f565b5050565b601f8211156106a15761067281610540565b61067b84610552565b8101602085101561068a578190505b61069e61069685610552565b83018261063e565b50505b505050565b5f82821c905092915050565b5f6106c15f19846008026106a6565b1980831691505092915050565b5f6106d983836106b2565b9150826002028217905092915050565b6106f2826104d9565b67ffffffffffffffff81111561070b5761070a61025b565b5b6107158254610510565b610720828285610660565b5f60209050601f831160018114610751575f841561073f578287015190505b61074985826106ce565b8655506107b0565b601f19841661075f86610540565b5f5b8281101561078657848901518255600182019150602085019450602081019050610761565b868310156107a3578489015161079f601f8916826106b2565b8355505b6001600288020188555050505b505050505050565b610692806107c55f395ff3fe608060405260043610610033575f3560e01c80630121b93f146100375780634420e48614610053578063609ff1bd1461006f575b5f5ffd5b610051600480360381019061004c919061049d565b610099565b005b61006d60048036038101906100689190610522565b610223565b005b34801561007a575f5ffd5b5061008361038f565b604051610090919061055c565b60405180910390f35b60028060038111156100ae576100ad610575565b5b60045f9054906101000a900460ff1660038111156100cf576100ce610575565b5b146100d8575f5ffd5b815f8054905081106100e8575f5ffd5b5f60015f3373ffffffffffffffffffffffffffffffffffffffff1673ffffffffffffffffffffffffffffffffffffffff1681526020019081526020015f209050805f015f9054906101000a900460ff1615801561014857505f8160010154115b610150575f5ffd5b80600101545f8581548110610168576101676105a2565b5b905f5260205f2090600202016001015f82825461018591906105fc565b925050819055506001815f015f6101000a81548160ff021916908315150217905550838160020181905550603c6003546101bf91906105fc565b42111561021d57600360045f6101000a81548160ff021916908360038111156101eb576101ea610575565b5b02179055507f6ac0c89219f0135e3a87cecdf1851abced71da933a0a00e1eada0ef03538235160405160405180910390a15b50505050565b600180600381111561023857610237610575565b5b60045f9054906101000a900460ff16600381111561025957610258610575565b5b14610262575f5ffd5b60025f9054906101000a900473ffffffffffffffffffffffffffffffffffffffff1673ffffffffffffffffffffffffffffffffffffffff163373ffffffffffffffffffffffffffffffffffffffff16146102ba575f5ffd5b5f60015f8473ffffffffffffffffffffffffffffffffffffffff1673ffffffffffffffffffffffffffffffffffffffff1681526020019081526020015f209050805f015f9054906101000a900460ff1615610313575f5ffd5b60018160010181905550601e60035461032c91906105fc565b42111561038a57600260045f6101000a81548160ff0219169083600381111561035857610357610575565b5b02179055507f673b58118c1936254621bf28de50b15a993aaefb2b57c63ff0afc0edf7d9767860405160405180910390a15b505050565b5f60038060038111156103a5576103a4610575565b5b60045f9054906101000a900460ff1660038111156103c6576103c5610575565b5b146103cf575f5ffd5b5f5f90505f5f90505b5f8054905081101561044457815f82815481106103f8576103f76105a2565b5b905f5260205f209060020201600101541115610437575f8181548110610421576104206105a2565b5b905f5260205f2090600202016001015491508093505b80806001019150506103d8565b505f8111610450575f5ffd5b5f8310156104615761046061062f565b5b505090565b5f5ffd5b5f819050919050565b61047c8161046a565b8114610486575f5ffd5b50565b5f8135905061049781610473565b92915050565b5f602082840312156104b2576104b1610466565b5b5f6104bf84828501610489565b91505092915050565b5f73ffffffffffffffffffffffffffffffffffffffff82169050919050565b5f6104f1826104c8565b9050919050565b610501816104e7565b811461050b575f5ffd5b50565b5f8135905061051c816104f8565b92915050565b5f6020828403121561053757610536610466565b5b5f6105448482850161050e565b91505092915050565b6105568161046a565b82525050565b5f60208201905061056f5f83018461054d565b92915050565b7f4e487b71000000000000000000000000000000000000000000000000000000005f52602160045260245ffd5b7f4e487b71000000000000000000000000000000000000000000000000000000005f52603260045260245ffd5b7f4e487b71000000000000000000000000000000000000000000000000000000005f52601160045260245ffd5b5f6106068261046a565b91506106118361046a565b9250828201905080821115610629576106286105cf565b5b92915050565b7f4e487b71000000000000000000000000000000000000000000000000000000005f52600160045260245ffdfea264697066735822122001d88ce0293af7539567f7577bec34f31ac87b0ffb036223c043c132e7eb1c9b64736f6c634300081e0033",
					"opcodes": "PUSH1 0x80 PUSH1 0x40 MSTORE PUSH0 PUSH1 0x4 PUSH0 PUSH2 0x100 EXP DUP2 SLOAD DUP2 PUSH1 0xFF MUL NOT AND SWAP1 DUP4 PUSH1 0x3 DUP2 GT ISZERO PUSH2 0x28 JUMPI PUSH2 0x27 PUSH2 0x209 JUMP JUMPDEST JUMPDEST MUL OR SWAP1 SSTORE POP CALLVALUE DUP1 ISZERO PUSH2 0x38 JUMPI PUSH0 PUSH0 REVERT JUMPDEST POP PUSH1 0x40 MLOAD PUSH2 0xE57 CODESIZE SUB DUP1 PUSH2 0xE57 DUP4 CODECOPY DUP2 DUP2 ADD PUSH1 0x40 MSTORE DUP2 ADD SWAP1 PUSH2 0x5A SWAP2 SWAP1 PUSH2 0x465 JUMP JUMPDEST PUSH0 DUP1 PUSH1 0x3 DUP2 GT ISZERO PUSH2 0x6E JUMPI PUSH2 0x6D PUSH2 0x209 JUMP JUMPDEST JUMPDEST PUSH1 0x4 PUSH0 SWAP1 SLOAD SWAP1 PUSH2 0x100 EXP SWAP1 DIV PUSH1 0xFF AND PUSH1 0x3 DUP2 GT ISZERO PUSH2 0x8F JUMPI PUSH2 0x8E PUSH2 0x209 JUMP JUMPDEST JUMPDEST EQ PUSH2 0x98 JUMPI PUSH0 PUSH0 REVERT JUMPDEST CALLER PUSH1 0x2 PUSH0 PUSH2 0x100 EXP DUP2 SLOAD DUP2 PUSH20 0xFFFFFFFFFFFFFFFFFFFFFFFFFFFFFFFFFFFFFFFF MUL NOT AND SWAP1 DUP4 PUSH20 0xFFFFFFFFFFFFFFFFFFFFFFFFFFFFFFFFFFFFFFFF AND MUL OR SWAP1 SSTORE POP PUSH1 0x2 PUSH1 0x1 PUSH0 PUSH1 0x2 PUSH0 SWAP1 SLOAD SWAP1 PUSH2 0x100 EXP SWAP1 DIV PUSH20 0xFFFFFFFFFFFFFFFFFFFFFFFFFFFFFFFFFFFFFFFF AND PUSH20 0xFFFFFFFFFFFFFFFFFFFFFFFFFFFFFFFFFFFFFFFF AND PUSH20 0xFFFFFFFFFFFFFFFFFFFFFFFFFFFFFFFFFFFFFFFF AND DUP2 MSTORE PUSH1 0x20 ADD SWAP1 DUP2 MSTORE PUSH1 0x20 ADD PUSH0 KECCAK256 PUSH1 0x1 ADD DUP2 SWAP1 SSTORE POP PUSH0 PUSH0 SWAP1 POP JUMPDEST DUP3 MLOAD DUP2 LT ISZERO PUSH2 0x1D0 JUMPI PUSH0 PUSH1 0x40 MLOAD DUP1 PUSH1 0x40 ADD PUSH1 0x40 MSTORE DUP1 DUP6 DUP5 DUP2 MLOAD DUP2 LT PUSH2 0x16C JUMPI PUSH2 0x16B PUSH2 0x4AC JUMP JUMPDEST JUMPDEST PUSH1 0x20 MUL PUSH1 0x20 ADD ADD MLOAD DUP2 MSTORE PUSH1 0x20 ADD PUSH0 DUP2 MSTORE POP SWAP1 DUP1 PUSH1 0x1 DUP2 SLOAD ADD DUP1 DUP3 SSTORE DUP1 SWAP2 POP POP PUSH1 0x1 SWAP1 SUB SWAP1 PUSH0 MSTORE PUSH1 0x20 PUSH0 KECCAK256 SWAP1 PUSH1 0x2 MUL ADD PUSH0 SWAP1 SWAP2 SWAP1 SWAP2 SWAP1 SWAP2 POP PUSH0 DUP3 ADD MLOAD DUP2 PUSH0 ADD SWAP1 DUP2 PUSH2 0x1B6 SWAP2 SWAP1 PUSH2 0x6E9 JUMP JUMPDEST POP PUSH1 0x20 DUP3 ADD MLOAD DUP2 PUSH1 0x1 ADD SSTORE POP POP DUP1 DUP1 PUSH1 0x1 ADD SWAP2 POP POP PUSH2 0x144 JUMP JUMPDEST POP PUSH1 0x1 PUSH1 0x4 PUSH0 PUSH2 0x100 EXP DUP2 SLOAD DUP2 PUSH1 0xFF MUL NOT AND SWAP1 DUP4 PUSH1 0x3 DUP2 GT ISZERO PUSH2 0x1F6 JUMPI PUSH2 0x1F5 PUSH2 0x209 JUMP JUMPDEST JUMPDEST MUL OR SWAP1 SSTORE POP TIMESTAMP PUSH1 0x3 DUP2 SWAP1 SSTORE POP POP POP PUSH2 0x7B8 JUMP JUMPDEST PUSH32 0x4E487B7100000000000000000000000000000000000000000000000000000000 PUSH0 MSTORE PUSH1 0x21 PUSH1 0x4 MSTORE PUSH1 0x24 PUSH0 REVERT JUMPDEST PUSH0 PUSH1 0x40 MLOAD SWAP1 POP SWAP1 JUMP JUMPDEST PUSH0 PUSH0 REVERT JUMPDEST PUSH0 PUSH0 REVERT JUMPDEST PUSH0 PUSH0 REVERT JUMPDEST PUSH0 PUSH1 0x1F NOT PUSH1 0x1F DUP4 ADD AND SWAP1 POP SWAP2 SWAP1 POP JUMP JUMPDEST PUSH32 0x4E487B7100000000000000000000000000000000000000000000000000000000 PUSH0 MSTORE PUSH1 0x41 PUSH1 0x4 MSTORE PUSH1 0x24 PUSH0 REVERT JUMPDEST PUSH2 0x291 DUP3 PUSH2 0x24B JUMP JUMPDEST DUP2 ADD DUP2 DUP2 LT PUSH8 0xFFFFFFFFFFFFFFFF DUP3 GT OR ISZERO PUSH2 0x2B0 JUMPI PUSH2 0x2AF PUSH2 0x25B JUMP JUMPDEST JUMPDEST DUP1 PUSH1 0x40 MSTORE POP POP POP JUMP JUMPDEST PUSH0 PUSH2 0x2C2 PUSH2 0x236 JUMP JUMPDEST SWAP1 POP PUSH2 0x2CE DUP3 DUP3 PUSH2 0x288 JUMP JUMPDEST SWAP2 SWAP1 POP JUMP JUMPDEST PUSH0 PUSH8 0xFFFFFFFFFFFFFFFF DUP3 GT ISZERO PUSH2 0x2ED JUMPI PUSH2 0x2EC PUSH2 0x25B JUMP JUMPDEST JUMPDEST PUSH1 0x20 DUP3 MUL SWAP1 POP PUSH1 0x20 DUP2 ADD SWAP1 POP SWAP2 SWAP1 POP JUMP JUMPDEST PUSH0 PUSH0 REVERT JUMPDEST PUSH0 PUSH0 REVERT JUMPDEST PUSH0 PUSH8 0xFFFFFFFFFFFFFFFF DUP3 GT ISZERO PUSH2 0x320 JUMPI PUSH2 0x31F PUSH2 0x25B JUMP JUMPDEST JUMPDEST PUSH2 0x329 DUP3 PUSH2 0x24B JUMP JUMPDEST SWAP1 POP PUSH1 0x20 DUP2 ADD SWAP1 POP SWAP2 SWAP1 POP JUMP JUMPDEST DUP3 DUP2 DUP4 MCOPY PUSH0 DUP4 DUP4 ADD MSTORE POP POP POP JUMP JUMPDEST PUSH0 PUSH2 0x356 PUSH2 0x351 DUP5 PUSH2 0x306 JUMP JUMPDEST PUSH2 0x2B9 JUMP JUMPDEST SWAP1 POP DUP3 DUP2 MSTORE PUSH1 0x20 DUP2 ADD DUP5 DUP5 DUP5 ADD GT ISZERO PUSH2 0x372 JUMPI PUSH2 0x371 PUSH2 0x302 JUMP JUMPDEST JUMPDEST PUSH2 0x37D DUP5 DUP3 DUP6 PUSH2 0x336 JUMP JUMPDEST POP SWAP4 SWAP3 POP POP POP JUMP JUMPDEST PUSH0 DUP3 PUSH1 0x1F DUP4 ADD SLT PUSH2 0x399 JUMPI PUSH2 0x398 PUSH2 0x247 JUMP JUMPDEST JUMPDEST DUP2 MLOAD PUSH2 0x3A9 DUP5 DUP3 PUSH1 0x20 DUP7 ADD PUSH2 0x344 JUMP JUMPDEST SWAP2 POP POP SWAP3 SWAP2 POP POP JUMP JUMPDEST PUSH0 PUSH2 0x3C4 PUSH2 0x3BF DUP5 PUSH2 0x2D3 JUMP JUMPDEST PUSH2 0x2B9 JUMP JUMPDEST SWAP1 POP DUP1 DUP4 DUP3 MSTORE PUSH1 0x20 DUP3 ADD SWAP1 POP PUSH1 0x20 DUP5 MUL DUP4 ADD DUP6 DUP2 GT ISZERO PUSH2 0x3E7 JUMPI PUSH2 0x3E6 PUSH2 0x2FE JUMP JUMPDEST JUMPDEST DUP4 JUMPDEST DUP2 DUP2 LT ISZERO PUSH2 0x42E JUMPI DUP1 MLOAD PUSH8 0xFFFFFFFFFFFFFFFF DUP2 GT ISZERO PUSH2 0x40C JUMPI PUSH2 0x40B PUSH2 0x247 JUMP JUMPDEST JUMPDEST DUP1 DUP7 ADD PUSH2 0x419 DUP10 DUP3 PUSH2 0x385 JUMP JUMPDEST DUP6 MSTORE PUSH1 0x20 DUP6 ADD SWAP5 POP POP POP PUSH1 0x20 DUP2 ADD SWAP1 POP PUSH2 0x3E9 JUMP JUMPDEST POP POP POP SWAP4 SWAP3 POP POP POP JUMP JUMPDEST PUSH0 DUP3 PUSH1 0x1F DUP4 ADD SLT PUSH2 0x44C JUMPI PUSH2 0x44B PUSH2 0x247 JUMP JUMPDEST JUMPDEST DUP2 MLOAD PUSH2 0x45C DUP5 DUP3 PUSH1 0x20 DUP7 ADD PUSH2 0x3B2 JUMP JUMPDEST SWAP2 POP POP SWAP3 SWAP2 POP POP JUMP JUMPDEST PUSH0 PUSH1 0x20 DUP3 DUP5 SUB SLT ISZERO PUSH2 0x47A JUMPI PUSH2 0x479 PUSH2 0x23F JUMP JUMPDEST JUMPDEST PUSH0 DUP3 ADD MLOAD PUSH8 0xFFFFFFFFFFFFFFFF DUP2 GT ISZERO PUSH2 0x497 JUMPI PUSH2 0x496 PUSH2 0x243 JUMP JUMPDEST JUMPDEST PUSH2 0x4A3 DUP5 DUP3 DUP6 ADD PUSH2 0x438 JUMP JUMPDEST SWAP2 POP POP SWAP3 SWAP2 POP POP JUMP JUMPDEST PUSH32 0x4E487B7100000000000000000000000000000000000000000000000000000000 PUSH0 MSTORE PUSH1 0x32 PUSH1 0x4 MSTORE PUSH1 0x24 PUSH0 REVERT JUMPDEST PUSH0 DUP2 MLOAD SWAP1 POP SWAP2 SWAP1 POP JUMP JUMPDEST PUSH32 0x4E487B7100000000000000000000000000000000000000000000000000000000 PUSH0 MSTORE PUSH1 0x22 PUSH1 0x4 MSTORE PUSH1 0x24 PUSH0 REVERT JUMPDEST PUSH0 PUSH1 0x2 DUP3 DIV SWAP1 POP PUSH1 0x1 DUP3 AND DUP1 PUSH2 0x527 JUMPI PUSH1 0x7F DUP3 AND SWAP2 POP JUMPDEST PUSH1 0x20 DUP3 LT DUP2 SUB PUSH2 0x53A JUMPI PUSH2 0x539 PUSH2 0x4E3 JUMP JUMPDEST JUMPDEST POP SWAP2 SWAP1 POP JUMP JUMPDEST PUSH0 DUP2 SWAP1 POP DUP2 PUSH0 MSTORE PUSH1 0x20 PUSH0 KECCAK256 SWAP1 POP SWAP2 SWAP1 POP JUMP JUMPDEST PUSH0 PUSH1 0x20 PUSH1 0x1F DUP4 ADD DIV SWAP1 POP SWAP2 SWAP1 POP JUMP JUMPDEST PUSH0 DUP3 DUP3 SHL SWAP1 POP SWAP3 SWAP2 POP POP JUMP JUMPDEST PUSH0 PUSH1 0x8 DUP4 MUL PUSH2 0x59C PUSH32 0xFFFFFFFFFFFFFFFFFFFFFFFFFFFFFFFFFFFFFFFFFFFFFFFFFFFFFFFFFFFFFFFF DUP3 PUSH2 0x561 JUMP JUMPDEST PUSH2 0x5A6 DUP7 DUP4 PUSH2 0x561 JUMP JUMPDEST SWAP6 POP DUP1 NOT DUP5 AND SWAP4 POP DUP1 DUP7 AND DUP5 OR SWAP3 POP POP POP SWAP4 SWAP3 POP POP POP JUMP JUMPDEST PUSH0 DUP2 SWAP1 POP SWAP2 SWAP1 POP JUMP JUMPDEST PUSH0 DUP2 SWAP1 POP SWAP2 SWAP1 POP JUMP JUMPDEST PUSH0 PUSH2 0x5EA PUSH2 0x5E5 PUSH2 0x5E0 DUP5 PUSH2 0x5BE JUMP JUMPDEST PUSH2 0x5C7 JUMP JUMPDEST PUSH2 0x5BE JUMP JUMPDEST SWAP1 POP SWAP2 SWAP1 POP JUMP JUMPDEST PUSH0 DUP2 SWAP1 POP SWAP2 SWAP1 POP JUMP JUMPDEST PUSH2 0x603 DUP4 PUSH2 0x5D0 JUMP JUMPDEST PUSH2 0x617 PUSH2 0x60F DUP3 PUSH2 0x5F1 JUMP JUMPDEST DUP5 DUP5 SLOAD PUSH2 0x56D JUMP JUMPDEST DUP3 SSTORE POP POP POP POP JUMP JUMPDEST PUSH0 PUSH0 SWAP1 POP SWAP1 JUMP JUMPDEST PUSH2 0x62E PUSH2 0x61F JUMP JUMPDEST PUSH2 0x639 DUP2 DUP5 DUP5 PUSH2 0x5FA JUMP JUMPDEST POP POP POP JUMP JUMPDEST JUMPDEST DUP2 DUP2 LT ISZERO PUSH2 0x65C JUMPI PUSH2 0x651 PUSH0 DUP3 PUSH2 0x626 JUMP JUMPDEST PUSH1 0x1 DUP2 ADD SWAP1 POP PUSH2 0x63F JUMP JUMPDEST POP POP JUMP JUMPDEST PUSH1 0x1F DUP3 GT ISZERO PUSH2 0x6A1 JUMPI PUSH2 0x672 DUP2 PUSH2 0x540 JUMP JUMPDEST PUSH2 0x67B DUP5 PUSH2 0x552 JUMP JUMPDEST DUP2 ADD PUSH1 0x20 DUP6 LT ISZERO PUSH2 0x68A JUMPI DUP2 SWAP1 POP JUMPDEST PUSH2 0x69E PUSH2 0x696 DUP6 PUSH2 0x552 JUMP JUMPDEST DUP4 ADD DUP3 PUSH2 0x63E JUMP JUMPDEST POP POP JUMPDEST POP POP POP JUMP JUMPDEST PUSH0 DUP3 DUP3 SHR SWAP1 POP SWAP3 SWAP2 POP POP JUMP JUMPDEST PUSH0 PUSH2 0x6C1 PUSH0 NOT DUP5 PUSH1 0x8 MUL PUSH2 0x6A6 JUMP JUMPDEST NOT DUP1 DUP4 AND SWAP2 POP POP SWAP3 SWAP2 POP POP JUMP JUMPDEST PUSH0 PUSH2 0x6D9 DUP4 DUP4 PUSH2 0x6B2 JUMP JUMPDEST SWAP2 POP DUP3 PUSH1 0x2 MUL DUP3 OR SWAP1 POP SWAP3 SWAP2 POP POP JUMP JUMPDEST PUSH2 0x6F2 DUP3 PUSH2 0x4D9 JUMP JUMPDEST PUSH8 0xFFFFFFFFFFFFFFFF DUP2 GT ISZERO PUSH2 0x70B JUMPI PUSH2 0x70A PUSH2 0x25B JUMP JUMPDEST JUMPDEST PUSH2 0x715 DUP3 SLOAD PUSH2 0x510 JUMP JUMPDEST PUSH2 0x720 DUP3 DUP3 DUP6 PUSH2 0x660 JUMP JUMPDEST PUSH0 PUSH1 0x20 SWAP1 POP PUSH1 0x1F DUP4 GT PUSH1 0x1 DUP2 EQ PUSH2 0x751 JUMPI PUSH0 DUP5 ISZERO PUSH2 0x73F JUMPI DUP3 DUP8 ADD MLOAD SWAP1 POP JUMPDEST PUSH2 0x749 DUP6 DUP3 PUSH2 0x6CE JUMP JUMPDEST DUP7 SSTORE POP PUSH2 0x7B0 JUMP JUMPDEST PUSH1 0x1F NOT DUP5 AND PUSH2 0x75F DUP7 PUSH2 0x540 JUMP JUMPDEST PUSH0 JUMPDEST DUP3 DUP2 LT ISZERO PUSH2 0x786 JUMPI DUP5 DUP10 ADD MLOAD DUP3 SSTORE PUSH1 0x1 DUP3 ADD SWAP2 POP PUSH1 0x20 DUP6 ADD SWAP5 POP PUSH1 0x20 DUP2 ADD SWAP1 POP PUSH2 0x761 JUMP JUMPDEST DUP7 DUP4 LT ISZERO PUSH2 0x7A3 JUMPI DUP5 DUP10 ADD MLOAD PUSH2 0x79F PUSH1 0x1F DUP10 AND DUP3 PUSH2 0x6B2 JUMP JUMPDEST DUP4 SSTORE POP JUMPDEST PUSH1 0x1 PUSH1 0x2 DUP9 MUL ADD DUP9 SSTORE POP POP POP JUMPDEST POP POP POP POP POP POP JUMP JUMPDEST PUSH2 0x692 DUP1 PUSH2 0x7C5 PUSH0 CODECOPY PUSH0 RETURN INVALID PUSH1 0x80 PUSH1 0x40 MSTORE PUSH1 0x4 CALLDATASIZE LT PUSH2 0x33 JUMPI PUSH0 CALLDATALOAD PUSH1 0xE0 SHR DUP1 PUSH4 0x121B93F EQ PUSH2 0x37 JUMPI DUP1 PUSH4 0x4420E486 EQ PUSH2 0x53 JUMPI DUP1 PUSH4 0x609FF1BD EQ PUSH2 0x6F JUMPI JUMPDEST PUSH0 PUSH0 REVERT JUMPDEST PUSH2 0x51 PUSH1 0x4 DUP1 CALLDATASIZE SUB DUP2 ADD SWAP1 PUSH2 0x4C SWAP2 SWAP1 PUSH2 0x49D JUMP JUMPDEST PUSH2 0x99 JUMP JUMPDEST STOP JUMPDEST PUSH2 0x6D PUSH1 0x4 DUP1 CALLDATASIZE SUB DUP2 ADD SWAP1 PUSH2 0x68 SWAP2 SWAP1 PUSH2 0x522 JUMP JUMPDEST PUSH2 0x223 JUMP JUMPDEST STOP JUMPDEST CALLVALUE DUP1 ISZERO PUSH2 0x7A JUMPI PUSH0 PUSH0 REVERT JUMPDEST POP PUSH2 0x83 PUSH2 0x38F JUMP JUMPDEST PUSH1 0x40 MLOAD PUSH2 0x90 SWAP2 SWAP1 PUSH2 0x55C JUMP JUMPDEST PUSH1 0x40 MLOAD DUP1 SWAP2 SUB SWAP1 RETURN JUMPDEST PUSH1 0x2 DUP1 PUSH1 0x3 DUP2 GT ISZERO PUSH2 0xAE JUMPI PUSH2 0xAD PUSH2 0x575 JUMP JUMPDEST JUMPDEST PUSH1 0x4 PUSH0 SWAP1 SLOAD SWAP1 PUSH2 0x100 EXP SWAP1 DIV PUSH1 0xFF AND PUSH1 0x3 DUP2 GT ISZERO PUSH2 0xCF JUMPI PUSH2 0xCE PUSH2 0x575 JUMP JUMPDEST JUMPDEST EQ PUSH2 0xD8 JUMPI PUSH0 PUSH0 REVERT JUMPDEST DUP2 PUSH0 DUP1 SLOAD SWAP1 POP DUP2 LT PUSH2 0xE8 JUMPI PUSH0 PUSH0 REVERT JUMPDEST PUSH0 PUSH1 0x1 PUSH0 CALLER PUSH20 0xFFFFFFFFFFFFFFFFFFFFFFFFFFFFFFFFFFFFFFFF AND PUSH20 0xFFFFFFFFFFFFFFFFFFFFFFFFFFFFFFFFFFFFFFFF AND DUP2 MSTORE PUSH1 0x20 ADD SWAP1 DUP2 MSTORE PUSH1 0x20 ADD PUSH0 KECCAK256 SWAP1 POP DUP1 PUSH0 ADD PUSH0 SWAP1 SLOAD SWAP1 PUSH2 0x100 EXP SWAP1 DIV PUSH1 0xFF AND ISZERO DUP1 ISZERO PUSH2 0x148 JUMPI POP PUSH0 DUP2 PUSH1 0x1 ADD SLOAD GT JUMPDEST PUSH2 0x150 JUMPI PUSH0 PUSH0 REVERT JUMPDEST DUP1 PUSH1 0x1 ADD SLOAD PUSH0 DUP6 DUP2 SLOAD DUP2 LT PUSH2 0x168 JUMPI PUSH2 0x167 PUSH2 0x5A2 JUMP JUMPDEST JUMPDEST SWAP1 PUSH0 MSTORE PUSH1 0x20 PUSH0 KECCAK256 SWAP1 PUSH1 0x2 MUL ADD PUSH1 0x1 ADD PUSH0 DUP3 DUP3 SLOAD PUSH2 0x185 SWAP2 SWAP1 PUSH2 0x5FC JUMP JUMPDEST SWAP3 POP POP DUP2 SWAP1 SSTORE POP PUSH1 0x1 DUP2 PUSH0 ADD PUSH0 PUSH2 0x100 EXP DUP2 SLOAD DUP2 PUSH1 0xFF MUL NOT AND SWAP1 DUP4 ISZERO ISZERO MUL OR SWAP1 SSTORE POP DUP4 DUP2 PUSH1 0x2 ADD DUP2 SWAP1 SSTORE POP PUSH1 0x3C PUSH1 0x3 SLOAD PUSH2 0x1BF SWAP2 SWAP1 PUSH2 0x5FC JUMP JUMPDEST TIMESTAMP GT ISZERO PUSH2 0x21D JUMPI PUSH1 0x3 PUSH1 0x4 PUSH0 PUSH2 0x100 EXP DUP2 SLOAD DUP2 PUSH1 0xFF MUL NOT AND SWAP1 DUP4 PUSH1 0x3 DUP2 GT ISZERO PUSH2 0x1EB JUMPI PUSH2 0x1EA PUSH2 0x575 JUMP JUMPDEST JUMPDEST MUL OR SWAP1 SSTORE POP PUSH32 0x6AC0C89219F0135E3A87CECDF1851ABCED71DA933A0A00E1EADA0EF035382351 PUSH1 0x40 MLOAD PUSH1 0x40 MLOAD DUP1 SWAP2 SUB SWAP1 LOG1 JUMPDEST POP POP POP POP JUMP JUMPDEST PUSH1 0x1 DUP1 PUSH1 0x3 DUP2 GT ISZERO PUSH2 0x238 JUMPI PUSH2 0x237 PUSH2 0x575 JUMP JUMPDEST JUMPDEST PUSH1 0x4 PUSH0 SWAP1 SLOAD SWAP1 PUSH2 0x100 EXP SWAP1 DIV PUSH1 0xFF AND PUSH1 0x3 DUP2 GT ISZERO PUSH2 0x259 JUMPI PUSH2 0x258 PUSH2 0x575 JUMP JUMPDEST JUMPDEST EQ PUSH2 0x262 JUMPI PUSH0 PUSH0 REVERT JUMPDEST PUSH1 0x2 PUSH0 SWAP1 SLOAD SWAP1 PUSH2 0x100 EXP SWAP1 DIV PUSH20 0xFFFFFFFFFFFFFFFFFFFFFFFFFFFFFFFFFFFFFFFF AND PUSH20 0xFFFFFFFFFFFFFFFFFFFFFFFFFFFFFFFFFFFFFFFF AND CALLER PUSH20 0xFFFFFFFFFFFFFFFFFFFFFFFFFFFFFFFFFFFFFFFF AND EQ PUSH2 0x2BA JUMPI PUSH0 PUSH0 REVERT JUMPDEST PUSH0 PUSH1 0x1 PUSH0 DUP5 PUSH20 0xFFFFFFFFFFFFFFFFFFFFFFFFFFFFFFFFFFFFFFFF AND PUSH20 0xFFFFFFFFFFFFFFFFFFFFFFFFFFFFFFFFFFFFFFFF AND DUP2 MSTORE PUSH1 0x20 ADD SWAP1 DUP2 MSTORE PUSH1 0x20 ADD PUSH0 KECCAK256 SWAP1 POP DUP1 PUSH0 ADD PUSH0 SWAP1 SLOAD SWAP1 PUSH2 0x100 EXP SWAP1 DIV PUSH1 0xFF AND ISZERO PUSH2 0x313 JUMPI PUSH0 PUSH0 REVERT JUMPDEST PUSH1 0x1 DUP2 PUSH1 0x1 ADD DUP2 SWAP1 SSTORE POP PUSH1 0x1E PUSH1 0x3 SLOAD PUSH2 0x32C SWAP2 SWAP1 PUSH2 0x5FC JUMP JUMPDEST TIMESTAMP GT ISZERO PUSH2 0x38A JUMPI PUSH1 0x2 PUSH1 0x4 PUSH0 PUSH2 0x100 EXP DUP2 SLOAD DUP2 PUSH1 0xFF MUL NOT AND SWAP1 DUP4 PUSH1 0x3 DUP2 GT ISZERO PUSH2 0x358 JUMPI PUSH2 0x357 PUSH2 0x575 JUMP JUMPDEST JUMPDEST MUL OR SWAP1 SSTORE POP PUSH32 0x673B58118C1936254621BF28DE50B15A993AAEFB2B57C63FF0AFC0EDF7D97678 PUSH1 0x40 MLOAD PUSH1 0x40 MLOAD DUP1 SWAP2 SUB SWAP1 LOG1 JUMPDEST POP POP POP JUMP JUMPDEST PUSH0 PUSH1 0x3 DUP1 PUSH1 0x3 DUP2 GT ISZERO PUSH2 0x3A5 JUMPI PUSH2 0x3A4 PUSH2 0x575 JUMP JUMPDEST JUMPDEST PUSH1 0x4 PUSH0 SWAP1 SLOAD SWAP1 PUSH2 0x100 EXP SWAP1 DIV PUSH1 0xFF AND PUSH1 0x3 DUP2 GT ISZERO PUSH2 0x3C6 JUMPI PUSH2 0x3C5 PUSH2 0x575 JUMP JUMPDEST JUMPDEST EQ PUSH2 0x3CF JUMPI PUSH0 PUSH0 REVERT JUMPDEST PUSH0 PUSH0 SWAP1 POP PUSH0 PUSH0 SWAP1 POP JUMPDEST PUSH0 DUP1 SLOAD SWAP1 POP DUP2 LT ISZERO PUSH2 0x444 JUMPI DUP2 PUSH0 DUP3 DUP2 SLOAD DUP2 LT PUSH2 0x3F8 JUMPI PUSH2 0x3F7 PUSH2 0x5A2 JUMP JUMPDEST JUMPDEST SWAP1 PUSH0 MSTORE PUSH1 0x20 PUSH0 KECCAK256 SWAP1 PUSH1 0x2 MUL ADD PUSH1 0x1 ADD SLOAD GT ISZERO PUSH2 0x437 JUMPI PUSH0 DUP2 DUP2 SLOAD DUP2 LT PUSH2 0x421 JUMPI PUSH2 0x420 PUSH2 0x5A2 JUMP JUMPDEST JUMPDEST SWAP1 PUSH0 MSTORE PUSH1 0x20 PUSH0 KECCAK256 SWAP1 PUSH1 0x2 MUL ADD PUSH1 0x1 ADD SLOAD SWAP2 POP DUP1 SWAP4 POP JUMPDEST DUP1 DUP1 PUSH1 0x1 ADD SWAP2 POP POP PUSH2 0x3D8 JUMP JUMPDEST POP PUSH0 DUP2 GT PUSH2 0x450 JUMPI PUSH0 PUSH0 REVERT JUMPDEST PUSH0 DUP4 LT ISZERO PUSH2 0x461 JUMPI PUSH2 0x460 PUSH2 0x62F JUMP JUMPDEST JUMPDEST POP POP SWAP1 JUMP JUMPDEST PUSH0 PUSH0 REVERT JUMPDEST PUSH0 DUP2 SWAP1 POP SWAP2 SWAP1 POP JUMP JUMPDEST PUSH2 0x47C DUP2 PUSH2 0x46A JUMP JUMPDEST DUP2 EQ PUSH2 0x486 JUMPI PUSH0 PUSH0 REVERT JUMPDEST POP JUMP JUMPDEST PUSH0 DUP2 CALLDATALOAD SWAP1 POP PUSH2 0x497 DUP2 PUSH2 0x473 JUMP JUMPDEST SWAP3 SWAP2 POP POP JUMP JUMPDEST PUSH0 PUSH1 0x20 DUP3 DUP5 SUB SLT ISZERO PUSH2 0x4B2 JUMPI PUSH2 0x4B1 PUSH2 0x466 JUMP JUMPDEST JUMPDEST PUSH0 PUSH2 0x4BF DUP5 DUP3 DUP6 ADD PUSH2 0x489 JUMP JUMPDEST SWAP2 POP POP SWAP3 SWAP2 POP POP JUMP JUMPDEST PUSH0 PUSH20 0xFFFFFFFFFFFFFFFFFFFFFFFFFFFFFFFFFFFFFFFF DUP3 AND SWAP1 POP SWAP2 SWAP1 POP JUMP JUMPDEST PUSH0 PUSH2 0x4F1 DUP3 PUSH2 0x4C8 JUMP JUMPDEST SWAP1 POP SWAP2 SWAP1 POP JUMP JUMPDEST PUSH2 0x501 DUP2 PUSH2 0x4E7 JUMP JUMPDEST DUP2 EQ PUSH2 0x50B JUMPI PUSH0 PUSH0 REVERT JUMPDEST POP JUMP JUMPDEST PUSH0 DUP2 CALLDATALOAD SWAP1 POP PUSH2 0x51C DUP2 PUSH2 0x4F8 JUMP JUMPDEST SWAP3 SWAP2 POP POP JUMP JUMPDEST PUSH0 PUSH1 0x20 DUP3 DUP5 SUB SLT ISZERO PUSH2 0x537 JUMPI PUSH2 0x536 PUSH2 0x466 JUMP JUMPDEST JUMPDEST PUSH0 PUSH2 0x544 DUP5 DUP3 DUP6 ADD PUSH2 0x50E JUMP JUMPDEST SWAP2 POP POP SWAP3 SWAP2 POP POP JUMP JUMPDEST PUSH2 0x556 DUP2 PUSH2 0x46A JUMP JUMPDEST DUP3 MSTORE POP POP JUMP JUMPDEST PUSH0 PUSH1 0x20 DUP3 ADD SWAP1 POP PUSH2 0x56F PUSH0 DUP4 ADD DUP5 PUSH2 0x54D JUMP JUMPDEST SWAP3 SWAP2 POP POP JUMP JUMPDEST PUSH32 0x4E487B7100000000000000000000000000000000000000000000000000000000 PUSH0 MSTORE PUSH1 0x21 PUSH1 0x4 MSTORE PUSH1 0x24 PUSH0 REVERT JUMPDEST PUSH32 0x4E487B7100000000000000000000000000000000000000000000000000000000 PUSH0 MSTORE PUSH1 0x32 PUSH1 0x4 MSTORE PUSH1 0x24 PUSH0 REVERT JUMPDEST PUSH32 0x4E487B7100000000000000000000000000000000000000000000000000000000 PUSH0 MSTORE PUSH1 0x11 PUSH1 0x4 MSTORE PUSH1 0x24 PUSH0 REVERT JUMPDEST PUSH0 PUSH2 0x606 DUP3 PUSH2 0x46A JUMP JUMPDEST SWAP2 POP PUSH2 0x611 DUP4 PUSH2 0x46A JUMP JUMPDEST SWAP3 POP DUP3 DUP3 ADD SWAP1 POP DUP1 DUP3 GT ISZERO PUSH2 0x629 JUMPI PUSH2 0x628 PUSH2 0x5CF JUMP JUMPDEST JUMPDEST SWAP3 SWAP2 POP POP JUMP JUMPDEST PUSH32 0x4E487B7100000000000000000000000000000000000000000000000000000000 PUSH0 MSTORE PUSH1 0x1 PUSH1 0x4 MSTORE PUSH1 0x24 PUSH0 REVERT INVALID LOG2 PUSH5 0x6970667358 0x22 SLT KECCAK256 ADD 0xD8 DUP13 RJUMP 0x293A 0xF7 MSTORE8 SWAP6 PUSH8 0xF7577BEC34F31AC8 PUSH28 0xFFB036223C043C132E7EB1C9B64736F6C634300081E003300000000 "
				},
				"gasEstimates": {
					"creation": {
						"codeDepositCost": "336400",
						"executionCost": "infinite",
						"totalCost": "infinite"
					},
					"external": {
						"register(address)": "infinite",
						"vote(uint256)": "infinite",
						"winningProposal()": "infinite"
					}
				},
				"methodIdentifiers": {
					"register(address)": "4420e486",
					"vote(uint256)": "0121b93f",
					"winningProposal()": "609ff1bd"
				}
			},
			"storageLayout": {
				"storage": [
					{
						"astId": 22,
						"contract": "contracts/BallotV1.sol:Ballot",
						"label": "proposals",
						"offset": 0,
						"slot": "0",
						"type": "t_array(t_struct(Proposal)13_storage)dyn_storage"
					},
					{
						"astId": 27,
						"contract": "contracts/BallotV1.sol:Ballot",
						"label": "voters",
						"offset": 0,
						"slot": "1",
						"type": "t_mapping(t_address,t_struct(Voter)8_storage)"
					},
					{
						"astId": 29,
						"contract": "contracts/BallotV1.sol:Ballot",
						"label": "chairperson",
						"offset": 0,
						"slot": "2",
						"type": "t_address"
					},
					{
						"astId": 31,
						"contract": "contracts/BallotV1.sol:Ballot",
						"label": "creationTime",
						"offset": 0,
						"slot": "3",
						"type": "t_uint256"
					},
					{
						"astId": 36,
						"contract": "contracts/BallotV1.sol:Ballot",
						"label": "currentStage",
						"offset": 0,
						"slot": "4",
						"type": "t_enum(Stage)18"
					}
				],
				"types": {
					"t_address": {
						"encoding": "inplace",
						"label": "address",
						"numberOfBytes": "20"
					},
					"t_array(t_struct(Proposal)13_storage)dyn_storage": {
						"base": "t_struct(Proposal)13_storage",
						"encoding": "dynamic_array",
						"label": "struct Ballot.Proposal[]",
						"numberOfBytes": "32"
					},
					"t_bool": {
						"encoding": "inplace",
						"label": "bool",
						"numberOfBytes": "1"
					},
					"t_enum(Stage)18": {
						"encoding": "inplace",
						"label": "enum Ballot.Stage",
						"numberOfBytes": "1"
					},
					"t_mapping(t_address,t_struct(Voter)8_storage)": {
						"encoding": "mapping",
						"key": "t_address",
						"label": "mapping(address => struct Ballot.Voter)",
						"numberOfBytes": "32",
						"value": "t_struct(Voter)8_storage"
					},
					"t_string_storage": {
						"encoding": "bytes",
						"label": "string",
						"numberOfBytes": "32"
					},
					"t_struct(Proposal)13_storage": {
						"encoding": "inplace",
						"label": "struct Ballot.Proposal",
						"members": [
							{
								"astId": 10,
								"contract": "contracts/BallotV1.sol:Ballot",
								"label": "name",
								"offset": 0,
								"slot": "0",
								"type": "t_string_storage"
							},
							{
								"astId": 12,
								"contract": "contracts/BallotV1.sol:Ballot",
								"label": "voteCount",
								"offset": 0,
								"slot": "1",
								"type": "t_uint256"
							}
						],
						"numberOfBytes": "64"
					},
					"t_struct(Voter)8_storage": {
						"encoding": "inplace",
						"label": "struct Ballot.Voter",
						"members": [
							{
								"astId": 3,
								"contract": "contracts/BallotV1.sol:Ballot",
								"label": "voted",
								"offset": 0,
								"slot": "0",
								"type": "t_bool"
							},
							{
								"astId": 5,
								"contract": "contracts/BallotV1.sol:Ballot",
								"label": "weight",
								"offset": 0,
								"slot": "1",
								"type": "t_uint256"
							},
							{
								"astId": 7,
								"contract": "contracts/BallotV1.sol:Ballot",
								"label": "vote",
								"offset": 0,
								"slot": "2",
								"type": "t_uint256"
							}
						],
						"numberOfBytes": "96"
					},
					"t_uint256": {
						"encoding": "inplace",
						"label": "uint256",
						"numberOfBytes": "32"
					}
				}
			},
			"userdoc": {
				"kind": "user",
				"methods": {},
				"version": 1
			}
		}
	}
}