{
	"contracts/M0fNwkTQEeigbgqkS_SCag_3381c8b044d011e893d9db16d507b83b_BallotWithStages.sol": {
		"Ballot": {
			"abi": [
				{
					"inputs": [
						{
							"internalType": "uint8",
							"name": "_numProposals",
							"type": "uint8"
						}
					],
					"stateMutability": "nonpayable",
					"type": "constructor"
				},
				{
					"inputs": [
						{
							"internalType": "address",
							"name": "toVoter",
							"type": "address"
						}
					],
					"name": "register",
					"outputs": [],
					"stateMutability": "nonpayable",
					"type": "function"
				},
				{
					"inputs": [],
					"name": "stage",
					"outputs": [
						{
							"internalType": "enum Ballot.Stage",
							"name": "",
							"type": "uint8"
						}
					],
					"stateMutability": "view",
					"type": "function"
				},
				{
					"inputs": [
						{
							"internalType": "uint8",
							"name": "toProposal",
							"type": "uint8"
						}
					],
					"name": "vote",
					"outputs": [],
					"stateMutability": "nonpayable",
					"type": "function"
				},
				{
					"inputs": [],
					"name": "winningProposal",
					"outputs": [
						{
							"internalType": "uint8",
							"name": "_winningProposal",
							"type": "uint8"
						}
					],
					"stateMutability": "view",
					"type": "function"
				}
			],
			"devdoc": {
				"kind": "dev",
				"methods": {},
				"version": 1
			},
			"evm": {
				"assembly": "    /* \"contracts/M0fNwkTQEeigbgqkS_SCag_3381c8b044d011e893d9db16d507b83b_BallotWithStages.sol\":74:2302  contract Ballot {... */\n  mstore(0x40, 0x80)\n    /* \"contracts/M0fNwkTQEeigbgqkS_SCag_3381c8b044d011e893d9db16d507b83b_BallotWithStages.sol\":305:315  Stage.Init */\n  0x00\n    /* \"contracts/M0fNwkTQEeigbgqkS_SCag_3381c8b044d011e893d9db16d507b83b_BallotWithStages.sol\":284:315  Stage public stage = Stage.Init */\n  0x00\n  exp(0x0100, 0x00)\n  dup2\n  sload\n  dup2\n  0xff\n  mul\n  not\n  and\n  swap1\n  dup4\n  0x03\n  dup2\n  gt\n  iszero\n  tag_1\n  jumpi\n  tag_2\n  tag_3\n  jump\t// in\ntag_2:\ntag_1:\n  mul\n  or\n  swap1\n  sstore\n  pop\n    /* \"contracts/M0fNwkTQEeigbgqkS_SCag_3381c8b044d011e893d9db16d507b83b_BallotWithStages.sol\":526:900  constructor(uint8 _numProposals)  {... */\n  callvalue\n  dup1\n  iszero\n  tag_4\n  jumpi\n  revert(0x00, 0x00)\ntag_4:\n  pop\n  mload(0x40)\n  sub(codesize, bytecodeSize)\n  dup1\n  bytecodeSize\n  dup4\n  codecopy\n  dup2\n  dup2\n  add\n  0x40\n  mstore\n  dup2\n  add\n  swap1\n  tag_5\n  swap2\n  swap1\n  tag_6\n  jump\t// in\ntag_5:\n    /* \"contracts/M0fNwkTQEeigbgqkS_SCag_3381c8b044d011e893d9db16d507b83b_BallotWithStages.sol\":585:595  msg.sender */\n  caller\n    /* \"contracts/M0fNwkTQEeigbgqkS_SCag_3381c8b044d011e893d9db16d507b83b_BallotWithStages.sol\":571:582  chairperson */\n  0x00\n  0x01\n    /* \"contracts/M0fNwkTQEeigbgqkS_SCag_3381c8b044d011e893d9db16d507b83b_BallotWithStages.sol\":571:595  chairperson = msg.sender */\n  0x0100\n  exp\n  dup2\n  sload\n  dup2\n  0xffffffffffffffffffffffffffffffffffffffff\n  mul\n  not\n  and\n  swap1\n  dup4\n  0xffffffffffffffffffffffffffffffffffffffff\n  and\n  mul\n  or\n  swap1\n  sstore\n  pop\n    /* \"contracts/M0fNwkTQEeigbgqkS_SCag_3381c8b044d011e893d9db16d507b83b_BallotWithStages.sol\":635:636  2 */\n  0x02\n    /* \"contracts/M0fNwkTQEeigbgqkS_SCag_3381c8b044d011e893d9db16d507b83b_BallotWithStages.sol\":606:612  voters */\n  0x01\n    /* \"contracts/M0fNwkTQEeigbgqkS_SCag_3381c8b044d011e893d9db16d507b83b_BallotWithStages.sol\":606:625  voters[chairperson] */\n  0x00\n    /* \"contracts/M0fNwkTQEeigbgqkS_SCag_3381c8b044d011e893d9db16d507b83b_BallotWithStages.sol\":613:624  chairperson */\n  0x00\n  0x01\n  swap1\n  sload\n  swap1\n  0x0100\n  exp\n  swap1\n  div\n  0xffffffffffffffffffffffffffffffffffffffff\n  and\n    /* \"contracts/M0fNwkTQEeigbgqkS_SCag_3381c8b044d011e893d9db16d507b83b_BallotWithStages.sol\":606:625  voters[chairperson] */\n  0xffffffffffffffffffffffffffffffffffffffff\n  and\n  0xffffffffffffffffffffffffffffffffffffffff\n  and\n  dup2\n  mstore\n  0x20\n  add\n  swap1\n  dup2\n  mstore\n  0x20\n  add\n  0x00\n  keccak256\n    /* \"contracts/M0fNwkTQEeigbgqkS_SCag_3381c8b044d011e893d9db16d507b83b_BallotWithStages.sol\":606:632  voters[chairperson].weight */\n  0x00\n  add\n    /* \"contracts/M0fNwkTQEeigbgqkS_SCag_3381c8b044d011e893d9db16d507b83b_BallotWithStages.sol\":606:636  voters[chairperson].weight = 2 */\n  dup2\n  swap1\n  sstore\n  pop\n    /* \"contracts/M0fNwkTQEeigbgqkS_SCag_3381c8b044d011e893d9db16d507b83b_BallotWithStages.sol\":688:694  uint i */\n  0x00\n    /* \"contracts/M0fNwkTQEeigbgqkS_SCag_3381c8b044d011e893d9db16d507b83b_BallotWithStages.sol\":697:698  0 */\n  0x00\n    /* \"contracts/M0fNwkTQEeigbgqkS_SCag_3381c8b044d011e893d9db16d507b83b_BallotWithStages.sol\":688:698  uint i = 0 */\n  swap1\n  pop\n    /* \"contracts/M0fNwkTQEeigbgqkS_SCag_3381c8b044d011e893d9db16d507b83b_BallotWithStages.sol\":683:827  for (uint i = 0; i < _numProposals; i++) {... */\ntag_9:\n    /* \"contracts/M0fNwkTQEeigbgqkS_SCag_3381c8b044d011e893d9db16d507b83b_BallotWithStages.sol\":704:717  _numProposals */\n  dup2\n    /* \"contracts/M0fNwkTQEeigbgqkS_SCag_3381c8b044d011e893d9db16d507b83b_BallotWithStages.sol\":700:717  i < _numProposals */\n  0xff\n  and\n    /* \"contracts/M0fNwkTQEeigbgqkS_SCag_3381c8b044d011e893d9db16d507b83b_BallotWithStages.sol\":700:701  i */\n  dup2\n    /* \"contracts/M0fNwkTQEeigbgqkS_SCag_3381c8b044d011e893d9db16d507b83b_BallotWithStages.sol\":700:717  i < _numProposals */\n  lt\n    /* \"contracts/M0fNwkTQEeigbgqkS_SCag_3381c8b044d011e893d9db16d507b83b_BallotWithStages.sol\":683:827  for (uint i = 0; i < _numProposals; i++) {... */\n  iszero\n  tag_10\n  jumpi\n    /* \"contracts/M0fNwkTQEeigbgqkS_SCag_3381c8b044d011e893d9db16d507b83b_BallotWithStages.sol\":739:748  proposals */\n  0x02\n    /* \"contracts/M0fNwkTQEeigbgqkS_SCag_3381c8b044d011e893d9db16d507b83b_BallotWithStages.sol\":754:814  Proposal({... */\n  mload(0x40)\n  dup1\n  0x20\n  add\n  0x40\n  mstore\n  dup1\n    /* \"contracts/M0fNwkTQEeigbgqkS_SCag_3381c8b044d011e893d9db16d507b83b_BallotWithStages.sol\":797:798  0 */\n  0x00\n    /* \"contracts/M0fNwkTQEeigbgqkS_SCag_3381c8b044d011e893d9db16d507b83b_BallotWithStages.sol\":754:814  Proposal({... */\n  dup2\n  mstore\n  pop\n    /* \"contracts/M0fNwkTQEeigbgqkS_SCag_3381c8b044d011e893d9db16d507b83b_BallotWithStages.sol\":739:815  proposals.push(Proposal({... */\n  swap1\n  dup1\n  0x01\n  dup2\n  sload\n  add\n  dup1\n  dup3\n  sstore\n  dup1\n  swap2\n  pop\n  pop\n  0x01\n  swap1\n  sub\n  swap1\n  0x00\n  mstore\n  keccak256(0x00, 0x20)\n  add\n  0x00\n  swap1\n  swap2\n  swap1\n  swap2\n  swap1\n  swap2\n  pop\n  0x00\n  dup3\n  add\n  mload\n  dup2\n  0x00\n  add\n  sstore\n  pop\n  pop\n    /* \"contracts/M0fNwkTQEeigbgqkS_SCag_3381c8b044d011e893d9db16d507b83b_BallotWithStages.sol\":719:722  i++ */\n  dup1\n  dup1\n  0x01\n  add\n  swap2\n  pop\n  pop\n    /* \"contracts/M0fNwkTQEeigbgqkS_SCag_3381c8b044d011e893d9db16d507b83b_BallotWithStages.sol\":683:827  for (uint i = 0; i < _numProposals; i++) {... */\n  jump(tag_9)\ntag_10:\n  pop\n    /* \"contracts/M0fNwkTQEeigbgqkS_SCag_3381c8b044d011e893d9db16d507b83b_BallotWithStages.sol\":845:854  Stage.Reg */\n  0x01\n    /* \"contracts/M0fNwkTQEeigbgqkS_SCag_3381c8b044d011e893d9db16d507b83b_BallotWithStages.sol\":837:842  stage */\n  0x00\n  0x00\n    /* \"contracts/M0fNwkTQEeigbgqkS_SCag_3381c8b044d011e893d9db16d507b83b_BallotWithStages.sol\":837:854  stage = Stage.Reg */\n  0x0100\n  exp\n  dup2\n  sload\n  dup2\n  0xff\n  mul\n  not\n  and\n  swap1\n  dup4\n  0x03\n  dup2\n  gt\n  iszero\n  tag_13\n  jumpi\n  tag_14\n  tag_3\n  jump\t// in\ntag_14:\ntag_13:\n  mul\n  or\n  swap1\n  sstore\n  pop\n    /* \"contracts/M0fNwkTQEeigbgqkS_SCag_3381c8b044d011e893d9db16d507b83b_BallotWithStages.sol\":877:892  block.timestamp */\n  timestamp\n    /* \"contracts/M0fNwkTQEeigbgqkS_SCag_3381c8b044d011e893d9db16d507b83b_BallotWithStages.sol\":865:874  startTime */\n  0x03\n    /* \"contracts/M0fNwkTQEeigbgqkS_SCag_3381c8b044d011e893d9db16d507b83b_BallotWithStages.sol\":865:892  startTime = block.timestamp */\n  dup2\n  swap1\n  sstore\n  pop\n    /* \"contracts/M0fNwkTQEeigbgqkS_SCag_3381c8b044d011e893d9db16d507b83b_BallotWithStages.sol\":526:900  constructor(uint8 _numProposals)  {... */\n  pop\n    /* \"contracts/M0fNwkTQEeigbgqkS_SCag_3381c8b044d011e893d9db16d507b83b_BallotWithStages.sol\":74:2302  contract Ballot {... */\n  jump(tag_15)\n    /* \"#utility.yul\":7:187   */\ntag_3:\n    /* \"#utility.yul\":55:132   */\n  0x4e487b7100000000000000000000000000000000000000000000000000000000\n    /* \"#utility.yul\":52:53   */\n  0x00\n    /* \"#utility.yul\":45:133   */\n  mstore\n    /* \"#utility.yul\":152:156   */\n  0x21\n    /* \"#utility.yul\":149:150   */\n  0x04\n    /* \"#utility.yul\":142:157   */\n  mstore\n    /* \"#utility.yul\":176:180   */\n  0x24\n    /* \"#utility.yul\":173:174   */\n  0x00\n    /* \"#utility.yul\":166:181   */\n  revert\n    /* \"#utility.yul\":274:391   */\ntag_17:\n    /* \"#utility.yul\":383:384   */\n  0x00\n    /* \"#utility.yul\":380:381   */\n  0x00\n    /* \"#utility.yul\":373:385   */\n  revert\n    /* \"#utility.yul\":520:606   */\ntag_19:\n    /* \"#utility.yul\":555:562   */\n  0x00\n    /* \"#utility.yul\":595:599   */\n  0xff\n    /* \"#utility.yul\":588:593   */\n  dup3\n    /* \"#utility.yul\":584:600   */\n  and\n    /* \"#utility.yul\":573:600   */\n  swap1\n  pop\n    /* \"#utility.yul\":520:606   */\n  swap2\n  swap1\n  pop\n  jump\t// out\n    /* \"#utility.yul\":612:730   */\ntag_20:\n    /* \"#utility.yul\":683:705   */\n  tag_29\n    /* \"#utility.yul\":699:704   */\n  dup2\n    /* \"#utility.yul\":683:705   */\n  tag_19\n  jump\t// in\ntag_29:\n    /* \"#utility.yul\":676:681   */\n  dup2\n    /* \"#utility.yul\":673:706   */\n  eq\n    /* \"#utility.yul\":663:724   */\n  tag_30\n  jumpi\n    /* \"#utility.yul\":720:721   */\n  0x00\n    /* \"#utility.yul\":717:718   */\n  0x00\n    /* \"#utility.yul\":710:722   */\n  revert\n    /* \"#utility.yul\":663:724   */\ntag_30:\n    /* \"#utility.yul\":612:730   */\n  pop\n  jump\t// out\n    /* \"#utility.yul\":736:875   */\ntag_21:\n    /* \"#utility.yul\":791:796   */\n  0x00\n    /* \"#utility.yul\":822:828   */\n  dup2\n    /* \"#utility.yul\":816:829   */\n  mload\n    /* \"#utility.yul\":807:829   */\n  swap1\n  pop\n    /* \"#utility.yul\":838:869   */\n  tag_32\n    /* \"#utility.yul\":863:868   */\n  dup2\n    /* \"#utility.yul\":838:869   */\n  tag_20\n  jump\t// in\ntag_32:\n    /* \"#utility.yul\":736:875   */\n  swap3\n  swap2\n  pop\n  pop\n  jump\t// out\n    /* \"#utility.yul\":881:1228   */\ntag_6:\n    /* \"#utility.yul\":949:955   */\n  0x00\n    /* \"#utility.yul\":998:1000   */\n  0x20\n    /* \"#utility.yul\":986:995   */\n  dup3\n    /* \"#utility.yul\":977:984   */\n  dup5\n    /* \"#utility.yul\":973:996   */\n  sub\n    /* \"#utility.yul\":969:1001   */\n  slt\n    /* \"#utility.yul\":966:1085   */\n  iszero\n  tag_34\n  jumpi\n    /* \"#utility.yul\":1004:1083   */\n  tag_35\n  tag_17\n  jump\t// in\ntag_35:\n    /* \"#utility.yul\":966:1085   */\ntag_34:\n    /* \"#utility.yul\":1124:1125   */\n  0x00\n    /* \"#utility.yul\":1149:1211   */\n  tag_36\n    /* \"#utility.yul\":1203:1210   */\n  dup5\n    /* \"#utility.yul\":1194:1200   */\n  dup3\n    /* \"#utility.yul\":1183:1192   */\n  dup6\n    /* \"#utility.yul\":1179:1201   */\n  add\n    /* \"#utility.yul\":1149:1211   */\n  tag_21\n  jump\t// in\ntag_36:\n    /* \"#utility.yul\":1139:1211   */\n  swap2\n  pop\n    /* \"#utility.yul\":1095:1221   */\n  pop\n    /* \"#utility.yul\":881:1228   */\n  swap3\n  swap2\n  pop\n  pop\n  jump\t// out\n    /* \"contracts/M0fNwkTQEeigbgqkS_SCag_3381c8b044d011e893d9db16d507b83b_BallotWithStages.sol\":74:2302  contract Ballot {... */\ntag_15:\n  dataSize(sub_0)\n  dup1\n  dataOffset(sub_0)\n  0x00\n  codecopy\n  0x00\n  return\nstop\n\nsub_0: assembly {\n        /* \"contracts/M0fNwkTQEeigbgqkS_SCag_3381c8b044d011e893d9db16d507b83b_BallotWithStages.sol\":74:2302  contract Ballot {... */\n      mstore(0x40, 0x80)\n      callvalue\n      dup1\n      iszero\n      tag_1\n      jumpi\n      revert(0x00, 0x00)\n    tag_1:\n      pop\n      jumpi(tag_2, lt(calldatasize, 0x04))\n      shr(0xe0, calldataload(0x00))\n      dup1\n      0x4420e486\n      eq\n      tag_3\n      jumpi\n      dup1\n      0x609ff1bd\n      eq\n      tag_4\n      jumpi\n      dup1\n      0xb3f98adc\n      eq\n      tag_5\n      jumpi\n      dup1\n      0xc040e6b8\n      eq\n      tag_6\n      jumpi\n    tag_2:\n      revert(0x00, 0x00)\n        /* \"contracts/M0fNwkTQEeigbgqkS_SCag_3381c8b044d011e893d9db16d507b83b_BallotWithStages.sol\":1014:1372  function register(address toVoter) public {... */\n    tag_3:\n      tag_7\n      0x04\n      dup1\n      calldatasize\n      sub\n      dup2\n      add\n      swap1\n      tag_8\n      swap2\n      swap1\n      tag_9\n      jump\t// in\n    tag_8:\n      tag_10\n      jump\t// in\n    tag_7:\n      stop\n        /* \"contracts/M0fNwkTQEeigbgqkS_SCag_3381c8b044d011e893d9db16d507b83b_BallotWithStages.sol\":1879:2299  function winningProposal() public view returns (uint8 _winningProposal) {... */\n    tag_4:\n      tag_11\n      tag_12\n      jump\t// in\n    tag_11:\n      mload(0x40)\n      tag_13\n      swap2\n      swap1\n      tag_14\n      jump\t// in\n    tag_13:\n      mload(0x40)\n      dup1\n      swap2\n      sub\n      swap1\n      return\n        /* \"contracts/M0fNwkTQEeigbgqkS_SCag_3381c8b044d011e893d9db16d507b83b_BallotWithStages.sol\":1435:1871  function vote(uint8 toProposal) public  {... */\n    tag_5:\n      tag_15\n      0x04\n      dup1\n      calldatasize\n      sub\n      dup2\n      add\n      swap1\n      tag_16\n      swap2\n      swap1\n      tag_17\n      jump\t// in\n    tag_16:\n      tag_18\n      jump\t// in\n    tag_15:\n      stop\n        /* \"contracts/M0fNwkTQEeigbgqkS_SCag_3381c8b044d011e893d9db16d507b83b_BallotWithStages.sol\":284:315  Stage public stage = Stage.Init */\n    tag_6:\n      tag_19\n      tag_20\n      jump\t// in\n    tag_19:\n      mload(0x40)\n      tag_21\n      swap2\n      swap1\n      tag_22\n      jump\t// in\n    tag_21:\n      mload(0x40)\n      dup1\n      swap2\n      sub\n      swap1\n      return\n        /* \"contracts/M0fNwkTQEeigbgqkS_SCag_3381c8b044d011e893d9db16d507b83b_BallotWithStages.sol\":1014:1372  function register(address toVoter) public {... */\n    tag_10:\n        /* \"contracts/M0fNwkTQEeigbgqkS_SCag_3381c8b044d011e893d9db16d507b83b_BallotWithStages.sol\":1080:1089  Stage.Reg */\n      0x01\n        /* \"contracts/M0fNwkTQEeigbgqkS_SCag_3381c8b044d011e893d9db16d507b83b_BallotWithStages.sol\":1071:1089  stage != Stage.Reg */\n      0x03\n      dup2\n      gt\n      iszero\n      tag_24\n      jumpi\n      tag_25\n      tag_26\n      jump\t// in\n    tag_25:\n    tag_24:\n        /* \"contracts/M0fNwkTQEeigbgqkS_SCag_3381c8b044d011e893d9db16d507b83b_BallotWithStages.sol\":1071:1076  stage */\n      0x00\n      0x00\n      swap1\n      sload\n      swap1\n      0x0100\n      exp\n      swap1\n      div\n      0xff\n      and\n        /* \"contracts/M0fNwkTQEeigbgqkS_SCag_3381c8b044d011e893d9db16d507b83b_BallotWithStages.sol\":1071:1089  stage != Stage.Reg */\n      0x03\n      dup2\n      gt\n      iszero\n      tag_27\n      jumpi\n      tag_28\n      tag_26\n      jump\t// in\n    tag_28:\n    tag_27:\n      sub\n        /* \"contracts/M0fNwkTQEeigbgqkS_SCag_3381c8b044d011e893d9db16d507b83b_BallotWithStages.sol\":1092:1099  return; */\n      tag_23\n        /* \"contracts/M0fNwkTQEeigbgqkS_SCag_3381c8b044d011e893d9db16d507b83b_BallotWithStages.sol\":1067:1100  if (stage != Stage.Reg) {return;} */\n      jumpi\n        /* \"contracts/M0fNwkTQEeigbgqkS_SCag_3381c8b044d011e893d9db16d507b83b_BallotWithStages.sol\":1128:1139  chairperson */\n      0x00\n      0x01\n      swap1\n      sload\n      swap1\n      0x0100\n      exp\n      swap1\n      div\n      0xffffffffffffffffffffffffffffffffffffffff\n      and\n        /* \"contracts/M0fNwkTQEeigbgqkS_SCag_3381c8b044d011e893d9db16d507b83b_BallotWithStages.sol\":1114:1139  msg.sender != chairperson */\n      0xffffffffffffffffffffffffffffffffffffffff\n      and\n        /* \"contracts/M0fNwkTQEeigbgqkS_SCag_3381c8b044d011e893d9db16d507b83b_BallotWithStages.sol\":1114:1124  msg.sender */\n      caller\n        /* \"contracts/M0fNwkTQEeigbgqkS_SCag_3381c8b044d011e893d9db16d507b83b_BallotWithStages.sol\":1114:1139  msg.sender != chairperson */\n      0xffffffffffffffffffffffffffffffffffffffff\n      and\n      eq\n      iszero\n        /* \"contracts/M0fNwkTQEeigbgqkS_SCag_3381c8b044d011e893d9db16d507b83b_BallotWithStages.sol\":1114:1164  msg.sender != chairperson || voters[toVoter].voted */\n      dup1\n      tag_30\n      jumpi\n      pop\n        /* \"contracts/M0fNwkTQEeigbgqkS_SCag_3381c8b044d011e893d9db16d507b83b_BallotWithStages.sol\":1143:1149  voters */\n      0x01\n        /* \"contracts/M0fNwkTQEeigbgqkS_SCag_3381c8b044d011e893d9db16d507b83b_BallotWithStages.sol\":1143:1158  voters[toVoter] */\n      0x00\n        /* \"contracts/M0fNwkTQEeigbgqkS_SCag_3381c8b044d011e893d9db16d507b83b_BallotWithStages.sol\":1150:1157  toVoter */\n      dup3\n        /* \"contracts/M0fNwkTQEeigbgqkS_SCag_3381c8b044d011e893d9db16d507b83b_BallotWithStages.sol\":1143:1158  voters[toVoter] */\n      0xffffffffffffffffffffffffffffffffffffffff\n      and\n      0xffffffffffffffffffffffffffffffffffffffff\n      and\n      dup2\n      mstore\n      0x20\n      add\n      swap1\n      dup2\n      mstore\n      0x20\n      add\n      0x00\n      keccak256\n        /* \"contracts/M0fNwkTQEeigbgqkS_SCag_3381c8b044d011e893d9db16d507b83b_BallotWithStages.sol\":1143:1164  voters[toVoter].voted */\n      0x01\n      add\n      0x00\n      swap1\n      sload\n      swap1\n      0x0100\n      exp\n      swap1\n      div\n      0xff\n      and\n        /* \"contracts/M0fNwkTQEeigbgqkS_SCag_3381c8b044d011e893d9db16d507b83b_BallotWithStages.sol\":1114:1164  msg.sender != chairperson || voters[toVoter].voted */\n    tag_30:\n        /* \"contracts/M0fNwkTQEeigbgqkS_SCag_3381c8b044d011e893d9db16d507b83b_BallotWithStages.sol\":1166:1173  return; */\n      tag_23\n        /* \"contracts/M0fNwkTQEeigbgqkS_SCag_3381c8b044d011e893d9db16d507b83b_BallotWithStages.sol\":1110:1173  if (msg.sender != chairperson || voters[toVoter].voted) return; */\n      jumpi\n        /* \"contracts/M0fNwkTQEeigbgqkS_SCag_3381c8b044d011e893d9db16d507b83b_BallotWithStages.sol\":1208:1209  1 */\n      0x01\n        /* \"contracts/M0fNwkTQEeigbgqkS_SCag_3381c8b044d011e893d9db16d507b83b_BallotWithStages.sol\":1183:1189  voters */\n      dup1\n        /* \"contracts/M0fNwkTQEeigbgqkS_SCag_3381c8b044d011e893d9db16d507b83b_BallotWithStages.sol\":1183:1198  voters[toVoter] */\n      0x00\n        /* \"contracts/M0fNwkTQEeigbgqkS_SCag_3381c8b044d011e893d9db16d507b83b_BallotWithStages.sol\":1190:1197  toVoter */\n      dup4\n        /* \"contracts/M0fNwkTQEeigbgqkS_SCag_3381c8b044d011e893d9db16d507b83b_BallotWithStages.sol\":1183:1198  voters[toVoter] */\n      0xffffffffffffffffffffffffffffffffffffffff\n      and\n      0xffffffffffffffffffffffffffffffffffffffff\n      and\n      dup2\n      mstore\n      0x20\n      add\n      swap1\n      dup2\n      mstore\n      0x20\n      add\n      0x00\n      keccak256\n        /* \"contracts/M0fNwkTQEeigbgqkS_SCag_3381c8b044d011e893d9db16d507b83b_BallotWithStages.sol\":1183:1205  voters[toVoter].weight */\n      0x00\n      add\n        /* \"contracts/M0fNwkTQEeigbgqkS_SCag_3381c8b044d011e893d9db16d507b83b_BallotWithStages.sol\":1183:1209  voters[toVoter].weight = 1 */\n      dup2\n      swap1\n      sstore\n      pop\n        /* \"contracts/M0fNwkTQEeigbgqkS_SCag_3381c8b044d011e893d9db16d507b83b_BallotWithStages.sol\":1244:1249  false */\n      0x00\n        /* \"contracts/M0fNwkTQEeigbgqkS_SCag_3381c8b044d011e893d9db16d507b83b_BallotWithStages.sol\":1220:1226  voters */\n      0x01\n        /* \"contracts/M0fNwkTQEeigbgqkS_SCag_3381c8b044d011e893d9db16d507b83b_BallotWithStages.sol\":1220:1235  voters[toVoter] */\n      0x00\n        /* \"contracts/M0fNwkTQEeigbgqkS_SCag_3381c8b044d011e893d9db16d507b83b_BallotWithStages.sol\":1227:1234  toVoter */\n      dup4\n        /* \"contracts/M0fNwkTQEeigbgqkS_SCag_3381c8b044d011e893d9db16d507b83b_BallotWithStages.sol\":1220:1235  voters[toVoter] */\n      0xffffffffffffffffffffffffffffffffffffffff\n      and\n      0xffffffffffffffffffffffffffffffffffffffff\n      and\n      dup2\n      mstore\n      0x20\n      add\n      swap1\n      dup2\n      mstore\n      0x20\n      add\n      0x00\n      keccak256\n        /* \"contracts/M0fNwkTQEeigbgqkS_SCag_3381c8b044d011e893d9db16d507b83b_BallotWithStages.sol\":1220:1241  voters[toVoter].voted */\n      0x01\n      add\n      0x00\n        /* \"contracts/M0fNwkTQEeigbgqkS_SCag_3381c8b044d011e893d9db16d507b83b_BallotWithStages.sol\":1220:1249  voters[toVoter].voted = false */\n      0x0100\n      exp\n      dup2\n      sload\n      dup2\n      0xff\n      mul\n      not\n      and\n      swap1\n      dup4\n      iszero\n      iszero\n      mul\n      or\n      swap1\n      sstore\n      pop\n        /* \"contracts/M0fNwkTQEeigbgqkS_SCag_3381c8b044d011e893d9db16d507b83b_BallotWithStages.sol\":1294:1304  10 seconds */\n      0x0a\n        /* \"contracts/M0fNwkTQEeigbgqkS_SCag_3381c8b044d011e893d9db16d507b83b_BallotWithStages.sol\":1283:1292  startTime */\n      sload(0x03)\n        /* \"contracts/M0fNwkTQEeigbgqkS_SCag_3381c8b044d011e893d9db16d507b83b_BallotWithStages.sol\":1283:1304  startTime+ 10 seconds */\n      tag_32\n      swap2\n      swap1\n      tag_33\n      jump\t// in\n    tag_32:\n        /* \"contracts/M0fNwkTQEeigbgqkS_SCag_3381c8b044d011e893d9db16d507b83b_BallotWithStages.sol\":1264:1279  block.timestamp */\n      timestamp\n        /* \"contracts/M0fNwkTQEeigbgqkS_SCag_3381c8b044d011e893d9db16d507b83b_BallotWithStages.sol\":1264:1305  block.timestamp > (startTime+ 10 seconds) */\n      gt\n        /* \"contracts/M0fNwkTQEeigbgqkS_SCag_3381c8b044d011e893d9db16d507b83b_BallotWithStages.sol\":1260:1357  if (block.timestamp > (startTime+ 10 seconds)) {stage = Stage.Vote; startTime = block.timestamp;} */\n      iszero\n      tag_34\n      jumpi\n        /* \"contracts/M0fNwkTQEeigbgqkS_SCag_3381c8b044d011e893d9db16d507b83b_BallotWithStages.sol\":1316:1326  Stage.Vote */\n      0x02\n        /* \"contracts/M0fNwkTQEeigbgqkS_SCag_3381c8b044d011e893d9db16d507b83b_BallotWithStages.sol\":1308:1313  stage */\n      0x00\n      0x00\n        /* \"contracts/M0fNwkTQEeigbgqkS_SCag_3381c8b044d011e893d9db16d507b83b_BallotWithStages.sol\":1308:1326  stage = Stage.Vote */\n      0x0100\n      exp\n      dup2\n      sload\n      dup2\n      0xff\n      mul\n      not\n      and\n      swap1\n      dup4\n      0x03\n      dup2\n      gt\n      iszero\n      tag_35\n      jumpi\n      tag_36\n      tag_26\n      jump\t// in\n    tag_36:\n    tag_35:\n      mul\n      or\n      swap1\n      sstore\n      pop\n        /* \"contracts/M0fNwkTQEeigbgqkS_SCag_3381c8b044d011e893d9db16d507b83b_BallotWithStages.sol\":1340:1355  block.timestamp */\n      timestamp\n        /* \"contracts/M0fNwkTQEeigbgqkS_SCag_3381c8b044d011e893d9db16d507b83b_BallotWithStages.sol\":1328:1337  startTime */\n      0x03\n        /* \"contracts/M0fNwkTQEeigbgqkS_SCag_3381c8b044d011e893d9db16d507b83b_BallotWithStages.sol\":1328:1355  startTime = block.timestamp */\n      dup2\n      swap1\n      sstore\n      pop\n        /* \"contracts/M0fNwkTQEeigbgqkS_SCag_3381c8b044d011e893d9db16d507b83b_BallotWithStages.sol\":1260:1357  if (block.timestamp > (startTime+ 10 seconds)) {stage = Stage.Vote; startTime = block.timestamp;} */\n    tag_34:\n        /* \"contracts/M0fNwkTQEeigbgqkS_SCag_3381c8b044d011e893d9db16d507b83b_BallotWithStages.sol\":1014:1372  function register(address toVoter) public {... */\n    tag_23:\n      pop\n      jump\t// out\n        /* \"contracts/M0fNwkTQEeigbgqkS_SCag_3381c8b044d011e893d9db16d507b83b_BallotWithStages.sol\":1879:2299  function winningProposal() public view returns (uint8 _winningProposal) {... */\n    tag_12:\n        /* \"contracts/M0fNwkTQEeigbgqkS_SCag_3381c8b044d011e893d9db16d507b83b_BallotWithStages.sol\":1927:1949  uint8 _winningProposal */\n      0x00\n        /* \"contracts/M0fNwkTQEeigbgqkS_SCag_3381c8b044d011e893d9db16d507b83b_BallotWithStages.sol\":1973:1983  Stage.Done */\n      0x03\n        /* \"contracts/M0fNwkTQEeigbgqkS_SCag_3381c8b044d011e893d9db16d507b83b_BallotWithStages.sol\":1964:1983  stage != Stage.Done */\n      dup1\n      dup2\n      gt\n      iszero\n      tag_38\n      jumpi\n      tag_39\n      tag_26\n      jump\t// in\n    tag_39:\n    tag_38:\n        /* \"contracts/M0fNwkTQEeigbgqkS_SCag_3381c8b044d011e893d9db16d507b83b_BallotWithStages.sol\":1964:1969  stage */\n      0x00\n      0x00\n      swap1\n      sload\n      swap1\n      0x0100\n      exp\n      swap1\n      div\n      0xff\n      and\n        /* \"contracts/M0fNwkTQEeigbgqkS_SCag_3381c8b044d011e893d9db16d507b83b_BallotWithStages.sol\":1964:1983  stage != Stage.Done */\n      0x03\n      dup2\n      gt\n      iszero\n      tag_40\n      jumpi\n      tag_41\n      tag_26\n      jump\t// in\n    tag_41:\n    tag_40:\n      eq\n        /* \"contracts/M0fNwkTQEeigbgqkS_SCag_3381c8b044d011e893d9db16d507b83b_BallotWithStages.sol\":1961:1996  if(stage != Stage.Done) {return 0;} */\n      tag_42\n      jumpi\n        /* \"contracts/M0fNwkTQEeigbgqkS_SCag_3381c8b044d011e893d9db16d507b83b_BallotWithStages.sol\":1993:1994  0 */\n      0x00\n        /* \"contracts/M0fNwkTQEeigbgqkS_SCag_3381c8b044d011e893d9db16d507b83b_BallotWithStages.sol\":1986:1994  return 0 */\n      swap1\n      pop\n      jump(tag_37)\n        /* \"contracts/M0fNwkTQEeigbgqkS_SCag_3381c8b044d011e893d9db16d507b83b_BallotWithStages.sol\":1961:1996  if(stage != Stage.Done) {return 0;} */\n    tag_42:\n        /* \"contracts/M0fNwkTQEeigbgqkS_SCag_3381c8b044d011e893d9db16d507b83b_BallotWithStages.sol\":2006:2030  uint256 winningVoteCount */\n      0x00\n        /* \"contracts/M0fNwkTQEeigbgqkS_SCag_3381c8b044d011e893d9db16d507b83b_BallotWithStages.sol\":2033:2034  0 */\n      0x00\n        /* \"contracts/M0fNwkTQEeigbgqkS_SCag_3381c8b044d011e893d9db16d507b83b_BallotWithStages.sol\":2006:2034  uint256 winningVoteCount = 0 */\n      swap1\n      pop\n        /* \"contracts/M0fNwkTQEeigbgqkS_SCag_3381c8b044d011e893d9db16d507b83b_BallotWithStages.sol\":2050:2060  uint8 prop */\n      0x00\n        /* \"contracts/M0fNwkTQEeigbgqkS_SCag_3381c8b044d011e893d9db16d507b83b_BallotWithStages.sol\":2063:2064  0 */\n      0x00\n        /* \"contracts/M0fNwkTQEeigbgqkS_SCag_3381c8b044d011e893d9db16d507b83b_BallotWithStages.sol\":2050:2064  uint8 prop = 0 */\n      swap1\n      pop\n        /* \"contracts/M0fNwkTQEeigbgqkS_SCag_3381c8b044d011e893d9db16d507b83b_BallotWithStages.sol\":2045:2283  for (uint8 prop = 0; prop < proposals.length; prop++)... */\n    tag_43:\n        /* \"contracts/M0fNwkTQEeigbgqkS_SCag_3381c8b044d011e893d9db16d507b83b_BallotWithStages.sol\":2073:2082  proposals */\n      0x02\n        /* \"contracts/M0fNwkTQEeigbgqkS_SCag_3381c8b044d011e893d9db16d507b83b_BallotWithStages.sol\":2073:2089  proposals.length */\n      dup1\n      sload\n      swap1\n      pop\n        /* \"contracts/M0fNwkTQEeigbgqkS_SCag_3381c8b044d011e893d9db16d507b83b_BallotWithStages.sol\":2066:2070  prop */\n      dup2\n        /* \"contracts/M0fNwkTQEeigbgqkS_SCag_3381c8b044d011e893d9db16d507b83b_BallotWithStages.sol\":2066:2089  prop < proposals.length */\n      0xff\n      and\n      lt\n        /* \"contracts/M0fNwkTQEeigbgqkS_SCag_3381c8b044d011e893d9db16d507b83b_BallotWithStages.sol\":2045:2283  for (uint8 prop = 0; prop < proposals.length; prop++)... */\n      iszero\n      tag_44\n      jumpi\n        /* \"contracts/M0fNwkTQEeigbgqkS_SCag_3381c8b044d011e893d9db16d507b83b_BallotWithStages.sol\":2144:2160  winningVoteCount */\n      dup2\n        /* \"contracts/M0fNwkTQEeigbgqkS_SCag_3381c8b044d011e893d9db16d507b83b_BallotWithStages.sol\":2116:2125  proposals */\n      0x02\n        /* \"contracts/M0fNwkTQEeigbgqkS_SCag_3381c8b044d011e893d9db16d507b83b_BallotWithStages.sol\":2126:2130  prop */\n      dup3\n        /* \"contracts/M0fNwkTQEeigbgqkS_SCag_3381c8b044d011e893d9db16d507b83b_BallotWithStages.sol\":2116:2131  proposals[prop] */\n      0xff\n      and\n      dup2\n      sload\n      dup2\n      lt\n      tag_46\n      jumpi\n      tag_47\n      tag_48\n      jump\t// in\n    tag_47:\n    tag_46:\n      swap1\n      0x00\n      mstore\n      keccak256(0x00, 0x20)\n      add\n        /* \"contracts/M0fNwkTQEeigbgqkS_SCag_3381c8b044d011e893d9db16d507b83b_BallotWithStages.sol\":2116:2141  proposals[prop].voteCount */\n      0x00\n      add\n      sload\n        /* \"contracts/M0fNwkTQEeigbgqkS_SCag_3381c8b044d011e893d9db16d507b83b_BallotWithStages.sol\":2116:2160  proposals[prop].voteCount > winningVoteCount */\n      gt\n        /* \"contracts/M0fNwkTQEeigbgqkS_SCag_3381c8b044d011e893d9db16d507b83b_BallotWithStages.sol\":2112:2283  if (proposals[prop].voteCount > winningVoteCount) {... */\n      iszero\n      tag_50\n      jumpi\n        /* \"contracts/M0fNwkTQEeigbgqkS_SCag_3381c8b044d011e893d9db16d507b83b_BallotWithStages.sol\":2200:2209  proposals */\n      0x02\n        /* \"contracts/M0fNwkTQEeigbgqkS_SCag_3381c8b044d011e893d9db16d507b83b_BallotWithStages.sol\":2210:2214  prop */\n      dup2\n        /* \"contracts/M0fNwkTQEeigbgqkS_SCag_3381c8b044d011e893d9db16d507b83b_BallotWithStages.sol\":2200:2215  proposals[prop] */\n      0xff\n      and\n      dup2\n      sload\n      dup2\n      lt\n      tag_51\n      jumpi\n      tag_52\n      tag_48\n      jump\t// in\n    tag_52:\n    tag_51:\n      swap1\n      0x00\n      mstore\n      keccak256(0x00, 0x20)\n      add\n        /* \"contracts/M0fNwkTQEeigbgqkS_SCag_3381c8b044d011e893d9db16d507b83b_BallotWithStages.sol\":2200:2225  proposals[prop].voteCount */\n      0x00\n      add\n      sload\n        /* \"contracts/M0fNwkTQEeigbgqkS_SCag_3381c8b044d011e893d9db16d507b83b_BallotWithStages.sol\":2181:2225  winningVoteCount = proposals[prop].voteCount */\n      swap2\n      pop\n        /* \"contracts/M0fNwkTQEeigbgqkS_SCag_3381c8b044d011e893d9db16d507b83b_BallotWithStages.sol\":2263:2267  prop */\n      dup1\n        /* \"contracts/M0fNwkTQEeigbgqkS_SCag_3381c8b044d011e893d9db16d507b83b_BallotWithStages.sol\":2244:2267  _winningProposal = prop */\n      swap3\n      pop\n        /* \"contracts/M0fNwkTQEeigbgqkS_SCag_3381c8b044d011e893d9db16d507b83b_BallotWithStages.sol\":2112:2283  if (proposals[prop].voteCount > winningVoteCount) {... */\n    tag_50:\n        /* \"contracts/M0fNwkTQEeigbgqkS_SCag_3381c8b044d011e893d9db16d507b83b_BallotWithStages.sol\":2091:2097  prop++ */\n      dup1\n      dup1\n      tag_54\n      swap1\n      tag_55\n      jump\t// in\n    tag_54:\n      swap2\n      pop\n      pop\n        /* \"contracts/M0fNwkTQEeigbgqkS_SCag_3381c8b044d011e893d9db16d507b83b_BallotWithStages.sol\":2045:2283  for (uint8 prop = 0; prop < proposals.length; prop++)... */\n      jump(tag_43)\n    tag_44:\n      pop\n        /* \"contracts/M0fNwkTQEeigbgqkS_SCag_3381c8b044d011e893d9db16d507b83b_BallotWithStages.sol\":1951:2299  {... */\n      pop\n        /* \"contracts/M0fNwkTQEeigbgqkS_SCag_3381c8b044d011e893d9db16d507b83b_BallotWithStages.sol\":1879:2299  function winningProposal() public view returns (uint8 _winningProposal) {... */\n    tag_37:\n      swap1\n      jump\t// out\n        /* \"contracts/M0fNwkTQEeigbgqkS_SCag_3381c8b044d011e893d9db16d507b83b_BallotWithStages.sol\":1435:1871  function vote(uint8 toProposal) public  {... */\n    tag_18:\n        /* \"contracts/M0fNwkTQEeigbgqkS_SCag_3381c8b044d011e893d9db16d507b83b_BallotWithStages.sol\":1499:1509  Stage.Vote */\n      0x02\n        /* \"contracts/M0fNwkTQEeigbgqkS_SCag_3381c8b044d011e893d9db16d507b83b_BallotWithStages.sol\":1490:1509  stage != Stage.Vote */\n      0x03\n      dup2\n      gt\n      iszero\n      tag_57\n      jumpi\n      tag_58\n      tag_26\n      jump\t// in\n    tag_58:\n    tag_57:\n        /* \"contracts/M0fNwkTQEeigbgqkS_SCag_3381c8b044d011e893d9db16d507b83b_BallotWithStages.sol\":1490:1495  stage */\n      0x00\n      0x00\n      swap1\n      sload\n      swap1\n      0x0100\n      exp\n      swap1\n      div\n      0xff\n      and\n        /* \"contracts/M0fNwkTQEeigbgqkS_SCag_3381c8b044d011e893d9db16d507b83b_BallotWithStages.sol\":1490:1509  stage != Stage.Vote */\n      0x03\n      dup2\n      gt\n      iszero\n      tag_59\n      jumpi\n      tag_60\n      tag_26\n      jump\t// in\n    tag_60:\n    tag_59:\n      sub\n        /* \"contracts/M0fNwkTQEeigbgqkS_SCag_3381c8b044d011e893d9db16d507b83b_BallotWithStages.sol\":1512:1519  return; */\n      tag_56\n        /* \"contracts/M0fNwkTQEeigbgqkS_SCag_3381c8b044d011e893d9db16d507b83b_BallotWithStages.sol\":1486:1520  if (stage != Stage.Vote) {return;} */\n      jumpi\n        /* \"contracts/M0fNwkTQEeigbgqkS_SCag_3381c8b044d011e893d9db16d507b83b_BallotWithStages.sol\":1530:1550  Voter storage sender */\n      0x00\n        /* \"contracts/M0fNwkTQEeigbgqkS_SCag_3381c8b044d011e893d9db16d507b83b_BallotWithStages.sol\":1553:1559  voters */\n      0x01\n        /* \"contracts/M0fNwkTQEeigbgqkS_SCag_3381c8b044d011e893d9db16d507b83b_BallotWithStages.sol\":1553:1571  voters[msg.sender] */\n      0x00\n        /* \"contracts/M0fNwkTQEeigbgqkS_SCag_3381c8b044d011e893d9db16d507b83b_BallotWithStages.sol\":1560:1570  msg.sender */\n      caller\n        /* \"contracts/M0fNwkTQEeigbgqkS_SCag_3381c8b044d011e893d9db16d507b83b_BallotWithStages.sol\":1553:1571  voters[msg.sender] */\n      0xffffffffffffffffffffffffffffffffffffffff\n      and\n      0xffffffffffffffffffffffffffffffffffffffff\n      and\n      dup2\n      mstore\n      0x20\n      add\n      swap1\n      dup2\n      mstore\n      0x20\n      add\n      0x00\n      keccak256\n        /* \"contracts/M0fNwkTQEeigbgqkS_SCag_3381c8b044d011e893d9db16d507b83b_BallotWithStages.sol\":1530:1571  Voter storage sender = voters[msg.sender] */\n      swap1\n      pop\n        /* \"contracts/M0fNwkTQEeigbgqkS_SCag_3381c8b044d011e893d9db16d507b83b_BallotWithStages.sol\":1586:1592  sender */\n      dup1\n        /* \"contracts/M0fNwkTQEeigbgqkS_SCag_3381c8b044d011e893d9db16d507b83b_BallotWithStages.sol\":1586:1598  sender.voted */\n      0x01\n      add\n      0x00\n      swap1\n      sload\n      swap1\n      0x0100\n      exp\n      swap1\n      div\n      0xff\n      and\n        /* \"contracts/M0fNwkTQEeigbgqkS_SCag_3381c8b044d011e893d9db16d507b83b_BallotWithStages.sol\":1586:1632  sender.voted || toProposal >= proposals.length */\n      dup1\n      tag_62\n      jumpi\n      pop\n        /* \"contracts/M0fNwkTQEeigbgqkS_SCag_3381c8b044d011e893d9db16d507b83b_BallotWithStages.sol\":1616:1625  proposals */\n      0x02\n        /* \"contracts/M0fNwkTQEeigbgqkS_SCag_3381c8b044d011e893d9db16d507b83b_BallotWithStages.sol\":1616:1632  proposals.length */\n      dup1\n      sload\n      swap1\n      pop\n        /* \"contracts/M0fNwkTQEeigbgqkS_SCag_3381c8b044d011e893d9db16d507b83b_BallotWithStages.sol\":1602:1612  toProposal */\n      dup3\n        /* \"contracts/M0fNwkTQEeigbgqkS_SCag_3381c8b044d011e893d9db16d507b83b_BallotWithStages.sol\":1602:1632  toProposal >= proposals.length */\n      0xff\n      and\n      lt\n      iszero\n        /* \"contracts/M0fNwkTQEeigbgqkS_SCag_3381c8b044d011e893d9db16d507b83b_BallotWithStages.sol\":1586:1632  sender.voted || toProposal >= proposals.length */\n    tag_62:\n        /* \"contracts/M0fNwkTQEeigbgqkS_SCag_3381c8b044d011e893d9db16d507b83b_BallotWithStages.sol\":1582:1641  if (sender.voted || toProposal >= proposals.length) return; */\n      iszero\n      tag_63\n      jumpi\n        /* \"contracts/M0fNwkTQEeigbgqkS_SCag_3381c8b044d011e893d9db16d507b83b_BallotWithStages.sol\":1634:1641  return; */\n      pop\n      jump(tag_56)\n        /* \"contracts/M0fNwkTQEeigbgqkS_SCag_3381c8b044d011e893d9db16d507b83b_BallotWithStages.sol\":1582:1641  if (sender.voted || toProposal >= proposals.length) return; */\n    tag_63:\n        /* \"contracts/M0fNwkTQEeigbgqkS_SCag_3381c8b044d011e893d9db16d507b83b_BallotWithStages.sol\":1666:1670  true */\n      0x01\n        /* \"contracts/M0fNwkTQEeigbgqkS_SCag_3381c8b044d011e893d9db16d507b83b_BallotWithStages.sol\":1651:1657  sender */\n      dup2\n        /* \"contracts/M0fNwkTQEeigbgqkS_SCag_3381c8b044d011e893d9db16d507b83b_BallotWithStages.sol\":1651:1663  sender.voted */\n      0x01\n      add\n      0x00\n        /* \"contracts/M0fNwkTQEeigbgqkS_SCag_3381c8b044d011e893d9db16d507b83b_BallotWithStages.sol\":1651:1670  sender.voted = true */\n      0x0100\n      exp\n      dup2\n      sload\n      dup2\n      0xff\n      mul\n      not\n      and\n      swap1\n      dup4\n      iszero\n      iszero\n      mul\n      or\n      swap1\n      sstore\n      pop\n        /* \"contracts/M0fNwkTQEeigbgqkS_SCag_3381c8b044d011e893d9db16d507b83b_BallotWithStages.sol\":1695:1705  toProposal */\n      dup2\n        /* \"contracts/M0fNwkTQEeigbgqkS_SCag_3381c8b044d011e893d9db16d507b83b_BallotWithStages.sol\":1681:1687  sender */\n      dup2\n        /* \"contracts/M0fNwkTQEeigbgqkS_SCag_3381c8b044d011e893d9db16d507b83b_BallotWithStages.sol\":1681:1692  sender.vote */\n      0x01\n      add\n      0x01\n        /* \"contracts/M0fNwkTQEeigbgqkS_SCag_3381c8b044d011e893d9db16d507b83b_BallotWithStages.sol\":1681:1705  sender.vote = toProposal */\n      0x0100\n      exp\n      dup2\n      sload\n      dup2\n      0xff\n      mul\n      not\n      and\n      swap1\n      dup4\n      0xff\n      and\n      mul\n      or\n      swap1\n      sstore\n      pop\n        /* \"contracts/M0fNwkTQEeigbgqkS_SCag_3381c8b044d011e893d9db16d507b83b_BallotWithStages.sol\":1754:1760  sender */\n      dup1\n        /* \"contracts/M0fNwkTQEeigbgqkS_SCag_3381c8b044d011e893d9db16d507b83b_BallotWithStages.sol\":1754:1767  sender.weight */\n      0x00\n      add\n      sload\n        /* \"contracts/M0fNwkTQEeigbgqkS_SCag_3381c8b044d011e893d9db16d507b83b_BallotWithStages.sol\":1719:1728  proposals */\n      0x02\n        /* \"contracts/M0fNwkTQEeigbgqkS_SCag_3381c8b044d011e893d9db16d507b83b_BallotWithStages.sol\":1729:1739  toProposal */\n      dup4\n        /* \"contracts/M0fNwkTQEeigbgqkS_SCag_3381c8b044d011e893d9db16d507b83b_BallotWithStages.sol\":1719:1740  proposals[toProposal] */\n      0xff\n      and\n      dup2\n      sload\n      dup2\n      lt\n      tag_64\n      jumpi\n      tag_65\n      tag_48\n      jump\t// in\n    tag_65:\n    tag_64:\n      swap1\n      0x00\n      mstore\n      keccak256(0x00, 0x20)\n      add\n        /* \"contracts/M0fNwkTQEeigbgqkS_SCag_3381c8b044d011e893d9db16d507b83b_BallotWithStages.sol\":1719:1750  proposals[toProposal].voteCount */\n      0x00\n      add\n      0x00\n        /* \"contracts/M0fNwkTQEeigbgqkS_SCag_3381c8b044d011e893d9db16d507b83b_BallotWithStages.sol\":1719:1767  proposals[toProposal].voteCount += sender.weight */\n      dup3\n      dup3\n      sload\n      tag_67\n      swap2\n      swap1\n      tag_33\n      jump\t// in\n    tag_67:\n      swap3\n      pop\n      pop\n      dup2\n      swap1\n      sstore\n      pop\n        /* \"contracts/M0fNwkTQEeigbgqkS_SCag_3381c8b044d011e893d9db16d507b83b_BallotWithStages.sol\":1812:1822  10 seconds */\n      0x0a\n        /* \"contracts/M0fNwkTQEeigbgqkS_SCag_3381c8b044d011e893d9db16d507b83b_BallotWithStages.sol\":1801:1810  startTime */\n      sload(0x03)\n        /* \"contracts/M0fNwkTQEeigbgqkS_SCag_3381c8b044d011e893d9db16d507b83b_BallotWithStages.sol\":1801:1822  startTime+ 10 seconds */\n      tag_68\n      swap2\n      swap1\n      tag_33\n      jump\t// in\n    tag_68:\n        /* \"contracts/M0fNwkTQEeigbgqkS_SCag_3381c8b044d011e893d9db16d507b83b_BallotWithStages.sol\":1782:1797  block.timestamp */\n      timestamp\n        /* \"contracts/M0fNwkTQEeigbgqkS_SCag_3381c8b044d011e893d9db16d507b83b_BallotWithStages.sol\":1782:1823  block.timestamp > (startTime+ 10 seconds) */\n      gt\n        /* \"contracts/M0fNwkTQEeigbgqkS_SCag_3381c8b044d011e893d9db16d507b83b_BallotWithStages.sol\":1778:1846  if (block.timestamp > (startTime+ 10 seconds)) {stage = Stage.Done;} */\n      iszero\n      tag_69\n      jumpi\n        /* \"contracts/M0fNwkTQEeigbgqkS_SCag_3381c8b044d011e893d9db16d507b83b_BallotWithStages.sol\":1834:1844  Stage.Done */\n      0x03\n        /* \"contracts/M0fNwkTQEeigbgqkS_SCag_3381c8b044d011e893d9db16d507b83b_BallotWithStages.sol\":1826:1831  stage */\n      0x00\n      0x00\n        /* \"contracts/M0fNwkTQEeigbgqkS_SCag_3381c8b044d011e893d9db16d507b83b_BallotWithStages.sol\":1826:1844  stage = Stage.Done */\n      0x0100\n      exp\n      dup2\n      sload\n      dup2\n      0xff\n      mul\n      not\n      and\n      swap1\n      dup4\n      0x03\n      dup2\n      gt\n      iszero\n      tag_70\n      jumpi\n      tag_71\n      tag_26\n      jump\t// in\n    tag_71:\n    tag_70:\n      mul\n      or\n      swap1\n      sstore\n      pop\n        /* \"contracts/M0fNwkTQEeigbgqkS_SCag_3381c8b044d011e893d9db16d507b83b_BallotWithStages.sol\":1778:1846  if (block.timestamp > (startTime+ 10 seconds)) {stage = Stage.Done;} */\n    tag_69:\n        /* \"contracts/M0fNwkTQEeigbgqkS_SCag_3381c8b044d011e893d9db16d507b83b_BallotWithStages.sol\":1475:1871  {... */\n      pop\n        /* \"contracts/M0fNwkTQEeigbgqkS_SCag_3381c8b044d011e893d9db16d507b83b_BallotWithStages.sol\":1435:1871  function vote(uint8 toProposal) public  {... */\n    tag_56:\n      pop\n      jump\t// out\n        /* \"contracts/M0fNwkTQEeigbgqkS_SCag_3381c8b044d011e893d9db16d507b83b_BallotWithStages.sol\":284:315  Stage public stage = Stage.Init */\n    tag_20:\n      0x00\n      0x00\n      swap1\n      sload\n      swap1\n      0x0100\n      exp\n      swap1\n      div\n      0xff\n      and\n      dup2\n      jump\t// out\n        /* \"#utility.yul\":88:205   */\n    tag_73:\n        /* \"#utility.yul\":197:198   */\n      0x00\n        /* \"#utility.yul\":194:195   */\n      0x00\n        /* \"#utility.yul\":187:199   */\n      revert\n        /* \"#utility.yul\":334:460   */\n    tag_75:\n        /* \"#utility.yul\":371:378   */\n      0x00\n        /* \"#utility.yul\":411:453   */\n      0xffffffffffffffffffffffffffffffffffffffff\n        /* \"#utility.yul\":404:409   */\n      dup3\n        /* \"#utility.yul\":400:454   */\n      and\n        /* \"#utility.yul\":389:454   */\n      swap1\n      pop\n        /* \"#utility.yul\":334:460   */\n      swap2\n      swap1\n      pop\n      jump\t// out\n        /* \"#utility.yul\":466:562   */\n    tag_76:\n        /* \"#utility.yul\":503:510   */\n      0x00\n        /* \"#utility.yul\":532:556   */\n      tag_95\n        /* \"#utility.yul\":550:555   */\n      dup3\n        /* \"#utility.yul\":532:556   */\n      tag_75\n      jump\t// in\n    tag_95:\n        /* \"#utility.yul\":521:556   */\n      swap1\n      pop\n        /* \"#utility.yul\":466:562   */\n      swap2\n      swap1\n      pop\n      jump\t// out\n        /* \"#utility.yul\":568:690   */\n    tag_77:\n        /* \"#utility.yul\":641:665   */\n      tag_97\n        /* \"#utility.yul\":659:664   */\n      dup2\n        /* \"#utility.yul\":641:665   */\n      tag_76\n      jump\t// in\n    tag_97:\n        /* \"#utility.yul\":634:639   */\n      dup2\n        /* \"#utility.yul\":631:666   */\n      eq\n        /* \"#utility.yul\":621:684   */\n      tag_98\n      jumpi\n        /* \"#utility.yul\":680:681   */\n      0x00\n        /* \"#utility.yul\":677:678   */\n      0x00\n        /* \"#utility.yul\":670:682   */\n      revert\n        /* \"#utility.yul\":621:684   */\n    tag_98:\n        /* \"#utility.yul\":568:690   */\n      pop\n      jump\t// out\n        /* \"#utility.yul\":696:835   */\n    tag_78:\n        /* \"#utility.yul\":742:747   */\n      0x00\n        /* \"#utility.yul\":780:786   */\n      dup2\n        /* \"#utility.yul\":767:787   */\n      calldataload\n        /* \"#utility.yul\":758:787   */\n      swap1\n      pop\n        /* \"#utility.yul\":796:829   */\n      tag_100\n        /* \"#utility.yul\":823:828   */\n      dup2\n        /* \"#utility.yul\":796:829   */\n      tag_77\n      jump\t// in\n    tag_100:\n        /* \"#utility.yul\":696:835   */\n      swap3\n      swap2\n      pop\n      pop\n      jump\t// out\n        /* \"#utility.yul\":841:1170   */\n    tag_9:\n        /* \"#utility.yul\":900:906   */\n      0x00\n        /* \"#utility.yul\":949:951   */\n      0x20\n        /* \"#utility.yul\":937:946   */\n      dup3\n        /* \"#utility.yul\":928:935   */\n      dup5\n        /* \"#utility.yul\":924:947   */\n      sub\n        /* \"#utility.yul\":920:952   */\n      slt\n        /* \"#utility.yul\":917:1036   */\n      iszero\n      tag_102\n      jumpi\n        /* \"#utility.yul\":955:1034   */\n      tag_103\n      tag_73\n      jump\t// in\n    tag_103:\n        /* \"#utility.yul\":917:1036   */\n    tag_102:\n        /* \"#utility.yul\":1075:1076   */\n      0x00\n        /* \"#utility.yul\":1100:1153   */\n      tag_104\n        /* \"#utility.yul\":1145:1152   */\n      dup5\n        /* \"#utility.yul\":1136:1142   */\n      dup3\n        /* \"#utility.yul\":1125:1134   */\n      dup6\n        /* \"#utility.yul\":1121:1143   */\n      add\n        /* \"#utility.yul\":1100:1153   */\n      tag_78\n      jump\t// in\n    tag_104:\n        /* \"#utility.yul\":1090:1153   */\n      swap2\n      pop\n        /* \"#utility.yul\":1046:1163   */\n      pop\n        /* \"#utility.yul\":841:1170   */\n      swap3\n      swap2\n      pop\n      pop\n      jump\t// out\n        /* \"#utility.yul\":1176:1262   */\n    tag_79:\n        /* \"#utility.yul\":1211:1218   */\n      0x00\n        /* \"#utility.yul\":1251:1255   */\n      0xff\n        /* \"#utility.yul\":1244:1249   */\n      dup3\n        /* \"#utility.yul\":1240:1256   */\n      and\n        /* \"#utility.yul\":1229:1256   */\n      swap1\n      pop\n        /* \"#utility.yul\":1176:1262   */\n      swap2\n      swap1\n      pop\n      jump\t// out\n        /* \"#utility.yul\":1268:1380   */\n    tag_80:\n        /* \"#utility.yul\":1351:1373   */\n      tag_107\n        /* \"#utility.yul\":1367:1372   */\n      dup2\n        /* \"#utility.yul\":1351:1373   */\n      tag_79\n      jump\t// in\n    tag_107:\n        /* \"#utility.yul\":1346:1349   */\n      dup3\n        /* \"#utility.yul\":1339:1374   */\n      mstore\n        /* \"#utility.yul\":1268:1380   */\n      pop\n      pop\n      jump\t// out\n        /* \"#utility.yul\":1386:1600   */\n    tag_14:\n        /* \"#utility.yul\":1475:1479   */\n      0x00\n        /* \"#utility.yul\":1513:1515   */\n      0x20\n        /* \"#utility.yul\":1502:1511   */\n      dup3\n        /* \"#utility.yul\":1498:1516   */\n      add\n        /* \"#utility.yul\":1490:1516   */\n      swap1\n      pop\n        /* \"#utility.yul\":1526:1593   */\n      tag_109\n        /* \"#utility.yul\":1590:1591   */\n      0x00\n        /* \"#utility.yul\":1579:1588   */\n      dup4\n        /* \"#utility.yul\":1575:1592   */\n      add\n        /* \"#utility.yul\":1566:1572   */\n      dup5\n        /* \"#utility.yul\":1526:1593   */\n      tag_80\n      jump\t// in\n    tag_109:\n        /* \"#utility.yul\":1386:1600   */\n      swap3\n      swap2\n      pop\n      pop\n      jump\t// out\n        /* \"#utility.yul\":1606:1724   */\n    tag_81:\n        /* \"#utility.yul\":1677:1699   */\n      tag_111\n        /* \"#utility.yul\":1693:1698   */\n      dup2\n        /* \"#utility.yul\":1677:1699   */\n      tag_79\n      jump\t// in\n    tag_111:\n        /* \"#utility.yul\":1670:1675   */\n      dup2\n        /* \"#utility.yul\":1667:1700   */\n      eq\n        /* \"#utility.yul\":1657:1718   */\n      tag_112\n      jumpi\n        /* \"#utility.yul\":1714:1715   */\n      0x00\n        /* \"#utility.yul\":1711:1712   */\n      0x00\n        /* \"#utility.yul\":1704:1716   */\n      revert\n        /* \"#utility.yul\":1657:1718   */\n    tag_112:\n        /* \"#utility.yul\":1606:1724   */\n      pop\n      jump\t// out\n        /* \"#utility.yul\":1730:1865   */\n    tag_82:\n        /* \"#utility.yul\":1774:1779   */\n      0x00\n        /* \"#utility.yul\":1812:1818   */\n      dup2\n        /* \"#utility.yul\":1799:1819   */\n      calldataload\n        /* \"#utility.yul\":1790:1819   */\n      swap1\n      pop\n        /* \"#utility.yul\":1828:1859   */\n      tag_114\n        /* \"#utility.yul\":1853:1858   */\n      dup2\n        /* \"#utility.yul\":1828:1859   */\n      tag_81\n      jump\t// in\n    tag_114:\n        /* \"#utility.yul\":1730:1865   */\n      swap3\n      swap2\n      pop\n      pop\n      jump\t// out\n        /* \"#utility.yul\":1871:2196   */\n    tag_17:\n        /* \"#utility.yul\":1928:1934   */\n      0x00\n        /* \"#utility.yul\":1977:1979   */\n      0x20\n        /* \"#utility.yul\":1965:1974   */\n      dup3\n        /* \"#utility.yul\":1956:1963   */\n      dup5\n        /* \"#utility.yul\":1952:1975   */\n      sub\n        /* \"#utility.yul\":1948:1980   */\n      slt\n        /* \"#utility.yul\":1945:2064   */\n      iszero\n      tag_116\n      jumpi\n        /* \"#utility.yul\":1983:2062   */\n      tag_117\n      tag_73\n      jump\t// in\n    tag_117:\n        /* \"#utility.yul\":1945:2064   */\n    tag_116:\n        /* \"#utility.yul\":2103:2104   */\n      0x00\n        /* \"#utility.yul\":2128:2179   */\n      tag_118\n        /* \"#utility.yul\":2171:2178   */\n      dup5\n        /* \"#utility.yul\":2162:2168   */\n      dup3\n        /* \"#utility.yul\":2151:2160   */\n      dup6\n        /* \"#utility.yul\":2147:2169   */\n      add\n        /* \"#utility.yul\":2128:2179   */\n      tag_82\n      jump\t// in\n    tag_118:\n        /* \"#utility.yul\":2118:2179   */\n      swap2\n      pop\n        /* \"#utility.yul\":2074:2189   */\n      pop\n        /* \"#utility.yul\":1871:2196   */\n      swap3\n      swap2\n      pop\n      pop\n      jump\t// out\n        /* \"#utility.yul\":2202:2382   */\n    tag_26:\n        /* \"#utility.yul\":2250:2327   */\n      0x4e487b7100000000000000000000000000000000000000000000000000000000\n        /* \"#utility.yul\":2247:2248   */\n      0x00\n        /* \"#utility.yul\":2240:2328   */\n      mstore\n        /* \"#utility.yul\":2347:2351   */\n      0x21\n        /* \"#utility.yul\":2344:2345   */\n      0x04\n        /* \"#utility.yul\":2337:2352   */\n      mstore\n        /* \"#utility.yul\":2371:2375   */\n      0x24\n        /* \"#utility.yul\":2368:2369   */\n      0x00\n        /* \"#utility.yul\":2361:2376   */\n      revert\n        /* \"#utility.yul\":2388:2501   */\n    tag_83:\n        /* \"#utility.yul\":2469:2470   */\n      0x04\n        /* \"#utility.yul\":2462:2467   */\n      dup2\n        /* \"#utility.yul\":2459:2471   */\n      lt\n        /* \"#utility.yul\":2449:2495   */\n      tag_121\n      jumpi\n        /* \"#utility.yul\":2475:2493   */\n      tag_122\n      tag_26\n      jump\t// in\n    tag_122:\n        /* \"#utility.yul\":2449:2495   */\n    tag_121:\n        /* \"#utility.yul\":2388:2501   */\n      pop\n      jump\t// out\n        /* \"#utility.yul\":2507:2634   */\n    tag_84:\n        /* \"#utility.yul\":2552:2559   */\n      0x00\n        /* \"#utility.yul\":2581:2586   */\n      dup2\n        /* \"#utility.yul\":2570:2586   */\n      swap1\n      pop\n        /* \"#utility.yul\":2587:2628   */\n      tag_124\n        /* \"#utility.yul\":2622:2627   */\n      dup3\n        /* \"#utility.yul\":2587:2628   */\n      tag_83\n      jump\t// in\n    tag_124:\n        /* \"#utility.yul\":2507:2634   */\n      swap2\n      swap1\n      pop\n      jump\t// out\n        /* \"#utility.yul\":2640:2767   */\n    tag_85:\n        /* \"#utility.yul\":2696:2705   */\n      0x00\n        /* \"#utility.yul\":2729:2761   */\n      tag_126\n        /* \"#utility.yul\":2755:2760   */\n      dup3\n        /* \"#utility.yul\":2729:2761   */\n      tag_84\n      jump\t// in\n    tag_126:\n        /* \"#utility.yul\":2716:2761   */\n      swap1\n      pop\n        /* \"#utility.yul\":2640:2767   */\n      swap2\n      swap1\n      pop\n      jump\t// out\n        /* \"#utility.yul\":2773:2916   */\n    tag_86:\n        /* \"#utility.yul\":2866:2909   */\n      tag_128\n        /* \"#utility.yul\":2903:2908   */\n      dup2\n        /* \"#utility.yul\":2866:2909   */\n      tag_85\n      jump\t// in\n    tag_128:\n        /* \"#utility.yul\":2861:2864   */\n      dup3\n        /* \"#utility.yul\":2854:2910   */\n      mstore\n        /* \"#utility.yul\":2773:2916   */\n      pop\n      pop\n      jump\t// out\n        /* \"#utility.yul\":2922:3156   */\n    tag_22:\n        /* \"#utility.yul\":3021:3025   */\n      0x00\n        /* \"#utility.yul\":3059:3061   */\n      0x20\n        /* \"#utility.yul\":3048:3057   */\n      dup3\n        /* \"#utility.yul\":3044:3062   */\n      add\n        /* \"#utility.yul\":3036:3062   */\n      swap1\n      pop\n        /* \"#utility.yul\":3072:3149   */\n      tag_130\n        /* \"#utility.yul\":3146:3147   */\n      0x00\n        /* \"#utility.yul\":3135:3144   */\n      dup4\n        /* \"#utility.yul\":3131:3148   */\n      add\n        /* \"#utility.yul\":3122:3128   */\n      dup5\n        /* \"#utility.yul\":3072:3149   */\n      tag_86\n      jump\t// in\n    tag_130:\n        /* \"#utility.yul\":2922:3156   */\n      swap3\n      swap2\n      pop\n      pop\n      jump\t// out\n        /* \"#utility.yul\":3162:3239   */\n    tag_87:\n        /* \"#utility.yul\":3199:3206   */\n      0x00\n        /* \"#utility.yul\":3228:3233   */\n      dup2\n        /* \"#utility.yul\":3217:3233   */\n      swap1\n      pop\n        /* \"#utility.yul\":3162:3239   */\n      swap2\n      swap1\n      pop\n      jump\t// out\n        /* \"#utility.yul\":3245:3425   */\n    tag_88:\n        /* \"#utility.yul\":3293:3370   */\n      0x4e487b7100000000000000000000000000000000000000000000000000000000\n        /* \"#utility.yul\":3290:3291   */\n      0x00\n        /* \"#utility.yul\":3283:3371   */\n      mstore\n        /* \"#utility.yul\":3390:3394   */\n      0x11\n        /* \"#utility.yul\":3387:3388   */\n      0x04\n        /* \"#utility.yul\":3380:3395   */\n      mstore\n        /* \"#utility.yul\":3414:3418   */\n      0x24\n        /* \"#utility.yul\":3411:3412   */\n      0x00\n        /* \"#utility.yul\":3404:3419   */\n      revert\n        /* \"#utility.yul\":3431:3622   */\n    tag_33:\n        /* \"#utility.yul\":3471:3474   */\n      0x00\n        /* \"#utility.yul\":3490:3510   */\n      tag_134\n        /* \"#utility.yul\":3508:3509   */\n      dup3\n        /* \"#utility.yul\":3490:3510   */\n      tag_87\n      jump\t// in\n    tag_134:\n        /* \"#utility.yul\":3485:3510   */\n      swap2\n      pop\n        /* \"#utility.yul\":3524:3544   */\n      tag_135\n        /* \"#utility.yul\":3542:3543   */\n      dup4\n        /* \"#utility.yul\":3524:3544   */\n      tag_87\n      jump\t// in\n    tag_135:\n        /* \"#utility.yul\":3519:3544   */\n      swap3\n      pop\n        /* \"#utility.yul\":3567:3568   */\n      dup3\n        /* \"#utility.yul\":3564:3565   */\n      dup3\n        /* \"#utility.yul\":3560:3569   */\n      add\n        /* \"#utility.yul\":3553:3569   */\n      swap1\n      pop\n        /* \"#utility.yul\":3588:3591   */\n      dup1\n        /* \"#utility.yul\":3585:3586   */\n      dup3\n        /* \"#utility.yul\":3582:3592   */\n      gt\n        /* \"#utility.yul\":3579:3615   */\n      iszero\n      tag_136\n      jumpi\n        /* \"#utility.yul\":3595:3613   */\n      tag_137\n      tag_88\n      jump\t// in\n    tag_137:\n        /* \"#utility.yul\":3579:3615   */\n    tag_136:\n        /* \"#utility.yul\":3431:3622   */\n      swap3\n      swap2\n      pop\n      pop\n      jump\t// out\n        /* \"#utility.yul\":3628:3808   */\n    tag_48:\n        /* \"#utility.yul\":3676:3753   */\n      0x4e487b7100000000000000000000000000000000000000000000000000000000\n        /* \"#utility.yul\":3673:3674   */\n      0x00\n        /* \"#utility.yul\":3666:3754   */\n      mstore\n        /* \"#utility.yul\":3773:3777   */\n      0x32\n        /* \"#utility.yul\":3770:3771   */\n      0x04\n        /* \"#utility.yul\":3763:3778   */\n      mstore\n        /* \"#utility.yul\":3797:3801   */\n      0x24\n        /* \"#utility.yul\":3794:3795   */\n      0x00\n        /* \"#utility.yul\":3787:3802   */\n      revert\n        /* \"#utility.yul\":3814:3981   */\n    tag_55:\n        /* \"#utility.yul\":3851:3854   */\n      0x00\n        /* \"#utility.yul\":3874:3896   */\n      tag_140\n        /* \"#utility.yul\":3890:3895   */\n      dup3\n        /* \"#utility.yul\":3874:3896   */\n      tag_79\n      jump\t// in\n    tag_140:\n        /* \"#utility.yul\":3865:3896   */\n      swap2\n      pop\n        /* \"#utility.yul\":3918:3922   */\n      0xff\n        /* \"#utility.yul\":3911:3916   */\n      dup3\n        /* \"#utility.yul\":3908:3923   */\n      sub\n        /* \"#utility.yul\":3905:3946   */\n      tag_141\n      jumpi\n        /* \"#utility.yul\":3926:3944   */\n      tag_142\n      tag_88\n      jump\t// in\n    tag_142:\n        /* \"#utility.yul\":3905:3946   */\n    tag_141:\n        /* \"#utility.yul\":3973:3974   */\n      0x01\n        /* \"#utility.yul\":3966:3971   */\n      dup3\n        /* \"#utility.yul\":3962:3975   */\n      add\n        /* \"#utility.yul\":3955:3975   */\n      swap1\n      pop\n        /* \"#utility.yul\":3814:3981   */\n      swap2\n      swap1\n      pop\n      jump\t// out\n\n    auxdata: 0xa264697066735822122087e57173c32d95edeb81bc0f4f727dc3b8f48b6de20852f8dd09c3bce963ec3664736f6c634300081e0033\n}\n",
				"bytecode": {
					"linkReferences": {},
					"object": "60806040525f5f5f6101000a81548160ff0219169083600381111561002757610026610190565b5b0217905550348015610037575f5ffd5b50604051610980380380610980833981810160405281019061005991906101f7565b335f60016101000a81548173ffffffffffffffffffffffffffffffffffffffff021916908373ffffffffffffffffffffffffffffffffffffffff160217905550600260015f5f60019054906101000a900473ffffffffffffffffffffffffffffffffffffffff1673ffffffffffffffffffffffffffffffffffffffff1673ffffffffffffffffffffffffffffffffffffffff1681526020019081526020015f205f01819055505f5f90505b8160ff1681101561015957600260405180602001604052805f815250908060018154018082558091505060019003905f5260205f20015f909190919091505f820151815f015550508080600101915050610104565b5060015f5f6101000a81548160ff0219169083600381111561017e5761017d610190565b5b02179055504260038190555050610222565b7f4e487b71000000000000000000000000000000000000000000000000000000005f52602160045260245ffd5b5f5ffd5b5f60ff82169050919050565b6101d6816101c1565b81146101e0575f5ffd5b50565b5f815190506101f1816101cd565b92915050565b5f6020828403121561020c5761020b6101bd565b5b5f610219848285016101e3565b91505092915050565b6107518061022f5f395ff3fe608060405234801561000f575f5ffd5b506004361061004a575f3560e01c80634420e4861461004e578063609ff1bd1461006a578063b3f98adc14610088578063c040e6b8146100a4575b5f5ffd5b6100686004803603810190610063919061051d565b6100c2565b005b61007261028a565b60405161007f9190610563565b60405180910390f35b6100a2600480360381019061009d91906105a6565b61034e565b005b6100ac6104ae565b6040516100b99190610644565b60405180910390f35b600160038111156100d6576100d56105d1565b5b5f5f9054906101000a900460ff1660038111156100f6576100f56105d1565b5b03610287575f60019054906101000a900473ffffffffffffffffffffffffffffffffffffffff1673ffffffffffffffffffffffffffffffffffffffff163373ffffffffffffffffffffffffffffffffffffffff161415806101a0575060015f8273ffffffffffffffffffffffffffffffffffffffff1673ffffffffffffffffffffffffffffffffffffffff1681526020019081526020015f206001015f9054906101000a900460ff165b610287576001805f8373ffffffffffffffffffffffffffffffffffffffff1673ffffffffffffffffffffffffffffffffffffffff1681526020019081526020015f205f01819055505f60015f8373ffffffffffffffffffffffffffffffffffffffff1673ffffffffffffffffffffffffffffffffffffffff1681526020019081526020015f206001015f6101000a81548160ff021916908315150217905550600a60035461024e9190610693565b4211156102865760025f5f6101000a81548160ff02191690836003811115610279576102786105d1565b5b0217905550426003819055505b5b50565b5f60038081111561029e5761029d6105d1565b5b5f5f9054906101000a900460ff1660038111156102be576102bd6105d1565b5b146102cb575f905061034b565b5f5f90505f5f90505b6002805490508160ff161015610348578160028260ff16815481106102fc576102fb6106c6565b5b905f5260205f20015f015411156103355760028160ff1681548110610324576103236106c6565b5b905f5260205f20015f015491508092505b8080610340906106f3565b9150506102d4565b50505b90565b60026003811115610362576103616105d1565b5b5f5f9054906101000a900460ff166003811115610382576103816105d1565b5b036104ab575f60015f3373ffffffffffffffffffffffffffffffffffffffff1673ffffffffffffffffffffffffffffffffffffffff1681526020019081526020015f209050806001015f9054906101000a900460ff16806103eb57506002805490508260ff1610155b156103f657506104ab565b6001816001015f6101000a81548160ff021916908315150217905550818160010160016101000a81548160ff021916908360ff160217905550805f015460028360ff168154811061044a576104496106c6565b5b905f5260205f20015f015f8282546104629190610693565b92505081905550600a6003546104789190610693565b4211156104a95760035f5f6101000a81548160ff021916908360038111156104a3576104a26105d1565b5b02179055505b505b50565b5f5f9054906101000a900460ff1681565b5f5ffd5b5f73ffffffffffffffffffffffffffffffffffffffff82169050919050565b5f6104ec826104c3565b9050919050565b6104fc816104e2565b8114610506575f5ffd5b50565b5f81359050610517816104f3565b92915050565b5f60208284031215610532576105316104bf565b5b5f61053f84828501610509565b91505092915050565b5f60ff82169050919050565b61055d81610548565b82525050565b5f6020820190506105765f830184610554565b92915050565b61058581610548565b811461058f575f5ffd5b50565b5f813590506105a08161057c565b92915050565b5f602082840312156105bb576105ba6104bf565b5b5f6105c884828501610592565b91505092915050565b7f4e487b71000000000000000000000000000000000000000000000000000000005f52602160045260245ffd5b6004811061060f5761060e6105d1565b5b50565b5f81905061061f826105fe565b919050565b5f61062e82610612565b9050919050565b61063e81610624565b82525050565b5f6020820190506106575f830184610635565b92915050565b5f819050919050565b7f4e487b71000000000000000000000000000000000000000000000000000000005f52601160045260245ffd5b5f61069d8261065d565b91506106a88361065d565b92508282019050808211156106c0576106bf610666565b5b92915050565b7f4e487b71000000000000000000000000000000000000000000000000000000005f52603260045260245ffd5b5f6106fd82610548565b915060ff82036107105761070f610666565b5b60018201905091905056fea264697066735822122087e57173c32d95edeb81bc0f4f727dc3b8f48b6de20852f8dd09c3bce963ec3664736f6c634300081e0033",
					"opcodes": "PUSH1 0x80 PUSH1 0x40 MSTORE PUSH0 PUSH0 PUSH0 PUSH2 0x100 EXP DUP2 SLOAD DUP2 PUSH1 0xFF MUL NOT AND SWAP1 DUP4 PUSH1 0x3 DUP2 GT ISZERO PUSH2 0x27 JUMPI PUSH2 0x26 PUSH2 0x190 JUMP JUMPDEST JUMPDEST MUL OR SWAP1 SSTORE POP CALLVALUE DUP1 ISZERO PUSH2 0x37 JUMPI PUSH0 PUSH0 REVERT JUMPDEST POP PUSH1 0x40 MLOAD PUSH2 0x980 CODESIZE SUB DUP1 PUSH2 0x980 DUP4 CODECOPY DUP2 DUP2 ADD PUSH1 0x40 MSTORE DUP2 ADD SWAP1 PUSH2 0x59 SWAP2 SWAP1 PUSH2 0x1F7 JUMP JUMPDEST CALLER PUSH0 PUSH1 0x1 PUSH2 0x100 EXP DUP2 SLOAD DUP2 PUSH20 0xFFFFFFFFFFFFFFFFFFFFFFFFFFFFFFFFFFFFFFFF MUL NOT AND SWAP1 DUP4 PUSH20 0xFFFFFFFFFFFFFFFFFFFFFFFFFFFFFFFFFFFFFFFF AND MUL OR SWAP1 SSTORE POP PUSH1 0x2 PUSH1 0x1 PUSH0 PUSH0 PUSH1 0x1 SWAP1 SLOAD SWAP1 PUSH2 0x100 EXP SWAP1 DIV PUSH20 0xFFFFFFFFFFFFFFFFFFFFFFFFFFFFFFFFFFFFFFFF AND PUSH20 0xFFFFFFFFFFFFFFFFFFFFFFFFFFFFFFFFFFFFFFFF AND PUSH20 0xFFFFFFFFFFFFFFFFFFFFFFFFFFFFFFFFFFFFFFFF AND DUP2 MSTORE PUSH1 0x20 ADD SWAP1 DUP2 MSTORE PUSH1 0x20 ADD PUSH0 KECCAK256 PUSH0 ADD DUP2 SWAP1 SSTORE POP PUSH0 PUSH0 SWAP1 POP JUMPDEST DUP2 PUSH1 0xFF AND DUP2 LT ISZERO PUSH2 0x159 JUMPI PUSH1 0x2 PUSH1 0x40 MLOAD DUP1 PUSH1 0x20 ADD PUSH1 0x40 MSTORE DUP1 PUSH0 DUP2 MSTORE POP SWAP1 DUP1 PUSH1 0x1 DUP2 SLOAD ADD DUP1 DUP3 SSTORE DUP1 SWAP2 POP POP PUSH1 0x1 SWAP1 SUB SWAP1 PUSH0 MSTORE PUSH1 0x20 PUSH0 KECCAK256 ADD PUSH0 SWAP1 SWAP2 SWAP1 SWAP2 SWAP1 SWAP2 POP PUSH0 DUP3 ADD MLOAD DUP2 PUSH0 ADD SSTORE POP POP DUP1 DUP1 PUSH1 0x1 ADD SWAP2 POP POP PUSH2 0x104 JUMP JUMPDEST POP PUSH1 0x1 PUSH0 PUSH0 PUSH2 0x100 EXP DUP2 SLOAD DUP2 PUSH1 0xFF MUL NOT AND SWAP1 DUP4 PUSH1 0x3 DUP2 GT ISZERO PUSH2 0x17E JUMPI PUSH2 0x17D PUSH2 0x190 JUMP JUMPDEST JUMPDEST MUL OR SWAP1 SSTORE POP TIMESTAMP PUSH1 0x3 DUP2 SWAP1 SSTORE POP POP PUSH2 0x222 JUMP JUMPDEST PUSH32 0x4E487B7100000000000000000000000000000000000000000000000000000000 PUSH0 MSTORE PUSH1 0x21 PUSH1 0x4 MSTORE PUSH1 0x24 PUSH0 REVERT JUMPDEST PUSH0 PUSH0 REVERT JUMPDEST PUSH0 PUSH1 0xFF DUP3 AND SWAP1 POP SWAP2 SWAP1 POP JUMP JUMPDEST PUSH2 0x1D6 DUP2 PUSH2 0x1C1 JUMP JUMPDEST DUP2 EQ PUSH2 0x1E0 JUMPI PUSH0 PUSH0 REVERT JUMPDEST POP JUMP JUMPDEST PUSH0 DUP2 MLOAD SWAP1 POP PUSH2 0x1F1 DUP2 PUSH2 0x1CD JUMP JUMPDEST SWAP3 SWAP2 POP POP JUMP JUMPDEST PUSH0 PUSH1 0x20 DUP3 DUP5 SUB SLT ISZERO PUSH2 0x20C JUMPI PUSH2 0x20B PUSH2 0x1BD JUMP JUMPDEST JUMPDEST PUSH0 PUSH2 0x219 DUP5 DUP3 DUP6 ADD PUSH2 0x1E3 JUMP JUMPDEST SWAP2 POP POP SWAP3 SWAP2 POP POP JUMP JUMPDEST PUSH2 0x751 DUP1 PUSH2 0x22F PUSH0 CODECOPY PUSH0 RETURN INVALID PUSH1 0x80 PUSH1 0x40 MSTORE CALLVALUE DUP1 ISZERO PUSH2 0xF JUMPI PUSH0 PUSH0 REVERT JUMPDEST POP PUSH1 0x4 CALLDATASIZE LT PUSH2 0x4A JUMPI PUSH0 CALLDATALOAD PUSH1 0xE0 SHR DUP1 PUSH4 0x4420E486 EQ PUSH2 0x4E JUMPI DUP1 PUSH4 0x609FF1BD EQ PUSH2 0x6A JUMPI DUP1 PUSH4 0xB3F98ADC EQ PUSH2 0x88 JUMPI DUP1 PUSH4 0xC040E6B8 EQ PUSH2 0xA4 JUMPI JUMPDEST PUSH0 PUSH0 REVERT JUMPDEST PUSH2 0x68 PUSH1 0x4 DUP1 CALLDATASIZE SUB DUP2 ADD SWAP1 PUSH2 0x63 SWAP2 SWAP1 PUSH2 0x51D JUMP JUMPDEST PUSH2 0xC2 JUMP JUMPDEST STOP JUMPDEST PUSH2 0x72 PUSH2 0x28A JUMP JUMPDEST PUSH1 0x40 MLOAD PUSH2 0x7F SWAP2 SWAP1 PUSH2 0x563 JUMP JUMPDEST PUSH1 0x40 MLOAD DUP1 SWAP2 SUB SWAP1 RETURN JUMPDEST PUSH2 0xA2 PUSH1 0x4 DUP1 CALLDATASIZE SUB DUP2 ADD SWAP1 PUSH2 0x9D SWAP2 SWAP1 PUSH2 0x5A6 JUMP JUMPDEST PUSH2 0x34E JUMP JUMPDEST STOP JUMPDEST PUSH2 0xAC PUSH2 0x4AE JUMP JUMPDEST PUSH1 0x40 MLOAD PUSH2 0xB9 SWAP2 SWAP1 PUSH2 0x644 JUMP JUMPDEST PUSH1 0x40 MLOAD DUP1 SWAP2 SUB SWAP1 RETURN JUMPDEST PUSH1 0x1 PUSH1 0x3 DUP2 GT ISZERO PUSH2 0xD6 JUMPI PUSH2 0xD5 PUSH2 0x5D1 JUMP JUMPDEST JUMPDEST PUSH0 PUSH0 SWAP1 SLOAD SWAP1 PUSH2 0x100 EXP SWAP1 DIV PUSH1 0xFF AND PUSH1 0x3 DUP2 GT ISZERO PUSH2 0xF6 JUMPI PUSH2 0xF5 PUSH2 0x5D1 JUMP JUMPDEST JUMPDEST SUB PUSH2 0x287 JUMPI PUSH0 PUSH1 0x1 SWAP1 SLOAD SWAP1 PUSH2 0x100 EXP SWAP1 DIV PUSH20 0xFFFFFFFFFFFFFFFFFFFFFFFFFFFFFFFFFFFFFFFF AND PUSH20 0xFFFFFFFFFFFFFFFFFFFFFFFFFFFFFFFFFFFFFFFF AND CALLER PUSH20 0xFFFFFFFFFFFFFFFFFFFFFFFFFFFFFFFFFFFFFFFF AND EQ ISZERO DUP1 PUSH2 0x1A0 JUMPI POP PUSH1 0x1 PUSH0 DUP3 PUSH20 0xFFFFFFFFFFFFFFFFFFFFFFFFFFFFFFFFFFFFFFFF AND PUSH20 0xFFFFFFFFFFFFFFFFFFFFFFFFFFFFFFFFFFFFFFFF AND DUP2 MSTORE PUSH1 0x20 ADD SWAP1 DUP2 MSTORE PUSH1 0x20 ADD PUSH0 KECCAK256 PUSH1 0x1 ADD PUSH0 SWAP1 SLOAD SWAP1 PUSH2 0x100 EXP SWAP1 DIV PUSH1 0xFF AND JUMPDEST PUSH2 0x287 JUMPI PUSH1 0x1 DUP1 PUSH0 DUP4 PUSH20 0xFFFFFFFFFFFFFFFFFFFFFFFFFFFFFFFFFFFFFFFF AND PUSH20 0xFFFFFFFFFFFFFFFFFFFFFFFFFFFFFFFFFFFFFFFF AND DUP2 MSTORE PUSH1 0x20 ADD SWAP1 DUP2 MSTORE PUSH1 0x20 ADD PUSH0 KECCAK256 PUSH0 ADD DUP2 SWAP1 SSTORE POP PUSH0 PUSH1 0x1 PUSH0 DUP4 PUSH20 0xFFFFFFFFFFFFFFFFFFFFFFFFFFFFFFFFFFFFFFFF AND PUSH20 0xFFFFFFFFFFFFFFFFFFFFFFFFFFFFFFFFFFFFFFFF AND DUP2 MSTORE PUSH1 0x20 ADD SWAP1 DUP2 MSTORE PUSH1 0x20 ADD PUSH0 KECCAK256 PUSH1 0x1 ADD PUSH0 PUSH2 0x100 EXP DUP2 SLOAD DUP2 PUSH1 0xFF MUL NOT AND SWAP1 DUP4 ISZERO ISZERO MUL OR SWAP1 SSTORE POP PUSH1 0xA PUSH1 0x3 SLOAD PUSH2 0x24E SWAP2 SWAP1 PUSH2 0x693 JUMP JUMPDEST TIMESTAMP GT ISZERO PUSH2 0x286 JUMPI PUSH1 0x2 PUSH0 PUSH0 PUSH2 0x100 EXP DUP2 SLOAD DUP2 PUSH1 0xFF MUL NOT AND SWAP1 DUP4 PUSH1 0x3 DUP2 GT ISZERO PUSH2 0x279 JUMPI PUSH2 0x278 PUSH2 0x5D1 JUMP JUMPDEST JUMPDEST MUL OR SWAP1 SSTORE POP TIMESTAMP PUSH1 0x3 DUP2 SWAP1 SSTORE POP JUMPDEST JUMPDEST POP JUMP JUMPDEST PUSH0 PUSH1 0x3 DUP1 DUP2 GT ISZERO PUSH2 0x29E JUMPI PUSH2 0x29D PUSH2 0x5D1 JUMP JUMPDEST JUMPDEST PUSH0 PUSH0 SWAP1 SLOAD SWAP1 PUSH2 0x100 EXP SWAP1 DIV PUSH1 0xFF AND PUSH1 0x3 DUP2 GT ISZERO PUSH2 0x2BE JUMPI PUSH2 0x2BD PUSH2 0x5D1 JUMP JUMPDEST JUMPDEST EQ PUSH2 0x2CB JUMPI PUSH0 SWAP1 POP PUSH2 0x34B JUMP JUMPDEST PUSH0 PUSH0 SWAP1 POP PUSH0 PUSH0 SWAP1 POP JUMPDEST PUSH1 0x2 DUP1 SLOAD SWAP1 POP DUP2 PUSH1 0xFF AND LT ISZERO PUSH2 0x348 JUMPI DUP2 PUSH1 0x2 DUP3 PUSH1 0xFF AND DUP2 SLOAD DUP2 LT PUSH2 0x2FC JUMPI PUSH2 0x2FB PUSH2 0x6C6 JUMP JUMPDEST JUMPDEST SWAP1 PUSH0 MSTORE PUSH1 0x20 PUSH0 KECCAK256 ADD PUSH0 ADD SLOAD GT ISZERO PUSH2 0x335 JUMPI PUSH1 0x2 DUP2 PUSH1 0xFF AND DUP2 SLOAD DUP2 LT PUSH2 0x324 JUMPI PUSH2 0x323 PUSH2 0x6C6 JUMP JUMPDEST JUMPDEST SWAP1 PUSH0 MSTORE PUSH1 0x20 PUSH0 KECCAK256 ADD PUSH0 ADD SLOAD SWAP2 POP DUP1 SWAP3 POP JUMPDEST DUP1 DUP1 PUSH2 0x340 SWAP1 PUSH2 0x6F3 JUMP JUMPDEST SWAP2 POP POP PUSH2 0x2D4 JUMP JUMPDEST POP POP JUMPDEST SWAP1 JUMP JUMPDEST PUSH1 0x2 PUSH1 0x3 DUP2 GT ISZERO PUSH2 0x362 JUMPI PUSH2 0x361 PUSH2 0x5D1 JUMP JUMPDEST JUMPDEST PUSH0 PUSH0 SWAP1 SLOAD SWAP1 PUSH2 0x100 EXP SWAP1 DIV PUSH1 0xFF AND PUSH1 0x3 DUP2 GT ISZERO PUSH2 0x382 JUMPI PUSH2 0x381 PUSH2 0x5D1 JUMP JUMPDEST JUMPDEST SUB PUSH2 0x4AB JUMPI PUSH0 PUSH1 0x1 PUSH0 CALLER PUSH20 0xFFFFFFFFFFFFFFFFFFFFFFFFFFFFFFFFFFFFFFFF AND PUSH20 0xFFFFFFFFFFFFFFFFFFFFFFFFFFFFFFFFFFFFFFFF AND DUP2 MSTORE PUSH1 0x20 ADD SWAP1 DUP2 MSTORE PUSH1 0x20 ADD PUSH0 KECCAK256 SWAP1 POP DUP1 PUSH1 0x1 ADD PUSH0 SWAP1 SLOAD SWAP1 PUSH2 0x100 EXP SWAP1 DIV PUSH1 0xFF AND DUP1 PUSH2 0x3EB JUMPI POP PUSH1 0x2 DUP1 SLOAD SWAP1 POP DUP3 PUSH1 0xFF AND LT ISZERO JUMPDEST ISZERO PUSH2 0x3F6 JUMPI POP PUSH2 0x4AB JUMP JUMPDEST PUSH1 0x1 DUP2 PUSH1 0x1 ADD PUSH0 PUSH2 0x100 EXP DUP2 SLOAD DUP2 PUSH1 0xFF MUL NOT AND SWAP1 DUP4 ISZERO ISZERO MUL OR SWAP1 SSTORE POP DUP2 DUP2 PUSH1 0x1 ADD PUSH1 0x1 PUSH2 0x100 EXP DUP2 SLOAD DUP2 PUSH1 0xFF MUL NOT AND SWAP1 DUP4 PUSH1 0xFF AND MUL OR SWAP1 SSTORE POP DUP1 PUSH0 ADD SLOAD PUSH1 0x2 DUP4 PUSH1 0xFF AND DUP2 SLOAD DUP2 LT PUSH2 0x44A JUMPI PUSH2 0x449 PUSH2 0x6C6 JUMP JUMPDEST JUMPDEST SWAP1 PUSH0 MSTORE PUSH1 0x20 PUSH0 KECCAK256 ADD PUSH0 ADD PUSH0 DUP3 DUP3 SLOAD PUSH2 0x462 SWAP2 SWAP1 PUSH2 0x693 JUMP JUMPDEST SWAP3 POP POP DUP2 SWAP1 SSTORE POP PUSH1 0xA PUSH1 0x3 SLOAD PUSH2 0x478 SWAP2 SWAP1 PUSH2 0x693 JUMP JUMPDEST TIMESTAMP GT ISZERO PUSH2 0x4A9 JUMPI PUSH1 0x3 PUSH0 PUSH0 PUSH2 0x100 EXP DUP2 SLOAD DUP2 PUSH1 0xFF MUL NOT AND SWAP1 DUP4 PUSH1 0x3 DUP2 GT ISZERO PUSH2 0x4A3 JUMPI PUSH2 0x4A2 PUSH2 0x5D1 JUMP JUMPDEST JUMPDEST MUL OR SWAP1 SSTORE POP JUMPDEST POP JUMPDEST POP JUMP JUMPDEST PUSH0 PUSH0 SWAP1 SLOAD SWAP1 PUSH2 0x100 EXP SWAP1 DIV PUSH1 0xFF AND DUP2 JUMP JUMPDEST PUSH0 PUSH0 REVERT JUMPDEST PUSH0 PUSH20 0xFFFFFFFFFFFFFFFFFFFFFFFFFFFFFFFFFFFFFFFF DUP3 AND SWAP1 POP SWAP2 SWAP1 POP JUMP JUMPDEST PUSH0 PUSH2 0x4EC DUP3 PUSH2 0x4C3 JUMP JUMPDEST SWAP1 POP SWAP2 SWAP1 POP JUMP JUMPDEST PUSH2 0x4FC DUP2 PUSH2 0x4E2 JUMP JUMPDEST DUP2 EQ PUSH2 0x506 JUMPI PUSH0 PUSH0 REVERT JUMPDEST POP JUMP JUMPDEST PUSH0 DUP2 CALLDATALOAD SWAP1 POP PUSH2 0x517 DUP2 PUSH2 0x4F3 JUMP JUMPDEST SWAP3 SWAP2 POP POP JUMP JUMPDEST PUSH0 PUSH1 0x20 DUP3 DUP5 SUB SLT ISZERO PUSH2 0x532 JUMPI PUSH2 0x531 PUSH2 0x4BF JUMP JUMPDEST JUMPDEST PUSH0 PUSH2 0x53F DUP5 DUP3 DUP6 ADD PUSH2 0x509 JUMP JUMPDEST SWAP2 POP POP SWAP3 SWAP2 POP POP JUMP JUMPDEST PUSH0 PUSH1 0xFF DUP3 AND SWAP1 POP SWAP2 SWAP1 POP JUMP JUMPDEST PUSH2 0x55D DUP2 PUSH2 0x548 JUMP JUMPDEST DUP3 MSTORE POP POP JUMP JUMPDEST PUSH0 PUSH1 0x20 DUP3 ADD SWAP1 POP PUSH2 0x576 PUSH0 DUP4 ADD DUP5 PUSH2 0x554 JUMP JUMPDEST SWAP3 SWAP2 POP POP JUMP JUMPDEST PUSH2 0x585 DUP2 PUSH2 0x548 JUMP JUMPDEST DUP2 EQ PUSH2 0x58F JUMPI PUSH0 PUSH0 REVERT JUMPDEST POP JUMP JUMPDEST PUSH0 DUP2 CALLDATALOAD SWAP1 POP PUSH2 0x5A0 DUP2 PUSH2 0x57C JUMP JUMPDEST SWAP3 SWAP2 POP POP JUMP JUMPDEST PUSH0 PUSH1 0x20 DUP3 DUP5 SUB SLT ISZERO PUSH2 0x5BB JUMPI PUSH2 0x5BA PUSH2 0x4BF JUMP JUMPDEST JUMPDEST PUSH0 PUSH2 0x5C8 DUP5 DUP3 DUP6 ADD PUSH2 0x592 JUMP JUMPDEST SWAP2 POP POP SWAP3 SWAP2 POP POP JUMP JUMPDEST PUSH32 0x4E487B7100000000000000000000000000000000000000000000000000000000 PUSH0 MSTORE PUSH1 0x21 PUSH1 0x4 MSTORE PUSH1 0x24 PUSH0 REVERT JUMPDEST PUSH1 0x4 DUP2 LT PUSH2 0x60F JUMPI PUSH2 0x60E PUSH2 0x5D1 JUMP JUMPDEST JUMPDEST POP JUMP JUMPDEST PUSH0 DUP2 SWAP1 POP PUSH2 0x61F DUP3 PUSH2 0x5FE JUMP JUMPDEST SWAP2 SWAP1 POP JUMP JUMPDEST PUSH0 PUSH2 0x62E DUP3 PUSH2 0x612 JUMP JUMPDEST SWAP1 POP SWAP2 SWAP1 POP JUMP JUMPDEST PUSH2 0x63E DUP2 PUSH2 0x624 JUMP JUMPDEST DUP3 MSTORE POP POP JUMP JUMPDEST PUSH0 PUSH1 0x20 DUP3 ADD SWAP1 POP PUSH2 0x657 PUSH0 DUP4 ADD DUP5 PUSH2 0x635 JUMP JUMPDEST SWAP3 SWAP2 POP POP JUMP JUMPDEST PUSH0 DUP2 SWAP1 POP SWAP2 SWAP1 POP JUMP JUMPDEST PUSH32 0x4E487B7100000000000000000000000000000000000000000000000000000000 PUSH0 MSTORE PUSH1 0x11 PUSH1 0x4 MSTORE PUSH1 0x24 PUSH0 REVERT JUMPDEST PUSH0 PUSH2 0x69D DUP3 PUSH2 0x65D JUMP JUMPDEST SWAP2 POP PUSH2 0x6A8 DUP4 PUSH2 0x65D JUMP JUMPDEST SWAP3 POP DUP3 DUP3 ADD SWAP1 POP DUP1 DUP3 GT ISZERO PUSH2 0x6C0 JUMPI PUSH2 0x6BF PUSH2 0x666 JUMP JUMPDEST JUMPDEST SWAP3 SWAP2 POP POP JUMP JUMPDEST PUSH32 0x4E487B7100000000000000000000000000000000000000000000000000000000 PUSH0 MSTORE PUSH1 0x32 PUSH1 0x4 MSTORE PUSH1 0x24 PUSH0 REVERT JUMPDEST PUSH0 PUSH2 0x6FD DUP3 PUSH2 0x548 JUMP JUMPDEST SWAP2 POP PUSH1 0xFF DUP3 SUB PUSH2 0x710 JUMPI PUSH2 0x70F PUSH2 0x666 JUMP JUMPDEST JUMPDEST PUSH1 0x1 DUP3 ADD SWAP1 POP SWAP2 SWAP1 POP JUMP INVALID LOG2 PUSH5 0x6970667358 0x22 SLT KECCAK256 DUP8 JUMPF 0x7173 0xC3 0x2D SWAP6 0xED 0xEB DUP2 0xBC 0xF 0x4F PUSH19 0x7DC3B8F48B6DE20852F8DD09C3BCE963EC3664 PUSH20 0x6F6C634300081E00330000000000000000000000 "
				},
				"gasEstimates": {
					"creation": {
						"codeDepositCost": "374600",
						"executionCost": "infinite",
						"totalCost": "infinite"
					},
					"external": {
						"register(address)": "infinite",
						"stage()": "2597",
						"vote(uint8)": "infinite",
						"winningProposal()": "infinite"
					}
				},
				"methodIdentifiers": {
					"register(address)": "4420e486",
					"stage()": "c040e6b8",
					"vote(uint8)": "b3f98adc",
					"winningProposal()": "609ff1bd"
				}
			},
			"storageLayout": {
				"storage": [
					{
						"astId": 21,
						"contract": "contracts/M0fNwkTQEeigbgqkS_SCag_3381c8b044d011e893d9db16d507b83b_BallotWithStages.sol:Ballot",
						"label": "stage",
						"offset": 0,
						"slot": "0",
						"type": "t_enum(Stage)16"
					},
					{
						"astId": 23,
						"contract": "contracts/M0fNwkTQEeigbgqkS_SCag_3381c8b044d011e893d9db16d507b83b_BallotWithStages.sol:Ballot",
						"label": "chairperson",
						"offset": 1,
						"slot": "0",
						"type": "t_address"
					},
					{
						"astId": 28,
						"contract": "contracts/M0fNwkTQEeigbgqkS_SCag_3381c8b044d011e893d9db16d507b83b_BallotWithStages.sol:Ballot",
						"label": "voters",
						"offset": 0,
						"slot": "1",
						"type": "t_mapping(t_address,t_struct(Voter)8_storage)"
					},
					{
						"astId": 32,
						"contract": "contracts/M0fNwkTQEeigbgqkS_SCag_3381c8b044d011e893d9db16d507b83b_BallotWithStages.sol:Ballot",
						"label": "proposals",
						"offset": 0,
						"slot": "2",
						"type": "t_array(t_struct(Proposal)11_storage)dyn_storage"
					},
					{
						"astId": 34,
						"contract": "contracts/M0fNwkTQEeigbgqkS_SCag_3381c8b044d011e893d9db16d507b83b_BallotWithStages.sol:Ballot",
						"label": "startTime",
						"offset": 0,
						"slot": "3",
						"type": "t_uint256"
					}
				],
				"types": {
					"t_address": {
						"encoding": "inplace",
						"label": "address",
						"numberOfBytes": "20"
					},
					"t_array(t_struct(Proposal)11_storage)dyn_storage": {
						"base": "t_struct(Proposal)11_storage",
						"encoding": "dynamic_array",
						"label": "struct Ballot.Proposal[]",
						"numberOfBytes": "32"
					},
					"t_bool": {
						"encoding": "inplace",
						"label": "bool",
						"numberOfBytes": "1"
					},
					"t_enum(Stage)16": {
						"encoding": "inplace",
						"label": "enum Ballot.Stage",
						"numberOfBytes": "1"
					},
					"t_mapping(t_address,t_struct(Voter)8_storage)": {
						"encoding": "mapping",
						"key": "t_address",
						"label": "mapping(address => struct Ballot.Voter)",
						"numberOfBytes": "32",
						"value": "t_struct(Voter)8_storage"
					},
					"t_struct(Proposal)11_storage": {
						"encoding": "inplace",
						"label": "struct Ballot.Proposal",
						"members": [
							{
								"astId": 10,
								"contract": "contracts/M0fNwkTQEeigbgqkS_SCag_3381c8b044d011e893d9db16d507b83b_BallotWithStages.sol:Ballot",
								"label": "voteCount",
								"offset": 0,
								"slot": "0",
								"type": "t_uint256"
							}
						],
						"numberOfBytes": "32"
					},
					"t_struct(Voter)8_storage": {
						"encoding": "inplace",
						"label": "struct Ballot.Voter",
						"members": [
							{
								"astId": 3,
								"contract": "contracts/M0fNwkTQEeigbgqkS_SCag_3381c8b044d011e893d9db16d507b83b_BallotWithStages.sol:Ballot",
								"label": "weight",
								"offset": 0,
								"slot": "0",
								"type": "t_uint256"
							},
							{
								"astId": 5,
								"contract": "contracts/M0fNwkTQEeigbgqkS_SCag_3381c8b044d011e893d9db16d507b83b_BallotWithStages.sol:Ballot",
								"label": "voted",
								"offset": 0,
								"slot": "1",
								"type": "t_bool"
							},
							{
								"astId": 7,
								"contract": "contracts/M0fNwkTQEeigbgqkS_SCag_3381c8b044d011e893d9db16d507b83b_BallotWithStages.sol:Ballot",
								"label": "vote",
								"offset": 1,
								"slot": "1",
								"type": "t_uint8"
							}
						],
						"numberOfBytes": "64"
					},
					"t_uint256": {
						"encoding": "inplace",
						"label": "uint256",
						"numberOfBytes": "32"
					},
					"t_uint8": {
						"encoding": "inplace",
						"label": "uint8",
						"numberOfBytes": "1"
					}
				}
			},
			"userdoc": {
				"kind": "user",
				"methods": {
					"constructor": {
						"notice": "Create a new ballot with $(_numProposals) different proposals."
					},
					"register(address)": {
						"notice": "Give $(toVoter) the right to vote on this ballot. May only be called by $(chairperson)."
					},
					"vote(uint8)": {
						"notice": "Give a single vote to proposal $(toProposal)."
					}
				},
				"version": 1
			}
		}
	}
}