{
	"contracts/cDjwOUThEeigbgqkS_SCag_704ff9e044e111e8894077d0de49d9cb_BallotWithModifier.sol": {
		"Ballot": {
			"abi": [
				{
					"inputs": [
						{
							"internalType": "uint8",
							"name": "_numProposals",
							"type": "uint8"
						}
					],
					"stateMutability": "nonpayable",
					"type": "constructor"
				},
				{
					"anonymous": false,
					"inputs": [],
					"name": "votingCompleted",
					"type": "event"
				},
				{
					"inputs": [
						{
							"internalType": "address",
							"name": "toVoter",
							"type": "address"
						}
					],
					"name": "register",
					"outputs": [],
					"stateMutability": "nonpayable",
					"type": "function"
				},
				{
					"inputs": [],
					"name": "stage",
					"outputs": [
						{
							"internalType": "enum Ballot.Stage",
							"name": "",
							"type": "uint8"
						}
					],
					"stateMutability": "view",
					"type": "function"
				},
				{
					"inputs": [
						{
							"internalType": "uint8",
							"name": "toProposal",
							"type": "uint8"
						}
					],
					"name": "vote",
					"outputs": [],
					"stateMutability": "nonpayable",
					"type": "function"
				},
				{
					"inputs": [],
					"name": "winningProposal",
					"outputs": [
						{
							"internalType": "uint8",
							"name": "_winningProposal",
							"type": "uint8"
						}
					],
					"stateMutability": "view",
					"type": "function"
				}
			],
			"devdoc": {
				"kind": "dev",
				"methods": {},
				"version": 1
			},
			"evm": {
				"assembly": "    /* \"contracts/cDjwOUThEeigbgqkS_SCag_704ff9e044e111e8894077d0de49d9cb_BallotWithModifier.sol\":74:2567  contract Ballot {... */\n  mstore(0x40, 0x80)\n    /* \"contracts/cDjwOUThEeigbgqkS_SCag_704ff9e044e111e8894077d0de49d9cb_BallotWithModifier.sol\":332:342  Stage.Init */\n  0x00\n    /* \"contracts/cDjwOUThEeigbgqkS_SCag_704ff9e044e111e8894077d0de49d9cb_BallotWithModifier.sol\":311:342  Stage public stage = Stage.Init */\n  0x00\n  exp(0x0100, 0x00)\n  dup2\n  sload\n  dup2\n  0xff\n  mul\n  not\n  and\n  swap1\n  dup4\n  0x03\n  dup2\n  gt\n  iszero\n  tag_1\n  jumpi\n  tag_2\n  tag_3\n  jump\t// in\ntag_2:\ntag_1:\n  mul\n  or\n  swap1\n  sstore\n  pop\n    /* \"contracts/cDjwOUThEeigbgqkS_SCag_704ff9e044e111e8894077d0de49d9cb_BallotWithModifier.sol\":691:1065  constructor(uint8 _numProposals)  {... */\n  callvalue\n  dup1\n  iszero\n  tag_4\n  jumpi\n  revert(0x00, 0x00)\ntag_4:\n  pop\n  mload(0x40)\n  sub(codesize, bytecodeSize)\n  dup1\n  bytecodeSize\n  dup4\n  codecopy\n  dup2\n  dup2\n  add\n  0x40\n  mstore\n  dup2\n  add\n  swap1\n  tag_5\n  swap2\n  swap1\n  tag_6\n  jump\t// in\ntag_5:\n    /* \"contracts/cDjwOUThEeigbgqkS_SCag_704ff9e044e111e8894077d0de49d9cb_BallotWithModifier.sol\":750:760  msg.sender */\n  caller\n    /* \"contracts/cDjwOUThEeigbgqkS_SCag_704ff9e044e111e8894077d0de49d9cb_BallotWithModifier.sol\":736:747  chairperson */\n  0x00\n  0x01\n    /* \"contracts/cDjwOUThEeigbgqkS_SCag_704ff9e044e111e8894077d0de49d9cb_BallotWithModifier.sol\":736:760  chairperson = msg.sender */\n  0x0100\n  exp\n  dup2\n  sload\n  dup2\n  0xffffffffffffffffffffffffffffffffffffffff\n  mul\n  not\n  and\n  swap1\n  dup4\n  0xffffffffffffffffffffffffffffffffffffffff\n  and\n  mul\n  or\n  swap1\n  sstore\n  pop\n    /* \"contracts/cDjwOUThEeigbgqkS_SCag_704ff9e044e111e8894077d0de49d9cb_BallotWithModifier.sol\":800:801  2 */\n  0x02\n    /* \"contracts/cDjwOUThEeigbgqkS_SCag_704ff9e044e111e8894077d0de49d9cb_BallotWithModifier.sol\":771:777  voters */\n  0x01\n    /* \"contracts/cDjwOUThEeigbgqkS_SCag_704ff9e044e111e8894077d0de49d9cb_BallotWithModifier.sol\":771:790  voters[chairperson] */\n  0x00\n    /* \"contracts/cDjwOUThEeigbgqkS_SCag_704ff9e044e111e8894077d0de49d9cb_BallotWithModifier.sol\":778:789  chairperson */\n  0x00\n  0x01\n  swap1\n  sload\n  swap1\n  0x0100\n  exp\n  swap1\n  div\n  0xffffffffffffffffffffffffffffffffffffffff\n  and\n    /* \"contracts/cDjwOUThEeigbgqkS_SCag_704ff9e044e111e8894077d0de49d9cb_BallotWithModifier.sol\":771:790  voters[chairperson] */\n  0xffffffffffffffffffffffffffffffffffffffff\n  and\n  0xffffffffffffffffffffffffffffffffffffffff\n  and\n  dup2\n  mstore\n  0x20\n  add\n  swap1\n  dup2\n  mstore\n  0x20\n  add\n  0x00\n  keccak256\n    /* \"contracts/cDjwOUThEeigbgqkS_SCag_704ff9e044e111e8894077d0de49d9cb_BallotWithModifier.sol\":771:797  voters[chairperson].weight */\n  0x00\n  add\n    /* \"contracts/cDjwOUThEeigbgqkS_SCag_704ff9e044e111e8894077d0de49d9cb_BallotWithModifier.sol\":771:801  voters[chairperson].weight = 2 */\n  dup2\n  swap1\n  sstore\n  pop\n    /* \"contracts/cDjwOUThEeigbgqkS_SCag_704ff9e044e111e8894077d0de49d9cb_BallotWithModifier.sol\":853:859  uint i */\n  0x00\n    /* \"contracts/cDjwOUThEeigbgqkS_SCag_704ff9e044e111e8894077d0de49d9cb_BallotWithModifier.sol\":862:863  0 */\n  0x00\n    /* \"contracts/cDjwOUThEeigbgqkS_SCag_704ff9e044e111e8894077d0de49d9cb_BallotWithModifier.sol\":853:863  uint i = 0 */\n  swap1\n  pop\n    /* \"contracts/cDjwOUThEeigbgqkS_SCag_704ff9e044e111e8894077d0de49d9cb_BallotWithModifier.sol\":848:992  for (uint i = 0; i < _numProposals; i++) {... */\ntag_9:\n    /* \"contracts/cDjwOUThEeigbgqkS_SCag_704ff9e044e111e8894077d0de49d9cb_BallotWithModifier.sol\":869:882  _numProposals */\n  dup2\n    /* \"contracts/cDjwOUThEeigbgqkS_SCag_704ff9e044e111e8894077d0de49d9cb_BallotWithModifier.sol\":865:882  i < _numProposals */\n  0xff\n  and\n    /* \"contracts/cDjwOUThEeigbgqkS_SCag_704ff9e044e111e8894077d0de49d9cb_BallotWithModifier.sol\":865:866  i */\n  dup2\n    /* \"contracts/cDjwOUThEeigbgqkS_SCag_704ff9e044e111e8894077d0de49d9cb_BallotWithModifier.sol\":865:882  i < _numProposals */\n  lt\n    /* \"contracts/cDjwOUThEeigbgqkS_SCag_704ff9e044e111e8894077d0de49d9cb_BallotWithModifier.sol\":848:992  for (uint i = 0; i < _numProposals; i++) {... */\n  iszero\n  tag_10\n  jumpi\n    /* \"contracts/cDjwOUThEeigbgqkS_SCag_704ff9e044e111e8894077d0de49d9cb_BallotWithModifier.sol\":904:913  proposals */\n  0x02\n    /* \"contracts/cDjwOUThEeigbgqkS_SCag_704ff9e044e111e8894077d0de49d9cb_BallotWithModifier.sol\":919:979  Proposal({... */\n  mload(0x40)\n  dup1\n  0x20\n  add\n  0x40\n  mstore\n  dup1\n    /* \"contracts/cDjwOUThEeigbgqkS_SCag_704ff9e044e111e8894077d0de49d9cb_BallotWithModifier.sol\":962:963  0 */\n  0x00\n    /* \"contracts/cDjwOUThEeigbgqkS_SCag_704ff9e044e111e8894077d0de49d9cb_BallotWithModifier.sol\":919:979  Proposal({... */\n  dup2\n  mstore\n  pop\n    /* \"contracts/cDjwOUThEeigbgqkS_SCag_704ff9e044e111e8894077d0de49d9cb_BallotWithModifier.sol\":904:980  proposals.push(Proposal({... */\n  swap1\n  dup1\n  0x01\n  dup2\n  sload\n  add\n  dup1\n  dup3\n  sstore\n  dup1\n  swap2\n  pop\n  pop\n  0x01\n  swap1\n  sub\n  swap1\n  0x00\n  mstore\n  keccak256(0x00, 0x20)\n  add\n  0x00\n  swap1\n  swap2\n  swap1\n  swap2\n  swap1\n  swap2\n  pop\n  0x00\n  dup3\n  add\n  mload\n  dup2\n  0x00\n  add\n  sstore\n  pop\n  pop\n    /* \"contracts/cDjwOUThEeigbgqkS_SCag_704ff9e044e111e8894077d0de49d9cb_BallotWithModifier.sol\":884:887  i++ */\n  dup1\n  dup1\n  0x01\n  add\n  swap2\n  pop\n  pop\n    /* \"contracts/cDjwOUThEeigbgqkS_SCag_704ff9e044e111e8894077d0de49d9cb_BallotWithModifier.sol\":848:992  for (uint i = 0; i < _numProposals; i++) {... */\n  jump(tag_9)\ntag_10:\n  pop\n    /* \"contracts/cDjwOUThEeigbgqkS_SCag_704ff9e044e111e8894077d0de49d9cb_BallotWithModifier.sol\":1010:1019  Stage.Reg */\n  0x01\n    /* \"contracts/cDjwOUThEeigbgqkS_SCag_704ff9e044e111e8894077d0de49d9cb_BallotWithModifier.sol\":1002:1007  stage */\n  0x00\n  0x00\n    /* \"contracts/cDjwOUThEeigbgqkS_SCag_704ff9e044e111e8894077d0de49d9cb_BallotWithModifier.sol\":1002:1019  stage = Stage.Reg */\n  0x0100\n  exp\n  dup2\n  sload\n  dup2\n  0xff\n  mul\n  not\n  and\n  swap1\n  dup4\n  0x03\n  dup2\n  gt\n  iszero\n  tag_13\n  jumpi\n  tag_14\n  tag_3\n  jump\t// in\ntag_14:\ntag_13:\n  mul\n  or\n  swap1\n  sstore\n  pop\n    /* \"contracts/cDjwOUThEeigbgqkS_SCag_704ff9e044e111e8894077d0de49d9cb_BallotWithModifier.sol\":1042:1057  block.timestamp */\n  timestamp\n    /* \"contracts/cDjwOUThEeigbgqkS_SCag_704ff9e044e111e8894077d0de49d9cb_BallotWithModifier.sol\":1030:1039  startTime */\n  0x03\n    /* \"contracts/cDjwOUThEeigbgqkS_SCag_704ff9e044e111e8894077d0de49d9cb_BallotWithModifier.sol\":1030:1057  startTime = block.timestamp */\n  dup2\n  swap1\n  sstore\n  pop\n    /* \"contracts/cDjwOUThEeigbgqkS_SCag_704ff9e044e111e8894077d0de49d9cb_BallotWithModifier.sol\":691:1065  constructor(uint8 _numProposals)  {... */\n  pop\n    /* \"contracts/cDjwOUThEeigbgqkS_SCag_704ff9e044e111e8894077d0de49d9cb_BallotWithModifier.sol\":74:2567  contract Ballot {... */\n  jump(tag_15)\n    /* \"#utility.yul\":7:187   */\ntag_3:\n    /* \"#utility.yul\":55:132   */\n  0x4e487b7100000000000000000000000000000000000000000000000000000000\n    /* \"#utility.yul\":52:53   */\n  0x00\n    /* \"#utility.yul\":45:133   */\n  mstore\n    /* \"#utility.yul\":152:156   */\n  0x21\n    /* \"#utility.yul\":149:150   */\n  0x04\n    /* \"#utility.yul\":142:157   */\n  mstore\n    /* \"#utility.yul\":176:180   */\n  0x24\n    /* \"#utility.yul\":173:174   */\n  0x00\n    /* \"#utility.yul\":166:181   */\n  revert\n    /* \"#utility.yul\":274:391   */\ntag_17:\n    /* \"#utility.yul\":383:384   */\n  0x00\n    /* \"#utility.yul\":380:381   */\n  0x00\n    /* \"#utility.yul\":373:385   */\n  revert\n    /* \"#utility.yul\":520:606   */\ntag_19:\n    /* \"#utility.yul\":555:562   */\n  0x00\n    /* \"#utility.yul\":595:599   */\n  0xff\n    /* \"#utility.yul\":588:593   */\n  dup3\n    /* \"#utility.yul\":584:600   */\n  and\n    /* \"#utility.yul\":573:600   */\n  swap1\n  pop\n    /* \"#utility.yul\":520:606   */\n  swap2\n  swap1\n  pop\n  jump\t// out\n    /* \"#utility.yul\":612:730   */\ntag_20:\n    /* \"#utility.yul\":683:705   */\n  tag_29\n    /* \"#utility.yul\":699:704   */\n  dup2\n    /* \"#utility.yul\":683:705   */\n  tag_19\n  jump\t// in\ntag_29:\n    /* \"#utility.yul\":676:681   */\n  dup2\n    /* \"#utility.yul\":673:706   */\n  eq\n    /* \"#utility.yul\":663:724   */\n  tag_30\n  jumpi\n    /* \"#utility.yul\":720:721   */\n  0x00\n    /* \"#utility.yul\":717:718   */\n  0x00\n    /* \"#utility.yul\":710:722   */\n  revert\n    /* \"#utility.yul\":663:724   */\ntag_30:\n    /* \"#utility.yul\":612:730   */\n  pop\n  jump\t// out\n    /* \"#utility.yul\":736:875   */\ntag_21:\n    /* \"#utility.yul\":791:796   */\n  0x00\n    /* \"#utility.yul\":822:828   */\n  dup2\n    /* \"#utility.yul\":816:829   */\n  mload\n    /* \"#utility.yul\":807:829   */\n  swap1\n  pop\n    /* \"#utility.yul\":838:869   */\n  tag_32\n    /* \"#utility.yul\":863:868   */\n  dup2\n    /* \"#utility.yul\":838:869   */\n  tag_20\n  jump\t// in\ntag_32:\n    /* \"#utility.yul\":736:875   */\n  swap3\n  swap2\n  pop\n  pop\n  jump\t// out\n    /* \"#utility.yul\":881:1228   */\ntag_6:\n    /* \"#utility.yul\":949:955   */\n  0x00\n    /* \"#utility.yul\":998:1000   */\n  0x20\n    /* \"#utility.yul\":986:995   */\n  dup3\n    /* \"#utility.yul\":977:984   */\n  dup5\n    /* \"#utility.yul\":973:996   */\n  sub\n    /* \"#utility.yul\":969:1001   */\n  slt\n    /* \"#utility.yul\":966:1085   */\n  iszero\n  tag_34\n  jumpi\n    /* \"#utility.yul\":1004:1083   */\n  tag_35\n  tag_17\n  jump\t// in\ntag_35:\n    /* \"#utility.yul\":966:1085   */\ntag_34:\n    /* \"#utility.yul\":1124:1125   */\n  0x00\n    /* \"#utility.yul\":1149:1211   */\n  tag_36\n    /* \"#utility.yul\":1203:1210   */\n  dup5\n    /* \"#utility.yul\":1194:1200   */\n  dup3\n    /* \"#utility.yul\":1183:1192   */\n  dup6\n    /* \"#utility.yul\":1179:1201   */\n  add\n    /* \"#utility.yul\":1149:1211   */\n  tag_21\n  jump\t// in\ntag_36:\n    /* \"#utility.yul\":1139:1211   */\n  swap2\n  pop\n    /* \"#utility.yul\":1095:1221   */\n  pop\n    /* \"#utility.yul\":881:1228   */\n  swap3\n  swap2\n  pop\n  pop\n  jump\t// out\n    /* \"contracts/cDjwOUThEeigbgqkS_SCag_704ff9e044e111e8894077d0de49d9cb_BallotWithModifier.sol\":74:2567  contract Ballot {... */\ntag_15:\n  dataSize(sub_0)\n  dup1\n  dataOffset(sub_0)\n  0x00\n  codecopy\n  0x00\n  return\nstop\n\nsub_0: assembly {\n        /* \"contracts/cDjwOUThEeigbgqkS_SCag_704ff9e044e111e8894077d0de49d9cb_BallotWithModifier.sol\":74:2567  contract Ballot {... */\n      mstore(0x40, 0x80)\n      callvalue\n      dup1\n      iszero\n      tag_1\n      jumpi\n      revert(0x00, 0x00)\n    tag_1:\n      pop\n      jumpi(tag_2, lt(calldatasize, 0x04))\n      shr(0xe0, calldataload(0x00))\n      dup1\n      0x4420e486\n      eq\n      tag_3\n      jumpi\n      dup1\n      0x609ff1bd\n      eq\n      tag_4\n      jumpi\n      dup1\n      0xb3f98adc\n      eq\n      tag_5\n      jumpi\n      dup1\n      0xc040e6b8\n      eq\n      tag_6\n      jumpi\n    tag_2:\n      revert(0x00, 0x00)\n        /* \"contracts/cDjwOUThEeigbgqkS_SCag_704ff9e044e111e8894077d0de49d9cb_BallotWithModifier.sol\":1179:1533  function register(address toVoter) public validStage(Stage.Reg) {... */\n    tag_3:\n      tag_7\n      0x04\n      dup1\n      calldatasize\n      sub\n      dup2\n      add\n      swap1\n      tag_8\n      swap2\n      swap1\n      tag_9\n      jump\t// in\n    tag_8:\n      tag_10\n      jump\t// in\n    tag_7:\n      stop\n        /* \"contracts/cDjwOUThEeigbgqkS_SCag_704ff9e044e111e8894077d0de49d9cb_BallotWithModifier.sol\":2089:2564  function winningProposal() public view validStage(Stage.Done) returns (uint8 _winningProposal) {... */\n    tag_4:\n      tag_11\n      tag_12\n      jump\t// in\n    tag_11:\n      mload(0x40)\n      tag_13\n      swap2\n      swap1\n      tag_14\n      jump\t// in\n    tag_13:\n      mload(0x40)\n      dup1\n      swap2\n      sub\n      swap1\n      return\n        /* \"contracts/cDjwOUThEeigbgqkS_SCag_704ff9e044e111e8894077d0de49d9cb_BallotWithModifier.sol\":1596:2081  function vote(uint8 toProposal) public validStage(Stage.Vote)  {... */\n    tag_5:\n      tag_15\n      0x04\n      dup1\n      calldatasize\n      sub\n      dup2\n      add\n      swap1\n      tag_16\n      swap2\n      swap1\n      tag_17\n      jump\t// in\n    tag_16:\n      tag_18\n      jump\t// in\n    tag_15:\n      stop\n        /* \"contracts/cDjwOUThEeigbgqkS_SCag_704ff9e044e111e8894077d0de49d9cb_BallotWithModifier.sol\":311:342  Stage public stage = Stage.Init */\n    tag_6:\n      tag_19\n      tag_20\n      jump\t// in\n    tag_19:\n      mload(0x40)\n      tag_21\n      swap2\n      swap1\n      tag_22\n      jump\t// in\n    tag_21:\n      mload(0x40)\n      dup1\n      swap2\n      sub\n      swap1\n      return\n        /* \"contracts/cDjwOUThEeigbgqkS_SCag_704ff9e044e111e8894077d0de49d9cb_BallotWithModifier.sol\":1179:1533  function register(address toVoter) public validStage(Stage.Reg) {... */\n    tag_10:\n        /* \"contracts/cDjwOUThEeigbgqkS_SCag_704ff9e044e111e8894077d0de49d9cb_BallotWithModifier.sol\":1232:1241  Stage.Reg */\n      0x01\n        /* \"contracts/cDjwOUThEeigbgqkS_SCag_704ff9e044e111e8894077d0de49d9cb_BallotWithModifier.sol\":582:590  reqStage */\n      dup1\n        /* \"contracts/cDjwOUThEeigbgqkS_SCag_704ff9e044e111e8894077d0de49d9cb_BallotWithModifier.sol\":573:590  stage == reqStage */\n      0x03\n      dup2\n      gt\n      iszero\n      tag_24\n      jumpi\n      tag_25\n      tag_26\n      jump\t// in\n    tag_25:\n    tag_24:\n        /* \"contracts/cDjwOUThEeigbgqkS_SCag_704ff9e044e111e8894077d0de49d9cb_BallotWithModifier.sol\":573:578  stage */\n      0x00\n      0x00\n      swap1\n      sload\n      swap1\n      0x0100\n      exp\n      swap1\n      div\n      0xff\n      and\n        /* \"contracts/cDjwOUThEeigbgqkS_SCag_704ff9e044e111e8894077d0de49d9cb_BallotWithModifier.sol\":573:590  stage == reqStage */\n      0x03\n      dup2\n      gt\n      iszero\n      tag_27\n      jumpi\n      tag_28\n      tag_26\n      jump\t// in\n    tag_28:\n    tag_27:\n      eq\n        /* \"contracts/cDjwOUThEeigbgqkS_SCag_704ff9e044e111e8894077d0de49d9cb_BallotWithModifier.sol\":565:591  require(stage == reqStage) */\n      tag_29\n      jumpi\n      revert(0x00, 0x00)\n    tag_29:\n        /* \"contracts/cDjwOUThEeigbgqkS_SCag_704ff9e044e111e8894077d0de49d9cb_BallotWithModifier.sol\":1317:1328  chairperson */\n      0x00\n      0x01\n      swap1\n      sload\n      swap1\n      0x0100\n      exp\n      swap1\n      div\n      0xffffffffffffffffffffffffffffffffffffffff\n      and\n        /* \"contracts/cDjwOUThEeigbgqkS_SCag_704ff9e044e111e8894077d0de49d9cb_BallotWithModifier.sol\":1303:1328  msg.sender != chairperson */\n      0xffffffffffffffffffffffffffffffffffffffff\n      and\n        /* \"contracts/cDjwOUThEeigbgqkS_SCag_704ff9e044e111e8894077d0de49d9cb_BallotWithModifier.sol\":1303:1313  msg.sender */\n      caller\n        /* \"contracts/cDjwOUThEeigbgqkS_SCag_704ff9e044e111e8894077d0de49d9cb_BallotWithModifier.sol\":1303:1328  msg.sender != chairperson */\n      0xffffffffffffffffffffffffffffffffffffffff\n      and\n      eq\n      iszero\n        /* \"contracts/cDjwOUThEeigbgqkS_SCag_704ff9e044e111e8894077d0de49d9cb_BallotWithModifier.sol\":1303:1353  msg.sender != chairperson || voters[toVoter].voted */\n      dup1\n      tag_31\n      jumpi\n      pop\n        /* \"contracts/cDjwOUThEeigbgqkS_SCag_704ff9e044e111e8894077d0de49d9cb_BallotWithModifier.sol\":1332:1338  voters */\n      0x01\n        /* \"contracts/cDjwOUThEeigbgqkS_SCag_704ff9e044e111e8894077d0de49d9cb_BallotWithModifier.sol\":1332:1347  voters[toVoter] */\n      0x00\n        /* \"contracts/cDjwOUThEeigbgqkS_SCag_704ff9e044e111e8894077d0de49d9cb_BallotWithModifier.sol\":1339:1346  toVoter */\n      dup4\n        /* \"contracts/cDjwOUThEeigbgqkS_SCag_704ff9e044e111e8894077d0de49d9cb_BallotWithModifier.sol\":1332:1347  voters[toVoter] */\n      0xffffffffffffffffffffffffffffffffffffffff\n      and\n      0xffffffffffffffffffffffffffffffffffffffff\n      and\n      dup2\n      mstore\n      0x20\n      add\n      swap1\n      dup2\n      mstore\n      0x20\n      add\n      0x00\n      keccak256\n        /* \"contracts/cDjwOUThEeigbgqkS_SCag_704ff9e044e111e8894077d0de49d9cb_BallotWithModifier.sol\":1332:1353  voters[toVoter].voted */\n      0x01\n      add\n      0x00\n      swap1\n      sload\n      swap1\n      0x0100\n      exp\n      swap1\n      div\n      0xff\n      and\n        /* \"contracts/cDjwOUThEeigbgqkS_SCag_704ff9e044e111e8894077d0de49d9cb_BallotWithModifier.sol\":1303:1353  msg.sender != chairperson || voters[toVoter].voted */\n    tag_31:\n        /* \"contracts/cDjwOUThEeigbgqkS_SCag_704ff9e044e111e8894077d0de49d9cb_BallotWithModifier.sol\":1355:1362  return; */\n      tag_30\n        /* \"contracts/cDjwOUThEeigbgqkS_SCag_704ff9e044e111e8894077d0de49d9cb_BallotWithModifier.sol\":1299:1362  if (msg.sender != chairperson || voters[toVoter].voted) return; */\n      jumpi\n        /* \"contracts/cDjwOUThEeigbgqkS_SCag_704ff9e044e111e8894077d0de49d9cb_BallotWithModifier.sol\":1397:1398  1 */\n      0x01\n        /* \"contracts/cDjwOUThEeigbgqkS_SCag_704ff9e044e111e8894077d0de49d9cb_BallotWithModifier.sol\":1372:1378  voters */\n      dup1\n        /* \"contracts/cDjwOUThEeigbgqkS_SCag_704ff9e044e111e8894077d0de49d9cb_BallotWithModifier.sol\":1372:1387  voters[toVoter] */\n      0x00\n        /* \"contracts/cDjwOUThEeigbgqkS_SCag_704ff9e044e111e8894077d0de49d9cb_BallotWithModifier.sol\":1379:1386  toVoter */\n      dup5\n        /* \"contracts/cDjwOUThEeigbgqkS_SCag_704ff9e044e111e8894077d0de49d9cb_BallotWithModifier.sol\":1372:1387  voters[toVoter] */\n      0xffffffffffffffffffffffffffffffffffffffff\n      and\n      0xffffffffffffffffffffffffffffffffffffffff\n      and\n      dup2\n      mstore\n      0x20\n      add\n      swap1\n      dup2\n      mstore\n      0x20\n      add\n      0x00\n      keccak256\n        /* \"contracts/cDjwOUThEeigbgqkS_SCag_704ff9e044e111e8894077d0de49d9cb_BallotWithModifier.sol\":1372:1394  voters[toVoter].weight */\n      0x00\n      add\n        /* \"contracts/cDjwOUThEeigbgqkS_SCag_704ff9e044e111e8894077d0de49d9cb_BallotWithModifier.sol\":1372:1398  voters[toVoter].weight = 1 */\n      dup2\n      swap1\n      sstore\n      pop\n        /* \"contracts/cDjwOUThEeigbgqkS_SCag_704ff9e044e111e8894077d0de49d9cb_BallotWithModifier.sol\":1433:1438  false */\n      0x00\n        /* \"contracts/cDjwOUThEeigbgqkS_SCag_704ff9e044e111e8894077d0de49d9cb_BallotWithModifier.sol\":1409:1415  voters */\n      0x01\n        /* \"contracts/cDjwOUThEeigbgqkS_SCag_704ff9e044e111e8894077d0de49d9cb_BallotWithModifier.sol\":1409:1424  voters[toVoter] */\n      0x00\n        /* \"contracts/cDjwOUThEeigbgqkS_SCag_704ff9e044e111e8894077d0de49d9cb_BallotWithModifier.sol\":1416:1423  toVoter */\n      dup5\n        /* \"contracts/cDjwOUThEeigbgqkS_SCag_704ff9e044e111e8894077d0de49d9cb_BallotWithModifier.sol\":1409:1424  voters[toVoter] */\n      0xffffffffffffffffffffffffffffffffffffffff\n      and\n      0xffffffffffffffffffffffffffffffffffffffff\n      and\n      dup2\n      mstore\n      0x20\n      add\n      swap1\n      dup2\n      mstore\n      0x20\n      add\n      0x00\n      keccak256\n        /* \"contracts/cDjwOUThEeigbgqkS_SCag_704ff9e044e111e8894077d0de49d9cb_BallotWithModifier.sol\":1409:1430  voters[toVoter].voted */\n      0x01\n      add\n      0x00\n        /* \"contracts/cDjwOUThEeigbgqkS_SCag_704ff9e044e111e8894077d0de49d9cb_BallotWithModifier.sol\":1409:1438  voters[toVoter].voted = false */\n      0x0100\n      exp\n      dup2\n      sload\n      dup2\n      0xff\n      mul\n      not\n      and\n      swap1\n      dup4\n      iszero\n      iszero\n      mul\n      or\n      swap1\n      sstore\n      pop\n        /* \"contracts/cDjwOUThEeigbgqkS_SCag_704ff9e044e111e8894077d0de49d9cb_BallotWithModifier.sol\":1483:1493  30 seconds */\n      0x1e\n        /* \"contracts/cDjwOUThEeigbgqkS_SCag_704ff9e044e111e8894077d0de49d9cb_BallotWithModifier.sol\":1472:1481  startTime */\n      sload(0x03)\n        /* \"contracts/cDjwOUThEeigbgqkS_SCag_704ff9e044e111e8894077d0de49d9cb_BallotWithModifier.sol\":1472:1493  startTime+ 30 seconds */\n      tag_33\n      swap2\n      swap1\n      tag_34\n      jump\t// in\n    tag_33:\n        /* \"contracts/cDjwOUThEeigbgqkS_SCag_704ff9e044e111e8894077d0de49d9cb_BallotWithModifier.sol\":1453:1468  block.timestamp */\n      timestamp\n        /* \"contracts/cDjwOUThEeigbgqkS_SCag_704ff9e044e111e8894077d0de49d9cb_BallotWithModifier.sol\":1453:1494  block.timestamp > (startTime+ 30 seconds) */\n      gt\n        /* \"contracts/cDjwOUThEeigbgqkS_SCag_704ff9e044e111e8894077d0de49d9cb_BallotWithModifier.sol\":1449:1518  if (block.timestamp > (startTime+ 30 seconds)) {stage = Stage.Vote; } */\n      iszero\n      tag_35\n      jumpi\n        /* \"contracts/cDjwOUThEeigbgqkS_SCag_704ff9e044e111e8894077d0de49d9cb_BallotWithModifier.sol\":1505:1515  Stage.Vote */\n      0x02\n        /* \"contracts/cDjwOUThEeigbgqkS_SCag_704ff9e044e111e8894077d0de49d9cb_BallotWithModifier.sol\":1497:1502  stage */\n      0x00\n      0x00\n        /* \"contracts/cDjwOUThEeigbgqkS_SCag_704ff9e044e111e8894077d0de49d9cb_BallotWithModifier.sol\":1497:1515  stage = Stage.Vote */\n      0x0100\n      exp\n      dup2\n      sload\n      dup2\n      0xff\n      mul\n      not\n      and\n      swap1\n      dup4\n      0x03\n      dup2\n      gt\n      iszero\n      tag_36\n      jumpi\n      tag_37\n      tag_26\n      jump\t// in\n    tag_37:\n    tag_36:\n      mul\n      or\n      swap1\n      sstore\n      pop\n        /* \"contracts/cDjwOUThEeigbgqkS_SCag_704ff9e044e111e8894077d0de49d9cb_BallotWithModifier.sol\":1449:1518  if (block.timestamp > (startTime+ 30 seconds)) {stage = Stage.Vote; } */\n    tag_35:\n        /* \"contracts/cDjwOUThEeigbgqkS_SCag_704ff9e044e111e8894077d0de49d9cb_BallotWithModifier.sol\":600:601  _ */\n    tag_30:\n        /* \"contracts/cDjwOUThEeigbgqkS_SCag_704ff9e044e111e8894077d0de49d9cb_BallotWithModifier.sol\":1179:1533  function register(address toVoter) public validStage(Stage.Reg) {... */\n      pop\n      pop\n      jump\t// out\n        /* \"contracts/cDjwOUThEeigbgqkS_SCag_704ff9e044e111e8894077d0de49d9cb_BallotWithModifier.sol\":2089:2564  function winningProposal() public view validStage(Stage.Done) returns (uint8 _winningProposal) {... */\n    tag_12:\n        /* \"contracts/cDjwOUThEeigbgqkS_SCag_704ff9e044e111e8894077d0de49d9cb_BallotWithModifier.sol\":2160:2182  uint8 _winningProposal */\n      0x00\n        /* \"contracts/cDjwOUThEeigbgqkS_SCag_704ff9e044e111e8894077d0de49d9cb_BallotWithModifier.sol\":2139:2149  Stage.Done */\n      0x03\n        /* \"contracts/cDjwOUThEeigbgqkS_SCag_704ff9e044e111e8894077d0de49d9cb_BallotWithModifier.sol\":582:590  reqStage */\n      dup1\n        /* \"contracts/cDjwOUThEeigbgqkS_SCag_704ff9e044e111e8894077d0de49d9cb_BallotWithModifier.sol\":573:590  stage == reqStage */\n      0x03\n      dup2\n      gt\n      iszero\n      tag_39\n      jumpi\n      tag_40\n      tag_26\n      jump\t// in\n    tag_40:\n    tag_39:\n        /* \"contracts/cDjwOUThEeigbgqkS_SCag_704ff9e044e111e8894077d0de49d9cb_BallotWithModifier.sol\":573:578  stage */\n      0x00\n      0x00\n      swap1\n      sload\n      swap1\n      0x0100\n      exp\n      swap1\n      div\n      0xff\n      and\n        /* \"contracts/cDjwOUThEeigbgqkS_SCag_704ff9e044e111e8894077d0de49d9cb_BallotWithModifier.sol\":573:590  stage == reqStage */\n      0x03\n      dup2\n      gt\n      iszero\n      tag_41\n      jumpi\n      tag_42\n      tag_26\n      jump\t// in\n    tag_42:\n    tag_41:\n      eq\n        /* \"contracts/cDjwOUThEeigbgqkS_SCag_704ff9e044e111e8894077d0de49d9cb_BallotWithModifier.sol\":565:591  require(stage == reqStage) */\n      tag_43\n      jumpi\n      revert(0x00, 0x00)\n    tag_43:\n        /* \"contracts/cDjwOUThEeigbgqkS_SCag_704ff9e044e111e8894077d0de49d9cb_BallotWithModifier.sol\":2239:2263  uint256 winningVoteCount */\n      0x00\n        /* \"contracts/cDjwOUThEeigbgqkS_SCag_704ff9e044e111e8894077d0de49d9cb_BallotWithModifier.sol\":2266:2267  0 */\n      0x00\n        /* \"contracts/cDjwOUThEeigbgqkS_SCag_704ff9e044e111e8894077d0de49d9cb_BallotWithModifier.sol\":2239:2267  uint256 winningVoteCount = 0 */\n      swap1\n      pop\n        /* \"contracts/cDjwOUThEeigbgqkS_SCag_704ff9e044e111e8894077d0de49d9cb_BallotWithModifier.sol\":2283:2293  uint8 prop */\n      0x00\n        /* \"contracts/cDjwOUThEeigbgqkS_SCag_704ff9e044e111e8894077d0de49d9cb_BallotWithModifier.sol\":2296:2297  0 */\n      0x00\n        /* \"contracts/cDjwOUThEeigbgqkS_SCag_704ff9e044e111e8894077d0de49d9cb_BallotWithModifier.sol\":2283:2297  uint8 prop = 0 */\n      swap1\n      pop\n        /* \"contracts/cDjwOUThEeigbgqkS_SCag_704ff9e044e111e8894077d0de49d9cb_BallotWithModifier.sol\":2278:2516  for (uint8 prop = 0; prop < proposals.length; prop++)... */\n    tag_45:\n        /* \"contracts/cDjwOUThEeigbgqkS_SCag_704ff9e044e111e8894077d0de49d9cb_BallotWithModifier.sol\":2306:2315  proposals */\n      0x02\n        /* \"contracts/cDjwOUThEeigbgqkS_SCag_704ff9e044e111e8894077d0de49d9cb_BallotWithModifier.sol\":2306:2322  proposals.length */\n      dup1\n      sload\n      swap1\n      pop\n        /* \"contracts/cDjwOUThEeigbgqkS_SCag_704ff9e044e111e8894077d0de49d9cb_BallotWithModifier.sol\":2299:2303  prop */\n      dup2\n        /* \"contracts/cDjwOUThEeigbgqkS_SCag_704ff9e044e111e8894077d0de49d9cb_BallotWithModifier.sol\":2299:2322  prop < proposals.length */\n      0xff\n      and\n      lt\n        /* \"contracts/cDjwOUThEeigbgqkS_SCag_704ff9e044e111e8894077d0de49d9cb_BallotWithModifier.sol\":2278:2516  for (uint8 prop = 0; prop < proposals.length; prop++)... */\n      iszero\n      tag_46\n      jumpi\n        /* \"contracts/cDjwOUThEeigbgqkS_SCag_704ff9e044e111e8894077d0de49d9cb_BallotWithModifier.sol\":2377:2393  winningVoteCount */\n      dup2\n        /* \"contracts/cDjwOUThEeigbgqkS_SCag_704ff9e044e111e8894077d0de49d9cb_BallotWithModifier.sol\":2349:2358  proposals */\n      0x02\n        /* \"contracts/cDjwOUThEeigbgqkS_SCag_704ff9e044e111e8894077d0de49d9cb_BallotWithModifier.sol\":2359:2363  prop */\n      dup3\n        /* \"contracts/cDjwOUThEeigbgqkS_SCag_704ff9e044e111e8894077d0de49d9cb_BallotWithModifier.sol\":2349:2364  proposals[prop] */\n      0xff\n      and\n      dup2\n      sload\n      dup2\n      lt\n      tag_48\n      jumpi\n      tag_49\n      tag_50\n      jump\t// in\n    tag_49:\n    tag_48:\n      swap1\n      0x00\n      mstore\n      keccak256(0x00, 0x20)\n      add\n        /* \"contracts/cDjwOUThEeigbgqkS_SCag_704ff9e044e111e8894077d0de49d9cb_BallotWithModifier.sol\":2349:2374  proposals[prop].voteCount */\n      0x00\n      add\n      sload\n        /* \"contracts/cDjwOUThEeigbgqkS_SCag_704ff9e044e111e8894077d0de49d9cb_BallotWithModifier.sol\":2349:2393  proposals[prop].voteCount > winningVoteCount */\n      gt\n        /* \"contracts/cDjwOUThEeigbgqkS_SCag_704ff9e044e111e8894077d0de49d9cb_BallotWithModifier.sol\":2345:2516  if (proposals[prop].voteCount > winningVoteCount) {... */\n      iszero\n      tag_52\n      jumpi\n        /* \"contracts/cDjwOUThEeigbgqkS_SCag_704ff9e044e111e8894077d0de49d9cb_BallotWithModifier.sol\":2433:2442  proposals */\n      0x02\n        /* \"contracts/cDjwOUThEeigbgqkS_SCag_704ff9e044e111e8894077d0de49d9cb_BallotWithModifier.sol\":2443:2447  prop */\n      dup2\n        /* \"contracts/cDjwOUThEeigbgqkS_SCag_704ff9e044e111e8894077d0de49d9cb_BallotWithModifier.sol\":2433:2448  proposals[prop] */\n      0xff\n      and\n      dup2\n      sload\n      dup2\n      lt\n      tag_53\n      jumpi\n      tag_54\n      tag_50\n      jump\t// in\n    tag_54:\n    tag_53:\n      swap1\n      0x00\n      mstore\n      keccak256(0x00, 0x20)\n      add\n        /* \"contracts/cDjwOUThEeigbgqkS_SCag_704ff9e044e111e8894077d0de49d9cb_BallotWithModifier.sol\":2433:2458  proposals[prop].voteCount */\n      0x00\n      add\n      sload\n        /* \"contracts/cDjwOUThEeigbgqkS_SCag_704ff9e044e111e8894077d0de49d9cb_BallotWithModifier.sol\":2414:2458  winningVoteCount = proposals[prop].voteCount */\n      swap2\n      pop\n        /* \"contracts/cDjwOUThEeigbgqkS_SCag_704ff9e044e111e8894077d0de49d9cb_BallotWithModifier.sol\":2496:2500  prop */\n      dup1\n        /* \"contracts/cDjwOUThEeigbgqkS_SCag_704ff9e044e111e8894077d0de49d9cb_BallotWithModifier.sol\":2477:2500  _winningProposal = prop */\n      swap4\n      pop\n        /* \"contracts/cDjwOUThEeigbgqkS_SCag_704ff9e044e111e8894077d0de49d9cb_BallotWithModifier.sol\":2345:2516  if (proposals[prop].voteCount > winningVoteCount) {... */\n    tag_52:\n        /* \"contracts/cDjwOUThEeigbgqkS_SCag_704ff9e044e111e8894077d0de49d9cb_BallotWithModifier.sol\":2324:2330  prop++ */\n      dup1\n      dup1\n      tag_56\n      swap1\n      tag_57\n      jump\t// in\n    tag_56:\n      swap2\n      pop\n      pop\n        /* \"contracts/cDjwOUThEeigbgqkS_SCag_704ff9e044e111e8894077d0de49d9cb_BallotWithModifier.sol\":2278:2516  for (uint8 prop = 0; prop < proposals.length; prop++)... */\n      jump(tag_45)\n    tag_46:\n      pop\n        /* \"contracts/cDjwOUThEeigbgqkS_SCag_704ff9e044e111e8894077d0de49d9cb_BallotWithModifier.sol\":2552:2553  0 */\n      0x00\n        /* \"contracts/cDjwOUThEeigbgqkS_SCag_704ff9e044e111e8894077d0de49d9cb_BallotWithModifier.sol\":2533:2549  winningVoteCount */\n      dup2\n        /* \"contracts/cDjwOUThEeigbgqkS_SCag_704ff9e044e111e8894077d0de49d9cb_BallotWithModifier.sol\":2533:2553  winningVoteCount > 0 */\n      gt\n        /* \"contracts/cDjwOUThEeigbgqkS_SCag_704ff9e044e111e8894077d0de49d9cb_BallotWithModifier.sol\":2525:2554  assert (winningVoteCount > 0) */\n      tag_58\n      jumpi\n      tag_59\n      tag_60\n      jump\t// in\n    tag_59:\n    tag_58:\n        /* \"contracts/cDjwOUThEeigbgqkS_SCag_704ff9e044e111e8894077d0de49d9cb_BallotWithModifier.sol\":2184:2564  {... */\n      pop\n        /* \"contracts/cDjwOUThEeigbgqkS_SCag_704ff9e044e111e8894077d0de49d9cb_BallotWithModifier.sol\":2089:2564  function winningProposal() public view validStage(Stage.Done) returns (uint8 _winningProposal) {... */\n      pop\n      swap1\n      jump\t// out\n        /* \"contracts/cDjwOUThEeigbgqkS_SCag_704ff9e044e111e8894077d0de49d9cb_BallotWithModifier.sol\":1596:2081  function vote(uint8 toProposal) public validStage(Stage.Vote)  {... */\n    tag_18:\n        /* \"contracts/cDjwOUThEeigbgqkS_SCag_704ff9e044e111e8894077d0de49d9cb_BallotWithModifier.sol\":1646:1656  Stage.Vote */\n      0x02\n        /* \"contracts/cDjwOUThEeigbgqkS_SCag_704ff9e044e111e8894077d0de49d9cb_BallotWithModifier.sol\":582:590  reqStage */\n      dup1\n        /* \"contracts/cDjwOUThEeigbgqkS_SCag_704ff9e044e111e8894077d0de49d9cb_BallotWithModifier.sol\":573:590  stage == reqStage */\n      0x03\n      dup2\n      gt\n      iszero\n      tag_62\n      jumpi\n      tag_63\n      tag_26\n      jump\t// in\n    tag_63:\n    tag_62:\n        /* \"contracts/cDjwOUThEeigbgqkS_SCag_704ff9e044e111e8894077d0de49d9cb_BallotWithModifier.sol\":573:578  stage */\n      0x00\n      0x00\n      swap1\n      sload\n      swap1\n      0x0100\n      exp\n      swap1\n      div\n      0xff\n      and\n        /* \"contracts/cDjwOUThEeigbgqkS_SCag_704ff9e044e111e8894077d0de49d9cb_BallotWithModifier.sol\":573:590  stage == reqStage */\n      0x03\n      dup2\n      gt\n      iszero\n      tag_64\n      jumpi\n      tag_65\n      tag_26\n      jump\t// in\n    tag_65:\n    tag_64:\n      eq\n        /* \"contracts/cDjwOUThEeigbgqkS_SCag_704ff9e044e111e8894077d0de49d9cb_BallotWithModifier.sol\":565:591  require(stage == reqStage) */\n      tag_66\n      jumpi\n      revert(0x00, 0x00)\n    tag_66:\n        /* \"contracts/cDjwOUThEeigbgqkS_SCag_704ff9e044e111e8894077d0de49d9cb_BallotWithModifier.sol\":1716:1736  Voter storage sender */\n      0x00\n        /* \"contracts/cDjwOUThEeigbgqkS_SCag_704ff9e044e111e8894077d0de49d9cb_BallotWithModifier.sol\":1739:1745  voters */\n      0x01\n        /* \"contracts/cDjwOUThEeigbgqkS_SCag_704ff9e044e111e8894077d0de49d9cb_BallotWithModifier.sol\":1739:1757  voters[msg.sender] */\n      0x00\n        /* \"contracts/cDjwOUThEeigbgqkS_SCag_704ff9e044e111e8894077d0de49d9cb_BallotWithModifier.sol\":1746:1756  msg.sender */\n      caller\n        /* \"contracts/cDjwOUThEeigbgqkS_SCag_704ff9e044e111e8894077d0de49d9cb_BallotWithModifier.sol\":1739:1757  voters[msg.sender] */\n      0xffffffffffffffffffffffffffffffffffffffff\n      and\n      0xffffffffffffffffffffffffffffffffffffffff\n      and\n      dup2\n      mstore\n      0x20\n      add\n      swap1\n      dup2\n      mstore\n      0x20\n      add\n      0x00\n      keccak256\n        /* \"contracts/cDjwOUThEeigbgqkS_SCag_704ff9e044e111e8894077d0de49d9cb_BallotWithModifier.sol\":1716:1757  Voter storage sender = voters[msg.sender] */\n      swap1\n      pop\n        /* \"contracts/cDjwOUThEeigbgqkS_SCag_704ff9e044e111e8894077d0de49d9cb_BallotWithModifier.sol\":1772:1778  sender */\n      dup1\n        /* \"contracts/cDjwOUThEeigbgqkS_SCag_704ff9e044e111e8894077d0de49d9cb_BallotWithModifier.sol\":1772:1784  sender.voted */\n      0x01\n      add\n      0x00\n      swap1\n      sload\n      swap1\n      0x0100\n      exp\n      swap1\n      div\n      0xff\n      and\n        /* \"contracts/cDjwOUThEeigbgqkS_SCag_704ff9e044e111e8894077d0de49d9cb_BallotWithModifier.sol\":1772:1818  sender.voted || toProposal >= proposals.length */\n      dup1\n      tag_68\n      jumpi\n      pop\n        /* \"contracts/cDjwOUThEeigbgqkS_SCag_704ff9e044e111e8894077d0de49d9cb_BallotWithModifier.sol\":1802:1811  proposals */\n      0x02\n        /* \"contracts/cDjwOUThEeigbgqkS_SCag_704ff9e044e111e8894077d0de49d9cb_BallotWithModifier.sol\":1802:1818  proposals.length */\n      dup1\n      sload\n      swap1\n      pop\n        /* \"contracts/cDjwOUThEeigbgqkS_SCag_704ff9e044e111e8894077d0de49d9cb_BallotWithModifier.sol\":1788:1798  toProposal */\n      dup4\n        /* \"contracts/cDjwOUThEeigbgqkS_SCag_704ff9e044e111e8894077d0de49d9cb_BallotWithModifier.sol\":1788:1818  toProposal >= proposals.length */\n      0xff\n      and\n      lt\n      iszero\n        /* \"contracts/cDjwOUThEeigbgqkS_SCag_704ff9e044e111e8894077d0de49d9cb_BallotWithModifier.sol\":1772:1818  sender.voted || toProposal >= proposals.length */\n    tag_68:\n        /* \"contracts/cDjwOUThEeigbgqkS_SCag_704ff9e044e111e8894077d0de49d9cb_BallotWithModifier.sol\":1768:1827  if (sender.voted || toProposal >= proposals.length) return; */\n      iszero\n      tag_69\n      jumpi\n        /* \"contracts/cDjwOUThEeigbgqkS_SCag_704ff9e044e111e8894077d0de49d9cb_BallotWithModifier.sol\":1820:1827  return; */\n      pop\n      jump(tag_67)\n        /* \"contracts/cDjwOUThEeigbgqkS_SCag_704ff9e044e111e8894077d0de49d9cb_BallotWithModifier.sol\":1768:1827  if (sender.voted || toProposal >= proposals.length) return; */\n    tag_69:\n        /* \"contracts/cDjwOUThEeigbgqkS_SCag_704ff9e044e111e8894077d0de49d9cb_BallotWithModifier.sol\":1852:1856  true */\n      0x01\n        /* \"contracts/cDjwOUThEeigbgqkS_SCag_704ff9e044e111e8894077d0de49d9cb_BallotWithModifier.sol\":1837:1843  sender */\n      dup2\n        /* \"contracts/cDjwOUThEeigbgqkS_SCag_704ff9e044e111e8894077d0de49d9cb_BallotWithModifier.sol\":1837:1849  sender.voted */\n      0x01\n      add\n      0x00\n        /* \"contracts/cDjwOUThEeigbgqkS_SCag_704ff9e044e111e8894077d0de49d9cb_BallotWithModifier.sol\":1837:1856  sender.voted = true */\n      0x0100\n      exp\n      dup2\n      sload\n      dup2\n      0xff\n      mul\n      not\n      and\n      swap1\n      dup4\n      iszero\n      iszero\n      mul\n      or\n      swap1\n      sstore\n      pop\n        /* \"contracts/cDjwOUThEeigbgqkS_SCag_704ff9e044e111e8894077d0de49d9cb_BallotWithModifier.sol\":1881:1891  toProposal */\n      dup3\n        /* \"contracts/cDjwOUThEeigbgqkS_SCag_704ff9e044e111e8894077d0de49d9cb_BallotWithModifier.sol\":1867:1873  sender */\n      dup2\n        /* \"contracts/cDjwOUThEeigbgqkS_SCag_704ff9e044e111e8894077d0de49d9cb_BallotWithModifier.sol\":1867:1878  sender.vote */\n      0x01\n      add\n      0x01\n        /* \"contracts/cDjwOUThEeigbgqkS_SCag_704ff9e044e111e8894077d0de49d9cb_BallotWithModifier.sol\":1867:1891  sender.vote = toProposal */\n      0x0100\n      exp\n      dup2\n      sload\n      dup2\n      0xff\n      mul\n      not\n      and\n      swap1\n      dup4\n      0xff\n      and\n      mul\n      or\n      swap1\n      sstore\n      pop\n        /* \"contracts/cDjwOUThEeigbgqkS_SCag_704ff9e044e111e8894077d0de49d9cb_BallotWithModifier.sol\":1940:1946  sender */\n      dup1\n        /* \"contracts/cDjwOUThEeigbgqkS_SCag_704ff9e044e111e8894077d0de49d9cb_BallotWithModifier.sol\":1940:1953  sender.weight */\n      0x00\n      add\n      sload\n        /* \"contracts/cDjwOUThEeigbgqkS_SCag_704ff9e044e111e8894077d0de49d9cb_BallotWithModifier.sol\":1905:1914  proposals */\n      0x02\n        /* \"contracts/cDjwOUThEeigbgqkS_SCag_704ff9e044e111e8894077d0de49d9cb_BallotWithModifier.sol\":1915:1925  toProposal */\n      dup5\n        /* \"contracts/cDjwOUThEeigbgqkS_SCag_704ff9e044e111e8894077d0de49d9cb_BallotWithModifier.sol\":1905:1926  proposals[toProposal] */\n      0xff\n      and\n      dup2\n      sload\n      dup2\n      lt\n      tag_70\n      jumpi\n      tag_71\n      tag_50\n      jump\t// in\n    tag_71:\n    tag_70:\n      swap1\n      0x00\n      mstore\n      keccak256(0x00, 0x20)\n      add\n        /* \"contracts/cDjwOUThEeigbgqkS_SCag_704ff9e044e111e8894077d0de49d9cb_BallotWithModifier.sol\":1905:1936  proposals[toProposal].voteCount */\n      0x00\n      add\n      0x00\n        /* \"contracts/cDjwOUThEeigbgqkS_SCag_704ff9e044e111e8894077d0de49d9cb_BallotWithModifier.sol\":1905:1953  proposals[toProposal].voteCount += sender.weight */\n      dup3\n      dup3\n      sload\n      tag_73\n      swap2\n      swap1\n      tag_34\n      jump\t// in\n    tag_73:\n      swap3\n      pop\n      pop\n      dup2\n      swap1\n      sstore\n      pop\n        /* \"contracts/cDjwOUThEeigbgqkS_SCag_704ff9e044e111e8894077d0de49d9cb_BallotWithModifier.sol\":1998:2008  30 seconds */\n      0x1e\n        /* \"contracts/cDjwOUThEeigbgqkS_SCag_704ff9e044e111e8894077d0de49d9cb_BallotWithModifier.sol\":1987:1996  startTime */\n      sload(0x03)\n        /* \"contracts/cDjwOUThEeigbgqkS_SCag_704ff9e044e111e8894077d0de49d9cb_BallotWithModifier.sol\":1987:2008  startTime+ 30 seconds */\n      tag_74\n      swap2\n      swap1\n      tag_34\n      jump\t// in\n    tag_74:\n        /* \"contracts/cDjwOUThEeigbgqkS_SCag_704ff9e044e111e8894077d0de49d9cb_BallotWithModifier.sol\":1968:1983  block.timestamp */\n      timestamp\n        /* \"contracts/cDjwOUThEeigbgqkS_SCag_704ff9e044e111e8894077d0de49d9cb_BallotWithModifier.sol\":1968:2009  block.timestamp > (startTime+ 30 seconds) */\n      gt\n        /* \"contracts/cDjwOUThEeigbgqkS_SCag_704ff9e044e111e8894077d0de49d9cb_BallotWithModifier.sol\":1964:2056  if (block.timestamp > (startTime+ 30 seconds)) {stage = Stage.Done; emit votingCompleted();} */\n      iszero\n      tag_75\n      jumpi\n        /* \"contracts/cDjwOUThEeigbgqkS_SCag_704ff9e044e111e8894077d0de49d9cb_BallotWithModifier.sol\":2020:2030  Stage.Done */\n      0x03\n        /* \"contracts/cDjwOUThEeigbgqkS_SCag_704ff9e044e111e8894077d0de49d9cb_BallotWithModifier.sol\":2012:2017  stage */\n      0x00\n      0x00\n        /* \"contracts/cDjwOUThEeigbgqkS_SCag_704ff9e044e111e8894077d0de49d9cb_BallotWithModifier.sol\":2012:2030  stage = Stage.Done */\n      0x0100\n      exp\n      dup2\n      sload\n      dup2\n      0xff\n      mul\n      not\n      and\n      swap1\n      dup4\n      0x03\n      dup2\n      gt\n      iszero\n      tag_76\n      jumpi\n      tag_77\n      tag_26\n      jump\t// in\n    tag_77:\n    tag_76:\n      mul\n      or\n      swap1\n      sstore\n      pop\n        /* \"contracts/cDjwOUThEeigbgqkS_SCag_704ff9e044e111e8894077d0de49d9cb_BallotWithModifier.sol\":2037:2054  votingCompleted() */\n      0x6ac0c89219f0135e3a87cecdf1851abced71da933a0a00e1eada0ef035382351\n      mload(0x40)\n      mload(0x40)\n      dup1\n      swap2\n      sub\n      swap1\n      log1\n        /* \"contracts/cDjwOUThEeigbgqkS_SCag_704ff9e044e111e8894077d0de49d9cb_BallotWithModifier.sol\":1964:2056  if (block.timestamp > (startTime+ 30 seconds)) {stage = Stage.Done; emit votingCompleted();} */\n    tag_75:\n        /* \"contracts/cDjwOUThEeigbgqkS_SCag_704ff9e044e111e8894077d0de49d9cb_BallotWithModifier.sol\":1659:2081  {... */\n      pop\n        /* \"contracts/cDjwOUThEeigbgqkS_SCag_704ff9e044e111e8894077d0de49d9cb_BallotWithModifier.sol\":600:601  _ */\n    tag_67:\n        /* \"contracts/cDjwOUThEeigbgqkS_SCag_704ff9e044e111e8894077d0de49d9cb_BallotWithModifier.sol\":1596:2081  function vote(uint8 toProposal) public validStage(Stage.Vote)  {... */\n      pop\n      pop\n      jump\t// out\n        /* \"contracts/cDjwOUThEeigbgqkS_SCag_704ff9e044e111e8894077d0de49d9cb_BallotWithModifier.sol\":311:342  Stage public stage = Stage.Init */\n    tag_20:\n      0x00\n      0x00\n      swap1\n      sload\n      swap1\n      0x0100\n      exp\n      swap1\n      div\n      0xff\n      and\n      dup2\n      jump\t// out\n        /* \"#utility.yul\":88:205   */\n    tag_79:\n        /* \"#utility.yul\":197:198   */\n      0x00\n        /* \"#utility.yul\":194:195   */\n      0x00\n        /* \"#utility.yul\":187:199   */\n      revert\n        /* \"#utility.yul\":334:460   */\n    tag_81:\n        /* \"#utility.yul\":371:378   */\n      0x00\n        /* \"#utility.yul\":411:453   */\n      0xffffffffffffffffffffffffffffffffffffffff\n        /* \"#utility.yul\":404:409   */\n      dup3\n        /* \"#utility.yul\":400:454   */\n      and\n        /* \"#utility.yul\":389:454   */\n      swap1\n      pop\n        /* \"#utility.yul\":334:460   */\n      swap2\n      swap1\n      pop\n      jump\t// out\n        /* \"#utility.yul\":466:562   */\n    tag_82:\n        /* \"#utility.yul\":503:510   */\n      0x00\n        /* \"#utility.yul\":532:556   */\n      tag_101\n        /* \"#utility.yul\":550:555   */\n      dup3\n        /* \"#utility.yul\":532:556   */\n      tag_81\n      jump\t// in\n    tag_101:\n        /* \"#utility.yul\":521:556   */\n      swap1\n      pop\n        /* \"#utility.yul\":466:562   */\n      swap2\n      swap1\n      pop\n      jump\t// out\n        /* \"#utility.yul\":568:690   */\n    tag_83:\n        /* \"#utility.yul\":641:665   */\n      tag_103\n        /* \"#utility.yul\":659:664   */\n      dup2\n        /* \"#utility.yul\":641:665   */\n      tag_82\n      jump\t// in\n    tag_103:\n        /* \"#utility.yul\":634:639   */\n      dup2\n        /* \"#utility.yul\":631:666   */\n      eq\n        /* \"#utility.yul\":621:684   */\n      tag_104\n      jumpi\n        /* \"#utility.yul\":680:681   */\n      0x00\n        /* \"#utility.yul\":677:678   */\n      0x00\n        /* \"#utility.yul\":670:682   */\n      revert\n        /* \"#utility.yul\":621:684   */\n    tag_104:\n        /* \"#utility.yul\":568:690   */\n      pop\n      jump\t// out\n        /* \"#utility.yul\":696:835   */\n    tag_84:\n        /* \"#utility.yul\":742:747   */\n      0x00\n        /* \"#utility.yul\":780:786   */\n      dup2\n        /* \"#utility.yul\":767:787   */\n      calldataload\n        /* \"#utility.yul\":758:787   */\n      swap1\n      pop\n        /* \"#utility.yul\":796:829   */\n      tag_106\n        /* \"#utility.yul\":823:828   */\n      dup2\n        /* \"#utility.yul\":796:829   */\n      tag_83\n      jump\t// in\n    tag_106:\n        /* \"#utility.yul\":696:835   */\n      swap3\n      swap2\n      pop\n      pop\n      jump\t// out\n        /* \"#utility.yul\":841:1170   */\n    tag_9:\n        /* \"#utility.yul\":900:906   */\n      0x00\n        /* \"#utility.yul\":949:951   */\n      0x20\n        /* \"#utility.yul\":937:946   */\n      dup3\n        /* \"#utility.yul\":928:935   */\n      dup5\n        /* \"#utility.yul\":924:947   */\n      sub\n        /* \"#utility.yul\":920:952   */\n      slt\n        /* \"#utility.yul\":917:1036   */\n      iszero\n      tag_108\n      jumpi\n        /* \"#utility.yul\":955:1034   */\n      tag_109\n      tag_79\n      jump\t// in\n    tag_109:\n        /* \"#utility.yul\":917:1036   */\n    tag_108:\n        /* \"#utility.yul\":1075:1076   */\n      0x00\n        /* \"#utility.yul\":1100:1153   */\n      tag_110\n        /* \"#utility.yul\":1145:1152   */\n      dup5\n        /* \"#utility.yul\":1136:1142   */\n      dup3\n        /* \"#utility.yul\":1125:1134   */\n      dup6\n        /* \"#utility.yul\":1121:1143   */\n      add\n        /* \"#utility.yul\":1100:1153   */\n      tag_84\n      jump\t// in\n    tag_110:\n        /* \"#utility.yul\":1090:1153   */\n      swap2\n      pop\n        /* \"#utility.yul\":1046:1163   */\n      pop\n        /* \"#utility.yul\":841:1170   */\n      swap3\n      swap2\n      pop\n      pop\n      jump\t// out\n        /* \"#utility.yul\":1176:1262   */\n    tag_85:\n        /* \"#utility.yul\":1211:1218   */\n      0x00\n        /* \"#utility.yul\":1251:1255   */\n      0xff\n        /* \"#utility.yul\":1244:1249   */\n      dup3\n        /* \"#utility.yul\":1240:1256   */\n      and\n        /* \"#utility.yul\":1229:1256   */\n      swap1\n      pop\n        /* \"#utility.yul\":1176:1262   */\n      swap2\n      swap1\n      pop\n      jump\t// out\n        /* \"#utility.yul\":1268:1380   */\n    tag_86:\n        /* \"#utility.yul\":1351:1373   */\n      tag_113\n        /* \"#utility.yul\":1367:1372   */\n      dup2\n        /* \"#utility.yul\":1351:1373   */\n      tag_85\n      jump\t// in\n    tag_113:\n        /* \"#utility.yul\":1346:1349   */\n      dup3\n        /* \"#utility.yul\":1339:1374   */\n      mstore\n        /* \"#utility.yul\":1268:1380   */\n      pop\n      pop\n      jump\t// out\n        /* \"#utility.yul\":1386:1600   */\n    tag_14:\n        /* \"#utility.yul\":1475:1479   */\n      0x00\n        /* \"#utility.yul\":1513:1515   */\n      0x20\n        /* \"#utility.yul\":1502:1511   */\n      dup3\n        /* \"#utility.yul\":1498:1516   */\n      add\n        /* \"#utility.yul\":1490:1516   */\n      swap1\n      pop\n        /* \"#utility.yul\":1526:1593   */\n      tag_115\n        /* \"#utility.yul\":1590:1591   */\n      0x00\n        /* \"#utility.yul\":1579:1588   */\n      dup4\n        /* \"#utility.yul\":1575:1592   */\n      add\n        /* \"#utility.yul\":1566:1572   */\n      dup5\n        /* \"#utility.yul\":1526:1593   */\n      tag_86\n      jump\t// in\n    tag_115:\n        /* \"#utility.yul\":1386:1600   */\n      swap3\n      swap2\n      pop\n      pop\n      jump\t// out\n        /* \"#utility.yul\":1606:1724   */\n    tag_87:\n        /* \"#utility.yul\":1677:1699   */\n      tag_117\n        /* \"#utility.yul\":1693:1698   */\n      dup2\n        /* \"#utility.yul\":1677:1699   */\n      tag_85\n      jump\t// in\n    tag_117:\n        /* \"#utility.yul\":1670:1675   */\n      dup2\n        /* \"#utility.yul\":1667:1700   */\n      eq\n        /* \"#utility.yul\":1657:1718   */\n      tag_118\n      jumpi\n        /* \"#utility.yul\":1714:1715   */\n      0x00\n        /* \"#utility.yul\":1711:1712   */\n      0x00\n        /* \"#utility.yul\":1704:1716   */\n      revert\n        /* \"#utility.yul\":1657:1718   */\n    tag_118:\n        /* \"#utility.yul\":1606:1724   */\n      pop\n      jump\t// out\n        /* \"#utility.yul\":1730:1865   */\n    tag_88:\n        /* \"#utility.yul\":1774:1779   */\n      0x00\n        /* \"#utility.yul\":1812:1818   */\n      dup2\n        /* \"#utility.yul\":1799:1819   */\n      calldataload\n        /* \"#utility.yul\":1790:1819   */\n      swap1\n      pop\n        /* \"#utility.yul\":1828:1859   */\n      tag_120\n        /* \"#utility.yul\":1853:1858   */\n      dup2\n        /* \"#utility.yul\":1828:1859   */\n      tag_87\n      jump\t// in\n    tag_120:\n        /* \"#utility.yul\":1730:1865   */\n      swap3\n      swap2\n      pop\n      pop\n      jump\t// out\n        /* \"#utility.yul\":1871:2196   */\n    tag_17:\n        /* \"#utility.yul\":1928:1934   */\n      0x00\n        /* \"#utility.yul\":1977:1979   */\n      0x20\n        /* \"#utility.yul\":1965:1974   */\n      dup3\n        /* \"#utility.yul\":1956:1963   */\n      dup5\n        /* \"#utility.yul\":1952:1975   */\n      sub\n        /* \"#utility.yul\":1948:1980   */\n      slt\n        /* \"#utility.yul\":1945:2064   */\n      iszero\n      tag_122\n      jumpi\n        /* \"#utility.yul\":1983:2062   */\n      tag_123\n      tag_79\n      jump\t// in\n    tag_123:\n        /* \"#utility.yul\":1945:2064   */\n    tag_122:\n        /* \"#utility.yul\":2103:2104   */\n      0x00\n        /* \"#utility.yul\":2128:2179   */\n      tag_124\n        /* \"#utility.yul\":2171:2178   */\n      dup5\n        /* \"#utility.yul\":2162:2168   */\n      dup3\n        /* \"#utility.yul\":2151:2160   */\n      dup6\n        /* \"#utility.yul\":2147:2169   */\n      add\n        /* \"#utility.yul\":2128:2179   */\n      tag_88\n      jump\t// in\n    tag_124:\n        /* \"#utility.yul\":2118:2179   */\n      swap2\n      pop\n        /* \"#utility.yul\":2074:2189   */\n      pop\n        /* \"#utility.yul\":1871:2196   */\n      swap3\n      swap2\n      pop\n      pop\n      jump\t// out\n        /* \"#utility.yul\":2202:2382   */\n    tag_26:\n        /* \"#utility.yul\":2250:2327   */\n      0x4e487b7100000000000000000000000000000000000000000000000000000000\n        /* \"#utility.yul\":2247:2248   */\n      0x00\n        /* \"#utility.yul\":2240:2328   */\n      mstore\n        /* \"#utility.yul\":2347:2351   */\n      0x21\n        /* \"#utility.yul\":2344:2345   */\n      0x04\n        /* \"#utility.yul\":2337:2352   */\n      mstore\n        /* \"#utility.yul\":2371:2375   */\n      0x24\n        /* \"#utility.yul\":2368:2369   */\n      0x00\n        /* \"#utility.yul\":2361:2376   */\n      revert\n        /* \"#utility.yul\":2388:2501   */\n    tag_89:\n        /* \"#utility.yul\":2469:2470   */\n      0x04\n        /* \"#utility.yul\":2462:2467   */\n      dup2\n        /* \"#utility.yul\":2459:2471   */\n      lt\n        /* \"#utility.yul\":2449:2495   */\n      tag_127\n      jumpi\n        /* \"#utility.yul\":2475:2493   */\n      tag_128\n      tag_26\n      jump\t// in\n    tag_128:\n        /* \"#utility.yul\":2449:2495   */\n    tag_127:\n        /* \"#utility.yul\":2388:2501   */\n      pop\n      jump\t// out\n        /* \"#utility.yul\":2507:2634   */\n    tag_90:\n        /* \"#utility.yul\":2552:2559   */\n      0x00\n        /* \"#utility.yul\":2581:2586   */\n      dup2\n        /* \"#utility.yul\":2570:2586   */\n      swap1\n      pop\n        /* \"#utility.yul\":2587:2628   */\n      tag_130\n        /* \"#utility.yul\":2622:2627   */\n      dup3\n        /* \"#utility.yul\":2587:2628   */\n      tag_89\n      jump\t// in\n    tag_130:\n        /* \"#utility.yul\":2507:2634   */\n      swap2\n      swap1\n      pop\n      jump\t// out\n        /* \"#utility.yul\":2640:2767   */\n    tag_91:\n        /* \"#utility.yul\":2696:2705   */\n      0x00\n        /* \"#utility.yul\":2729:2761   */\n      tag_132\n        /* \"#utility.yul\":2755:2760   */\n      dup3\n        /* \"#utility.yul\":2729:2761   */\n      tag_90\n      jump\t// in\n    tag_132:\n        /* \"#utility.yul\":2716:2761   */\n      swap1\n      pop\n        /* \"#utility.yul\":2640:2767   */\n      swap2\n      swap1\n      pop\n      jump\t// out\n        /* \"#utility.yul\":2773:2916   */\n    tag_92:\n        /* \"#utility.yul\":2866:2909   */\n      tag_134\n        /* \"#utility.yul\":2903:2908   */\n      dup2\n        /* \"#utility.yul\":2866:2909   */\n      tag_91\n      jump\t// in\n    tag_134:\n        /* \"#utility.yul\":2861:2864   */\n      dup3\n        /* \"#utility.yul\":2854:2910   */\n      mstore\n        /* \"#utility.yul\":2773:2916   */\n      pop\n      pop\n      jump\t// out\n        /* \"#utility.yul\":2922:3156   */\n    tag_22:\n        /* \"#utility.yul\":3021:3025   */\n      0x00\n        /* \"#utility.yul\":3059:3061   */\n      0x20\n        /* \"#utility.yul\":3048:3057   */\n      dup3\n        /* \"#utility.yul\":3044:3062   */\n      add\n        /* \"#utility.yul\":3036:3062   */\n      swap1\n      pop\n        /* \"#utility.yul\":3072:3149   */\n      tag_136\n        /* \"#utility.yul\":3146:3147   */\n      0x00\n        /* \"#utility.yul\":3135:3144   */\n      dup4\n        /* \"#utility.yul\":3131:3148   */\n      add\n        /* \"#utility.yul\":3122:3128   */\n      dup5\n        /* \"#utility.yul\":3072:3149   */\n      tag_92\n      jump\t// in\n    tag_136:\n        /* \"#utility.yul\":2922:3156   */\n      swap3\n      swap2\n      pop\n      pop\n      jump\t// out\n        /* \"#utility.yul\":3162:3239   */\n    tag_93:\n        /* \"#utility.yul\":3199:3206   */\n      0x00\n        /* \"#utility.yul\":3228:3233   */\n      dup2\n        /* \"#utility.yul\":3217:3233   */\n      swap1\n      pop\n        /* \"#utility.yul\":3162:3239   */\n      swap2\n      swap1\n      pop\n      jump\t// out\n        /* \"#utility.yul\":3245:3425   */\n    tag_94:\n        /* \"#utility.yul\":3293:3370   */\n      0x4e487b7100000000000000000000000000000000000000000000000000000000\n        /* \"#utility.yul\":3290:3291   */\n      0x00\n        /* \"#utility.yul\":3283:3371   */\n      mstore\n        /* \"#utility.yul\":3390:3394   */\n      0x11\n        /* \"#utility.yul\":3387:3388   */\n      0x04\n        /* \"#utility.yul\":3380:3395   */\n      mstore\n        /* \"#utility.yul\":3414:3418   */\n      0x24\n        /* \"#utility.yul\":3411:3412   */\n      0x00\n        /* \"#utility.yul\":3404:3419   */\n      revert\n        /* \"#utility.yul\":3431:3622   */\n    tag_34:\n        /* \"#utility.yul\":3471:3474   */\n      0x00\n        /* \"#utility.yul\":3490:3510   */\n      tag_140\n        /* \"#utility.yul\":3508:3509   */\n      dup3\n        /* \"#utility.yul\":3490:3510   */\n      tag_93\n      jump\t// in\n    tag_140:\n        /* \"#utility.yul\":3485:3510   */\n      swap2\n      pop\n        /* \"#utility.yul\":3524:3544   */\n      tag_141\n        /* \"#utility.yul\":3542:3543   */\n      dup4\n        /* \"#utility.yul\":3524:3544   */\n      tag_93\n      jump\t// in\n    tag_141:\n        /* \"#utility.yul\":3519:3544   */\n      swap3\n      pop\n        /* \"#utility.yul\":3567:3568   */\n      dup3\n        /* \"#utility.yul\":3564:3565   */\n      dup3\n        /* \"#utility.yul\":3560:3569   */\n      add\n        /* \"#utility.yul\":3553:3569   */\n      swap1\n      pop\n        /* \"#utility.yul\":3588:3591   */\n      dup1\n        /* \"#utility.yul\":3585:3586   */\n      dup3\n        /* \"#utility.yul\":3582:3592   */\n      gt\n        /* \"#utility.yul\":3579:3615   */\n      iszero\n      tag_142\n      jumpi\n        /* \"#utility.yul\":3595:3613   */\n      tag_143\n      tag_94\n      jump\t// in\n    tag_143:\n        /* \"#utility.yul\":3579:3615   */\n    tag_142:\n        /* \"#utility.yul\":3431:3622   */\n      swap3\n      swap2\n      pop\n      pop\n      jump\t// out\n        /* \"#utility.yul\":3628:3808   */\n    tag_50:\n        /* \"#utility.yul\":3676:3753   */\n      0x4e487b7100000000000000000000000000000000000000000000000000000000\n        /* \"#utility.yul\":3673:3674   */\n      0x00\n        /* \"#utility.yul\":3666:3754   */\n      mstore\n        /* \"#utility.yul\":3773:3777   */\n      0x32\n        /* \"#utility.yul\":3770:3771   */\n      0x04\n        /* \"#utility.yul\":3763:3778   */\n      mstore\n        /* \"#utility.yul\":3797:3801   */\n      0x24\n        /* \"#utility.yul\":3794:3795   */\n      0x00\n        /* \"#utility.yul\":3787:3802   */\n      revert\n        /* \"#utility.yul\":3814:3981   */\n    tag_57:\n        /* \"#utility.yul\":3851:3854   */\n      0x00\n        /* \"#utility.yul\":3874:3896   */\n      tag_146\n        /* \"#utility.yul\":3890:3895   */\n      dup3\n        /* \"#utility.yul\":3874:3896   */\n      tag_85\n      jump\t// in\n    tag_146:\n        /* \"#utility.yul\":3865:3896   */\n      swap2\n      pop\n        /* \"#utility.yul\":3918:3922   */\n      0xff\n        /* \"#utility.yul\":3911:3916   */\n      dup3\n        /* \"#utility.yul\":3908:3923   */\n      sub\n        /* \"#utility.yul\":3905:3946   */\n      tag_147\n      jumpi\n        /* \"#utility.yul\":3926:3944   */\n      tag_148\n      tag_94\n      jump\t// in\n    tag_148:\n        /* \"#utility.yul\":3905:3946   */\n    tag_147:\n        /* \"#utility.yul\":3973:3974   */\n      0x01\n        /* \"#utility.yul\":3966:3971   */\n      dup3\n        /* \"#utility.yul\":3962:3975   */\n      add\n        /* \"#utility.yul\":3955:3975   */\n      swap1\n      pop\n        /* \"#utility.yul\":3814:3981   */\n      swap2\n      swap1\n      pop\n      jump\t// out\n        /* \"#utility.yul\":3987:4167   */\n    tag_60:\n        /* \"#utility.yul\":4035:4112   */\n      0x4e487b7100000000000000000000000000000000000000000000000000000000\n        /* \"#utility.yul\":4032:4033   */\n      0x00\n        /* \"#utility.yul\":4025:4113   */\n      mstore\n        /* \"#utility.yul\":4132:4136   */\n      0x01\n        /* \"#utility.yul\":4129:4130   */\n      0x04\n        /* \"#utility.yul\":4122:4137   */\n      mstore\n        /* \"#utility.yul\":4156:4160   */\n      0x24\n        /* \"#utility.yul\":4153:4154   */\n      0x00\n        /* \"#utility.yul\":4146:4161   */\n      revert\n\n    auxdata: 0xa264697066735822122022b06d70df937c60ef0b18db50e4659d16174abdf685ffd3f3f128c49ef3ea6c64736f6c634300081e0033\n}\n",
				"bytecode": {
					"linkReferences": {},
					"object": "60806040525f5f5f6101000a81548160ff0219169083600381111561002757610026610190565b5b0217905550348015610037575f5ffd5b506040516109ec3803806109ec833981810160405281019061005991906101f7565b335f60016101000a81548173ffffffffffffffffffffffffffffffffffffffff021916908373ffffffffffffffffffffffffffffffffffffffff160217905550600260015f5f60019054906101000a900473ffffffffffffffffffffffffffffffffffffffff1673ffffffffffffffffffffffffffffffffffffffff1673ffffffffffffffffffffffffffffffffffffffff1681526020019081526020015f205f01819055505f5f90505b8160ff1681101561015957600260405180602001604052805f815250908060018154018082558091505060019003905f5260205f20015f909190919091505f820151815f015550508080600101915050610104565b5060015f5f6101000a81548160ff0219169083600381111561017e5761017d610190565b5b02179055504260038190555050610222565b7f4e487b71000000000000000000000000000000000000000000000000000000005f52602160045260245ffd5b5f5ffd5b5f60ff82169050919050565b6101d6816101c1565b81146101e0575f5ffd5b50565b5f815190506101f1816101cd565b92915050565b5f6020828403121561020c5761020b6101bd565b5b5f610219848285016101e3565b91505092915050565b6107bd8061022f5f395ff3fe608060405234801561000f575f5ffd5b506004361061004a575f3560e01c80634420e4861461004e578063609ff1bd1461006a578063b3f98adc14610088578063c040e6b8146100a4575b5f5ffd5b6100686004803603810190610063919061055c565b6100c2565b005b610072610289565b60405161007f91906105a2565b60405180910390f35b6100a2600480360381019061009d91906105e5565b61035b565b005b6100ac6104ed565b6040516100b99190610683565b60405180910390f35b60018060038111156100d7576100d6610610565b5b5f5f9054906101000a900460ff1660038111156100f7576100f6610610565b5b14610100575f5ffd5b5f60019054906101000a900473ffffffffffffffffffffffffffffffffffffffff1673ffffffffffffffffffffffffffffffffffffffff163373ffffffffffffffffffffffffffffffffffffffff161415806101a5575060015f8373ffffffffffffffffffffffffffffffffffffffff1673ffffffffffffffffffffffffffffffffffffffff1681526020019081526020015f206001015f9054906101000a900460ff165b610285576001805f8473ffffffffffffffffffffffffffffffffffffffff1673ffffffffffffffffffffffffffffffffffffffff1681526020019081526020015f205f01819055505f60015f8473ffffffffffffffffffffffffffffffffffffffff1673ffffffffffffffffffffffffffffffffffffffff1681526020019081526020015f206001015f6101000a81548160ff021916908315150217905550601e60035461025391906106d2565b4211156102845760025f5f6101000a81548160ff0219169083600381111561027e5761027d610610565b5b02179055505b5b5050565b5f600380600381111561029f5761029e610610565b5b5f5f9054906101000a900460ff1660038111156102bf576102be610610565b5b146102c8575f5ffd5b5f5f90505f5f90505b6002805490508160ff161015610345578160028260ff16815481106102f9576102f8610705565b5b905f5260205f20015f015411156103325760028160ff168154811061032157610320610705565b5b905f5260205f20015f015491508093505b808061033d90610732565b9150506102d1565b505f81116103565761035561075a565b5b505090565b60028060038111156103705761036f610610565b5b5f5f9054906101000a900460ff1660038111156103905761038f610610565b5b14610399575f5ffd5b5f60015f3373ffffffffffffffffffffffffffffffffffffffff1673ffffffffffffffffffffffffffffffffffffffff1681526020019081526020015f209050806001015f9054906101000a900460ff16806103fd57506002805490508360ff1610155b1561040857506104e9565b6001816001015f6101000a81548160ff021916908315150217905550828160010160016101000a81548160ff021916908360ff160217905550805f015460028460ff168154811061045c5761045b610705565b5b905f5260205f20015f015f82825461047491906106d2565b92505081905550601e60035461048a91906106d2565b4211156104e75760035f5f6101000a81548160ff021916908360038111156104b5576104b4610610565b5b02179055507f6ac0c89219f0135e3a87cecdf1851abced71da933a0a00e1eada0ef03538235160405160405180910390a15b505b5050565b5f5f9054906101000a900460ff1681565b5f5ffd5b5f73ffffffffffffffffffffffffffffffffffffffff82169050919050565b5f61052b82610502565b9050919050565b61053b81610521565b8114610545575f5ffd5b50565b5f8135905061055681610532565b92915050565b5f60208284031215610571576105706104fe565b5b5f61057e84828501610548565b91505092915050565b5f60ff82169050919050565b61059c81610587565b82525050565b5f6020820190506105b55f830184610593565b92915050565b6105c481610587565b81146105ce575f5ffd5b50565b5f813590506105df816105bb565b92915050565b5f602082840312156105fa576105f96104fe565b5b5f610607848285016105d1565b91505092915050565b7f4e487b71000000000000000000000000000000000000000000000000000000005f52602160045260245ffd5b6004811061064e5761064d610610565b5b50565b5f81905061065e8261063d565b919050565b5f61066d82610651565b9050919050565b61067d81610663565b82525050565b5f6020820190506106965f830184610674565b92915050565b5f819050919050565b7f4e487b71000000000000000000000000000000000000000000000000000000005f52601160045260245ffd5b5f6106dc8261069c565b91506106e78361069c565b92508282019050808211156106ff576106fe6106a5565b5b92915050565b7f4e487b71000000000000000000000000000000000000000000000000000000005f52603260045260245ffd5b5f61073c82610587565b915060ff820361074f5761074e6106a5565b5b600182019050919050565b7f4e487b71000000000000000000000000000000000000000000000000000000005f52600160045260245ffdfea264697066735822122022b06d70df937c60ef0b18db50e4659d16174abdf685ffd3f3f128c49ef3ea6c64736f6c634300081e0033",
					"opcodes": "PUSH1 0x80 PUSH1 0x40 MSTORE PUSH0 PUSH0 PUSH0 PUSH2 0x100 EXP DUP2 SLOAD DUP2 PUSH1 0xFF MUL NOT AND SWAP1 DUP4 PUSH1 0x3 DUP2 GT ISZERO PUSH2 0x27 JUMPI PUSH2 0x26 PUSH2 0x190 JUMP JUMPDEST JUMPDEST MUL OR SWAP1 SSTORE POP CALLVALUE DUP1 ISZERO PUSH2 0x37 JUMPI PUSH0 PUSH0 REVERT JUMPDEST POP PUSH1 0x40 MLOAD PUSH2 0x9EC CODESIZE SUB DUP1 PUSH2 0x9EC DUP4 CODECOPY DUP2 DUP2 ADD PUSH1 0x40 MSTORE DUP2 ADD SWAP1 PUSH2 0x59 SWAP2 SWAP1 PUSH2 0x1F7 JUMP JUMPDEST CALLER PUSH0 PUSH1 0x1 PUSH2 0x100 EXP DUP2 SLOAD DUP2 PUSH20 0xFFFFFFFFFFFFFFFFFFFFFFFFFFFFFFFFFFFFFFFF MUL NOT AND SWAP1 DUP4 PUSH20 0xFFFFFFFFFFFFFFFFFFFFFFFFFFFFFFFFFFFFFFFF AND MUL OR SWAP1 SSTORE POP PUSH1 0x2 PUSH1 0x1 PUSH0 PUSH0 PUSH1 0x1 SWAP1 SLOAD SWAP1 PUSH2 0x100 EXP SWAP1 DIV PUSH20 0xFFFFFFFFFFFFFFFFFFFFFFFFFFFFFFFFFFFFFFFF AND PUSH20 0xFFFFFFFFFFFFFFFFFFFFFFFFFFFFFFFFFFFFFFFF AND PUSH20 0xFFFFFFFFFFFFFFFFFFFFFFFFFFFFFFFFFFFFFFFF AND DUP2 MSTORE PUSH1 0x20 ADD SWAP1 DUP2 MSTORE PUSH1 0x20 ADD PUSH0 KECCAK256 PUSH0 ADD DUP2 SWAP1 SSTORE POP PUSH0 PUSH0 SWAP1 POP JUMPDEST DUP2 PUSH1 0xFF AND DUP2 LT ISZERO PUSH2 0x159 JUMPI PUSH1 0x2 PUSH1 0x40 MLOAD DUP1 PUSH1 0x20 ADD PUSH1 0x40 MSTORE DUP1 PUSH0 DUP2 MSTORE POP SWAP1 DUP1 PUSH1 0x1 DUP2 SLOAD ADD DUP1 DUP3 SSTORE DUP1 SWAP2 POP POP PUSH1 0x1 SWAP1 SUB SWAP1 PUSH0 MSTORE PUSH1 0x20 PUSH0 KECCAK256 ADD PUSH0 SWAP1 SWAP2 SWAP1 SWAP2 SWAP1 SWAP2 POP PUSH0 DUP3 ADD MLOAD DUP2 PUSH0 ADD SSTORE POP POP DUP1 DUP1 PUSH1 0x1 ADD SWAP2 POP POP PUSH2 0x104 JUMP JUMPDEST POP PUSH1 0x1 PUSH0 PUSH0 PUSH2 0x100 EXP DUP2 SLOAD DUP2 PUSH1 0xFF MUL NOT AND SWAP1 DUP4 PUSH1 0x3 DUP2 GT ISZERO PUSH2 0x17E JUMPI PUSH2 0x17D PUSH2 0x190 JUMP JUMPDEST JUMPDEST MUL OR SWAP1 SSTORE POP TIMESTAMP PUSH1 0x3 DUP2 SWAP1 SSTORE POP POP PUSH2 0x222 JUMP JUMPDEST PUSH32 0x4E487B7100000000000000000000000000000000000000000000000000000000 PUSH0 MSTORE PUSH1 0x21 PUSH1 0x4 MSTORE PUSH1 0x24 PUSH0 REVERT JUMPDEST PUSH0 PUSH0 REVERT JUMPDEST PUSH0 PUSH1 0xFF DUP3 AND SWAP1 POP SWAP2 SWAP1 POP JUMP JUMPDEST PUSH2 0x1D6 DUP2 PUSH2 0x1C1 JUMP JUMPDEST DUP2 EQ PUSH2 0x1E0 JUMPI PUSH0 PUSH0 REVERT JUMPDEST POP JUMP JUMPDEST PUSH0 DUP2 MLOAD SWAP1 POP PUSH2 0x1F1 DUP2 PUSH2 0x1CD JUMP JUMPDEST SWAP3 SWAP2 POP POP JUMP JUMPDEST PUSH0 PUSH1 0x20 DUP3 DUP5 SUB SLT ISZERO PUSH2 0x20C JUMPI PUSH2 0x20B PUSH2 0x1BD JUMP JUMPDEST JUMPDEST PUSH0 PUSH2 0x219 DUP5 DUP3 DUP6 ADD PUSH2 0x1E3 JUMP JUMPDEST SWAP2 POP POP SWAP3 SWAP2 POP POP JUMP JUMPDEST PUSH2 0x7BD DUP1 PUSH2 0x22F PUSH0 CODECOPY PUSH0 RETURN INVALID PUSH1 0x80 PUSH1 0x40 MSTORE CALLVALUE DUP1 ISZERO PUSH2 0xF JUMPI PUSH0 PUSH0 REVERT JUMPDEST POP PUSH1 0x4 CALLDATASIZE LT PUSH2 0x4A JUMPI PUSH0 CALLDATALOAD PUSH1 0xE0 SHR DUP1 PUSH4 0x4420E486 EQ PUSH2 0x4E JUMPI DUP1 PUSH4 0x609FF1BD EQ PUSH2 0x6A JUMPI DUP1 PUSH4 0xB3F98ADC EQ PUSH2 0x88 JUMPI DUP1 PUSH4 0xC040E6B8 EQ PUSH2 0xA4 JUMPI JUMPDEST PUSH0 PUSH0 REVERT JUMPDEST PUSH2 0x68 PUSH1 0x4 DUP1 CALLDATASIZE SUB DUP2 ADD SWAP1 PUSH2 0x63 SWAP2 SWAP1 PUSH2 0x55C JUMP JUMPDEST PUSH2 0xC2 JUMP JUMPDEST STOP JUMPDEST PUSH2 0x72 PUSH2 0x289 JUMP JUMPDEST PUSH1 0x40 MLOAD PUSH2 0x7F SWAP2 SWAP1 PUSH2 0x5A2 JUMP JUMPDEST PUSH1 0x40 MLOAD DUP1 SWAP2 SUB SWAP1 RETURN JUMPDEST PUSH2 0xA2 PUSH1 0x4 DUP1 CALLDATASIZE SUB DUP2 ADD SWAP1 PUSH2 0x9D SWAP2 SWAP1 PUSH2 0x5E5 JUMP JUMPDEST PUSH2 0x35B JUMP JUMPDEST STOP JUMPDEST PUSH2 0xAC PUSH2 0x4ED JUMP JUMPDEST PUSH1 0x40 MLOAD PUSH2 0xB9 SWAP2 SWAP1 PUSH2 0x683 JUMP JUMPDEST PUSH1 0x40 MLOAD DUP1 SWAP2 SUB SWAP1 RETURN JUMPDEST PUSH1 0x1 DUP1 PUSH1 0x3 DUP2 GT ISZERO PUSH2 0xD7 JUMPI PUSH2 0xD6 PUSH2 0x610 JUMP JUMPDEST JUMPDEST PUSH0 PUSH0 SWAP1 SLOAD SWAP1 PUSH2 0x100 EXP SWAP1 DIV PUSH1 0xFF AND PUSH1 0x3 DUP2 GT ISZERO PUSH2 0xF7 JUMPI PUSH2 0xF6 PUSH2 0x610 JUMP JUMPDEST JUMPDEST EQ PUSH2 0x100 JUMPI PUSH0 PUSH0 REVERT JUMPDEST PUSH0 PUSH1 0x1 SWAP1 SLOAD SWAP1 PUSH2 0x100 EXP SWAP1 DIV PUSH20 0xFFFFFFFFFFFFFFFFFFFFFFFFFFFFFFFFFFFFFFFF AND PUSH20 0xFFFFFFFFFFFFFFFFFFFFFFFFFFFFFFFFFFFFFFFF AND CALLER PUSH20 0xFFFFFFFFFFFFFFFFFFFFFFFFFFFFFFFFFFFFFFFF AND EQ ISZERO DUP1 PUSH2 0x1A5 JUMPI POP PUSH1 0x1 PUSH0 DUP4 PUSH20 0xFFFFFFFFFFFFFFFFFFFFFFFFFFFFFFFFFFFFFFFF AND PUSH20 0xFFFFFFFFFFFFFFFFFFFFFFFFFFFFFFFFFFFFFFFF AND DUP2 MSTORE PUSH1 0x20 ADD SWAP1 DUP2 MSTORE PUSH1 0x20 ADD PUSH0 KECCAK256 PUSH1 0x1 ADD PUSH0 SWAP1 SLOAD SWAP1 PUSH2 0x100 EXP SWAP1 DIV PUSH1 0xFF AND JUMPDEST PUSH2 0x285 JUMPI PUSH1 0x1 DUP1 PUSH0 DUP5 PUSH20 0xFFFFFFFFFFFFFFFFFFFFFFFFFFFFFFFFFFFFFFFF AND PUSH20 0xFFFFFFFFFFFFFFFFFFFFFFFFFFFFFFFFFFFFFFFF AND DUP2 MSTORE PUSH1 0x20 ADD SWAP1 DUP2 MSTORE PUSH1 0x20 ADD PUSH0 KECCAK256 PUSH0 ADD DUP2 SWAP1 SSTORE POP PUSH0 PUSH1 0x1 PUSH0 DUP5 PUSH20 0xFFFFFFFFFFFFFFFFFFFFFFFFFFFFFFFFFFFFFFFF AND PUSH20 0xFFFFFFFFFFFFFFFFFFFFFFFFFFFFFFFFFFFFFFFF AND DUP2 MSTORE PUSH1 0x20 ADD SWAP1 DUP2 MSTORE PUSH1 0x20 ADD PUSH0 KECCAK256 PUSH1 0x1 ADD PUSH0 PUSH2 0x100 EXP DUP2 SLOAD DUP2 PUSH1 0xFF MUL NOT AND SWAP1 DUP4 ISZERO ISZERO MUL OR SWAP1 SSTORE POP PUSH1 0x1E PUSH1 0x3 SLOAD PUSH2 0x253 SWAP2 SWAP1 PUSH2 0x6D2 JUMP JUMPDEST TIMESTAMP GT ISZERO PUSH2 0x284 JUMPI PUSH1 0x2 PUSH0 PUSH0 PUSH2 0x100 EXP DUP2 SLOAD DUP2 PUSH1 0xFF MUL NOT AND SWAP1 DUP4 PUSH1 0x3 DUP2 GT ISZERO PUSH2 0x27E JUMPI PUSH2 0x27D PUSH2 0x610 JUMP JUMPDEST JUMPDEST MUL OR SWAP1 SSTORE POP JUMPDEST JUMPDEST POP POP JUMP JUMPDEST PUSH0 PUSH1 0x3 DUP1 PUSH1 0x3 DUP2 GT ISZERO PUSH2 0x29F JUMPI PUSH2 0x29E PUSH2 0x610 JUMP JUMPDEST JUMPDEST PUSH0 PUSH0 SWAP1 SLOAD SWAP1 PUSH2 0x100 EXP SWAP1 DIV PUSH1 0xFF AND PUSH1 0x3 DUP2 GT ISZERO PUSH2 0x2BF JUMPI PUSH2 0x2BE PUSH2 0x610 JUMP JUMPDEST JUMPDEST EQ PUSH2 0x2C8 JUMPI PUSH0 PUSH0 REVERT JUMPDEST PUSH0 PUSH0 SWAP1 POP PUSH0 PUSH0 SWAP1 POP JUMPDEST PUSH1 0x2 DUP1 SLOAD SWAP1 POP DUP2 PUSH1 0xFF AND LT ISZERO PUSH2 0x345 JUMPI DUP2 PUSH1 0x2 DUP3 PUSH1 0xFF AND DUP2 SLOAD DUP2 LT PUSH2 0x2F9 JUMPI PUSH2 0x2F8 PUSH2 0x705 JUMP JUMPDEST JUMPDEST SWAP1 PUSH0 MSTORE PUSH1 0x20 PUSH0 KECCAK256 ADD PUSH0 ADD SLOAD GT ISZERO PUSH2 0x332 JUMPI PUSH1 0x2 DUP2 PUSH1 0xFF AND DUP2 SLOAD DUP2 LT PUSH2 0x321 JUMPI PUSH2 0x320 PUSH2 0x705 JUMP JUMPDEST JUMPDEST SWAP1 PUSH0 MSTORE PUSH1 0x20 PUSH0 KECCAK256 ADD PUSH0 ADD SLOAD SWAP2 POP DUP1 SWAP4 POP JUMPDEST DUP1 DUP1 PUSH2 0x33D SWAP1 PUSH2 0x732 JUMP JUMPDEST SWAP2 POP POP PUSH2 0x2D1 JUMP JUMPDEST POP PUSH0 DUP2 GT PUSH2 0x356 JUMPI PUSH2 0x355 PUSH2 0x75A JUMP JUMPDEST JUMPDEST POP POP SWAP1 JUMP JUMPDEST PUSH1 0x2 DUP1 PUSH1 0x3 DUP2 GT ISZERO PUSH2 0x370 JUMPI PUSH2 0x36F PUSH2 0x610 JUMP JUMPDEST JUMPDEST PUSH0 PUSH0 SWAP1 SLOAD SWAP1 PUSH2 0x100 EXP SWAP1 DIV PUSH1 0xFF AND PUSH1 0x3 DUP2 GT ISZERO PUSH2 0x390 JUMPI PUSH2 0x38F PUSH2 0x610 JUMP JUMPDEST JUMPDEST EQ PUSH2 0x399 JUMPI PUSH0 PUSH0 REVERT JUMPDEST PUSH0 PUSH1 0x1 PUSH0 CALLER PUSH20 0xFFFFFFFFFFFFFFFFFFFFFFFFFFFFFFFFFFFFFFFF AND PUSH20 0xFFFFFFFFFFFFFFFFFFFFFFFFFFFFFFFFFFFFFFFF AND DUP2 MSTORE PUSH1 0x20 ADD SWAP1 DUP2 MSTORE PUSH1 0x20 ADD PUSH0 KECCAK256 SWAP1 POP DUP1 PUSH1 0x1 ADD PUSH0 SWAP1 SLOAD SWAP1 PUSH2 0x100 EXP SWAP1 DIV PUSH1 0xFF AND DUP1 PUSH2 0x3FD JUMPI POP PUSH1 0x2 DUP1 SLOAD SWAP1 POP DUP4 PUSH1 0xFF AND LT ISZERO JUMPDEST ISZERO PUSH2 0x408 JUMPI POP PUSH2 0x4E9 JUMP JUMPDEST PUSH1 0x1 DUP2 PUSH1 0x1 ADD PUSH0 PUSH2 0x100 EXP DUP2 SLOAD DUP2 PUSH1 0xFF MUL NOT AND SWAP1 DUP4 ISZERO ISZERO MUL OR SWAP1 SSTORE POP DUP3 DUP2 PUSH1 0x1 ADD PUSH1 0x1 PUSH2 0x100 EXP DUP2 SLOAD DUP2 PUSH1 0xFF MUL NOT AND SWAP1 DUP4 PUSH1 0xFF AND MUL OR SWAP1 SSTORE POP DUP1 PUSH0 ADD SLOAD PUSH1 0x2 DUP5 PUSH1 0xFF AND DUP2 SLOAD DUP2 LT PUSH2 0x45C JUMPI PUSH2 0x45B PUSH2 0x705 JUMP JUMPDEST JUMPDEST SWAP1 PUSH0 MSTORE PUSH1 0x20 PUSH0 KECCAK256 ADD PUSH0 ADD PUSH0 DUP3 DUP3 SLOAD PUSH2 0x474 SWAP2 SWAP1 PUSH2 0x6D2 JUMP JUMPDEST SWAP3 POP POP DUP2 SWAP1 SSTORE POP PUSH1 0x1E PUSH1 0x3 SLOAD PUSH2 0x48A SWAP2 SWAP1 PUSH2 0x6D2 JUMP JUMPDEST TIMESTAMP GT ISZERO PUSH2 0x4E7 JUMPI PUSH1 0x3 PUSH0 PUSH0 PUSH2 0x100 EXP DUP2 SLOAD DUP2 PUSH1 0xFF MUL NOT AND SWAP1 DUP4 PUSH1 0x3 DUP2 GT ISZERO PUSH2 0x4B5 JUMPI PUSH2 0x4B4 PUSH2 0x610 JUMP JUMPDEST JUMPDEST MUL OR SWAP1 SSTORE POP PUSH32 0x6AC0C89219F0135E3A87CECDF1851ABCED71DA933A0A00E1EADA0EF035382351 PUSH1 0x40 MLOAD PUSH1 0x40 MLOAD DUP1 SWAP2 SUB SWAP1 LOG1 JUMPDEST POP JUMPDEST POP POP JUMP JUMPDEST PUSH0 PUSH0 SWAP1 SLOAD SWAP1 PUSH2 0x100 EXP SWAP1 DIV PUSH1 0xFF AND DUP2 JUMP JUMPDEST PUSH0 PUSH0 REVERT JUMPDEST PUSH0 PUSH20 0xFFFFFFFFFFFFFFFFFFFFFFFFFFFFFFFFFFFFFFFF DUP3 AND SWAP1 POP SWAP2 SWAP1 POP JUMP JUMPDEST PUSH0 PUSH2 0x52B DUP3 PUSH2 0x502 JUMP JUMPDEST SWAP1 POP SWAP2 SWAP1 POP JUMP JUMPDEST PUSH2 0x53B DUP2 PUSH2 0x521 JUMP JUMPDEST DUP2 EQ PUSH2 0x545 JUMPI PUSH0 PUSH0 REVERT JUMPDEST POP JUMP JUMPDEST PUSH0 DUP2 CALLDATALOAD SWAP1 POP PUSH2 0x556 DUP2 PUSH2 0x532 JUMP JUMPDEST SWAP3 SWAP2 POP POP JUMP JUMPDEST PUSH0 PUSH1 0x20 DUP3 DUP5 SUB SLT ISZERO PUSH2 0x571 JUMPI PUSH2 0x570 PUSH2 0x4FE JUMP JUMPDEST JUMPDEST PUSH0 PUSH2 0x57E DUP5 DUP3 DUP6 ADD PUSH2 0x548 JUMP JUMPDEST SWAP2 POP POP SWAP3 SWAP2 POP POP JUMP JUMPDEST PUSH0 PUSH1 0xFF DUP3 AND SWAP1 POP SWAP2 SWAP1 POP JUMP JUMPDEST PUSH2 0x59C DUP2 PUSH2 0x587 JUMP JUMPDEST DUP3 MSTORE POP POP JUMP JUMPDEST PUSH0 PUSH1 0x20 DUP3 ADD SWAP1 POP PUSH2 0x5B5 PUSH0 DUP4 ADD DUP5 PUSH2 0x593 JUMP JUMPDEST SWAP3 SWAP2 POP POP JUMP JUMPDEST PUSH2 0x5C4 DUP2 PUSH2 0x587 JUMP JUMPDEST DUP2 EQ PUSH2 0x5CE JUMPI PUSH0 PUSH0 REVERT JUMPDEST POP JUMP JUMPDEST PUSH0 DUP2 CALLDATALOAD SWAP1 POP PUSH2 0x5DF DUP2 PUSH2 0x5BB JUMP JUMPDEST SWAP3 SWAP2 POP POP JUMP JUMPDEST PUSH0 PUSH1 0x20 DUP3 DUP5 SUB SLT ISZERO PUSH2 0x5FA JUMPI PUSH2 0x5F9 PUSH2 0x4FE JUMP JUMPDEST JUMPDEST PUSH0 PUSH2 0x607 DUP5 DUP3 DUP6 ADD PUSH2 0x5D1 JUMP JUMPDEST SWAP2 POP POP SWAP3 SWAP2 POP POP JUMP JUMPDEST PUSH32 0x4E487B7100000000000000000000000000000000000000000000000000000000 PUSH0 MSTORE PUSH1 0x21 PUSH1 0x4 MSTORE PUSH1 0x24 PUSH0 REVERT JUMPDEST PUSH1 0x4 DUP2 LT PUSH2 0x64E JUMPI PUSH2 0x64D PUSH2 0x610 JUMP JUMPDEST JUMPDEST POP JUMP JUMPDEST PUSH0 DUP2 SWAP1 POP PUSH2 0x65E DUP3 PUSH2 0x63D JUMP JUMPDEST SWAP2 SWAP1 POP JUMP JUMPDEST PUSH0 PUSH2 0x66D DUP3 PUSH2 0x651 JUMP JUMPDEST SWAP1 POP SWAP2 SWAP1 POP JUMP JUMPDEST PUSH2 0x67D DUP2 PUSH2 0x663 JUMP JUMPDEST DUP3 MSTORE POP POP JUMP JUMPDEST PUSH0 PUSH1 0x20 DUP3 ADD SWAP1 POP PUSH2 0x696 PUSH0 DUP4 ADD DUP5 PUSH2 0x674 JUMP JUMPDEST SWAP3 SWAP2 POP POP JUMP JUMPDEST PUSH0 DUP2 SWAP1 POP SWAP2 SWAP1 POP JUMP JUMPDEST PUSH32 0x4E487B7100000000000000000000000000000000000000000000000000000000 PUSH0 MSTORE PUSH1 0x11 PUSH1 0x4 MSTORE PUSH1 0x24 PUSH0 REVERT JUMPDEST PUSH0 PUSH2 0x6DC DUP3 PUSH2 0x69C JUMP JUMPDEST SWAP2 POP PUSH2 0x6E7 DUP4 PUSH2 0x69C JUMP JUMPDEST SWAP3 POP DUP3 DUP3 ADD SWAP1 POP DUP1 DUP3 GT ISZERO PUSH2 0x6FF JUMPI PUSH2 0x6FE PUSH2 0x6A5 JUMP JUMPDEST JUMPDEST SWAP3 SWAP2 POP POP JUMP JUMPDEST PUSH32 0x4E487B7100000000000000000000000000000000000000000000000000000000 PUSH0 MSTORE PUSH1 0x32 PUSH1 0x4 MSTORE PUSH1 0x24 PUSH0 REVERT JUMPDEST PUSH0 PUSH2 0x73C DUP3 PUSH2 0x587 JUMP JUMPDEST SWAP2 POP PUSH1 0xFF DUP3 SUB PUSH2 0x74F JUMPI PUSH2 0x74E PUSH2 0x6A5 JUMP JUMPDEST JUMPDEST PUSH1 0x1 DUP3 ADD SWAP1 POP SWAP2 SWAP1 POP JUMP JUMPDEST PUSH32 0x4E487B7100000000000000000000000000000000000000000000000000000000 PUSH0 MSTORE PUSH1 0x1 PUSH1 0x4 MSTORE PUSH1 0x24 PUSH0 REVERT INVALID LOG2 PUSH5 0x6970667358 0x22 SLT KECCAK256 0x22 0xB0 PUSH14 0x70DF937C60EF0B18DB50E4659D16 OR BLOBBASEFEE 0xBD 0xF6 DUP6 SELFDESTRUCT 0xD3 RETURN CALL 0x28 0xC4 SWAP15 RETURN 0xEA PUSH13 0x64736F6C634300081E00330000 "
				},
				"gasEstimates": {
					"creation": {
						"codeDepositCost": "396200",
						"executionCost": "infinite",
						"totalCost": "infinite"
					},
					"external": {
						"register(address)": "infinite",
						"stage()": "2597",
						"vote(uint8)": "infinite",
						"winningProposal()": "infinite"
					}
				},
				"methodIdentifiers": {
					"register(address)": "4420e486",
					"stage()": "c040e6b8",
					"vote(uint8)": "b3f98adc",
					"winningProposal()": "609ff1bd"
				}
			},
			"storageLayout": {
				"storage": [
					{
						"astId": 23,
						"contract": "contracts/cDjwOUThEeigbgqkS_SCag_704ff9e044e111e8894077d0de49d9cb_BallotWithModifier.sol:Ballot",
						"label": "stage",
						"offset": 0,
						"slot": "0",
						"type": "t_enum(Stage)18"
					},
					{
						"astId": 25,
						"contract": "contracts/cDjwOUThEeigbgqkS_SCag_704ff9e044e111e8894077d0de49d9cb_BallotWithModifier.sol:Ballot",
						"label": "chairperson",
						"offset": 1,
						"slot": "0",
						"type": "t_address"
					},
					{
						"astId": 30,
						"contract": "contracts/cDjwOUThEeigbgqkS_SCag_704ff9e044e111e8894077d0de49d9cb_BallotWithModifier.sol:Ballot",
						"label": "voters",
						"offset": 0,
						"slot": "1",
						"type": "t_mapping(t_address,t_struct(Voter)10_storage)"
					},
					{
						"astId": 34,
						"contract": "contracts/cDjwOUThEeigbgqkS_SCag_704ff9e044e111e8894077d0de49d9cb_BallotWithModifier.sol:Ballot",
						"label": "proposals",
						"offset": 0,
						"slot": "2",
						"type": "t_array(t_struct(Proposal)13_storage)dyn_storage"
					},
					{
						"astId": 38,
						"contract": "contracts/cDjwOUThEeigbgqkS_SCag_704ff9e044e111e8894077d0de49d9cb_BallotWithModifier.sol:Ballot",
						"label": "startTime",
						"offset": 0,
						"slot": "3",
						"type": "t_uint256"
					}
				],
				"types": {
					"t_address": {
						"encoding": "inplace",
						"label": "address",
						"numberOfBytes": "20"
					},
					"t_array(t_struct(Proposal)13_storage)dyn_storage": {
						"base": "t_struct(Proposal)13_storage",
						"encoding": "dynamic_array",
						"label": "struct Ballot.Proposal[]",
						"numberOfBytes": "32"
					},
					"t_bool": {
						"encoding": "inplace",
						"label": "bool",
						"numberOfBytes": "1"
					},
					"t_enum(Stage)18": {
						"encoding": "inplace",
						"label": "enum Ballot.Stage",
						"numberOfBytes": "1"
					},
					"t_mapping(t_address,t_struct(Voter)10_storage)": {
						"encoding": "mapping",
						"key": "t_address",
						"label": "mapping(address => struct Ballot.Voter)",
						"numberOfBytes": "32",
						"value": "t_struct(Voter)10_storage"
					},
					"t_struct(Proposal)13_storage": {
						"encoding": "inplace",
						"label": "struct Ballot.Proposal",
						"members": [
							{
								"astId": 12,
								"contract": "contracts/cDjwOUThEeigbgqkS_SCag_704ff9e044e111e8894077d0de49d9cb_BallotWithModifier.sol:Ballot",
								"label": "voteCount",
								"offset": 0,
								"slot": "0",
								"type": "t_uint256"
							}
						],
						"numberOfBytes": "32"
					},
					"t_struct(Voter)10_storage": {
						"encoding": "inplace",
						"label": "struct Ballot.Voter",
						"members": [
							{
								"astId": 3,
								"contract": "contracts/cDjwOUThEeigbgqkS_SCag_704ff9e044e111e8894077d0de49d9cb_BallotWithModifier.sol:Ballot",
								"label": "weight",
								"offset": 0,
								"slot": "0",
								"type": "t_uint256"
							},
							{
								"astId": 5,
								"contract": "contracts/cDjwOUThEeigbgqkS_SCag_704ff9e044e111e8894077d0de49d9cb_BallotWithModifier.sol:Ballot",
								"label": "voted",
								"offset": 0,
								"slot": "1",
								"type": "t_bool"
							},
							{
								"astId": 7,
								"contract": "contracts/cDjwOUThEeigbgqkS_SCag_704ff9e044e111e8894077d0de49d9cb_BallotWithModifier.sol:Ballot",
								"label": "vote",
								"offset": 1,
								"slot": "1",
								"type": "t_uint8"
							},
							{
								"astId": 9,
								"contract": "contracts/cDjwOUThEeigbgqkS_SCag_704ff9e044e111e8894077d0de49d9cb_BallotWithModifier.sol:Ballot",
								"label": "delegate",
								"offset": 2,
								"slot": "1",
								"type": "t_address"
							}
						],
						"numberOfBytes": "64"
					},
					"t_uint256": {
						"encoding": "inplace",
						"label": "uint256",
						"numberOfBytes": "32"
					},
					"t_uint8": {
						"encoding": "inplace",
						"label": "uint8",
						"numberOfBytes": "1"
					}
				}
			},
			"userdoc": {
				"kind": "user",
				"methods": {
					"constructor": {
						"notice": "Create a new ballot with $(_numProposals) different proposals."
					},
					"register(address)": {
						"notice": "Give $(toVoter) the right to vote on this ballot. May only be called by $(chairperson)."
					},
					"vote(uint8)": {
						"notice": "Give a single vote to proposal $(toProposal)."
					}
				},
				"version": 1
			}
		}
	}
}